:040000003AEF22F0C1
:1000080000C01BF001C01AF002C019F003C018F0BC
:100018000BC017F00CC016F00DC015F0E1CF1CF0A6
:10002800E2CF1DF0F2A250D330524CE086EC1EF025
:10003800306A3B0E2C6E000E2D6E226A236A020176
:10004800FA6B92EC21F0300E0024386E010EFA6F34
:1000580092EC21F0300E0024396E020EFA6F92EC09
:1000680021F0300E00243A6E2E0E406E430E416E83
:10007800530E426E560E436EFA6B92EC21F0640EEC
:100088000002F3CFF6F2F4CFF7F2010EFA6F92EC1A
:1000980021F00A0E0002F3CF00F0F4CF01F0005077
:1000A800F6270150F723020EFA6F92EC21F0005068
:1000B800F62500018E6F000E0201F72100018F6FF7
:1000C8008BEC1EF02C4A2D2A000E2D5C02E13C0E12
:1000D8002C5CD8A0F8D22C6A2D6A224A232A31EC4B
:1000E8000DF0D00E0301406F20DB0301406B1DDBD8
:1000F800ECEC1DF0D10E0301406F17DB316A800E66
:100108003118006E800E060A005C18E24A0E0201E1
:10011800F66F000EF76F3150F627000E31BEFF0E56
:10012800F723010E0301406FCFEC04F0F6C2E1FFA4
:10013800F7C2E2FF00C0E6FF312AE1D74A0E02010A
:10014800F66F000EF76F3150F627000E31BEFF0E26
:10015800F7230301406BCFEC04F0F6C2E1FFF7C2CE
:10016800E2FF00C0E6FF7AEC0DF04EC0FAF23CEC7C
:1001780020F00A0E046EF8EC1EF0300E0024000188
:10018800686F4EC0FAF23CEC20F00A0E046EF8ECF0
:100198001EF008C000F0300E00240001696F2F0E19
:1001A8006A6F4FC0FAF23CEC20F00A0E046EF8ECCD
:1001B8001EF0300E002400016B6F4FC0FAF23CECC9
:1001C80020F00A0E046EF8EC1EF008C000F0300EA5
:1001D800002400016C6F2F0E6D6F50C0FAF23CECDA
:1001E80020F00A0E046EF8EC1EF0300E0024000118
:1001F8006E6F50C0FAF23CEC20F00A0E046EF8EC78
:100208001EF008C000F0300E002400016F6F200EB1
:10021800706F4CC0FAF23CEC20F00A0E046EF8EC59
:100228001EF0300E00240001716F4CC0FAF23CEC55
:1002380020F00A0E046EF8EC1EF008C000F0300E34
:1002480000240001726F3A0E736F4BC0FAF23CEC57
:1002580020F00A0E046EF8EC1EF0300E00240001A7
:10026800746F4BC0FAF23CEC20F00A0E046EF8EC06
:100278001EF008C000F0300E00240001756F3A0E21
:10028800766F4AC0FAF23CEC20F00A0E046EF8ECE5
:100298001EF0300E00240001776F4AC0FAF23CECE1
:1002A80020F00A0E046EF8EC1EF008C000F0300EC4
:1002B80000240001786F2C0E796F060E316E800EC7
:1002C8003118006E800E000A005C12E34A0EE96ED7
:1002D800000EEA6E3150E926000E31BEFF0EEA220A
:1002E800EECFFAF23CEC20F000C049F03106E7D737
:1002F8004BC0FAF23CEC20F000C022F0000E236E56
:100308004AC0FAF23CEC20F000C02CF0000E2D6E32
:1003180041EC1FF000C01EF001C01FF002C020F029
:1003280003C021F0000E046E000E056E480E066E26
:10033800850E076EA9EC1FF000C0F6F201C0F7F2B7
:1003480002C0F8F203C0F9F2F6C21EF0F7C21FF0BD
:10035800F8C220F0F9C221F0000E046E000E056EFE
:100368007A0E066E880E076EF6C200F0F7C201F02C
:10037800F8C202F0F9C203F062EC1BF01CEC1EF0AC
:100388000A0E046E000E056ED6EC21F008C000F0CF
:1003980009C001F0300E002400017A6F000E046ECF
:1003A800000E056E480E066E850E076EF6C200F04A
:1003B800F7C201F0F8C202F0F9C203F062EC1BF0D8
:1003C8001CEC1EF00A0E046E000E056ED6EC21F031
:1003D80008C000F009C001F0300E002400017B6F56
:1003E8002E0E7C6F000E046E000E056E200E066E3B
:1003F800820E076EF6C200F0F7C201F0F8C202F0F2
:10040800F9C203F062EC1BF01CEC1EF00A0E046E3D
:10041800000E056ED6EC21F008C000F009C001F00E
:10042800300E002400017D6FF6C200F0F7C201F023
:10043800F8C202F0F9C203F01CEC1EF00A0E046EBA
:10044800000E056ED6EC21F008C000F009C001F0DE
:10045800300E002400017E6F2C0E7F6FEAEC20F036
:1004680000C024F001C025F002C026F003C027F028
:10047800000E046E000E056E480E066E850E076EA1
:10048800A9EC1FF000C0F6F201C0F7F202C0F8F2C2
:1004980003C0F9F2F6C224F0F7C225F0F8C226F03C
:1004A800F9C227F0000E046E000E056E7A0E066E75
:1004B800880E076EF6C200F0F7C201F0F8C202F02B
:1004C800F9C203F062EC1BF01CEC1EF00A0E046E7D
:1004D800000E056ED6EC21F008C000F009C001F04E
:1004E800300E00240001806F000E046E000E056EB1
:1004F800480E066E850E076EF6C200F0F7C201F0D0
:10050800F8C202F0F9C203F062EC1BF01CEC1EF01A
:100518000A0E046E000E056ED6EC21F008C000F03D
:1005280009C001F0300E00240001816F2E0E826F89
:10053800000E046E000E056E200E066E820E076E0B
:10054800F6C200F0F7C201F0F8C202F0F9C203F0F7
:1005580062EC1BF01CEC1EF00A0E046E000E056E19
:10056800D6EC21F008C000F009C001F0300E0024DC
:100578000001836FF6C200F0F7C201F0F8C202F082
:10058800F9C203F01CEC1EF00A0E046E000E056E94
:10059800D6EC21F008C000F009C001F0300E0024AC
:1005A8000001846F2C0E856FD7CF01F0006A0050D0
:1005B8002E1201502F1234C0FAF235C0FBF236C0A9
:1005C800FCF237C0FDF2570E0201FE6F000EFF6FFE
:1005D80051EC20F0D66AD76AE80E046E030E056E59
:1005E800000E066E076E34C000F035C001F036C04C
:1005F80002F037C003F093EC0DF00A0E046E000E03
:10060800056ED6EC21F008C000F009C001F0300EEC
:1006180000240001866F640E046E000E056E066EDF
:10062800076E34C000F035C001F036C002F037C0A4
:1006380003F093EC0DF00A0E046E000E056ED6EC76
:1006480021F008C000F009C001F0300E00240001BC
:10065800876F0A0E046E000E056E066E076E34C0B4
:1006680000F035C001F036C002F037C003F093EC5B
:100678000DF00A0E046E000E056ED6EC21F008C0CF
:1006880000F009C001F0300E00240001886F0A0E46
:10069800046E000E056E34C000F035C001F0D6ECD3
:1006A80021F008C000F009C001F0300E002400015C
:1006B800896F2C0E8A6F0D0E8B6F346A356A366A15
:1006C800376A9AEC21F0F2921BC000F01AC001F0D0
:1006D80019C002F018C003F017C00BF016C00CF0D8
:0E06E80015C00DF01CC0E1FF1DC0E2FF1100A7
:1006F60046C36FFF6DB002D00000FCD76FCF00F08D
:020706001200DF
:1007080046C3C9FFC7B002D00000FCD7C9CF00F06C
:020718001200CD
:10071A00F250026EF29E0500FF6A0150FE6E005012
:08072A00FD6E02BEF28E12000A
:10073200A49E40C36FFF45C041F346C042F347C089
:1007420043F348C044F36DA421D0455046104710EE
:1007520048101BE0030141514211431144110EE1C3
:10076200A8C2E1FFA9C2E2FF040EE66EA6C200F033
:10077200A7C201F0D1DF010E006E3AD0010E0301D3
:10078200415F000E425B435B445BDDD745C041F3F2
:1007920046C042F347C043F348C044F3A4BE21D04D
:1007A20045504610471048101BE0030141514211C9
:1007B200431144110EE1A8C2E1FFA9C2E2FF040EF7
:1007C200E66EA6C200F0A7C201F0A6DF010E006E1F
:1007D2000FD0010E0301415F000E425B435B445B9D
:1007E200DDD76BBC02D0006A03D06B84020E006EB0
:0207F2001200F3
:1007F40040C3C9FFC7B002D00000FCD7C9CF00F086
:020804001200E0
:1008060040C36FFF6DB002D00000FCD76FCF00F081
:020816001200CE
:1008180028C042F329C043F32AC044F32BC045F350
:100828009E96C5869EB61FD0285029102A102B10D8
:1008380019E0030142514311441145110CE153C021
:10084800E1FF54C0E2FF030EE66E51C000F052C053
:1008580001F05FDF08D0010E0301425F000E435B29
:10086800445B455BDFD70301C9CF41F34051000A20
:1008780002E1C58A01D0C59A9E96C58828C042F370
:1008880029C043F32AC044F32BC045F39EB61FD0BA
:10089800285029102A102B1019E003014251431146
:1008A800441145110CE153C0E1FF54C0E2FF030EAF
:1008B800E66E51C000F052C001F02BDF08D0010EE7
:1008C8000301425F000E435B445B455BDFD741C3D6
:0408D80000F012001A
:1008DC009E9640C3C9FF28C041F329C042F32AC0E9
:1008EC0043F32BC044F3C7A421D0285029102A105D
:1008FC002B101BE0030141514211431144110EE135
:10090C0053C0E1FF54C0E2FF040EE66E51C000F08C
:10091C0052C001F0FCDE010E006E3AD0010E030154
:10092C00415F000E425B435B445BDDD728C041F363
:10093C0029C042F32AC043F32BC044F39EB621D006
:10094C00285029102A102B101BE003014151421191
:10095C00431144110EE153C0E1FF54C0E2FF040EF9
:10096C00E66E51C000F052C001F0D1DE010E006EF7
:10097C000FD0010E0301415F000E425B435B445BF1
:10098C00DDD7C5BC02D0006A03D0C584020E006E50
:02099C00120047
:10099E0045C042F346C043F347C044F348C045F355
:1009AE00A49E6B86A4BE1FD045504610471048101B
:1009BE0019E0030142514311441145110CE1A8C243
:1009CE00E1FFA9C2E2FF030EE66EA6C200F0A7C2C7
:1009DE0001F09CDE08D0010E0301425F000E435B66
:1009EE00445B455BDFD703016FCF41F34051000AF3
:1009FE0002E16B8A01D06B9AA49E6B8845C042F3CC
:100A0E0046C043F347C044F348C045F3A4BE1FD0CD
:100A1E00455046104710481019E00301425143114A
:100A2E00441145110CE1A8C2E1FFA9C2E2FF030E79
:100A3E00E66EA6C200F0A7C201F068DE08D0010E75
:100A4E000301425F000E435B445B455BDFD741C34E
:040A5E0000F0120092
:040A62008A9612005E
:100A6600400E03013725006EA4C2E1FFA5C2E2FFD6
:100A760000C0E6FFA2C200F0A3C201F04BDEA4C292
:100A8600E1FFA5C2E2FF3BC3E6FFA2C200F0A3C29C
:100A960001F040DEA4C2E1FFA5C2E2FF3AC3E6FFD1
:100AA600A2C200F0A3C201F035DEA4C2E1FFA5C2D6
:100AB600E2FF39C3E6FFA2C200F0A3C201F02ADEBC
:100AC600A4C2E1FFA5C2E2FF38C3E6FFA2C200F05E
:100AD600A3C201F01FDEA4C2E1FFA5C2E2FF3CC330
:100AE600E6FFA2C200F0A3C201F014DE03013E6BD2
:100AF6003F6BA4C2E1FFA5C2E2FFFF0EE66EA2C2F3
:100B060000F0A3C201F006DE00C03DF303013E4B38
:100B16003F2B800E0014016E0150000A07E0000E04
:100B26003F5D02E1640E3E5D01E2E3D73DC300F0A6
:020B36001200AB
:100B38008A86A4C2E1FFA5C2E2FFFF0EE66EA2C24A
:0A0B480000F0A3C201F0E5DD120089
:100B520087DF000E000A02E1040E441809E129C3EE
:100B620031F32AC332F32BC333F32CC334F314D03F
:100B7200090E006E29C331F32AC332F32BC333F3B8
:100B82002CC334F3005008E003013137319132377E
:100B920033373437FF0FF7D70301110E376F31C3E5
:100BA20038F332C339F333C33AF334C33BF3FF0EA2
:100BB2003C6F58DF005204E0BEDF010E006E4BD0E6
:100BC200A4C2E1FFA5C2E2FFFF0EE66EA2C200F0E0
:100BD200A3C201F0A1DD0050FE0A01E0F1D703013A
:100BE2002F6B306B020E305D02E1000E2F5D1BE2B7
:100BF2002F512D25356F30512E21366FA4C2E1FFC2
:100C0200A5C2E2FFFF0EE66EA2C200F0A3C201F08F
:100C120083DD35C3E1FF36C3E2FF00C0E6FF030117
:100C22002F4B302BDFD7A4C2E1FFA5C2E2FFFF0E9C
:100C3200E66EA2C200F0A3C201F06EDDA4C2E1FF23
:100C4200A5C2E2FFFF0EE66EA2C200F0A3C201F04F
:080C520063DD71DF006A12008E
:100C5A00220E0C6E086A096A0A6A0B6A0C06D8B474
:100C6A001FD0D8900B320A320932083203320232CC
:100C7A0001320032D8A0F2D70C06D8B409D00450F9
:100C8A0008260550092206500A2207500B22EAD7E5
:100C9A00045008260550092206500A2207500B2242
:020CAA00120036
:100CAC00DADE000E000A02E1040E441809E129C341
:100CBC0031F32AC332F32BC333F32CC334F314D0E4
:100CCC00090E006E29C331F32AC332F32BC333F35D
:100CDC002CC334F3005008E0030131373191323723
:100CEC0033373437FF0FF7D70301180E376F31C383
:100CFC0038F332C339F333C33AF334C33BF3FF0E47
:100D0C003C6FABDE005204E011DF010E006E8BD0A5
:100D1C00A4C2E1FFA5C2E2FFFF0EE66EA2C200F084
:100D2C00A3C201F0F4DCA4C2E1FFA5C2E2FFFF0EF6
:100D3C00E66EA2C200F0A3C201F0E9DCA4C2E1FF9E
:100D4C00A5C2E2FFFE0EE66EA2C200F0A3C201F045
:100D5C00DEDC03012F6B306B3051010802E12F51A7
:100D6C00FF0815E32F512D25E96E30512E21EA6E27
:100D7C00A4C2E1FFA5C2E2FFEECFE6FFA2C200F0E3
:100D8C00A3C201F0C4DC03012F4B302BE5D7A4C266
:100D9C00E1FFA5C2E2FFFF0EE66EA2C200F0A3C205
:100DAC0001F0B5DCA4C2E1FFA5C2E2FFFF0EE66EC6
:100DBC00A2C200F0A3C201F0AADCA4C2E1FFA5C24A
:100DCC00E2FFFF0EE66EA2C200F0A3C201F09FDCB0
:100DDC0000C02FF3000E0301306F1F0E2F15016E94
:100DEC0030C302F0000E021601C02FF302C030F324
:100DFC00000E021802E1050E011804E097DE020E47
:100E0C00006E11D0A4C2E1FFA5C2E2FFFF0EE66E98
:100E1C00A2C200F0A3C201F07ADC0050FF0A01E08C
:080E2C00F1D784DE006A120018
:100E34000B6A0A6A096A00500402F4CF09F0F3CF7E
:100E440008F001500502F4CF0BF0F3CF0AF0005084
:100E54000502F3500926F4500A22E86A0B220150D5
:100E64000402F3500926F4500A22E86A0B2208C04F
:100E740000F009C001F00AC002F00BC003F0120038
:100E84000B820BAE4CEF07F0036802680168006840
:080E94000A360232FF0E1200C3
:0E0E9C00026A016A006A086A036A000E120008
:080EAA000AAE029E000E1200C8
:100EB2000B840BAE64EF07F0010E036E026A016A47
:0A0EC200006A0A360232FF0E120029
:100ECC00980E0201EA25E16E000EEB21E26EFF0E98
:100EDC00E66E010EEA25006E000EEB21016E980EF7
:100EEC000024E16E000E0120E26EFF0EE66EF05162
:100EFC00EC250301296F0201F151ED2103012A6F49
:100F0C00000E0201EE2103012B6F000E0201EF21F6
:100F1C0003012C6F980E2D6F000E2E6FC1DE020197
:100F2C00F051CA250301296F0201F151CB210301B4
:100F3C002A6F000E0201CC2103012B6F000E02015F
:100F4C00CD2103012C6F980E2D6F000E2E6FA8DE95
:020F5C00120081
:100F5E00020E0201985D046E000E9959056EC9C20B
:100F6E0000F0000E016E026E036E000E066E076E2E
:100F7E006DDE00C0E6F201C0E7F202C0E8F203C087
:100F8E00E9F2D4510024E66FD5510120E76FD65116
:0C0F9E000220E86FD7510320E96F120019
:100FAA00F0C200F0F1C201F0CEC204F0CFC205F0E7
:100FBA003CDFEAC202F0EBC203F003320232039EC4
:100FCA00025000240201986F03500120996F120009
:100FDA000B1E0A1E091E081E082AD8B4092AD8B4EC
:080FEA000A2AD8B40B2A1200F8
:100FF2000301246B0201F06BF16B040EEA6F000E29
:10100200EB6FECC229F3EDC22AF3EEC22BF3EFC26F
:101012002CF3980E03012D6F000E2E6F99DD020145
:10102200EB519F1902E19E51EA191CE1EA6BEB6B4D
:10103200F04BF12BF051EC250301296F0201F15124
:10104200ED2103012A6F000E0201EE2103012B6F35
:10105200000E0201EF2103012C6F980E2D6F000E7E
:101062002E6F76DD980E0201EA25E96E000EEB2165
:10107200EA6EEE50000A12E1010EEA25006E000E41
:10108200EB21016E980E0024E96E000E0120EA6E3B
:10109200EE50000A03E1010E0301246F020E020169
:1010A200EA27000EEB2303012453B9E0246B020E5E
:0A10B2000201EA5F000EEB5B120082
:1010BC000B6A0A6A096A086A0E6A03340836045015
:1010CC00085E0550D8A0053C095E0650D8A0063C29
:1010DC000A5E0750D8A0073C0B5EE86AD8A0010E48
:1010EC000E5E0336070E0C6E0334083609360A36CC
:1010FC000B360E36045003A012D0085E0550D8A053
:10110C00053C095E0650D8A0063C0A5E0750D8A0E4
:10111C00073C0B5EE86AD8A0010E0E5E11D00826C3
:10112C000550D8B0053C09260650D8B0063C0A2616
:10113C000750D8B0073C0B26E86AD8B0010E0E2633
:10114C0003360C2ED1D70234083609360A360B3644
:10115C000E36045003A012D0085E0550D8A0053CF2
:10116C00095E0650D8A0063C0A5E0750D8A0073C82
:10117C000B5EE86AD8A0010E0E5E11D00826055051
:10118C00D8B0053C09260650D8B0063C0A260750B4
:10119C00D8B0073C0B26E86AD8B0010E0E260236F2
:1011AC00070E0C6E0234083609360A360B360E362C
:1011BC00045002A012D0085E0550D8A0053C095E70
:1011CC000650D8A0063C0A5E0750D8A0073C0B5E20
:1011DC00E86AD8A0010E0E5E11D008260550D8B0D2
:1011EC00053C09260650D8B0063C0A260750D8B054
:1011FC00073C0B26E86AD8B0010E0E2602360C2EE0
:10120C00D1D70134083609360A360B360E3604505F
:10121C0002A012D0085E0550D8A0053C095E06500D
:10122C00D8A0063C0A5E0750D8A0073C0B5EE86AC3
:10123C00D8A0010E0E5E11D008260550D8B0053C82
:10124C0009260650D8B0063C0A260750D8B0073CF1
:10125C000B26E86AD8B0010E0E260136070E0C6E6E
:10126C000134083609360A360B360E36045001A006
:10127C0012D0085E0550D8A0053C095E0650D8A0D7
:10128C00063C0A5E0750D8A0073C0B5EE86AD8A063
:10129C00010E0E5E11D008260550D8B0053C09266B
:1012AC000650D8B0063C0A260750D8B0073C0B268F
:1012BC00E86AD8B0010E0E2601360C2ED1D70034B8
:1012CC00083609360A360B360E36045001A012D0F9
:1012DC00085E0550D8A0053C095E0650D8A0063C17
:1012EC000A5E0750D8A0073C0B5EE86AD8A0010E36
:1012FC000E5E11D008260550D8B0053C09260650C4
:10130C00D8B0063C0A260750D8B0073C0B26E86A32
:10131C00D8B0010E0E260036070E0C6E00340836BF
:10132C0009360A360B360E36045000A012D0085E71
:10133C000550D8A0053C095E0650D8A0063C0A5EB4
:10134C000750D8A0073C0B5EE86AD8A0010E0E5ED1
:10135C0011D008260550D8B0053C09260650D8B047
:10136C00063C0A260750D8B0073C0B26E86AD8B0D2
:10137C00010E0E2600360C2ED1D700B00ED0045024
:10138C0008260550D8B0053C09260650D8B0063CB6
:0C139C000A260750D8B0073C0B261200B0
:1013A8000301256B266B270E265D02E1100E255DD5
:1013B800D8B0AAD0000E000A02E1000E241918E1E4
:1013C80031EC05F0010E376F386B396B3A6B3B6BBC
:1013D800FF0E3C6F33EC05F000C027F39CEC05F0E2
:1013E80003012751000A03E1446A006A8FD089D0BB
:1013F80031EC05F0370E376F386B396B3A6B3B6B56
:10140800FF0E3C6F33EC05F000C027F39CEC05F0B1
:1014180003012751010AD8A473D031EC05F0290E35
:10142800376F000E386F000E396F000E3A6F400E9E
:101438003B6FFF0E3C6F33EC05F000C027F39CECCC
:1014480005F003012751000A5AE1000E000A02E1E3
:10145800020E241950E131EC05F03A0E376F386B63
:10146800396B3A6B3B6BFF0E3C6F33EC05F000C0F9
:1014780027F3A4C2E1FFA5C2E2FFFF0EE66EA2C2F7
:1014880000F0A3C201F08DEC03F000C028F3A4C261
:10149800E1FFA5C2E2FFFF0EE66EA2C200F0A3C202
:1014A80001F08DEC03F0A4C2E1FFA5C2E2FFFF0E3C
:1014B800E66EA2C200F0A3C201F08DEC03F0A4C254
:1014C800E1FFA5C2E2FFFF0EE66EA2C200F0A3C2D2
:1014D80001F08DEC03F09CEC05F003012751000AA4
:1014E80009E128AD03D0040E446E02D0030E446E09
:1014F800006A0CD004D0010E446E006A07D001D0F7
:0E15080003D0254B262B4FD7010E006E12008C
:101516006DB409D01F0E6B14016E0150000A03E171
:0A152600010E006E01D0006A1200F1
:101530000450085E0550D8A0053C095E0650D8A0AE
:10154000063C0A5E0750D8A0073C0B5E0336070E28
:101550000C6E0334083609360A360B36045003A0E5
:101560000ED0085E0550D8A0053C095E0650D8A0F4
:10157000063C0A5E0750D8A0073C0B5E0DD008263B
:101580000550D8B0053C09260650D8B0063C0A26BE
:101590000750D8B0073C0B2603360C2EDAD702349E
:1015A000083609360A360B36045003A00ED0085E02
:1015B0000550D8A0053C095E0650D8A0063C0A5E3E
:1015C0000750D8A0073C0B5E0DD008260550D8B0B8
:1015D000053C09260650D8B0063C0A260750D8B06C
:1015E000073C0B260236070E0C6E0234083609360D
:1015F0000A360B36045002A00ED0085E0550D8A063
:10160000053C095E0650D8A0063C0A5E0750D8A0EB
:10161000073C0B5E0DD008260550D8B0053C0926C6
:101620000650D8B0063C0A260750D8B0073C0B2617
:1016300002360C2EDAD70134083609360A360B3654
:10164000045002A00ED0085E0550D8A0053C095EEB
:101650000650D8A0063C0A5E0750D8A0073C0B5E97
:101660000DD008260550D8B0053C09260650D8B044
:10167000063C0A260750D8B0073C0B260136070E59
:101680000C6E0134083609360A360B36045001A0B8
:101690000ED0085E0550D8A0053C095E0650D8A0C3
:1016A000063C0A5E0750D8A0073C0B5E0DD008260A
:1016B0000550D8B0053C09260650D8B0063C0A268D
:1016C0000750D8B0073C0B2601360C2EDAD7003471
:1016D000083609360A360B36045001A00ED0085ED3
:1016E0000550D8A0053C095E0650D8A0063C0A5E0D
:1016F0000750D8A0073C0B5E0DD008260550D8B087
:10170000053C09260650D8B0063C0A260750D8B03A
:10171000073C0B260036070E0C6E003408360936DF
:101720000A360B36045000A00ED0085E0550D8A033
:10173000053C095E0650D8A0063C0A5E0750D8A0BA
:10174000073C0B5E0DD008260550D8B0053C092695
:101750000650D8B0063C0A260750D8B0073C0B26E6
:1017600000360C2EDAD700B00ED0045008260550F3
:10177000D8B0053C09260650D8B0063C0A260750CA
:08178000D8B0073C0B26120053
:101788000CB006EF0CF00CA2AEEF0CF00E6A000ED7
:1017980002641DEF0CF0F00E0214D8A4E8EF0BF071
:1017A800023A01380F0B02260138F00B016E00389F
:1017B8000F0B01260038F00B006E08380F0B0026BF
:1017C8000838F00B086E0E84D89002BE01EF0CF0BA
:1017D80008360036013602360E2A02BE01EF0CF03A
:1017E80008360036013602360E2A02BE01EF0CF02A
:1017F80008360036013602360E2A0E500364A2EF70
:101808000CF0035E0BBC08AEA8EF0CF0D880800E7D
:1018180008640030000E002201220222D8A0A8EF9E
:101828000CF0023201320032034AAEEF0CF0A8EF9E
:101838000CF001C002F000C001F008C000F0086A16
:10184800000E0E86026454EF0CF0F00E0214D8A4B9
:101858003CEF0CF0023A01380F0B02260138F00B6E
:10186800016E00380F0B01260038F00B006E0E8455
:10187800D89002BE01EF0CF00036013602360E2A6F
:1018880002BE01EF0CF00036013602360E2A02BE07
:1018980001EF0CF00036013602360E2A01EF0CF08B
:1018A80001C002F000C001F0006A000E0E960E881A
:1018B800026481EF0CF0F00E0214D8A46CEF0CF067
:1018C800023A01380F0B02260138F00B016E0E8424
:1018D800D89002BE01EF0CF0013602360E2A02BE85
:1018E80001EF0CF0013602360E2A02BE01EF0CF0B1
:1018F800013602360E2A01EF0CF001C002F0016A2F
:10190800000E0E860264B4EF0CF0F00E0214D8A498
:1019180090EF0CF0023A0E84D89002BE01EF0CF062
:1019280002360E2A02BE01EF0CF002360E2A02BE63
:1019380001EF0CF002360E2A01EF0CF0010E0C6ECE
:1019480059EC07F0B8EF0CF0020E0C6E55EC07F0EE
:10195800B8EF0CF0040E0C6E42EC07F0B8EF0CF088
:0A196800080E0C6E4EEC07F01200A2
:101972000C6A0E6A0250D8A4D2EF0CF001C002F039
:1019820000C001F0006A0E860250D8A4D2EF0CF01B
:1019920001C002F0016A0E960E880250D8B4E4EF3C
:1019A2000CF00E50035ED8A4D8A0EAEF0CF0D89049
:1019B20002BEF0EF0CF0003601360236032ED9EFEC
:1019C2000CF0EAEF0CF0010E0C6E4EEC07F0F4EFA7
:1019D2000CF0020E0C6E59EC07F0F4EF0CF0040E52
:0819E2000C6E55EC07F0120039
:1019EA00160E0201AA6F150EAB6F000EAC6F000E39
:1019FA00AD6F620EB06F1A0EB16F000EB26F000EAD
:101A0A00B36FD80EBC6F3B0EBD6F000EBE6F000EDB
:101A1A00BF6F9E0EC06F090EC16F400EC26F030EDC
:101A2A00C36F320EB46F070EB56F400EB66F030E5A
:101A3A00B76FF40EB86F1A0EB96F000EBA6F000EB8
:101A4A00BB6F939493928A948A92938493826D9EA5
:081A5A006D9C380E6C6E120049
:101A620045C020F346C021F347C022F348C023F308
:101A720003011E6B1F6B1F51120802E11E518E08DB
:101A820008E348DD005201E004D003011E4B1F2B86
:101A9200F2D70301120E1F5D02E18F0E1E5D03E3FA
:101AA2007B0E006E25D06B806BA021D04550461076
:101AB200471048101BE020512111221123110FE180
:101AC200A8C2E1FFA9C2E2FF050EE66EA6C200F0BF
:101AD200A7C201F08DEC03F0010E006E09D0010ED9
:101AE2000301205F000E215B225B235BDDD7006ACE
:021AF2001200E0
:041AF4006B841200ED
:101AF80003011E517A0806E3610E1E5D03E3010E21
:081B0800006E01D0006A12001A
:101B100003011E517A0804E3610E1E5DD8B01E9BBE
:061B20001EC300F01200DC
:101B26000450000A12E10550000A0FE10650000AAF
:101B36000CE10750000A09E1FF0E006EFF0E016E70
:101B4600FF0E026E7F0E036E98D00C6A07BE0C2A3B
:101B56000D6A0B6A0A6A096A086A035002100110C4
:101B66000010D8B484D0035007180E6E0EBE0D1E9A
:101B760007AE0BD0041E051E061E071E042AD8B487
:101B8600052AD8B4062AD8B4072A03AE0BD0001EFD
:101B9600011E021E031E002AD8B4012AD8B4022A46
:101BA600D8B4032A035007100E6E0EBE1CD0BDDC3F
:101BB6000CBE36D00DAE5BD0001E011E021E031EEB
:101BC600002AD8B4012AD8B4022AD8B4032A081E97
:101BD600091E0A1E0B1E082AD8B4092AD8B40A2AD6
:101BE600D8B40B2A44D007AE15D003BE0DD003508F
:101BF6000B6E02500A6E0150096E0050086E036AA1
:101C0600026A016A006AD6D7036A026A016A006A32
:101C1600002A000C031E021E011E001E0C8EC7D7D2
:101C2600082AD8B4092AD8B40A2AD8B40B2A0450E8
:101C3600085CD8A4BFD70550095CD8A4BBD706500A
:101C46000A5CD8A4B7D707500B5CD8A4B3D70B6AE5
:101C56000A6A096A086A002AD8B4012AD8B4022A8C
:101C6600D8B4032A03AEA6D70E6A0E88FF0C0E6AF6
:0C1C76000CA002D0EDEC07F0000F1200F3
:101C8200F0C2D8F2F1C2D9F2EAC2DAF2EBC2DBF266
:101C9200F9EC07F066EC07F0D5EC07F0D851EC252B
:101CA2000301296F0201D951ED2103012A6F000EB0
:101CB2000201EE2103012B6F000E0201EF2103014D
:101CC2002C6F980E2D6F000E2E6FA9EC05F0980E5A
:101CD2000201DA25E16E000EDB21E26E98C2E6FF18
:101CE200010EDA25006E000EDB21016E980E002433
:101CF200E16E000E0120E26E99C2E6FFD851EC259A
:101D02000301296F0201D951ED2103012A6F000E4F
:101D12000201EE2103012B6F000E0201EF210301EC
:101D22002C6F980E2D6F000E2E6F56EC06F00201EE
:101D3200D851CA250301296F0201D951CB210301D0
:101D42002A6F000E0201CC2103012B6F000E02014B
:101D5200CD2103012C6F980E2D6F000E2E6F56ECC5
:081D620006F0AFEC07F01200DF
:101D6A00050E446E93969CEC05F003011E6B1F6BE7
:101D7A00000E1F5D02E10A0E1E5D10E2A4C2E1FF21
:101D8A00A5C2E2FFFF0EE66EA2C200F0A3C201F0F6
:101D9A008DEC03F003011E4B1F2BEAD731EC05F043
:101DAA00376B386B396B3A6B3B6B950E3C6F33EC88
:101DBA0005F000C020F39CEC05F003012051010A54
:101DCA0003E0010E006E7FD031EC05F0080E376F8C
:101DDA00AA0E386F010E396F000E3A6F3B6F870EED
:101DEA003C6F33EC05F000C020F3A4C2E1FFA5C2AA
:101DFA00E2FFFF0EE66EA2C200F0A3C201F08DEC74
:101E0A0003F0A4C2E1FFA5C2E2FFFF0EE66EA2C282
:101E1A0000F0A3C201F08DEC03F0A4C2E1FFA5C259
:101E2A00E2FFFF0EE66EA2C200F0A3C201F08DEC43
:101E3A0003F0A4C2E1FFA5C2E2FFFF0EE66EA2C252
:101E4A0000F0A3C201F08DEC03F09CEC05F0030155
:101E5A002051010A0AE0010E246FD4EC09F0005265
:101E6A0003E0246BD4EC09F004D0020E246FD4EC06
:101E7A0009F0000E000A02E1050E441803E1020E01
:101E8A00006E21D0000E000A02E1040E44181AE086
:101E9A0031EC05F0100E376F000E386F020E396FF5
:101EAA00000E3A6F3B6FFF0E3C6F33EC05F000C03B
:101EBA0020F39CEC05F003012051000A03E0030E15
:081ECA00006E01D0006A120055
:101ED2000001926B936B946B956B906B916B966B0D
:101EE200976B0201DD6BDE6BDF6BE06B986B996BBE
:101EF200E66BE76BE86BE96B9A6B9B6B9C6B9D6B7C
:101F0200EC6BED6BEE6BEF6BCA6BCB6BCC6BCD6B93
:101F1200F06BF16BD86BD96BEA6BEB6BDA6BDB6B4B
:101F22009E6B9F6BCE6BCF6BC46BC56BC76BC86B65
:101F3200A06BA16BD46BD56BD66BD76BC96BE16B06
:101F4200C66BDC6BD06BD16BD26BD36B556A566AA6
:0E1F5200F46BF56BAE6BAF6BF26BF36B1200C2
:101F600098C205F099C206F0000E076E086E05C013
:101F700000F006C001F007C002F008C003F0003610
:101F8000009001360236033600C01EF301C01FF375
:101F900002C020F303C021F39EC204F09FC205F0EB
:101FA000000E066E076E5EEC08F000C0F0F201C095
:101FB000F1F29EC204F09FC205F0000E066E076E9D
:101FC0001EC300F01FC301F020C302F021C303F0C1
:101FD0005EEC08F008C000F009C001F00AC002F091
:0E1FE0000BC003F000C0EAF201C0EBF21200E9
:101FEE00025006180E6E086A096A0B6A03500764DF
:101FFE00EAEF10F006500A6E068E028E03500B6E3C
:10200E000750036E000E0B643AEF10F00B50075E94
:10201E00D8B4DBEF10F0070E0764A9EF10F0075EDF
:10202E0000C008F001C000F002C001F0026A074EC5
:10203E00DBEF10F007647EEF10F0075E00C008F0D3
:10204E0001C000F0016A074EDBEF10F007645CEF91
:10205E0010F0075E00C008F0006A074EDBEF10F0CC
:10206E00076443EF10F00AC002F005C001F004C08F
:10207E0000F0086A07EF12F0030E07644EEF10F03F
:10208E00075E08380F0B086E074EDBEF10F0D89086
:10209E000832074EDBEF10F0D8900832074EDBEF18
:1020AE0010F0D8900832DBEF10F0030E07646DEFDE
:1020BE0010F0075E08380F0B086E0038F00B08267C
:1020CE0000380F0B006E074EDBEF10F0D890003289
:1020DE000832074EDBEF10F0D89000320832074E70
:1020EE00DBEF10F0D89000320832DBEF10F0030E69
:1020FE00076495EF10F0075E08380F0B086E003876
:10210E00F00B082600380F0B006E0138F00B00267E
:10211E0001380F0B016E074EDBEF10F0D890013235
:10212E0000320832074EDBEF10F0D8900132003249
:10213E000832074EDBEF10F0D89001320032083231
:10214E00DBEF10F0030E0764C6EF10F0075E0838E1
:10215E000F0B086E0038F00B082600380F0B006EC0
:10216E000138F00B002601380F0B016E0238F00B10
:10217E00012602380F0B026E074EDBEF10F0D890DF
:10218E000232013200320832074EDBEF10F0D890E7
:10219E000232013200320832074EDBEF10F0D890D7
:1021AE000232013200320832096A000E0EAECFEF53
:1021BE0011F0081E001E011E021E082A0022012216
:1021CE000222CFEF11F00750D8A4F0EF10F007EF76
:1021DE0012F0096A02C00AF0028E068E0750035CE6
:1021EE00076ED8B4C2EF11F0070E076490EF11F02E
:1021FE00075E0450096E0550046E0650056E066AA1
:10220E00074EC2EF11F0070E076465EF11F0075E7F
:10221E000450096E0550046E056A074EC2EF11F0A8
:10222E00070E076443EF11F0075E0450096E046A4F
:10223E00074EC2EF11F0070E07642AEF11F00AC025
:10224E0002F007EF12F0030E076435EF11F0075E90
:10225E0009380F0B096E074EC2EF11F0D8900932F4
:10226E00074EC2EF11F0D8900932074EC2EF11F0AF
:10227E00D8900932C2EF11F0030E076454EF11F03B
:10228E00075E09380F0B096E0438F00B0926043867
:10229E000F0B046E074EC2EF11F0D89004320932C4
:1022AE00074EC2EF11F0D89004320932074EC2EF3A
:1022BE0011F0D89004320932C2EF11F0030E076408
:1022CE007CEF11F0075E09380F0B096E0438F00B26
:1022DE00092604380F0B046E0538F00B042605385A
:1022EE000F0B056E074EC2EF11F0D8900532043277
:1022FE000932074EC2EF11F0D8900532043209327E
:10230E00074EC2EF11F0D890053204320932C2EFF7
:10231E0011F0030E0764ADEF11F0075E09380F0BD5
:10232E00096E0438F00B092604380F0B046E0538BD
:10233E00F00B042605380F0B056E0638F00B05263C
:10234E0006380F0B066E074EC2EF11F0D89006320C
:10235E00053204320932074EC2EF11F0D890063220
:10236E00053204320932074EC2EF11F0D890063210
:10237E00053204320932086A000E0EAECFEF11F0AC
:10238E00091E041E051E061E092A04220522062207
:10239E000950082604500022055001220650022240
:1023AE000EBEE6EF11F0D8A0F5EF11F002320132B9
:1023BE0000320832033EF5EF11F001EF12F0D8B003
:1023CE00FBEF11F0000E081E001E011E021E082A51
:1023DE000022012202220A7EFBEF11F0010E0C6E8A
:1023EE00C4EC0BF009EF12F0020E0C6EC4EC0BF005
:1023FE0009EF12F0040E0C6E42EC07F009EF12F02A
:06240E00000E0C6E12002E
:102414000001966B976B906B916BF9EC07F066EC8F
:1024240007F0D5EC07F092C029F393C02AF394C0C7
:102434002BF395C02CF3980E03012D6F000E2E6F15
:10244400A9EC05F00301226B0001975102019F19C9
:1024540003E19E51000196191EE10001966B976BF2
:10246400904B912B905192250301296F00019151BA
:10247400932103012A6F000E0001942103012B6FA5
:10248400000E0001952103012C6F980E2D6F000E94
:102494002E6FA9EC05F0980E00019625E96E000E4A
:1024A4009721EA6EEE50E50A0AE0980E9625E96E49
:1024B400000E9721EA6EEE50000A01E003D0010EEF
:1024C4000301226F200E00019627000E97230301BB
:1024D4002253BAE02251010AD8A420D1200E0001CF
:1024E400965F000E975B0301216B21510A0818E3E4
:1024F400215100019625006E000E9721016E980E61
:102504000024E16E000E0120E26E030121511E251C
:10251400E96E000E1F21EA6EEECFE6FF212BE5D710
:102524001C0E216F200E215D11E221510001962520
:10253400006E000E9721016E980E0024E16E000ECD
:102544000120E26EE66A0301212BECD71A0E00018A
:102554009625006E000E9721016E980E0024E16E00
:10256400000E0120E26E98C2E6FF1B0E9625006E57
:10257400000E9721016E980E0024E16E000E0120DA
:10258400E26E99C2E6FF0B0E9625006E000E9721AF
:10259400016E980E0024E16E000E0120E26E20C34D
:1025A400E6FF0D0E0301216F2151190811E321519A
:1025B40000019625006E000E9721016E980E0024EE
:1025C400E16E000E0120E26EE66A0301212BECD7D6
:1025D4000E0E00019625006E000E9721016E980ED6
:1025E4000024E16E000E0120E26EAEC2E6FF0F0E83
:1025F4009625006E000E9721016E980E0024E16E60
:10260400000E0120E26EAFC2E6FF100E9625006EAA
:10261400000E9721016E980E0024E16E000E012039
:10262400E26E55C0E6FF110E9625006E000E97214E
:10263400016E980E0024E16E000E0120E26E56C079
:10264400E6FF120E9625006E000E9721016E980E7D
:102654000024E16E000E0120E26E55C0E6FF130E69
:102664009625006E000E9721016E980E0024E16EEF
:10267400000E0120E26E56C0E6FF160E9625006E8F
:10268400000E9721016E980E0024E16E000E0120C9
:10269400E26EAEC2E6FF170E9625006E000E97217D
:1026A400016E980E0024E16E000E0120E26EAFC2AE
:1026B400E6FF180E9625006E000E9721016E980E07
:1026C4000024E16E000E0120E26E55C0E6FF190EF3
:1026D4009625006E000E9721016E980E0024E16E7F
:1026E400000E0120E26E56C0E6FF905192250301D0
:1026F400296F00019151932103012A6F000E0001FB
:10270400942103012B6F000E0001952103012C6F0E
:10271400980E2D6F000E2E6F56EC06F0AFEC07F0FE
:022724001200A1
:082726000B6A0B86FF0E120086
:10272E000301006B0D6BB5EC0EF00D2B005204E0A7
:10273E00320E0D5D01E2F7D7320E0D5D03E3FF0E93
:10274E00006ECFD169EC0FF0D0C229F3D1C22AF3BB
:10275E00D2C22BF3D3C22CF3980E03012D6F000EB1
:10276E002E6FA9EC05F002019651550AD8A467D038
:10277E009751AA0AD8A463D000019851E90A09E03A
:10278E009851EB0A04E19A51900A01E102D0006AD5
:10279E0002D0010E006E00524FE10201625307E1BA
:1027AE00635305E1645303E1655301E109D05EC251
:1027BE00D0F25FC2D1F260C2D2F261C2D3F239D08E
:1027CE00725307E1735305E1745303E1755301E14D
:1027DE0009D06EC2D0F26FC2D1F270C2D2F271C203
:1027EE00D3F227D0825307E1835305E1845303E1EB
:1027FE00855301E109D07EC2D0F27FC2D1F280C2F0
:10280E00D2F281C2D3F215D0925307E1935305E170
:10281E00945303E1955301E109D08EC2D0F28FC2D9
:10282E00D1F290C2D2F291C2D3F203D0010E006E59
:10283E0058D10301006B03D00301010E006F030199
:10284E000D6B0301005329E1D0C229F3D1C22AF343
:10285E00D2C22BF3D3C22CF3980E2D6F000E2E6F17
:10286E00A9EC05F002019651550A07E19751AA0A03
:10287E0004E1010E0301006F10D003010D51400A57
:10288E0003E1010E006E2DD10D2B010E0201D0279A
:10289E00000ED123D223D323D4D7010E03010D6F03
:1028AE000051010AD8A41BD1A4C09FF202019E6B55
:1028BE000001A35102019E13000E9F13A5C0C9F281
:1028CE00A7C0C5F2C46B0001A6510201C413000ECD
:1028DE00C513A8C0C6F2AFC001F0006A0001AE5128
:1028EE000012000E011200C0C7F201C0C8F2A8C04B
:1028FE0004F0000E056E1AEC07F000500201D02510
:10290E000001926F01500201D1210001936F000E60
:10291E000201D2210001946F000E0201D3210001A9
:10292E00956F0201C451000192270201C5510001A9
:10293E009323000E94239523AAC001F0006AA95197
:10294E000012000E011200C0A0F201C0A1F200C0E0
:10295E0005F001C006F0000E076E086E050E046E3F
:10296E0005C000F006C001F007C002F008C003F079
:10297E00045007E000360090013602360336FF0F92
:10298E00F8D702019E5100269F510122000E02220D
:10299E000322010E005E000E015A025A035A9EC215
:1029AE0004F09FC205F0000E066E076E93EC0DF05C
:1029BE000050000192250201D46F015000019321B5
:1029CE000201D56F0250000194210201D66F03500F
:1029DE00000195210201D76FC451D025006EC5515B
:1029EE00D121016E000ED221026E000ED321036E94
:1029FE0000C0ECF201C0EDF202C0EEF203C0EFF245
:102A0E00C7510024CA6FC8510120CB6F000E02209F
:102A1E00CC6F000E0320CD6F9EC2CEF29FC2CFF2BE
:102A2E00CF33CE33CF9F0001AE51AF11006E54E0C5
:102A3E00AC51AB11006E05E0ABC009F3ACC00AF3AC
:102A4E0008D0B8C009F3B9C00AF3BAC00BF3BBC0C3
:102A5E000CF309C300F00AC301F00BC302F00CC360
:102A6E0003F00201D451005ED551015AD651025ADB
:102A7E00D751035AC9C204F0000E056E066E076EDA
:102A8E005EEC08F000C009F301C00AF302C00BF3BC
:102A9E0003C00CF3000E035C08E1000E025C05E1BE
:102AAE000F0E015C02E1F50E005C04E2010E030163
:102ABE000D6F11D00301000E0C5D08E1000E0B5DD1
:102ACE0005E1FF0E0A5D02E1F50E095D02E20D6BF6
:102ADE0002D0010E0D6F03D0010E006E02D00DC399
:042AEE0000F01200E2
:102AF20003011A6B1B6B1A510925E96E000E0A219C
:102B0200EA6EEE50000A42E01A510925E96E000E03
:102B12000A21EA6EEE502E0A02E11AC31BF31A5181
:102B22000925E96E000E0A21EA6EEECF1EF37CEC57
:102B32000DF0005219E00E0E1C6F030E1D6F1A519C
:102B42001C27D8B01D2B1A510925E96E000E0A2147
:102B5200EA6EEECF1EF388EC0DF01CC3E1FF1DC33D
:102B6200E2FF00C0E6FF10D00E0EE16E030EE26E31
:102B72001A51E126D8B0E22A1A510925E96E000E4F
:102B82000A21EA6EEECFE6FF1A2BB5D70E0EE16EE2
:102B9200030EE26E1A51E126D8B0E22AE66A1B530E
:102BA20054E01BC31AF3030E1B25016E026A000ECA
:102BB2000222800E006E800E0218005C02E10150BB
:102BC2001A5D43E21A51010F006E016A000E0122E2
:102BD2000E0E0024E96E030E0120EA6EEE50000A8A
:102BE2001CE1020E1B25016E026A000E0222800EFB
:102BF2000218006E800E005C02E11A51015C0CE3C7
:102C02000E0EE16E030EE26E1A51E126D8B0E22AF0
:102C1200200EE66E1A2BE5D718D00E0EE16E030ECB
:102C2200E26E1A51E126D8B0E22A1A51010F006E63
:102C3200016A000E01220E0E0024E96E030E01202D
:102C4200EA6EEECFE6FF1A2BAED71A070A0E1A5D0E
:102C52002FE20E0EE96E030EEA6E1A51E926D8B083
:102C6200EA2AEECF18F31A070E0EE96E030EEA6E89
:102C72001A51E926D8B0EA2AEECF17F31A070E0E38
:102C8200E96E030EEA6E1A51E926D8B0EA2AEECFAF
:102C920016F31A5107080CE30E0EE16E030EE26EF4
:102CA2001A51E126D8B0E22A200EE66E1A2BF1D78D
:102CB200196B0001966B976B906B916B92C029F325
:102CC20093C02AF394C02BF395C02CF3980E030102
:102CD2002D6F000E2E6FA9EC05F003010C6B0D6B2E
:102CE2001B6B0001975102019F1903E19E510001E4
:102CF20096191EE10001966B976B904B912B9051A8
:102D020092250301296F00019151932103012A6F3A
:102D1200000E0001942103012B6F000E000195218A
:102D220003012C6F980E2D6F000E2E6FA9EC05F08B
:102D320003011B6B1A6B1A510A081CE31A5100019A
:102D42009625006E000E9721016E980E0024E96E02
:102D5200000E0120EA6E0E0ED96E030EDA6E03012A
:102D62001A51D926D8B0DA2AEE50DE18D8B41B2B65
:102D72001A2BE1D70C4B0D2B980E00019625E96E0C
:102D8200000E9721EA6EEECF00F3200E9627000E7A
:102D9200972303011B510B0A11E00D510201A119E6
:102DA20003E1A05103010C1903E103011E0E1B6F85
:102DB20003010051000A02E1190E1B6F1B510A08A0
:102DC20090E2140E1B5DD8B0D7D0200E0001965DA4
:102DD200026E000E9759036E02C096F003C097F080
:102DE2001A0E0224006E000E0320016E980E0024BB
:102DF200E96E000E0120EA6EEECF98F21B0E02245D
:102E0200006E000E0320016E980E0024E96E000E83
:102E12000120EA6EEECF99F2AFEC07F01C0E000132
:102E22009625006E000E9721016E980E0024E96E21
:102E3200000E0120EA6EEECF9AF21D0E9625006E6C
:102E4200000E9721016E980E0024E96E000E0120FB
:102E5200EA6EEECF9BF21E0E9625006E000E9721B3
:102E6200016E980E0024E96E000E0120EA6EEECF8C
:102E72009CF21F0E9625006E000E9721016E980E91
:102E82000024E96E000E0120EA6EEECF9DF2B0EC56
:102E92000FF00E0E9625006E000E9721016E980E11
:102EA2000024E96E000E0120EA6EEECFAEF20F0EA4
:102EB2009625006E000E9721016E980E0024E96E91
:102EC200000E0120EA6EEECFAFF2100E9625006ED4
:102ED200000E9721016E980E0024E96E000E01206B
:102EE200EA6EEECF55F0110E9625006E000E972178
:102EF200016E980E0024E96E000E0120EA6EEECFFC
:102F020056F0160E9625006E000E9721016E980E51
:102F12000024E96E000E0120EA6EEECFF2F2170EE7
:102F22009625006E000E9721016E980E0024E96E20
:102F3200000E0120EA6EEECFF3F2180E9625006E17
:102F4200000E9721016E980E0024E96E000E0120FA
:102F5200EA6EEECFF4F2190E9625006E000E97215E
:102F6200016E980E0024E96E000E0120EA6EEECF8B
:102F7200F5F2010E006E10D003010BAF0CD00E0E55
:102F82001E6F030E1F6F7F0E0B15206F0AEC12F0DF
:0A2F9200010E006E01D0006A12006B
:102F9C00C69AF40E0201A26F070EA36F400EA46F27
:102FAC00030EA56F080EE26F070EE36F460EE46F7B
:102FBC00030EE56F949A03010951040A02E1948609
:102FCC0001D094969488C66AC79CC79E0951C612B4
:102FDC000B51C6120A51C7120B5305E00C51000AD3
:102FEC00D8B4C78C03D00C53D8A4C78CC68A120093
:102FFC0031EC0DF0D20E0301406F99EC03F0190E79
:10300C000301406F99EC03F0070E0301406F99EC3C
:10301C0003F07AEC0DF0030E0B6E8A0E0C6E550E4F
:10302C000D6E0D2EFED70C2EFCD70B2EFAD70000F2
:10303C00000031EC0DF0D20E0301406F99EC03F05F
:10304C006B0E0301406F99EC03F00301406B99EC9C
:10305C0003F07AEC0DF0030E0B6E8A0E0C6E550E0F
:10306C000D6E0D2EFED70C2EFCD70B2EFAD70000B2
:10307C00000031EC0DF0D20E0301406F99EC03F01F
:10308C006C0E0301406F99EC03F00301406B99EC5B
:10309C0003F07AEC0DF0030E0B6E8A0E0C6E550ECF
:1030AC000D6E0D2EFED70C2EFCD70B2EFAD7000072
:1030BC00000031EC0DF0D20E0301406F99EC03F0DF
:1030CC001B0E0301406F99EC03F00301406B99EC6C
:1030DC0003F07AEC0DF0030E0B6E8A0E0C6E550E8F
:1030EC000D6E0D2EFED70C2EFCD70B2EFAD7000032
:1030FC00000031EC0DF0D20E0301406F99EC03F09F
:10310C001C0E0301406F99EC03F00301406B99EC2A
:10311C0003F07AEC0DF0030E0B6E8A0E0C6E550E4E
:10312C000D6E0D2EFED70C2EFCD70B2EFAD70000F1
:10313C00000031EC0DF0030E0B6E8A0E0C6E550E6A
:10314C000D6E0D2EFED70C2EFCD70B2EFAD70000D1
:10315C000000D20E0301406F99EC03F0380E03010E
:10316C00406F99EC03F0400E0301406F99EC03F0B3
:10317C007AEC0DF0030E0B6E8A0E0C6E550E0D6E66
:10318C000D2EFED70C2EFCD70B2EFAD7000000000C
:10319C0031EC0DF0D20E0301406F99EC03F0200ED0
:1031AC000301406F99EC03F0010E0301406F99ECA1
:1031BC0003F07AEC0DF0030E0B6E8A0E0C6E550EAE
:1031CC000D6E0D2EFED70C2EFCD70B2EFAD7000051
:1031DC00000031EC0DF0D20E0301406F99EC03F0BE
:1031EC003A0E0301406F99EC03F0010E0301406F9E
:1031FC0099EC03F07AEC0DF0030E0B6E8A0E0C6E4C
:10320C00550E0D6E0D2EFED70C2EFCD70B2EFAD7AD
:10321C000000000031EC0DF0D20E0301406F99EC70
:10322C0003F01F0E0301406F99EC03F0010E030134
:10323C00406F99EC03F07AEC0DF0060E0B6E130E4A
:10324C000C6EAD0E0D6E0D2EFED70C2EFCD70B2E6C
:10325C00FAD70000000031EC0DF0D20E0301406FE4
:10326C0099EC03F01A0E0301406F99EC03F0FF0E7A
:10327C000301406F99EC03F07AEC0DF0030E0B6E2A
:10328C008A0E0C6E550E0D6E0D2EFED70C2EFCD725
:10329C000B2EFAD70000000031EC0DF0D20E03011A
:1032AC00406F99EC03F06C0E0301406F99EC03F046
:1032BC00600E0301406F99EC03F07AEC0DF0030EF5
:1032CC000B6E8A0E0C6E550E0D6E0D2EFED70C2E3F
:1032DC00FCD70B2EFAD70000000031EC0DF0D20E0B
:1032EC000301406F99EC03F06B0E0301406F99ECF6
:1032FC0003F0100E0301406F99EC03F07AEC0DF023
:10330C00030E0B6E8A0E0C6E550E0D6E0D2EFED727
:10331C000C2EFCD70B2EFAD700000000060E0B6EFD
:10332C00130E0C6EAD0E0D6E0D2EFED70C2EFCD7A3
:0A333C000B2EFAD70000000012006B
:103346000B800BAEAFEF19F0026A0AAEFF0E026EEB
:0C335600016E006E0A360232FF0E1200FB
:10336200A6A202D00000FCD7A69C09C3A9FF0AC3EB
:10337200A8FFA69EA684F2CF00F0F29E550EA76E7D
:10338200AA0EA76EA68200BE02D0F29E01D0F28ED5
:0E339200A694A1B802D00000FCD7A1981200AA
:1033A000320E6E6EF5EC0CF0030E0B6E8A0E0C6E88
:1033B000550E0D6E0D2EFED70C2EFCD70B2EFAD708
:0633C000000000001200F5
:1033C600086A096A100E0C6E013408360936045074
:1033D600085E0550D8A0053C095ED8B007D0045059
:1033E60008260550D8B0053C0926D8900036013687
:0633F6000C2EEAD71200C4
:1033FC00E6C229F3E7C22AF3E8C22BF3E9C22CF3A5
:10340C00980E03012D6F000E2E6FA9EC05F0030131
:10341C000D6B0E6B0C510E5D02E10B510D5D58E204
:10342C00980E0201DD25E16E000EDE21E26E030135
:10343C000D510925E96E0E510A21EA6EEECFE6FF19
:10344C00010E0201DD27000EDE23DF23E023000E38
:10345C00006EE01908E10050DF1905E19F51DE19FB
:10346C0002E1DD519E1930E1E6C229F3E7C22AF3ED
:10347C00E8C22BF3E9C22CF3980E03012D6F000E5A
:10348C002E6F56EC06F0010E0201E627000EE72324
:10349C00E823E923DD6BDE6BDF6BE06BE12BE151A5
:1034AC00C91903E1E16B41EC0EF0E6C229F3E7C266
:1034BC002AF3E8C22BF3E9C22CF3980E03012D6F0B
:1034CC00000E2E6FA9EC05F003010D4B0E2BA2D7AD
:1034DC00E6C229F3E7C22AF3E8C22BF3E9C22CF3C4
:1034EC00980E2D6F000E2E6F56EC06F003010D5149
:1034FC0002019A2703010E5102019B23000E9C230B
:10350C009D230001905192250301296F00019151D7
:10351C00932103012A6F000E0001942103012B6FEC
:10352C00000E0001952103012C6F980E2D6F000EDB
:10353C002E6FA9EC05F0120E00019625006E000E00
:10354C009721016E980E0024E16E000E0120E26EB0
:10355C0055C0E6FF130E9625006E000E9721016EE6
:10356C00980E0024E16E000E0120E26E56C0E6FFBC
:10357C00140E9625006E000E9721016E980E0024F5
:10358C00E16E000E0120E26EE66A150E9625006EC5
:10359C00000E9721016E980E0024E16E000E0120A2
:1035AC00E26EE66A160E9625006E000E9721016EED
:1035BC00980E0024E16E000E0120E26EAEC2E6FF12
:1035CC00170E9625006E000E9721016E980E0024A2
:1035DC00E16E000E0120E26EAFC2E6FF180E9625DA
:1035EC00006E000E9721016E980E0024E16E000E05
:1035FC000120E26E55C0E6FF190E9625006E000EF6
:10360C009721016E980E0024E16E000E0120E26EEF
:10361C0056C0E6FF1C0E9625006E000E9721016E1B
:10362C00980E0024E16E000E0120E26E9AC2E6FFB5
:10363C001D0E9625006E000E9721016E980E00242B
:10364C00E16E000E0120E26E9BC2E6FF1E0E962577
:10365C00006E000E9721016E980E0024E16E000E94
:10366C000120E26E9CC2E6FF1F0E9625006E000E36
:10367C009721016E980E0024E16E000E0120E26E7F
:10368C009DC2E6FF905192250301296F00019151D3
:10369C00932103012A6F000E0001942103012B6F6B
:1036AC00000E0001952103012C6F980E2D6F000E5A
:0836BC002E6F56EC06F012001F
:1036C4000450000A12E10550000A0FE10650000AF6
:1036D4000CE10750000A09E1FF0E006EFF0E016EB7
:1036E4007F0E026EFF0E036EA8D0086A096A0750A7
:1036F400D8B40DEF1CF00350D8B412EF1CF00250F4
:1037040006180A6E028E068E0E6A02C008F001C008
:103714000CF000C00DF004500D5E0550D8A0053C1F
:103724000C5E0650D8A0063C085E086A0C6A0D6A56
:10373400D8A0A4EF1BF0D890023201320032083234
:10374400010E0E6E0750035ED8A0B1EF1BF07E0E83
:103754000E240326D8B017EF1CF0B7EF1BF07E0E33
:103764000E240326D8A01CEF1CF0180E0B6E0D3689
:103774000C3608360036013602360E360450005E2A
:103784000550D8A0053C015E0650D8A0063C025E58
:1037940006340E120EA0D2EF1BF00D80DDEF1BF0ED
:1037A400045000260550D8B0053C01260650D8B078
:1037B400062802260D900B2EB9EF1BF003EF1CF028
:1037C400D8900036013602360E360450005E05509D
:1037D400D8A0053C015E0650D8A0063C025E063423
:1037E4000E10010B0D26D8B00C2AD8B4082AD8A480
:1037F40003EF1CF008320C320D32032AD8B417EF51
:103804001CF00AAE089E0850026E0C50016E0D505A
:10381400006E1FEF1CF0010E93EC13F01FEF1CF071
:10382400020E4EEC07F01FEF1CF0040E42EC07F002
:0C3834001FEF1CF0080E59EC07F012000A
:1038400003010F6B106B000E105D02E10A0E0F5D9D
:103850000BE20F510D25E16E10510E21E26E200E8C
:10386000E66E0F4B102BEFD70F510D25E16E105167
:103870000E21E26EE66A010E0F5F000E105B0F5123
:103880000D25116F10510E21126F0A0E046E000EDD
:10389000056E066E076E09C300F00AC301F00BC384
:1038A00002F00CC303F05EEC08F008C000F009C0A1
:1038B00001F00AC002F00BC003F0300E002611C365
:1038C000E1FF12C3E2FF00C0E6FF0A0E046E000E25
:1038D000056E066E076E09C300F00AC301F00BC344
:1038E00002F00CC303F05EEC08F000C009F301C065
:1038F0000AF302C00BF303C00CF3000E046E0318AE
:1039000008E10450021805E10450011802E10050DA
:10391000000A01E105D0010E0F5F000E105BAFD76A
:02392000120093
:103922000201F051EC250301296F0201F151ED2151
:1039320003012A6F000E0201EE2103012B6F000E1C
:103942000201EF2103012C6F980E2D6F000E2E6FD6
:10395200A9EC05F0980E0201EA25E96E000EEB21B2
:10396200EA6EEECF09F3000E03010A6F0B6F0C6FC4
:10397200000E0A6F0B6F0C6F010E0201EA25006E3A
:10398200000EEB21016E980E0024E96E000E01205C
:10399200EA6EEECF0AF3000E006E03010C1908E185
:1039A20000500B1905E1FF0E0A1902E10951FF0A45
:1039B20071E009C300F00AC301F00BC302F00CC3AB
:1039C20003F00036009001360236033600C009F3D8
:1039D20001C00AF302C00BF303C00CF39EC204F051
:1039E2009FC205F0000E066E076E5EEC08F000C086
:1039F200F0F201C0F1F29EC204F09FC205F0000E87
:103A0200066E076E09C300F00AC301F00BC302F091
:103A12000CC303F05EEC08F008C000F009C001F02E
:103A22000AC002F00BC003F000C0EAF201C0EBF2E0
:103A32000201F051EC250301296F0201F151ED2140
:103A420003012A6F000E0201EE2103012B6F000E0B
:103A52000201EF2103012C6F980E2D6F000E2E6FC5
:103A6200A9EC05F0980E0201EA25E96E000EEB21A1
:103A7200EA6EEECF09F3010EEA25006E000EEB218D
:103A8200016E980E0024E96E000E0120EA6EEECF60
:103A92000AF381D7D5EC07F0AFEC07F0C9C200F00A
:103AA200000E016E026E036E9EC204F09FC205F00C
:103AB200000E066E076E2DEC06F000C004F001C089
:103AC20005F002C006F003C007F09AC200F09BC2E4
:103AD20001F09CC202F09DC203F05EEC08F008C047
:103AE20000F009C001F00AC002F00BC003F09EC250
:103AF20004F09FC205F0000E066E076E5EEC08F041
:103B020000C0E1F20050E627000EE723E823E92394
:103B12009EC204F09FC205F0000E066E076E9AC2A6
:103B220000F09BC201F09CC202F09DC203F05EEC69
:103B320008F008C000F009C001F00AC002F00BC092
:103B420003F000C0DDF201C0DEF202C0DFF203C00A
:043B5200E0F212008B
:103B56000134083609360450085E0550D8A0053CE5
:103B6600095E003601360F0E0C6E01340836093632
:103B7600045000A006D0085E0550D8A0053C095E9A
:103B860005D008260550D8B0053C09260036013672
:103B96000C2EEBD700B006D0045008260550D8B03E
:083BA600053C09260000120095
:103BAE000050086E0150006E016A026A036A0B6AC9
:103BBE000C6A960E036E0A6A00C001F008C000F08F
:0A3BCE00086A026AB9EC0CF012005C
:103BD80045C009F346C00AF347C00BF348C00CF3CD
:103BE8006B826BA220D045504610471048101AE04F
:103BF800030109510A110B110C110DE1A8C2E1FFD3
:103C0800A9C2E2FF060EE66EA6C200F0A7C201F046
:103C18008DEC03F008D0010E0301095F000E0A5B6A
:083C28000B5B0C5BDED7120000
:083C3000067EF7EC0FF0120014
:103C38000B6A0350D8B462EF1EF002500A6E028E6F
:103C48008E0E035E03AE66EF1EF0036C080E035C77
:103C5800D8A041EF1EF0036E013602C001F0026ADF
:103C6800080E035CD8A041EF1EF0036E0136016A0E
:103C78000350D8A4D8904BEF1EF00350D8B44BEFA4
:103C88001EF0D89002320132032E45EF1EF00BBC15
:103C980001A058EF1EF0D8A058EF1EF0012AD8B4A2
:103CA800022A02BE75EF1EF00AAE7BEF1EF0021E5E
:103CB800011E012AD8B4022A7BEF1EF0026A016AAB
:103CC8007BEF1EF00B800BAE7FEF1EF0026A0AAE90
:103CD8007FEF1EF0FF0E026E016E0A3602327FEF92
:103CE8001EF0010E0C6EA3EC19F081EF1EF0000E11
:103CF8000C6E81EF1EF0FF0E0C6E0150006E02502C
:043D0800016E120036
:0A3D0C00D0EC19F0FEEC17F01200E5
:103D1600020E0301096F0A6B0B6B010E0C6FCEECE2
:103D260017F097EC13F00050000A5EE10301096BEF
:103D36000A6B0B6B010E0C6FCEEC17F0380E096F89
:103D4600000E0A6FA00E0B6F79EC15F000018E4B7A
:103D56008F2B0301096B640E046E000E056E8EC078
:103D660000F08FC001F0E3EC19F00A0E046E000EAD
:103D7600056EE3EC19F008C000F009C001F000C0C0
:103D86000AF3B1EC19F0010E0301096F0A0E046E75
:103D9600000E056E8EC000F08FC001F0E3EC19F046
:103DA6000A0E046E000E056EE3EC19F008C000F072
:103DB60009C001F000C00AF3B1EC19F0020E0301CC
:103DC600096F0A0E046E000E056E8EC000F08FC0DD
:103DD60001F0E3EC19F008C000F009C001F000C0E2
:0A3DE6000AF3B1EC19F000D012004E
:103DF000086A080E0C6E003408360450085ED8B00D
:0E3E000002D00826D89000360C2EF5D71200FE
:103E0E000900F5CFE6FF0006FBE10106F9E112001D
:103E1E000F01386B396B3A6B939E939C939AD00E2D
:103E2E00F26EF292F19C9380A80ED56ED66AD76A86
:103E3E009288806A816A826A010E306E316A800EC3
:103E4E003118006E800E060A005C13E231C000F0DD
:103E5E00000E31BEFF0E016E0036009001365C0E74
:103E6E000024E16E000E0120E26EE66AE66A312A57
:043E7E00E6D7120071
:103E820031EC0DF0800E0301406F99EC03F0030E4C
:103E92000301406F99EC03F0110E0301406F99EC9E
:103EA20003F07AEC0DF0030E0B6E080E0C6E770E1B
:103EB2000D6E0D2EFED70C2EFCD70B2EFAD731EC41
:103EC2000DF0800E0301406F99EC03F0010E030127
:103ED200406F99EC03F07FDE810E0301406F99EC95
:103EE20003F0010E0301406FCFEC04F000C0FBF2BF
:103EF2000201FA6B0301406BCFEC04F000500201A7
:103F0200FA13000EFB137AEC0DF0FAC200F0FBC2BA
:103F120001F001320032019E01320032019E00C0E6
:103F2200FAF201C0FBF242DE000E046E000E056ED4
:103F3200000E066E840E076E62EC1BF0000E046E1D
:103F4200000E056E480E066E840E076E70DE1200BD
:103F5200086A096A000E076203642EEF20F002501D
:103F620006180A6E075003267E0ED8A0BFEF1FF078
:103F7200035ED8B033EF20F0C3EF1FF0035ED8A08A
:103F820038EF20F0028E068E02C00EF001C00BF058
:103F920000C00DF000500402F4CF0CF001500502F5
:103FA200F4CF00F0F3CF08F00402F3500C26F450E3
:103FB2000822000E00220D500502F3500C26F45088
:103FC2000822000E002202500402F3500826F45088
:103FD200002202500502016A000E0122F35000265F
:103FE200F45001220D500602F3500826F45000222C
:103FF200026A000E012202220B500602F350002632
:10400200F4500122000E02220E500602F350012645
:10401200F450022202BE16EF20F0083600360136B6
:1040220002360306D8B438EF20F029EF20F0D8800A
:10403200800E08640030000E002201220222D8A065
:1040420029EF20F0023201320032034A33EF20F02E
:104052000AAE029E000E3BEF20F0010E4EEC07F07E
:104062003BEF20F0020E42EC07F03BEF20F0040E93
:0640720059EC07F01200FA
:10407800FAC200F00032009E0032009E0032009E1C
:104088000032009E0A0E0002F3CF01F00F0E02016B
:0A409800FA15006E01500026120018
:1040A2000301036B046BFAC205F3FBC206F3FCC205
:1040B20007F3FDC208F3800E0201FD19006E800EA7
:1040C200005C08E1000EFC5D05E1000EFB5D02E113
:1040D200000EFA5D19E2010E0301036F000E046F78
:1040E200056B066B076B086B0201FA510301055F52
:1040F2000201FB510301065B0201FC510301075B54
:104102000201FD510301085B05C309F306C30AF36B
:1041120007C30BF308C30CF3FEC20DF3FFC20EF389
:1041220020EC1CF00B0E016F000E026F000E006EF1
:104132000251005C02E1015100081FE2015102013B
:10414200FE25E16E030102510201FF21E26E010E22
:104152000301015D006E000E0259016E0050020162
:10416200FE25E96E0150FF21EA6EEECFE6FF010E59
:104172000301015F000E025BD9D7FEC2E1FFFFC25D
:10418200E2FF200EE66E0351041122E0016B026B86
:1041920001510201FE25E96E030102510201FF21D4
:1041A200EA6EEE50200A04E10301014B022BF0D724
:1041B2000301010E015F000E025B01510201FE25A7
:1041C200E16E030102510201FF21E26E2D0EE66E45
:0241D2001200D9
:1041D40031EC0DF0800E0301406F99EC03F0030EF7
:1041E4000301406F99EC03F0010E0301406F99EC59
:1041F40003F07AEC0DF0030E0B6E080E0C6E770EC6
:104204000D6E0D2EFED70C2EFCD70B2EFAD731ECEB
:104214000DF0800E0301406F99EC03F0010E0301D1
:10422400406F99EC03F0D6DC810E0301406F99ECEA
:1042340003F0010E0301406FCFEC04F000C0FFF265
:104244000201FE6B0301406BCFEC04F0005002014D
:10425400FE13000EFF137AEC0DF0FEC201F0FFC254
:1042640002F002320132029E02320132029E023216
:104274000132029E02320132029E01C0FEF202C0ED
:10428400FFF20250070802E10150C00809E2000EE3
:10429400FA6F000EFB6F780EFC6F890EFD6F1CD059
:1042A400010EFF5D02E1800EFE5D09E2000EFA6F71
:1042B400000EFB6F400EFC6F870EFD6F0DD0FEC22B
:1042C40000F0FFC201F071DC00C0FAF201C0FBF2A1
:1042D40002C0FCF203C0FDF2000E046E000E056E77
:1042E400000E066E830E076EFAC200F0FBC201F0E8
:1042F400FCC202F0FDC203F062EC1BF0000E046E7F
:10430400000E056E400E066E830E076E8FDC00C035
:10431400FAF201C0FBF202C0FCF203C0FDF212008B
:10432400A69CFAC2A9FFA69EA680A8CF00F0120000
:10433400020E0301096F0A6B0B6B010E0C6FCEECBE
:1043440017F097EC13F00050000A1EE10301096B0B
:104354000A6B0B6B010E0C6FCEEC17F0380E096F65
:10436400000E0A6FA00E0B6F79EC15F091EC1CF0A7
:10437400680E0301096F000E0A6F240E0B6F000E06
:104384000C6FFEEC19F00FD08A8E0D0E0B6EAF0E73
:104394000C6EB60E0D6E0D2EFED70C2EFCD70B2E0A
:0843A400FAD700008A9E120006
:1043AC000450000A08E10550000A05E1FF0E006EFA
:1043BC007F0E016E58D00D6A096A086A0150001010
:1043CC00D8B4000C015005180A6E0ABE0D1E0B6AFB
:1043DC0005AE05D0041E051E042AD8B4052A01AE6C
:1043EC0005D0001E011E002AD8B4012A0150051068
:1043FC000A6E0ABE10D0ABEC1DF00BB020D00DAE87
:10440C00000C001E011E002AD8B4012A081E091E29
:10441C00082AD8B4092A000C05AE0DD001BE07D06D
:10442C000150096E0050086E016A006AE8D7016AF3
:10443C00006A002A000C011E001E0B2ADDD7082A78
:10444C00D8B4092A0450085CD8A4D9D70550095C03
:10445C00D8A4D5D7096A086A002AD8B4012A01AEB3
:08446C00CED70000FF0C120086
:104474008DEC22F0D2DCD6CF2EF0000E2F6ED7CFEB
:1044840001F0006A00502E10026E2F500110036ECE
:1044940002C02EF003C02FF03350031802E1025083
:1044A400321821E08A8C030E0B6E8A0E0C6E550EA8
:1044B4000D6E0D2EFED70C2EFCD70B2EFAD7000056
:1044C40000008A9C010E3426000E35223622372243
:1044D400D6CF32F0000E336ED7CF01F0006A005011
:0A44E400321201503312C7D7FFD780
:10451A0010EE1EF02B0E006E010E016EEE0EF66E00
:0E452A00440EF76E000EF86E07EC1FF0120044
:0444EE0000000000CA
:0244F2000000C8
:0444F40000000000C4
:0444F80000000000C0
:0244FC000000BE
:0244FE000000BC
:0145000000BA
:0145010000B9
:024502000000B7
:0445040000000000B3
:0C45080020202058494D414900000000CF
:0145140000A6
:0445150000000000A2
:020000040030CA
:0D000100231F3CFFBF81FF0FC00FE00F4029
:00000001FF
