:04000000B0EF24F049
:1000080000C01AF001C019F002C018F003C017F0C0
:100018000CC016F00DC015F0E1CF1BF0E2CF1CF0BC
:10002800F2A255D10101115306E053EC20F06EEC19
:1000380024F00101116B434A442A000E445C02E19A
:100048003C0E435CD8A041D1436A446A4C4A4D2ACD
:10005800050E046E000E056E4CC000F04DC001F098
:1000680046EC0FF008C000F009C001F0000E0118BE
:1000780002E1000E0018D8A428D129EC23F000C012
:1000880048F001C049F002C04AF003C04BF000C07C
:1000980003F401C004F402C005F403C006F48D0E95
:1000A8000401076F010E086FB0EC20F02C0E116FE1
:1000B800000E126F39EC13F08D0E116F010E126FD6
:1000C80039EC13F03E0E116F000E126F39EC13F07D
:1000D800A9EC1FF000C03AF001C03BF002C03CF0B0
:1000E80003C03DF000C003F401C004F402C005F4ED
:1000F80003C006F48D0E0401076F010E086FB0EC03
:1001080020F0630E116F000E126F39EC13F08D0E94
:10011800116F010E126F39EC13F05F0E116F000EA4
:10012800126F39EC13F0700E116F000E126F39EC6C
:1001380013F0D6CF0DF1000E01010E6FD7CF01F0ED
:10014800006A0D5100120E51011200C00DF101C0DC
:100158000EF100C003F401C004F48D0E0401056F14
:10016800010E066F93EC23F08D0E116F010E126FC6
:1001780039EC13F06D0E116F000E126F39EC13F09D
:10018800D66AD76A510E116F000E126F39EC13F050
:10019800060E0101126F125100081FE212C100F091
:1001A800000E016E003600900136F50E00240401A1
:1001B800016F030E0120026FD00E036F12C104F409
:1001C80085EC1FF001C4E1FF02C4E2FF00C0E6FFB6
:1001D80001C0E6FF01011207DED7060E126F1251A9
:1001E800000861E212C100F0000E016E00360090B6
:1001F8000136F50E00240401016F030E0120026F81
:1002080001C4E9FF02C4EAFFEECF03F459EC24F07D
:1002180001C4E1FF02C4E2FF00C0E6FF000EE66E83
:1002280012C100F0000E016E003600900136F50E86
:100238000024E96E030E0120EA6EEECF00F0EECF47
:1002480001F00A0E046E000E056EC6EC22F0300EA8
:10025800002404014F6F4CD812C100F0000E016E4B
:10026800003600900136F50E0024E96E030E0120D9
:10027800EA6EEECF00F0EECF01F00A0E046E000E2B
:10028800056EC6EC22F008C000F009C001F0300E7F
:10029800002404014F6F2CD83A0E04014F6F28D860
:1002A800010112079CD7F7C34CF0F8C34DF001ECDD
:1002B80024F04E0E116F000E126F39EC13F05C0E25
:1002C800116F000E126F39EC13F08A7EF2921AC089
:1002D80000F019C001F018C002F017C003F016C0F2
:1002E8000CF015C00DF01BC0E1FF1CC0E2FF1100AF
:0E02F800ACB202D00000FCD74FC4ADFF120024
:0C03060072B201D0FDD74FC473FF12008B
:100312004FC46FFF6DB002D00000FCD76FCF00F06A
:020322001200C7
:100324004FC4C9FFC7B002D00000FCD7C9CF00F04A
:020334001200B5
:10033600F250026EF29E0500FF6A0150FE6E0050FA
:08034600FD6E02BEF28E1200F2
:10034E00A49E49C46FFF1DC04AF41EC04BF41FC0CB
:10035E004CF420C04DF46DA421D01D501E101F1062
:10036E0020101BE004014A514B114C114D110EE1AE
:10037E0067C1E1FF68C1E2FF040EE66E65C100F0E1
:10038E0066C101F0D1DF010E006E3AD0010E0401FC
:10039E004A5F000E4B5B4C5B4D5BDDD71DC04AF4D4
:1003AE001EC04BF41FC04CF420C04DF4A4BE21D08F
:1003BE001D501E101F1020101BE004014A514B113E
:1003CE004C114D110EE167C1E1FF68C1E2FF040E51
:1003DE00E66E65C100F066C101F0A6DF010E006E8B
:1003EE000FD0010E04014A5F000E4B5B4C5B4D5B60
:1003FE00DDD76BBC02D0006A03D06B84020E006E98
:02040E001200DA
:1004100049C4C9FFC7B002D00000FCD7C9CF00F063
:020420001200C8
:1004220049C46FFF6DB002D00000FCD76FCF00F05F
:020432001200B6
:1004340027C04BF428C04CF429C04DF42AC04EF414
:100444009E96C5869EB61FD02750281029102A10C4
:1004540019E004014B514C114D114E110CE173C1C3
:10046400E1FF74C1E2FF030EE66E71C100F072C1D8
:1004740001F05FDF08D0010E04014B5F000E4C5BFE
:100484004D5B4E5BDFD70401C9CF4AF44951000AE2
:1004940002E1C58A01D0C59A9E96C58827C04BF44F
:1004A40028C04CF429C04DF42AC04EF49EB61FD087
:1004B4002750281029102A1019E004014B514C111F
:1004C4004D114E110CE173C1E1FF74C1E2FF030E43
:1004D400E66E71C100F072C101F02BDF08D0010E8D
:1004E40004014B5F000E4C5B4D5B4E5BDFD74AC48F
:0404F40000F0120002
:1004F8009E9649C4C9FF27C04AF428C04BF429C0B6
:100508004CF42AC04DF4C7A421D027502810291034
:100518002A101BE004014A514B114C114D110EE1F8
:1005280073C1E1FF74C1E2FF040EE66E71C100F011
:1005380072C101F0FCDE010E006E3AD0010E04011A
:100548004A5F000E4B5B4C5B4D5BDDD727C04AF41E
:1005580028C04BF429C04CF42AC04DF49EB621D0D3
:100568002750281029102A101BE004014A514B116A
:100578004C114D110EE173C1E1FF74C1E2FF040E8D
:10058800E66E71C100F072C101F0D1DE010E006E9D
:100598000FD0010E04014A5F000E4B5B4C5B4D5BB4
:1005A800DDD7C5BC02D0006A03D0C584020E006E38
:0205B80012002F
:1005BA001DC04BF41EC04CF41FC04DF420C04EF4B5
:1005CA00A49E6B86A4BE1FD01D501E101F102010A3
:1005DA0019E004014B514C114D114E110CE167C148
:1005EA00E1FF68C1E2FF030EE66E65C100F066C175
:1005FA0001F09CDE08D0010E04014B5F000E4C5B3B
:10060A004D5B4E5BDFD704016FCF4AF44951000AB4
:10061A0002E16B8A01D06B9AA49E6B881DC04BF4D1
:10062A001EC04CF41FC04DF420C04EF4A4BE1FD00F
:10063A001D501E101F10201019E004014B514C11BF
:10064A004D114E110CE167C1E1FF68C1E2FF030ED3
:10065A00E66E65C100F066C101F068DE08D0010EE1
:10066A0004014B5F000E4C5B4D5B4E5BDFD74AC407
:04067A0000F012007A
:10067E00400E04014025006E77C1E1FF78C1E2FF14
:10068E0000C0E6FF75C100F076C101F04DDE77C106
:10069E00E1FF78C1E2FF44C4E6FF75C100F076C108
:1006AE0001F042DE77C1E1FF78C1E2FF43C4E6FF0D
:1006BE0075C100F076C101F037DE77C1E1FF78C178
:1006CE00E2FF42C4E6FF75C100F076C101F02CDEF8
:1006DE0077C1E1FF78C1E2FF41C4E6FF75C100F0CA
:1006EE0076C101F021DE77C1E1FF78C1E2FF45C49A
:1006FE00E6FF75C100F076C101F016DE0401476B0E
:10070E00486B77C1E1FF78C1E2FFFF0EE66E75C15F
:10071E0000F076C101F008DE00C046F40401474B3C
:10072E00482B800E0014016E0150000A07E0000EE7
:10073E00485D02E1640E475D01E2E3D746C400F076
:02074E00120097
:100750008A8677C1E1FF78C1E2FFFF0EE66E75C1C0
:0A07600000F076C101F0E7DD1200A1
:04076A008A96120059
:08076E000AAE029E000E12000B
:100776000B840BAEC6EF03F0010E036E026A016A2C
:0A078600006A0A360232FF0E12006C
:10079000220E0C6E086A096A0A6A0B6A0C06D8B443
:1007A0001FD0D8900B320A3209320832033202329B
:1007B00001320032D8A0F2D70C06D8B409D00450C8
:1007C00008260550092206500A2207500B22EAD7B4
:1007D000045008260550092206500A2207500B2211
:0207E000120005
:1007E2000B6A0A6A096A00500402F4CF09F0F3CFD7
:1007F20008F001500502F4CF0BF0F3CF0AF00050DD
:100802000502F3500926F4500A22E86A0B2201502D
:100812000402F3500926F4500A22E86A0B2208C0A7
:1008220000F009C001F00AC002F00BC003F0120090
:100832009BDF000E000A02E1040E2B1809E132C40C
:100842003AF433C43BF434C43CF435C43DF414D01C
:10085200090E006E32C43AF433C43BF434C43CF49F
:1008620035C43DF4005008E004013A373A913B3771
:100872003C373D37FF0FF7D70401180E406F3AC4DB
:1008820041F43BC442F43CC443F43DC444F4FF0E7F
:10089200456FF4DE005204E05ADF010E006E8BD089
:1008A20077C1E1FF78C1E2FFFF0EE66E75C100F08D
:1008B20076C101F03FDD77C1E1FF78C1E2FFFF0EB3
:1008C200E66E75C100F076C101F034DD77C1E1FF5B
:1008D20078C1E2FFFE0EE66E75C100F076C101F04E
:1008E20029DD0401386B396B3951010802E13851B5
:1008F200FF0815E338513625E96E39513721EA6E82
:1009020077C1E1FF78C1E2FFEECFE6FF75C100F0EB
:1009120076C101F00FDD0401384B392BE5D777C1E1
:10092200E1FF78C1E2FFFF0EE66E75C100F076C10D
:1009320001F000DD77C1E1FF78C1E2FFFF0EE66E54
:1009420075C100F076C101F0F5DC77C1E1FF78C135
:10095200E2FFFF0EE66E75C100F076C101F0EADC3F
:1009620000C038F4000E0401396F1F0E3815016EF5
:1009720039C402F0000E021601C038F402C039F484
:10098200000E021802E1050E011804E0E0DE020E7C
:10099200006E11D077C1E1FF78C1E2FFFF0EE66E73
:1009A20075C100F076C101F0C5DC0050FF0A01E01C
:0809B200F1D7CDDE006A12004E
:1009BA00D7DE000E000A02E1040E2B1809E132C448
:1009CA003AF433C43BF434C43CF435C43DF414D093
:1009DA00090E006E32C43AF433C43BF434C43CF416
:1009EA0035C43DF4005008E004013A373A913B37E8
:1009FA003C373D37FF0FF7D70401110E406F3AC459
:100A0A0041F43BC442F43CC443F43DC444F4FF0EF5
:100A1A00456F30DE005204E096DE010E006E4BD0C8
:100A2A0077C1E1FF78C1E2FFFF0EE66E75C100F003
:100A3A0076C101F07BDC0050FE0A01E0F1D7040127
:100A4A00386B396B020E395D02E1000E385D1BE22C
:100A5A00385136253E6F395137213F6F77C1E1FF53
:100A6A0078C1E2FFFF0EE66E75C100F076C101F0B3
:100A7A005DDC3EC4E1FF3FC4E2FF00C0E6FF0401C3
:100A8A00384B392BDFD777C1E1FF78C1E2FFFF0E80
:100A9A00E66E75C100F076C101F048DC77C1E1FF6E
:100AAA0078C1E2FFFF0EE66E75C100F076C101F073
:080ABA003DDC49DE006A120078
:0E0AC200026A016A006A086A036A000E1200E6
:100AD0000B820BAE72EF05F00368026801680068D4
:080AE0000A360232FF0E12007B
:100AE800020E01017B5D046E000E7C59056EA8C1E3
:100AF80000F0000E016E026E036E000E066E076EA9
:100B080043DE00C0ABF101C0ACF102C0ADF103C0DF
:100B1800AEF1A1510024AB6FA2510120AC6FA351DB
:0C0B28000220AD6FA4510320AE6F12003C
:100B340004012E6B2F6B270E2F5D02E1100E2E5D2C
:100B4400D8B09ED0000E000A02E1000E2D1915E166
:100B54000ADE010E406F416B426B436B446BFF0E28
:100B6400456F8BDD00C030F4F1DD04013051000A23
:100B740003E12B6A006A86D080D0F5DD370E406F22
:100B8400416B426B436B446BFF0E456F76DD00C0D7
:100B940030F4DCDD04013051010AD8A46DD0E3DD6A
:100BA400290E406F000E416F000E426F000E436F1E
:100BB400400E446FFF0E456F60DD00C030F4C6DDAB
:100BC40004013051000A57E1000E000A02E1020E4E
:100BD4002D194DE1C8DD3A0E406F416B426B436BFA
:100BE400446BFF0E456F49DD00C030F477C1E1FF6F
:100BF40078C1E2FFFF0EE66E75C100F076C101F028
:100C04009BEC01F000C031F477C1E1FF78C1E2FF51
:100C1400FF0EE66E75C100F076C101F09BEC01F0A9
:100C240077C1E1FF78C1E2FFFF0EE66E75C100F007
:100C340076C101F09BEC01F077C1E1FF78C1E2FFDE
:100C4400FF0EE66E75C100F076C101F09BEC01F079
:100C54007DDD04013051000A09E131AD03D0040EF9
:100C64002B6E02D0030E2B6E006A0CD004D0010E42
:100C74002B6E006A07D001D003D02E4B2F2B5BD7ED
:060C8400010E006E1200DB
:100C8A0004012D6B0101796B7A6B040E0301D76F96
:100C9A00000ED86FE3C332F4E4C333F4E5C334F48B
:100CAA00E6C335F4CD0E0401366F010E376F80DED0
:100CBA000301D851DA1902E1D951D7191FE1D76BCB
:100CCA00D86B0101794B7A2B79510301E325040191
:100CDA00326F01017A510301E4210401336F000EDE
:100CEA000301E5210401346F000E0301E62104012A
:100CFA00356FCD0E366F010E376F5ADECD0E0301FA
:100D0A00D725E96E010ED821EA6EEE50000A12E1EB
:100D1A00010ED725006E000ED821016ECD0E0024DB
:100D2A00E96E010E0120EA6EEE50000A03E1010E9F
:100D3A0004012D6F020E0301D727000ED8230401E8
:100D4A002D53B6E02D6B020E0301D75F000ED85B60
:020D5A00120085
:100D5C0079C100F07AC101F0EBC304F0ECC305F0EB
:100D6C003ADDD7C302F0D8C303F003320232039E3C
:100D7C000250002401017B6F035001207C6F120094
:100D8C000B1E0A1E091E081E082AD8B4092AD8B43C
:080D9C000A2AD8B40B2A120048
:100DA4000450085E0550D8A0053C095E0650D8A042
:100DB400063C0A5E0750D8A0073C0B5E0336070EBC
:100DC4000C6E0334083609360A360B36045003A079
:100DD4000ED0085E0550D8A0053C095E0650D8A088
:100DE400063C0A5E0750D8A0073C0B5E0DD00826CF
:100DF4000550D8B0053C09260650D8B0063C0A2652
:100E04000750D8B0073C0B2603360C2EDAD7023431
:100E1400083609360A360B36045003A00ED0085E95
:100E24000550D8A0053C095E0650D8A0063C0A5ED1
:100E34000750D8A0073C0B5E0DD008260550D8B04B
:100E4400053C09260650D8B0063C0A260750D8B0FF
:100E5400073C0B260236070E0C6E023408360936A0
:100E64000A360B36045002A00ED0085E0550D8A0F6
:100E7400053C095E0650D8A0063C0A5E0750D8A07F
:100E8400073C0B5E0DD008260550D8B0053C09265A
:100E94000650D8B0063C0A260750D8B0073C0B26AB
:100EA40002360C2EDAD70134083609360A360B36E8
:100EB400045002A00ED0085E0550D8A0053C095E7F
:100EC4000650D8A0063C0A5E0750D8A0073C0B5E2B
:100ED4000DD008260550D8B0053C09260650D8B0D8
:100EE400063C0A260750D8B0073C0B260136070EED
:100EF4000C6E0134083609360A360B36045001A04C
:100F04000ED0085E0550D8A0053C095E0650D8A056
:100F1400063C0A5E0750D8A0073C0B5E0DD008269D
:100F24000550D8B0053C09260650D8B0063C0A2620
:100F34000750D8B0073C0B2601360C2EDAD7003404
:100F4400083609360A360B36045001A00ED0085E66
:100F54000550D8A0053C095E0650D8A0063C0A5EA0
:100F64000750D8A0073C0B5E0DD008260550D8B01A
:100F7400053C09260650D8B0063C0A260750D8B0CE
:100F8400073C0B260036070E0C6E00340836093673
:100F94000A360B36045000A00ED0085E0550D8A0C7
:100FA400053C095E0650D8A0063C0A5E0750D8A04E
:100FB400073C0B5E0DD008260550D8B0053C092629
:100FC4000650D8B0063C0A260750D8B0073C0B267A
:100FD40000360C2EDAD700B00ED004500826055087
:100FE400D8B0053C09260650D8B0063C0A2607505E
:080FF400D8B0073C0B261200E7
:100FFC000B6A0A6A096A086A0E6A033408360450D6
:10100C00085E0550D8A0053C095E0650D8A0063CE9
:10101C000A5E0750D8A0073C0B5EE86AD8A0010E08
:10102C000E5E0336070E0C6E0334083609360A368C
:10103C000B360E36045003A012D0085E0550D8A013
:10104C00053C095E0650D8A0063C0A5E0750D8A0A5
:10105C00073C0B5EE86AD8A0010E0E5E11D0082684
:10106C000550D8B0053C09260650D8B0063C0A26D7
:10107C000750D8B0073C0B26E86AD8B0010E0E26F4
:10108C0003360C2ED1D70234083609360A360B3605
:10109C000E36045003A012D0085E0550D8A0053CB3
:1010AC00095E0650D8A0063C0A5E0750D8A0073C43
:1010BC000B5EE86AD8A0010E0E5E11D00826055012
:1010CC00D8B0053C09260650D8B0063C0A26075075
:1010DC00D8B0073C0B26E86AD8B0010E0E260236B3
:1010EC00070E0C6E0234083609360A360B360E36ED
:1010FC00045002A012D0085E0550D8A0053C095E31
:10110C000650D8A0063C0A5E0750D8A0073C0B5EE0
:10111C00E86AD8A0010E0E5E11D008260550D8B092
:10112C00053C09260650D8B0063C0A260750D8B014
:10113C00073C0B26E86AD8B0010E0E2602360C2EA0
:10114C00D1D70134083609360A360B360E36045020
:10115C0002A012D0085E0550D8A0053C095E0650CE
:10116C00D8A0063C0A5E0750D8A0073C0B5EE86A84
:10117C00D8A0010E0E5E11D008260550D8B0053C43
:10118C0009260650D8B0063C0A260750D8B0073CB2
:10119C000B26E86AD8B0010E0E260136070E0C6E2F
:1011AC000134083609360A360B360E36045001A0C7
:1011BC0012D0085E0550D8A0053C095E0650D8A098
:1011CC00063C0A5E0750D8A0073C0B5EE86AD8A024
:1011DC00010E0E5E11D008260550D8B0053C09262C
:1011EC000650D8B0063C0A260750D8B0073C0B2650
:1011FC00E86AD8B0010E0E2601360C2ED1D7003479
:10120C00083609360A360B360E36045001A012D0B9
:10121C00085E0550D8A0053C095E0650D8A0063CD7
:10122C000A5E0750D8A0073C0B5EE86AD8A0010EF6
:10123C000E5E11D008260550D8B0053C0926065084
:10124C00D8B0063C0A260750D8B0073C0B26E86AF3
:10125C00D8B0010E0E260036070E0C6E0034083680
:10126C0009360A360B360E36045000A012D0085E32
:10127C000550D8A0053C095E0650D8A0063C0A5E75
:10128C000750D8A0073C0B5EE86AD8A0010E0E5E92
:10129C0011D008260550D8B0053C09260650D8B008
:1012AC00063C0A260750D8B0073C0B26E86AD8B093
:1012BC00010E0E2600360C2ED1D700B00ED00450E5
:1012CC0008260550D8B0053C09260650D8B0063C77
:0C12DC000A260750D8B0073C0B26120071
:1012E800CD0E0301D725E16E010ED821E26EFF0E67
:1012F800E66E010ED725006E000ED821016ECD0EC8
:101308000024E16E010E0120E26EFF0EE66E01017F
:1013180079510301E3250401326F01017A51030178
:10132800E4210401336F000E0301E5210401346F49
:10133800000E0301E6210401356FCD0E366F010E54
:10134800376F19EC04F0010179510301DF2504011D
:10135800326F01017A510301E0210401336F000E5D
:101368000301E1210401346F000E0301E2210401AD
:10137800356FCD0E366F010E376F19EC04F0120081
:101388006DB409D01F0E6B14016E0150000A03E101
:0A139800010E006E01D0006A120081
:1013A2000CB013EF0AF00CA2BBEF0AF00E6A000EAB
:1013B20002642AEF0AF0F00E0214D8A4F5EF09F045
:1013C200023A01380F0B02260138F00B016E003889
:1013D2000F0B01260038F00B006E08380F0B0026A9
:1013E2000838F00B086E0E84D89002BE0EEF0AF099
:1013F20008360036013602360E2A02BE0EEF0AF019
:1014020008360036013602360E2A02BE0EEF0AF008
:1014120008360036013602360E2A0E500364AFEF4C
:101422000AF0035E0BBC08AEB5EF0AF0D880800E5E
:1014320008640030000E002201220222D8A0B5EF7B
:101442000AF0023201320032034ABBEF0AF0B5EF72
:101452000AF001C002F000C001F008C000F0086A02
:10146200000E0E86026461EF0AF0F00E0214D8A498
:1014720049EF0AF0023A01380F0B02260138F00B4D
:10148200016E00380F0B01260038F00B006E0E843F
:10149200D89002BE0EEF0AF00036013602360E2A4E
:1014A20002BE0EEF0AF00036013602360E2A02BEE6
:1014B2000EEF0AF00036013602360E2A0EEF0AF05F
:1014C20001C002F000C001F0006A000E0E960E8804
:1014D20002648EEF0AF0F00E0214D8A479EF0AF03B
:1014E200023A01380F0B02260138F00B016E0E840E
:1014F200D89002BE0EEF0AF0013602360E2A02BE64
:101502000EEF0AF0013602360E2A02BE0EEF0AF084
:10151200013602360E2A0EEF0AF001C002F0016A0D
:10152200000E0E860264C1EF0AF0F00E0214D8A477
:101532009DEF0AF0023A0E84D89002BE0EEF0AF036
:1015420002360E2A02BE0EEF0AF002360E2A02BE42
:101552000EEF0AF002360E2A0EEF0AF0010E0C6EA2
:10156200BBEC03F0C5EF0AF0020E0C6EB7EC03F011
:10157200C5EF0AF0040E0C6E68EC05F0C5EF0AF038
:0A158200080E0C6E61EC05F012007B
:10158C00025006180E6E086A096A0B6A035007644B
:10159C00B9EF0BF006500A6E068E028E03500B6EDE
:1015AC000750036E000E0B6409EF0BF00B50075E37
:1015BC00D8B4AAEF0BF0070E076478EF0BF0075EB8
:1015CC0000C008F001C000F002C001F0026A074E32
:1015DC00AAEF0BF007644DEF0BF0075E00C008F0AC
:1015EC0001C000F0016A074EAAEF0BF007642BEF65
:1015FC000BF0075E00C008F0006A074EAAEF0BF074
:10160C00076412EF0BF00AC002F005C001F004C031
:10161C0000F0086AD4EF0CF0030E07641DEF0BF01A
:10162C00075E08380F0B086E074EAAEF0BF0D89028
:10163C000832074EAAEF0BF0D8900832074EAAEFEB
:10164C000BF0D8900832AAEF0BF0030E07643CEFB6
:10165C000BF0075E08380F0B086E0038F00B0826ED
:10166C0000380F0B006E074EAAEF0BF0D89000322B
:10167C000832074EAAEF0BF0D89000320832074E12
:10168C00AAEF0BF0D89000320832AAEF0BF0030E41
:10169C00076464EF0BF0075E08380F0B086E003818
:1016AC00F00B082600380F0B006E0138F00B0026EB
:1016BC0001380F0B016E074EAAEF0BF0D8900132D8
:1016CC0000320832074EAAEF0BF0D89001320032EC
:1016DC000832074EAAEF0BF0D890013200320832D4
:1016EC00AAEF0BF0030E076495EF0BF0075E0838BA
:1016FC000F0B086E0038F00B082600380F0B006E2D
:10170C000138F00B002601380F0B016E0238F00B7C
:10171C00012602380F0B026E074EAAEF0BF0D89081
:10172C000232013200320832074EAAEF0BF0D89089
:10173C000232013200320832074EAAEF0BF0D89079
:10174C000232013200320832096A000E0EAE9EEFF0
:10175C000CF0081E001E011E021E082A0022012287
:10176C0002229EEF0CF00750D8A4BFEF0BF0D4EF81
:10177C000CF0096A02C00AF0028E068E0750035C58
:10178C00076ED8B491EF0CF0070E07645FEF0CF006
:10179C00075E0450096E0550046E0650056E066A0D
:1017AC00074E91EF0CF0070E076434EF0CF0075E58
:1017BC000450096E0550046E056A074E91EF0CF04B
:1017CC00070E076412EF0CF0075E0450096E046AF2
:1017DC00074E91EF0CF0070E0764F9EF0BF00AC0FF
:1017EC0002F0D4EF0CF0030E076404EF0CF0075E6C
:1017FC0009380F0B096E074E91EF0CF0D890093297
:10180C00074E91EF0CF0D8900932074E91EF0CF087
:10181C00D890093291EF0CF0030E076423EF0CF013
:10182C00075E09380F0B096E0438F00B09260438D3
:10183C000F0B046E074E91EF0CF0D8900432093266
:10184C00074E91EF0CF0D89004320932074E91EF0D
:10185C000CF0D8900432093291EF0CF0030E0764AF
:10186C004BEF0CF0075E09380F0B096E0438F00BC8
:10187C00092604380F0B046E0538F00B04260538C6
:10188C000F0B056E074E91EF0CF0D8900532043219
:10189C000932074E91EF0CF0D89005320432093220
:1018AC00074E91EF0CF0D89005320432093291EFCB
:1018BC000CF0030E07647CEF0CF0075E09380F0B7D
:1018CC00096E0438F00B092604380F0B046E05382A
:1018DC00F00B042605380F0B056E0638F00B0526A9
:1018EC0006380F0B066E074E91EF0CF0D8900632AF
:1018FC00053204320932074E91EF0CF0D8900632C3
:10190C00053204320932074E91EF0CF0D8900632B2
:10191C00053204320932086A000E0EAE9EEF0CF04E
:10192C00091E041E051E061E092A04220522062273
:10193C0009500826045000220550012206500222AC
:10194C000EBEB5EF0CF0D8A0C4EF0CF00232013291
:10195C0000320832033EC4EF0CF0CEEF0CF0D8B0DE
:10196C00C9EF0CF0000E081E001E011E021E082AF4
:10197C000022012202220A7EC9EF0CF0010E0C6E2D
:10198C000ADDD6EF0CF0020E0C6E05DDD6EF0CF076
:10199C00040E0C6E68EC05F0D6EF0CF0000E0C6E1D
:0219AC00120027
:1019AE000450000A12E10550000A0FE10650000A29
:1019BE000CE10750000A09E1FF0E006EFF0E016EEA
:1019CE00FF0E026E7F0E036E99D00C6A07BE0C2AB4
:1019DE000D6A0B6A0A6A096A086A0350021001103E
:1019EE000010D8B485D0035007180E6E0EBE0D1E13
:1019FE0007AE0BD0041E051E061E071E042AD8B401
:101A0E00052AD8B4062AD8B4072A03AE0BD0001E76
:101A1E00011E021E031E002AD8B4012AD8B4022ABF
:101A2E00D8B4032A035007100E6E0EBE1DD0D2EC92
:101A3E0006F00CBE36D00DAE5BD0001E011E021E8F
:101A4E00031E002AD8B4012AD8B4022AD8B4032A15
:101A5E00081E091E0A1E0B1E082AD8B4092AD8B45D
:101A6E000A2AD8B40B2A44D007AE15D003BE0DD027
:101A7E0003500B6E02500A6E0150096E0050086E34
:101A8E00036A026A016A006AD6D7036A026A016AA9
:101A9E00006A002A000C031E021E011E001E0C8E80
:101AAE00C6D7082AD8B4092AD8B40A2AD8B40B2A19
:101ABE000450085CD8A4BFD70550095CD8A4BBD786
:101ACE0006500A5CD8A4B7D707500B5CD8A4B3D77E
:101ADE000B6A0A6A096A086A002AD8B4012AD8B4BD
:101AEE00022AD8B4032A03AEA6D70E6A0E88FF0CBC
:0E1AFE000E6A0CA002D0C6EC06F0000F12001B
:101B0C000301CD6BCE6BCF6BD06BDB6BDC6BDD6B0A
:101B1C00DE6BE76BE86BE96BEA6B01017B6B7C6B53
:101B2C00AB6BAC6BAD6BAE6B0301D16BD26BD36B90
:101B3C00D46BE36BE46BE56BE66BDF6BE06BE16B3B
:101B4C00E26B0101796B7A6BA96BAA6B0301D76B02
:101B5C00D86B0101B16BB26B0301D96BDA6BEB6B18
:101B6C00EC6B0101AF6BB06BA56BA66B0301D56B76
:101B7C00D66B0101A16BA26BA36BA46BA86BA76BBB
:101B8C00C46BC36BC96BCA6BCB6BCC6B0301ED6BBA
:101B9C00EE6BF16BF26BEF6BF06BF36BF46B1200A3
:041BAC006B84120034
:101BB0000C6A0E6A0250D8A4F1EF0DF001C002F0D9
:101BC00000C001F0006A0E860250D8A4F1EF0DF0BB
:101BD00001C002F0016A0E960E880250D8B403EFDD
:101BE0000EF00E50035ED8A4D8A009EF0EF0D890E6
:101BF00002BE0FEF0EF0003601360236032EF8EF6C
:101C00000DF009EF0EF0010E0C6E61EC05F013EF14
:101C10000EF0020E0C6EBBEC03F013EF0EF0040E90
:081C20000C6EB7EC03F012009A
:101C2800050E2B6E9396A8EC03F00401276B286B26
:101C3800000E285D02E10A0E275D10E277C1E1FF80
:101C480078C1E2FFFF0EE66E75C100F076C101F0C3
:101C58009BEC01F00401274B282BEAD7B5EC03F0E5
:101C6800406B416B426B436B446B950E456F3FEC89
:101C780003F000C029F4A8EC03F004012951010A7B
:101C880003E0010E006E7FD0B5EC03F0080E406F44
:101C9800AA0E416F010E426F000E436F446F870E0C
:101CA800456F3FEC03F000C029F477C1E1FF78C12C
:101CB800E2FFFF0EE66E75C100F076C101F09BEC05
:101CC80001F077C1E1FF78C1E2FFFF0EE66E75C152
:101CD80000F076C101F09BEC01F077C1E1FF78C11B
:101CE800E2FFFF0EE66E75C100F076C101F09BECD5
:101CF80001F077C1E1FF78C1E2FFFF0EE66E75C122
:101D080000F076C101F09BEC01F0A8EC03F00401AF
:101D18002951010A0AE0010E2D6F9AEC05F00052D4
:101D280003E02D6B9AEC05F004D0020E2D6F9AECAF
:101D380005F0000E000A02E1050E2B1803E1020E61
:101D4800006E21D0000E000A02E1040E2B181AE0E2
:101D5800B5EC03F0100E406F000E416F020E426F9B
:101D6800000E436F446FFF0E456F3FEC03F000C059
:101D780029F4A8EC03F004012951000A03E0030E3A
:081D8800006E01D0006A120098
:081D90000B6A0B86FF0E120026
:101D980079C1A9F17AC1AAF1D7C3B1F1D8C3B2F117
:101DA80045EC06F074EC09F0AEEC06F0A95103011D
:101DB800E3250401326F0101AA510301E421040162
:101DC800336F000E0301E5210401346F000E030197
:101DD800E6210401356FCD0E366F010E376FDDEC4D
:101DE80004F0CD0E0101B125E16E010EB221E26EC3
:101DF8007BC1E6FF010EB125006E000EB221016E17
:101E0800CD0E0024E16E010E0120E26E7CC1E6FFDA
:101E1800A9510301E3250401326F0101AA5103010D
:101E2800E4210401336F000E0301E5210401346F3E
:101E3800000E0301E6210401356FCD0E366F010E49
:101E4800376F19EC04F00101A9510301DF250401E2
:101E5800326F0101AA510301E0210401336F000E22
:101E68000301E1210401346F000E0301E2210401A2
:101E7800356FCD0E366F010E376F19EC04F074EC28
:041E880005F012004F
:101E8C00086A096A100E0C6E0134083609360450C3
:101E9C00085E0550D8A0053C095ED8B007D00450A8
:101EAC0008260550D8B0053C0926D89000360136D6
:061EBC000C2EEAD7120013
:101EC2007BC105F07CC106F0000E076E086E05C0EE
:101ED20000F006C001F007C002F008C003F00036AF
:101EE200009001360236033600C027F401C028F400
:101EF20002C029F403C02AF4D9C304F0DAC305F0FE
:101F0200000E066E076EFEEC07F000C079F101C00C
:101F12007AF1D9C304F0DAC305F0000E066E076E3B
:101F220027C400F028C401F029C402F02AC403F037
:101F3200FEEC07F008C000F009C001F00AC002F090
:0E1F42000BC003F000C0D7F301C0D8F31200AB
:101F5000040127517A0804E3610E275DD8B0279B5E
:061F600027C400F012008E
:101F6600880E01016D6F130E6E6F000E6F6F000EFF
:101F7600706FC60E696F250E6A6F000E6B6F000ECE
:101F86006C6FD60E816F350E826F000E836F000E5A
:101F9600846FBA0E7D6F050E7E6F490E7F6F040E3D
:101FA600806F4E0E896F030E8A6F490E8B6F040E7B
:101FB6008C6FAC0E856F1B0E866F000E876F000E42
:101FC600886F939493928A948A92938493826D9E57
:081FD6006D9C380E6C6E1200C8
:101FDE000301DD6BDE6BDB6BDC6B45EC06F074EC4A
:101FEE0009F0AEEC06F0CDC332F4CEC333F4CFC35A
:101FFE0034F4D0C335F4CD0E0401366F010E376FB5
:10200E00DDEC04F004012B6B0301DE51DA1902E161
:10201E00D951DD191DE1DD6BDE6BDB4BDC2BDB51AA
:10202E00CD250401326F0301DC51CE210401336F43
:10203E00000E0301CF210401346F000E0301D021E5
:10204E000401356FCD0E366F010E376FDDEC04F0E7
:10205E00CD0E0301DD25E96E010EDE21EA6EEE5096
:10206E00E50A0AE0CD0EDD25E96E010EDE21EA6EEF
:10207E00EE50000A01E003D0010E04012B6F200E7A
:10208E000301DD27000EDE2304012B53BDE02B518F
:10209E00010AD8A420D1200E0301DD5F000EDE5B05
:1020AE0004012A6B2A510A0818E32A510301DD257F
:1020BE00006E000EDE21016ECD0E0024E16E010ECB
:1020CE000120E26E04012A512725E96E000E282117
:1020DE00EA6EEECFE6FF2A2BE5D71C0E2A6F200EF6
:1020EE002A5D11E22A510301DD25006E000EDE216C
:1020FE00016ECD0E0024E16E010E0120E26EE66A45
:10210E0004012A2BECD71A0E0301DD25006E000EFA
:10211E00DE21016ECD0E0024E16E010E0120E26E75
:10212E007BC1E6FF1B0EDD25006E000EDE21016E6B
:10213E00CD0E0024E16E010E0120E26E7CC1E6FFA1
:10214E000B0EDD25006E000EDE21016ECD0E00247D
:10215E00E16E010E0120E26E29C4E6FF0D0E0401B0
:10216E002A6F2A51190811E32A510301DD25006E49
:10217E00000EDE21016ECD0E0024E16E010E012057
:10218E00E26EE66A04012A2BECD70E0E0301DD2562
:10219E00006E000EDE21016ECD0E0024E16E010EEA
:1021AE000120E26EEFC3E6FF0F0EDD25006E000E7E
:1021BE00DE21016ECD0E0024E16E010E0120E26ED5
:1021CE00F0C3E6FF100EDD25006E000EDE21016E5F
:1021DE00CD0E0024E16E010E0120E26EEDC3E6FF8E
:1021EE00110EDD25006E000EDE21016ECD0E0024D7
:1021FE00E16E010E0120E26EEEC3E6FF120EDD254A
:10220E00006E000EDE21016ECD0E0024E16E010E79
:10221E000120E26EEDC3E6FF130EDD25006E000E0B
:10222E00DE21016ECD0E0024E16E010E0120E26E64
:10223E00EEC3E6FF160EDD25006E000EDE21016EEA
:10224E00CD0E0024E16E010E0120E26EEFC3E6FF1B
:10225E00170EDD25006E000EDE21016ECD0E002460
:10226E00E16E010E0120E26EF0C3E6FF180EDD25D1
:10227E00006E000EDE21016ECD0E0024E16E010E09
:10228E000120E26EEDC3E6FF190EDD25006E000E95
:10229E00DE21016ECD0E0024E16E010E0120E26EF4
:1022AE00EEC3E6FFDB51CD250401326F0301DC5195
:1022BE00CE210401336F000E0301CF210401346FD0
:1022CE00000E0301D0210401356FCD0E366F010EC5
:0C22DE00376F19EC04F074EC05F01200EE
:1022EA00010179510301E3250401326F01017A5199
:1022FA000301E4210401336F000E0301E521040107
:10230A00346F000E0301E6210401356FCD0E366FDE
:10231A00010E376FDDEC04F0CD0E0301D725026EF6
:10232A00010ED821036E02C0E9FF03C0EAFFEECF17
:10233A0028F4000E0401296F2A6F2B6F000E296FF3
:10234A002A6F2B6F010E0301D725006E000ED821CC
:10235A00016ECD0E0024E96E010E0120EA6EEECF69
:10236A0029F479C1A9F17AC1AAF1D7C3B1F1D8C3C5
:10237A00B2F102C0E1FF03C0E2FF27C4E6FF010E8B
:10238A00D725006E000ED821016ECD0E0024E16E15
:10239A00010E0120E26E27C4E6FF01017951030113
:1023AA00E3250401326F01017A510301E42104019A
:1023BA00336F000E0301E5210401346F000E03019F
:1023CA00E6210401356FCD0E366F010E376F19EC19
:1023DA0004F0010179510301DF250401326F010183
:1023EA007A510301E0210401336F000E0301E12158
:1023FA000401346F000E0301E2210401356FCD0E92
:10240A00366F010E376F19EC04F0000E006E0401EE
:10241A002B1908E100502A1905E1FF0E291902E1DA
:10242A002851FF0AD8B4C1D028C400F029C401F049
:10243A002AC402F02BC403F000360090013602369B
:10244A00033600C028F401C029F402C02AF403C0EC
:10245A002BF4D9C304F0DAC305F0000E066E076E3A
:10246A00FEEC07F000C079F101C07AF1D9C304F09B
:10247A00DAC305F0000E066E076E28C400F029C400
:10248A0001F02AC402F02BC403F0FEEC07F008C0E6
:10249A0000F009C001F00AC002F00BC003F000C04E
:1024AA00D7F301C0D8F3010179510301E3250401EF
:1024BA00326F01017A510301E4210401336F000EE6
:1024CA000301E5210401346F000E0301E621040132
:1024DA00356FCD0E366F010E376FDDEC04F0CD0E81
:1024EA000301D725026E010ED821036E02C0E9FF4F
:1024FA0003C0EAFFEECF28F4010ED725006E000EC6
:10250A00D821016ECD0E0024E96E010E0120EA6E7B
:10251A00EECF29F402C0E1FF03C0E2FFE66A010E32
:10252A00D725006E000ED821016ECD0E0024E16E73
:10253A00010E0120E26EE66A010179510301E325E9
:10254A000401326F01017A510301E4210401336F5E
:10255A00000E0301E5210401346F000E0301E62198
:10256A000401356FCD0E366F010E376F19EC04F08A
:10257A00010179510301DF250401326F01017A510A
:10258A000301E0210401336F000E0301E12104017C
:10259A00346F000E0301E2210401356FCD0E366F50
:1025AA00010E376F19EC04F030D7A9C179F1AAC12D
:0C25BA007AF1B1C1D7F3B2C1D8F312001E
:1025C6001DC029F41EC02AF41FC02BF420C02CF411
:1025D6000401276B286B2851120802E127518E0847
:1025E60009E3C4EC09F0005201E004D00401274BD2
:1025F600282BF1D70401120E285D02E18F0E275D0C
:1026060003E37B0E006E25D06B806BA021D01D509E
:102616001E101F1020101BE029512A112B112C11FE
:102626000FE167C1E1FF68C1E2FF050EE66E65C115
:1026360000F066C101F09BEC01F0010E006E09D0BE
:10264600010E0401295F000E2A5B2B5B2C5BDDD794
:04265600006A120004
:10265A00040127517A0806E3610E275D03E3010EA0
:08266A00006E01D0006A1200AD
:102672000401146B11C4E9FF12C4EAFFEECF13F494
:102682001351000A0FE013C44FF47CEC01F0040173
:10269200142B14511125E96E000E1221EA6EEECFB1
:0626A20013F4EED7120054
:1026A8000401156B166B14EC0EF0162B005204E0A7
:1026B800320E165D01E2F7D7320E165D03E3FF0E08
:1026C800006ECFD186EC0DF0C9C132F4CAC133F423
:1026D800CBC134F4CCC135F4CD0E0401366F010EF4
:1026E800376FDDEC04F00301CB51550AD8A467D04D
:1026F800CC51AA0AD8A463D00101CD51E90A09E056
:10270800CD51EB0A04E1CF51900A01E102D0006AF1
:1027180002D0010E006E00524FE10301975307E10A
:10272800985305E1995303E19A5301E109D093C302
:10273800C9F194C3CAF195C3CBF196C3CCF139D092
:10274800A75307E1A85305E1A95303E1AA5301E1FF
:1027580009D0A3C3C9F1A4C3CAF1A5C3CBF1A6C3C9
:10276800CCF127D0B75307E1B85305E1B95303E1DA
:10277800BA5301E109D0B3C3C9F1B4C3CAF1B5C3AF
:10278800CBF1B6C3CCF115D0C75307E1C85305E167
:10279800C95303E1CA5301E109D0C3C3C9F1C4C392
:1027A800CAF1C5C3CBF1C6C3CCF103D0010E006E8C
:1027B80058D10401156B03D00401010E156F0401F3
:1027C800166B0401155329E1C9C132F4CAC133F4A7
:1027D800CBC134F4CCC135F4CD0E366F010E376F52
:1027E800DDEC04F00301CB51550A07E1CC51AA0AEC
:1027F80004E1010E0401156F10D004011651400ABE
:1028080003E1010E006E2DD1162B010E0101C9271F
:10281800000ECA23CB23CC23D4D7010E0401166F94
:102828001551010AD8A41BD1D9C1DAF30301D96B18
:102838000101D8510301D913000EDA13DAC1A8F146
:10284800DCC1B0F10101AF6BDB51AF13000EB01367
:10285800DDC1C4F1E4C101F0006AE3510012000EC9
:10286800011200C0A5F101C0A6F1DDC104F0000EFF
:10287800056EF1EC03F00050C9250301CD6F01503E
:102888000101CA210301CE6F000E0101CB21030112
:10289800CF6F000E0101CC210301D06F0101AF51B0
:1028A8000301CD270101B0510301CE23000ECF2330
:1028B800D023DFC101F0006A0101DE510012000ED1
:1028C800011200C0D5F301C0D6F300C005F001C065
:1028D80006F0000E076E086E050E046E05C000F0C7
:1028E80006C001F007C002F008C003F0045007E07A
:1028F80000360090013602360336FF0FF8D7030181
:10290800D9510026DA510122000E02220322010EBB
:10291800005E000E015A025A035AD9C304F0DAC302
:1029280005F0000E066E076ED7EC0CF000500301A0
:10293800CD250101A16F01500301CE210101A26F34
:1029480002500301CF210101A36F03500301D021DD
:102958000101A46FAF51C925006EB051CA21016EA3
:10296800000ECB21026E000ECC21036E00C0E3F3F3
:1029780001C0E4F302C0E5F303C0E6F3A551002467
:102988000301DF6F0101A65101200301E06F000E72
:102998000220E16F000E0320E26FD9C3EBF3DAC324
:1029A800ECF3EC33EB33EC9F0101E351E411006EDF
:1029B80053E0E151E011006E05E0E0C111F4E1C11E
:1029C80012F408D0EDC111F4EEC112F4EFC113F402
:1029D800F0C114F411C400F012C401F013C402F0E1
:1029E80014C403F0A151005EA251015AA351025A26
:1029F800A451035AA8C104F0000E056E066E076EB6
:102A0800FEEC07F000C011F401C012F402C013F488
:102A180003C014F4000E035C08E1000E025C05E13B
:102A28000F0E015C02E1F50E005C04E2010E0401E8
:102A3800166F11D00401000E145D08E1000E135D3D
:102A480005E1FF0E125D02E1F50E115D02E2166B63
:102A580002D0010E166F03D0010E006E02D016C40C
:042A680000F0120068
:102A6C00F80E0101B76F020EB86F4F0EB96F040E5E
:102A7C00BA6FFF0EB36FFF0EB46F000EB56F000E82
:102A8C00B66FFF0EBF6FFF0EC06F000EC16F000E52
:102A9C00C26FFF0EBB6FFF0EBC6F000EBD6F000E42
:102AAC00BE6FAC8A900EAB6E948E949C9EAA03D093
:082ABC00AECF00F0FBD71200C1
:102AC400320E6E6EB3EC0FF0030E0B6E8A0E0C6EAC
:102AD400550E0D6E0D2EFED70C2EFCD70B2EFAD7ED
:062AE400000000001200DA
:102AEA000401236B246B23511125E96E000E122178
:102AFA00EA6EEE50000A41E023511125E96E000EFC
:102B0A001221EA6EEE502E0A02E123C424F4235164
:102B1A001125E96E000E1221EA6EEECF27F498DD38
:102B2A00005219E0170E256F040E266F2351252730
:102B3A00D8B0262B23511125E96E000E1221EA6E18
:102B4A00EECF27F4A8EC0FF025C4E1FF26C4E2FF7C
:102B5A0000C0E6FF10D0170EE16E040EE26E23519C
:102B6A00E126D8B0E22A23511125E96E000E12217E
:102B7A00EA6EEECFE6FF232BB6D7170EE16E040EF0
:102B8A00E26E2351E126D8B0E22AE66A245354E0E1
:102B9A0024C423F4030E2425016E026A000E0222C5
:102BAA00800E006E800E0218005C02E10150235D67
:102BBA0043E22351010F006E016A000E0122170E33
:102BCA000024E96E040E0120EA6EEE50000A1CE1B0
:102BDA00020E2425016E026A000E0222800E0218DD
:102BEA00006E800E005C02E12351015C0CE3170EBB
:102BFA00E16E040EE26E2351E126D8B0E22A200EDD
:102C0A00E66E232BE5D718D0170EE16E040EE26E9E
:102C1A002351E126D8B0E22A2351010F006E016A3E
:102C2A00000E0122170E0024E96E040E0120EA6E3E
:102C3A00EECFE6FF232BAED723070A0E235D2FE242
:102C4A00170EE96E040EEA6E2351E926D8B0EA2A75
:102C5A00EECF21F42307170EE96E040EEA6E235114
:102C6A00E926D8B0EA2AEECF20F42307170EE96E38
:102C7A00040EEA6E2351E926D8B0EA2AEECF1FF4F1
:102C8A00235107080CE3170EE16E040EE26E23517E
:102C9A00E126D8B0E22A200EE66E232BF1D7226B6A
:102CAA000301DD6BDE6BDB6BDC6BCDC332F4CEC3B1
:102CBA0033F4CFC334F4D0C335F4CD0E0401366FE8
:102CCA00010E376FDDEC04F00401146B156B246BF5
:102CDA000301DE51DA1902E1D951DD191DE1DD6B7B
:102CEA00DE6BDB4BDC2BDB51CD250401326F03019C
:102CFA00DC51CE210401336F000E0301CF21040100
:102D0A00346F000E0301D0210401356FCD0E366FEA
:102D1A00010E376FDDEC04F00401246B236B2351A1
:102D2A000A081CE323510301DD25006E000EDE2193
:102D3A00016ECD0E0024E96E010E0120EA6E170E17
:102D4A00D96E040EDA6E04012351D926D8B0DA2AD4
:102D5A00EE50DE18D8B4242B232BE1D7144B152BB5
:102D6A00CD0E0301DD25E96E010EDE21EA6EEECFFE
:102D7A0016F4200EDD27000EDE23040124510B0A6F
:102D8A0011E015510301D61903E1D55104011419B3
:102D9A0003E104011E0E246F04011651000A02E128
:102DAA00190E246F24510A0893E2140E245DD8B038
:102DBA00D7D0200E0301DD5D026E000EDE59036ED0
:102DCA0002C0DDF303C0DEF31A0E0224006E000E09
:102DDA000320016ECD0E0024E96E010E0120EA6E79
:102DEA00EECF7BF11B0E0224006E000E0320016E53
:102DFA00CD0E0024E96E010E0120EA6EEECF7CF1C1
:102E0A0074EC05F01C0E0301DD25006E000EDE21B8
:102E1A00016ECD0E0024E96E010E0120EA6EEECF9E
:102E2A00D1F31D0EDD25006E000EDE21016ECD0EE2
:102E3A000024E96E010E0120EA6EEECFD2F31E0ED7
:102E4A00DD25006E000EDE21016ECD0E0024E96E36
:102E5A00010E0120EA6EEECFD3F31F0EDD25006EC0
:102E6A00000EDE21016ECD0E0024E96E010E012056
:102E7A00EA6EEECFD4F361EC0FF00E0EDD25006E94
:102E8A00000EDE21016ECD0E0024E96E010E012036
:102E9A00EA6EEECFEFF30F0EDD25006E000EDE2197
:102EAA00016ECD0E0024E96E010E0120EA6EEECF0E
:102EBA00F0F3100EDD25006E000EDE21016ECD0E40
:102ECA000024E96E010E0120EA6EEECFEDF3110E39
:102EDA00DD25006E000EDE21016ECD0E0024E96EA6
:102EEA00010E0120EA6EEECFEEF3160EDD25006E1E
:102EFA00000EDE21016ECD0E0024E96E010E0120C6
:102F0A00EA6EEECFF3F3170EDD25006E000EDE211A
:102F1A00016ECD0E0024E96E010E0120EA6EEECF9D
:102F2A00F4F3180EDD25006E000EDE21016ECD0EC3
:102F3A000024E96E010E0120EA6EEECFF1F3190EBC
:102F4A00DD25006E000EDE21016ECD0E0024E96E35
:102F5A00010E0120EA6EEECFF2F3010E006E10D0E0
:102F6A00040113AF0CD0170E276F040E286F7F0EC3
:102F7A001315296FEFEC0FF0010E006E01D0006AF5
:022F8A00120033
:102F8C00E3EC12F0D20E0401496FA7EC01F0190E1C
:102F9C000401496FA7EC01F0070E0401496FA7EC7F
:102FAC0001F0D6EC0DF0030E0B6E8A0E0C6E550E66
:102FBC000D6E0D2EFED70C2EFCD70B2EFAD7000063
:102FCC000000E3EC12F0D20E0401496FA7EC01F003
:102FDC006B0E0401496FA7EC01F00401496BA7ECDF
:102FEC0001F0D6EC0DF0030E0B6E8A0E0C6E550E26
:102FFC000D6E0D2EFED70C2EFCD70B2EFAD7000023
:10300C000000E3EC12F0D20E0401496FA7EC01F0C2
:10301C006C0E0401496FA7EC01F00401496BA7EC9D
:10302C0001F0D6EC0DF0030E0B6E8A0E0C6E550EE5
:10303C000D6E0D2EFED70C2EFCD70B2EFAD70000E2
:10304C000000E3EC12F0D20E0401496FA7EC01F082
:10305C001B0E0401496FA7EC01F00401496BA7ECAE
:10306C0001F0D6EC0DF0030E0B6E8A0E0C6E550EA5
:10307C000D6E0D2EFED70C2EFCD70B2EFAD70000A2
:10308C000000E3EC12F0D20E0401496FA7EC01F042
:10309C001C0E0401496FA7EC01F00401496BA7EC6D
:1030AC0001F0D6EC0DF0030E0B6E8A0E0C6E550E65
:1030BC000D6E0D2EFED70C2EFCD70B2EFAD7000062
:1030CC000000E3EC12F0030E0B6E8A0E0C6E550E24
:1030DC000D6E0D2EFED70C2EFCD70B2EFAD7000042
:1030EC000000D20E0401496FA7EC01F0380E040168
:1030FC00496FA7EC01F0400E0401496FA7EC01F0F9
:10310C00D6EC0DF0030E0B6E8A0E0C6E550E0D6E7A
:10311C000D2EFED70C2EFCD70B2EFAD7000000007C
:10312C00E3EC12F0D20E0401496FA7EC01F0200E73
:10313C000401496FA7EC01F0010E0401496FA7ECE3
:10314C0001F0D6EC0DF0030E0B6E8A0E0C6E550EC4
:10315C000D6E0D2EFED70C2EFCD70B2EFAD70000C1
:10316C000000E3EC12F0D20E0401496FA7EC01F061
:10317C003A0E0401496FA7EC01F0010E0401496FEE
:10318C00A7EC01F0D6EC0DF0030E0B6E8A0E0C6E54
:10319C00550E0D6E0D2EFED70C2EFCD70B2EFAD71E
:1031AC0000000000E3EC12F0D20E0401496FA7EC12
:1031BC0001F01F0E0401496FA7EC01F0010E040190
:1031CC00496FA7EC01F0D6EC0DF0060E0B6E130E4A
:1031DC000C6EAD0E0D6E0D2EFED70C2EFCD70B2EDD
:1031EC00FAD700000000E3EC12F0D20E0401496F94
:1031FC00A7EC01F01A0E0401496FA7EC01F0FF0EC9
:10320C000401496FA7EC01F0D6EC0DF0030E0B6E28
:10321C008A0E0C6E550E0D6E0D2EFED70C2EFCD795
:10322C000B2EFAD700000000E3EC12F0D20E0401D2
:10323C00496FA7EC01F06C0E0401496FA7EC01F08B
:10324C00600E0401496FA7EC01F0D6EC0DF0030EF3
:10325C000B6E8A0E0C6E550E0D6E0D2EFED70C2EAF
:10326C00FCD70B2EFAD700000000E3EC12F0D20EC4
:10327C000401496FA7EC01F06B0E0401496FA7EC38
:10328C0001F0100E0401496FA7EC01F0D6EC0DF023
:10329C00030E0B6E8A0E0C6E550E0D6E0D2EFED798
:1032AC000C2EFCD70B2EFAD700000000060E0B6E6E
:1032BC00130E0C6EAD0E0D6E0D2EFED70C2EFCD714
:0A32CC000B2EFAD7000000001200DC
:1032D600C69A100E0101756F040E766F490E776F50
:1032E600040E786F240EC56F030EC66F4F0EC76FA0
:1032F600040EC86F949A04011151040A02E19486DF
:1033060001D094969488C66AC79CC79E1151C6126E
:103316001351C6121251C712135305E01451000A75
:10332600D8B4C78C03D01453D8A4C78CC68A12004D
:103336000050086E0150006E016A026A036A0B6A49
:103346000C6A960E036E0A6A00C001F008C000F00F
:0A335600086A026AD8EC0DF01200BC
:103360000450000A12E10550000A0FE10650000A5D
:103370000CE10750000A09E1FF0E006EFF0E016E1E
:103380007F0E026EFF0E036EA8D0086A096A07500E
:10339000D8B45BEF1AF00350D8B460EF1AF00250C3
:1033A00006180A6E028E068E0E6A02C008F001C070
:1033B0000CF000C00DF004500D5E0550D8A0053C87
:1033C0000C5E0650D8A0063C085E086A0C6A0D6ABE
:1033D000D8A0F2EF19F0D890023201320032083250
:1033E000010E0E6E0750035ED8A0FFEF19F07E0E9F
:1033F0000E240326D8B065EF1AF005EF1AF07E0E02
:103400000E240326D8A06AEF1AF0180E0B6E0D36A4
:103410000C3608360036013602360E360450005E91
:103420000550D8A0053C015E0650D8A0063C025EBF
:1034300006340E120EA020EF1AF00D802BEF1AF0BA
:10344000045000260550D8B0053C01260650D8B0DF
:10345000062802260D900B2E07EF1AF051EF1AF0F6
:10346000D8900036013602360E360450005E055004
:10347000D8A0053C015E0650D8A0063C025E06348A
:103480000E10010B0D26D8B00C2AD8B4082AD8A4E7
:1034900051EF1AF008320C320D32032AD8B465EF1E
:1034A0001AF00AAE089E0850026E0C50016E0D50C4
:1034B000006E6DEF1AF0010EC8EC0EF06DEF1AF011
:1034C000020E61EC05F06DEF1AF0040E68EC05F0E9
:0C34D0006DEF1AF0080EBBEC03F01200C8
:1034DC00FF0E0401276F75EC11F00301E76BE86B2D
:1034EC00E96BEA6BD16BD26BD36BD46B0101A76B1D
:1034FC00AEEC06F074EC05F00301DB51CD250401B4
:10350C00326F0301DC51CE210401336F000E030135
:10351C00CF210401346F000E0301D0210401356F5B
:10352C00CD0E366F010E376FDDEC04F01C0E03016F
:10353C00DD25006E000EDE21016ECD0E0024E16E45
:10354C00010E0120E26EE66A1D0EDD25006E000EF6
:10355C00DE21016ECD0E0024E16E010E0120E26E23
:10356C00E66A1E0EDD25006E000EDE21016ECD0E0C
:10357C000024E16E010E0120E26EE66A1F0EDD25CD
:10358C00006E000EDE21016ECD0E0024E16E010EE8
:10359C000120E26EE66ADB51CD250401326F030196
:1035AC00DC51CE210401336F000E0301CF21040145
:1035BC00346F000E0301D0210401356FCD0E366F30
:0A35CC00010E376F19EC04F0120035
:1035D6001DC011F41EC012F41FC013F420C014F451
:1035E6006B826BA220D01D501E101F1020101AE0F7
:1035F600040111511211131114110DE167C1E1FFFC
:1036060068C1E2FF060EE66E65C100F066C101F014
:103616009BEC01F008D0010E0401115F000E125B55
:08362600135B145BDED71200F8
:08362E00067EC6EC0AF0120052
:10363600086A096A000E07620364A0EF1BF00250D5
:1036460006180A6E075003267E0ED8A031EF1BF02F
:10365600035ED8B0A5EF1BF035EF1BF0035ED8A0D4
:10366600AAEF1BF0028E068E02C00EF001C00BF010
:1036760000C00DF000500402F4CF0CF0015005021A
:10368600F4CF00F0F3CF08F00402F3500C26F45008
:103696000822000E00220D500502F3500C26F450AD
:1036A6000822000E002202500402F3500826F450AD
:1036B600002202500502016A000E0122F350002684
:1036C600F45001220D500602F3500826F450002251
:1036D600026A000E012202220B500602F350002657
:1036E600F4500122000E02220E500602F35001266B
:1036F600F450022202BE88EF1BF00836003601366F
:1037060002360306D8B4AAEF1BF09BEF1BF0D88055
:10371600800E08640030000E002201220222D8A08A
:103726009BEF1BF0023201320032034AA5EF1BF079
:103736000AAE029E000EADEF1BF0010E61EC05F025
:10374600ADEF1BF0020E68EC05F0ADEF1BF0040EBA
:06375600BBEC03F01200C1
:10375C000D6A086A0050D8B4000C04180A6E0ABE30
:10376C000D1E0B6A04AE02D0041E042A00AE02D059
:10377C00001E002A005004100A6E0ABE1FD004500E
:10378C00085E003600340836045008260036060E53
:10379C000C6E00340836045000B0085E00A00826F9
:1037AC0000360C2EF6D700A008260BB015D00DAEA7
:1037BC00000C001E002A081E082A000C04AE09D0BA
:1037CC0000BE04D00050086E006AF1D7006A002ACF
:1037DC00000C001E0B2AD3D7082A0450085CD8A46E
:0E37EC00E6D7086A002A00AEE2D7FF0C1200F2
:1037FA0011C404F012C405F004C002F005C003F0BD
:10380A00044A052A13C400F014C401F00401134B3E
:10381A00142B00C0E9FF01C0EAFF02C0E1FF03C0A8
:10382A00E2FFEECFE6FF02C0E9FF03C0EAFFEE5275
:0E383A0001E0E2D711C400F012C401F0120048
:103848000A6A0350D8A40A800750D8A40A820A50EA
:10385800D8B487EF1CF0030AD8B440EF1CF00AB0C4
:103868003BEF1CF006AE85EF1CF083EF1CF002AEB8
:1038780083EF1CF085EF1CF00250800B0A6E029E4D
:103888000650800B069E0A18D8B451EF1CF00A5057
:10389800D8B483EF1CF085EF1CF00750035CD8B454
:1038A8005BEF1CF0D8A077EF1CF07DEF1CF0065002
:1038B800025CD8B465EF1CF0D8A077EF1CF07DEF60
:1038C8001CF00550015CD8B46FEF1CF0D8A077EF5E
:1038D8001CF07DEF1CF00450005CD8B487EF1CF09E
:1038E800D8B07DEF1CF00A52D8B485EF1CF083EFF6
:1038F8001CF00A52D8B483EF1CF085EF1CF0D88076
:0E3908001200D8901200D880D884120012004D
:10391600ABC132F4ACC133F4ADC134F4AEC135F44D
:10392600CD0E0401366F010E376FDDEC04F0040195
:10393600156B166B1451165D02E11351155D5AE2B3
:10394600CD0E0301E725E16E010EE821E26E0401CA
:1039560015511125E96E16511221EA6EEECFE6FFDA
:10396600010E0301E727000EE823E923EA23000EF0
:10397600006EEA1908E10050E91905E1DA51E81983
:1039860002E1E751D91932E1ABC132F4ACC133F4EB
:10399600ADC134F4AEC135F4CD0E0401366F010E5F
:1039A600376F19EC04F0010E0101AB27000EAC23B2
:1039B600AD23AE230301E76BE86BE96BEA6B01010C
:1039C600A72BA751A81903E1A76BCCEC0EF0ABC14E
:1039D60032F4ACC133F4ADC134F4AEC135F4CD0E1E
:1039E6000401366F010E376FDDEC04F00401154B50
:1039F600162BA0D7ABC132F4ACC133F4ADC134F44D
:103A0600AEC135F4CD0E366F010E376F19EC04F0EA
:103A1600040115510301D127040116510301D223D4
:103A2600000ED323D423DB51CD250401326F0301CD
:103A3600DC51CE210401336F000E0301CF210401B6
:103A4600346F000E0301D0210401356FCD0E366FA1
:103A5600010E376FDDEC04F0120E0301DD25006E5A
:103A6600000EDE21016ECD0E0024E16E010E012056
:103A7600E26EEDC3E6FF130EDD25006E000EDE21BD
:103A8600016ECD0E0024E16E010E0120E26EEEC342
:103A9600E6FF140EDD25006E000EDE21016ECD0E52
:103AA6000024E16E010E0120E26EE66A150EDD25A8
:103AB600006E000EDE21016ECD0E0024E16E010EB9
:103AC6000120E26EE66A160EDD25006E000EDE218E
:103AD600016ECD0E0024E16E010E0120E26EEFC3F1
:103AE600E6FF170EDD25006E000EDE21016ECD0EFF
:103AF6000024E16E010E0120E26EF0C3E6FF180E0F
:103B0600DD25006E000EDE21016ECD0E0024E16E75
:103B1600010E0120E26EEDC3E6FF190EDD25006EF3
:103B2600000EDE21016ECD0E0024E16E010E012095
:103B3600E26EEEC3E6FF1C0EDD25006E000EDE21F2
:103B4600016ECD0E0024E16E010E0120E26ED1C39E
:103B5600E6FF1D0EDD25006E000EDE21016ECD0E88
:103B66000024E16E010E0120E26ED2C3E6FF1E0EB6
:103B7600DD25006E000EDE21016ECD0E0024E16E05
:103B8600010E0120E26ED3C3E6FF1F0EDD25006E97
:103B9600000EDE21016ECD0E0024E16E010E012025
:103BA600E26ED4C3E6FFDB51CD250401326F03017B
:103BB600DC51CE210401336F000E0301CF21040135
:103BC600346F000E0301D0210401356FCD0E366F20
:0A3BD600010E376F19EC04F0120025
:103BE000010179510301E3250401326F01017A518A
:103BF0000301E4210401336F000E0301E5210401F8
:103C0000346F000E0301E6210401356FCD0E366FCF
:103C1000010E376FDDEC04F0CD0E0301D725E96E00
:103C2000010ED821EA6EEECF11F4000E0401126FDE
:103C3000136F146F000E126F136F146F010E0301D8
:103C4000D725006E000ED821016ECD0E0024E96E3E
:103C5000010E0120EA6EEECF12F4000E006E040198
:103C6000141908E10050131905E1FF0E121902E1C1
:103C70001151FF0A73E011C400F012C401F013C423
:103C800002F014C403F00036009001360236033609
:103C900000C011F401C012F402C013F403C014F404
:103CA000D9C304F0DAC305F0000E066E076EFEEC11
:103CB00007F000C079F101C07AF1D9C304F0DAC38A
:103CC00005F0000E066E076E11C400F012C401F07C
:103CD00013C402F014C403F0FEEC07F008C000F0B7
:103CE00009C001F00AC002F00BC003F000C0D7F316
:103CF00001C0D8F3010179510301E3250401326FBA
:103D000001017A510301E4210401336F000E030124
:103D1000E5210401346F000E0301E6210401356F33
:103D2000CD0E366F010E376FDDEC04F0CD0E0301C2
:103D3000D725E96E010ED821EA6EEECF11F4010EFF
:103D4000D725006E000ED821016ECD0E0024E96E3D
:103D5000010E0120EA6EEECF12F47FD7AEEC06F032
:103D600074EC05F0A8C100F0000E016E026E036E47
:103D7000D9C304F0DAC305F0000E066E076EC8EC76
:103D800003F000C004F001C005F002C006F003C05B
:103D900007F0D1C300F0D2C301F0D3C302F0D4C303
:103DA00003F0FEEC07F008C000F009C001F00AC003
:103DB00002F00BC003F0D9C304F0DAC305F0000E23
:103DC000066E076EFEEC07F000C0A7F10050AB27AF
:103DD000000EAC23AD23AE23D9C304F0DAC305F043
:103DE000000E066E076ED1C300F0D2C301F0D3C33C
:103DF00002F0D4C303F0FEEC07F008C000F009C0E5
:103E000001F00AC002F00BC003F000C0E7F301C0EC
:0C3E1000E8F302C0E9F303C0EAF312007B
:103E1C000134083609360450085E0550D8A0053C1C
:103E2C00095E003601360F0E0C6E01340836093669
:103E3C00045000A006D0085E0550D8A0053C095ED1
:103E4C0005D008260550D8B0053C092600360136A9
:103E5C000C2EEBD700B006D0045008260550D8B075
:083E6C00053C092600001200CC
:103E74000401156B050E155D0AE215511325E16E5B
:103E8400000E1421E26E200EE66E152BF3D71551A9
:103E94001325E16E000E1421E26EE66A1507155132
:103EA4001325166F000E1421176F0A0E046E000EF0
:103EB400056E11C400F012C401F046EC0FF008C006
:103EC40000F009C001F0300E002616C4E1FF17C44B
:103ED400E2FF00C0E6FF0A0E046E000E056E11C478
:103EE40000F012C401F046EC0FF000C011F401C060
:103EF40012F4000E011802E1000E001801E102D0D4
:063F04001507CDD71200E5
:103F0A00E3EC12F003C449F4A7EC01F004C449F449
:103F1A00A7EC01F0EBEC1AF004010351010F496F11
:103F2A00A7EC01F08A8A0401496BDDEC02F000C0BB
:103F3A0005F4000E0401066F8A9AD6EC0DF005C44A
:083F4A0000F006C401F01200B2
:103F5200E3EC12F0800E0401496FA7EC01F0030EAE
:103F62000401496FA7EC01F0010E0401496FA7ECAF
:103F720001F0D6EC0DF0030E0B6E080E0C6E770EF0
:103F82000D6E0D2EFED70C2EFCD70B2EFAD7E3ECBE
:103F920012F0800E0401496FA7EC01F0010E04013A
:103FA200496FA7EC01F0EBEC1AF0810E0401496FA6
:103FB200A7EC01F0010E0401496FDDEC02F000C034
:103FC20008F40401076B496BDDEC02F000500401B8
:103FD2000713000E0813D6EC0DF007C401F008C455
:103FE20002F002320132029E02320132029E02329B
:103FF2000132029E02320132029E01C007F402C067
:1040020008F40250070802E10150C00809E2000E5C
:10401200036F000E046F780E056F890E066F1DD0B8
:10402200010E085D02E1800E075D09E2000E036FDA
:10403200000E046F400E056F870E066F0ED007C488
:1040420000F008C401F09BEC19F000C003F401C0B9
:1040520004F402C005F403C006F4000E046E000E60
:10406200056E000E066E830E076E03C400F004C4D4
:1040720001F005C402F006C403F0B0EC19F0000E22
:10408200046E000E056E400E066E830E076E17EC70
:104092001BF000C003F401C004F402C005F403C025
:0440A20006F412000E
:1040A600B886020EB06E080EAF6EAC8436EC15F014
:1040B600030E0B6E8A0E0C6E550E0D6E0D2EFED770
:1040C6000C2EFCD70B2EFAD700000000780E040148
:1040D600116F000E126F39EC13F0450E116F000EC2
:1040E600126F39EC13F062EC15F0C6EC17F0120003
:1040F6000900F5CFE6FF0006FBE10106F9E1120033
:104106000F01386B396B3A6B939E939C939AD00E42
:10411600F26EF292F19C9380A80ED56ED66AD76A9B
:104126009288806A816A826A010E0101116F126BA0
:10413600060E125D11E212C100F0000E016E00368D
:1041460000900136F50E0024E16E030E0120E26EAA
:0A415600E66AE66A122BECD71200AD
:1041600004010F6B106B03C40BF404C40CF405C4FE
:104170000DF406C40EF40E51FF0A08E10D51FF0ABA
:1041800005E10C51FF0A02E10B51FF0A0DE107C4E2
:1041900011F408C412F4580E136F000E146FFDECE6
:1041A0001BF0030E006EF1D1010E096F0DAF0ED0A2
:1041B000800E0D19006E00C00DF4092B07C4E1FF3D
:1041C00008C4E2FF2D0EE66E074B082B000E006EB2
:1041D0000E1908E100500D1905E100500C1902E11B
:1041E0000B51000A0CE107C411F408C412F4250EA7
:1041F000136F000E146FFDEC1BF0006AC6D10E5158
:10420000FF0A08E10D51000A05E10C51000A02E124
:104210000B51000A0DE107C411F408C412F4210E79
:10422000136F000E146FFDEC1BF009C400F0ADD14C
:10423000000E046E000E056E000E066E7F0E076EF9
:104240000BC400F00CC401F00DC402F00EC403F066
:1042500024EC1CF0010ED8B0000E006E00521CE0E1
:104260000BC400F00CC401F00DC402F00EC403F046
:10427000000E046E000E056E200E066E820E076E96
:104280001BEC1BF000C00BF401C00CF402C00DF4D9
:1042900003C00EF41007CCD7000E046E000E056E9E
:1042A000200E066E820E076E0BC400F00CC401F0E7
:1042B0000DC402F00EC403F024EC1CF0000ED8B0C4
:1042C000010E006E00521CE00BC400F00CC401F0A3
:1042D0000DC402F00EC403F0CD0E046ECC0E056EBC
:1042E0004C0E066E7B0E076E1BEC1BF000C00BF431
:1042F00001C00CF402C00DF403C00EF4102BCCD797
:10430000FF0E0B15086EFF0E0C15096E7F0E0D15B6
:104310000A6E000E0E150B6E08C004F009C005F001
:104320000AC006F00BC007F00436049005360636C6
:104330000736000E0B15006E000E0C15016E000EF8
:104340000D15026EFF0E0E15036E00C00BF401C0BA
:104350000CF402C00DF403C00EF404500B11006EF7
:1043600005500C11016E06500D11026E07500E1112
:10437000036E00C00BF401C00CF402C00DF403C0C6
:104380000EF47F0E0E5D006E00C00AF4010E0E6F7B
:1043900000C004F00BC400F00CC401F00DC402F026
:1043A0000EC403F0045007E00036009001360236D8
:1043B0000336FF0FF8D700C00BF401C00CF402C0A5
:1043C0000DF403C00EF407C4E1FF08C4E2FF0E5170
:1043D000300FE66E074B082B800E1019006E800E12
:1043E000010A005C08E3800E060A006E800E1019B8
:1043F000005C01E30AD007C4E1FF08C4E2FF2E0E0F
:10440000E66E074B082B010E0F6F060E0A6F0A515E
:10441000000A54E00E6B0BC400F00CC401F00DC494
:1044200002F00EC403F00036009001360236033667
:10443000003600900136023603360B5100260C512F
:1044400001220D5102220E51032200C00BF401C0C3
:104450000CF402C00DF403C00EF40BC400F00CC445
:1044600001F00DC402F00EC403F0003600900136D6
:104470000236033600C00BF401C00CF402C00DF488
:1044800003C00EF407C4E1FF08C4E2FF0E51300F71
:10449000E66E074B082B0F51000A0EE11007105172
:1044A000000A0AE107C4E1FF08C4E2FF2E0EE66E2F
:1044B000074B082B010E0F6F0A07A9D7FF0E072520
:1044C000E96EFF0E0821EA6EEE50300A05E1010E9A
:1044D000075F000E085BF2D7FF0E0725E96EFF0E9F
:1044E0000821EA6EEE502E0A04E1010E075F000E6D
:1044F000085B1051000A43E007C4E1FF08C4E2FF73
:10450000650EE66E074B082B800E1019006E800EAC
:10451000000A005C0BE207C4E1FF08C4E2FF2D0EB5
:10452000E66E074B082B10510008106F10C40AF4F8
:10453000800E090A006E800E1019005C0FE20A0E50
:10454000046E0AC400F0AEEC1BF007C4E1FF08C41F
:10455000E2FF0050300FE66E074B082B0A0E046E88
:104560000AC400F0AEEC1BF008C000F007C4E1FF85
:1045700008C4E2FF0050300FE66E074B082B07C45B
:0C458000E1FF08C4E2FFE66A006A1200D6
:10458C000450000A08E10550000A05E1FF0E006E18
:10459C007F0E016E57D00D6A096A086A015000102F
:1045AC00D8B4000C015005180A6E0ABE0D1E0B6A19
:1045BC0005AE05D0041E051E042AD8B4052A01AE8A
:1045CC0005D0001E011E002AD8B4012A0150051086
:1045DC000A6E0ABE10D01CDC0BB020D00DAE000C45
:1045EC00001E011E002AD8B4012A081E091E082A22
:1045FC00D8B4092A000C05AE0DD001BE07D001506D
:10460C00096E0050086E016A006AE8D7016A006AF8
:10461C00002A000C011E001E0B2ADDD7082AD8B474
:10462C00092A0450085CD8A4D9D70550095CD8A431
:10463C00D5D7096A086A002AD8B4012A01AECED7A8
:06464C000000FF0C12004B
:10465200E3EC12F0800E0401496FA7EC01F0030EA7
:104662000401496FA7EC01F0110E0401496FA7EC98
:1046720001F0D6EC0DF0030E0B6E080E0C6E770EE9
:104682000D6E0D2EFED70C2EFCD70B2EFAD7E3ECB7
:1046920012F0800E0401496FA7EC01F0010E040133
:1046A200496FA7EC01F0EBEC1AF0810E0401496F9F
:1046B200A7EC01F0010E0401496FDDEC02F000C02D
:1046C20004F40401036B496BDDEC02F000500401B9
:1046D2000313000E0413D6EC0DF003C400F004C45F
:1046E20001F001320032019E01320032019E00C00F
:1046F20003F401C004F49BEC19F0000E046E000EEA
:10470200056E000E066E840E076EB0EC19F0000EF8
:10471200046E000E056E480E066E840E076E17ECD0
:044722001BF0120076
:104726000401096B0A6B03C40BF404C40CF4800E79
:104736000419006E800E005C02E1000E035D0BE2C0
:10474600010E096F000E0A6F035100080B6F04C4B7
:104756000CF4000E0C570BC411F40CC412F405C46F
:1047660013F406C414F43AEC1FF0060E076F000E9D
:10477600086F000E006E0851005C02E10751000848
:1047860019E207510525E16E08510621E26E010E78
:10479600075D006E000E0859016E00500525E96E92
:1047A60001500621EA6EEECFE6FF010E075F000E0E
:1047B600085BDFD705C4E1FF06C4E2FF200EE66E04
:1047C60009510A111AE0076B086B07510525E96EB6
:1047D60008510621EA6EEE50200A03E1074B082B2A
:1047E600F4D7010E075F000E085B07510525E16E41
:0C47F60008510621E26E2D0EE66E120046
:10480200020E0401116F126B136B010E146F6BEC2D
:1048120019F054EC13F00050000A42E10401116B4C
:10482200126B136B010E146F6BEC19F0F90E116F12
:10483200000E126F39EC13F0980E116F000E126F0A
:1048420039EC13F08A0E116F000E126FA00E136F67
:1048520075EC15F0F0EC1DF09B0E0401116F000ECB
:10486200126F1B0E136F000E146F8BEC1CF0CE0E2A
:104872000401116F000E126F1B0E136F000E146FE6
:104882008BEC1CF0C60E0401116F000E126F39EC96
:1048920013F0130E116F010E126F39EC13F007D0E3
:1048A2000401420E116F010E126F39EC13F0120067
:1048B20003C400F00032009E0032009E0032009ECF
:1048C2000032009E0A0E0002F3CF01F00F0E040127
:0A48D2000315006E015000261200CD
:1048DC00020E0401116F126B136B010E146F6BEC53
:1048EC0019F054EC13F00050000A2CE10401116B88
:1048FC00126B136B010E146F6BEC19F0500E116FE1
:10490C00010E126F39EC13F0620E116F010E126F63
:10491C0039EC13F08A0E116F000E126FA00E136F8C
:10492C0075EC15F06EEC1AF02E0E0401116F010EE1
:10493C00126F39EC13F03F0E116F010E126F39EC40
:10494C0013F007D00401160E116F010E126F39EC23
:04495C0013F0120042
:104960008AEC25F083EC20F0D6CF0DF1000E0E6F0F
:10497000D7CF01F0006A00500D11026E0E510110E8
:10498000036E02C00DF103C00EF11051031802E1D5
:1049900002500F190FE00DC10FF10EC110F18A8CFA
:1049A000410E0C6EEE0E0D6E0D2EFED70C2EFCD7AA
:1049B00000008A9C820E0C6EDD0E0D6E0D2EFED751
:0C49C0000C2EFCD700000000CFD7FFD762
:104B140010EE1DF0480E006E020E016ECC0EF66E05
:0E4B2400490EF76E000EF86E7BEC20F01200CA
:0449CC0000000000E7
:0449D000494E460006
:0249D4003000B1
:0449D60000000000DD
:0149DA0000DC
:0E49DB0054454D50455241545552453A200026
:0449E90000000000CA
:0549ED00B0430D0A00BB
:0249F2000000C3
:0349F4000D0A00A9
:0449F70000000000BC
:0249FB000000BA
:0349FD000D0A00A0
:074A000054696D653A2000C6
:044A07004E614E00AE
:034A0B000D0A0091
:044A0E00250D0A0068
:0A4A120048554D454441443A200048
:034A1C000D0A0080
:084A1F0044726F70733A20002D
:104A27005374617274696E67205869686D61693A79
:024A370020005D
:0E4A39005849484D4149782E4353560000001D
:034A47000D0A0055
:104A4A0064696120320000000000000000000000DC
:104A5A00000000000000000000000000000000004C
:0B4A6A00000000000000000000000041
:084A75005772697465642100A9
:104A7D006D657331000000000000000000000000B3
:104A8D000000000000000000000000000000000019
:0B4A9D0000000000000000000000000E
:104AA80057726974696E67206F6E206E657720662D
:044AB800696C6500C0
:024ABC000000F8
:024ABE000000F6
:014AC00000F5
:014AC10000F4
:034AC2000D0A00DA
:104AC5006572726F72206372656174696E67206EBC
:084AD50065772066696C65003D
:104ADD004E65772066696C652063726561746564E7
:014AED0000C8
:034AEE000D0A00AE
:0E4AF1006572726F722077726974696E670069
:104AFF004372656174696E67206E65772066696CB5
:024B0F0065003F
:034B11000D0A008A
:020000040030CA
:0D000100231F3CFFBF81FF0FC00FE00F4029
:00000001FF
