:100000002EEF0EF00000000000EF00F000000000F6
:0A0010000000000000000000F3D71C
:10001C000B820BAE18EF00F00368026801680068F1
:08002C000A360232FF0E120039
:080034000AAE029E000E12004C
:0E003C00ACB202D00000FCD7DCC0ADFF120059
:0E004A00026A016A006A086A036A000E120068
:0C00580072B201D0FDD7DCC073FF1200B3
:100064000B840BAE3DEF00F0010E036E026A016AD1
:0A007400006A0A360232FF0E120085
:10007E00F250026EF29E0500FF6A0150FE6E0050B5
:08008E00FD6E02BEF28E1200AD
:10009600C7B409D01F0EC514016E0150000A03E152
:0A00A600010E006E01D0006A120086
:1000B0000CB09AEF00F00CA240EF01F00E6A000EB7
:1000C0000264B1EF00F0F00E0214D8A47CEF00F04F
:1000D000023A01380F0B02260138F00B016E00388E
:1000E0000F0B01260038F00B006E08380F0B0026AE
:1000F0000838F00B086E0E84D89002BE95EF00F021
:1001000008360036013602360E2A02BE95EF00F0A0
:1001100008360036013602360E2A02BE95EF00F090
:1001200008360036013602360E2A0E50036436EFCA
:1001300001F0035E0BBC08AE3BEF01F0D880800EEF
:1001400008640030000E002201220222D8A03BEFFA
:1001500001F0023201320032034A40EF01F03BEF7E
:1001600001F001C002F000C001F008C000F0086A10
:10017000000E0E860264E8EF00F0F00E0214D8A420
:10018000D0EF00F0023A01380F0B02260138F00BD5
:10019000016E00380F0B01260038F00B006E0E8444
:1001A000D89002BE95EF00F00036013602360E2AD6
:1001B00002BE95EF00F00036013602360E2A02BE6E
:1001C00095EF00F00036013602360E2A95EF00F06A
:1001D00001C002F000C001F0006A000E0E960E8809
:1001E000026415EF01F0F00E0214D8A400EF01F044
:1001F000023A01380F0B02260138F00B016E0E8413
:10020000D89002BE95EF00F0013602360E2A02BEEB
:1002100095EF00F0013602360E2A02BE95EF00F08F
:10022000013602360E2A95EF00F001C002F0016A95
:10023000000E0E86026445EF01F0F00E0214D8A401
:1002400024EF01F0023A0E84D89002BE95EF00F040
:1002500002360E2A02BE95EF00F002360E2A02BECA
:1002600095EF00F002360E2A95EF00F0010E0C6EAD
:10027000F9DE48EF01F0020E0C6EDCDE48EF01F013
:10028000040E0C6ECBDE48EF01F0080E0C6EDDDEC6
:0202900012005A
:100292000C6A0E6A0250D8A462EF01F001C002F0AB
:1002A20000C001F0006A0E860250D8A462EF01F08D
:1002B20001C002F0016A0E960E880250D8B474EFA3
:1002C20001F00E50035ED8A4D8A079EF01F0D890C7
:1002D20002BE7EEF01F0003601360236032E69EFD0
:1002E20001F079EF01F0010E0C6EAEDE81EF01F04C
:1002F200020E0C6EB6DE81EF01F0040E0C6E99DE7A
:020302001200E7
:10030400025006180E6E086A096A0B6A03500764E5
:1003140075EF02F006500A6E068E028E03500B6EC5
:100324000750036E000E0B64C5EF01F00B50075E1F
:10033400D8B466EF02F0070E076434EF02F0075EEC
:1003440000C008F001C000F002C001F0026A074ECC
:1003540066EF02F0076409EF02F0075E00C008F0E0
:1003640001C000F0016A074E66EF02F00764E7EF90
:1003740001F0075E00C008F0006A074E66EF02F065
:100384000764CEEF01F00AC002F005C001F004C01A
:1003940000F0086A8FEF03F0030E0764D9EF01F051
:1003A400075E08380F0B086E074E66EF02F0D89010
:1003B4000832074E66EF02F0D8900832074E66EF17
:1003C40002F0D890083266EF02F0030E0764F8EFEB
:1003D40001F0075E08380F0B086E0038F00B082692
:1003E40000380F0B006E074E66EF02F0D890003213
:1003F4000832074E66EF02F0D89000320832074EFA
:1004040066EF02F0D8900032083266EF02F0030E75
:10041400076420EF02F0075E08380F0B086E0038FF
:10042400F00B082600380F0B006E0138F00B002685
:1004340001380F0B016E074E66EF02F0D8900132BF
:1004440000320832074E66EF02F0D89001320032D3
:100454000832074E66EF02F0D890013200320832BB
:1004640066EF02F0030E076451EF02F0075E0838EE
:100474000F0B086E0038F00B082600380F0B006EC7
:100484000138F00B002601380F0B016E0238F00B17
:10049400012602380F0B026E074E66EF02F0D89069
:1004A4000232013200320832074E66EF02F0D89071
:1004B4000232013200320832074E66EF02F0D89061
:1004C4000232013200320832096A000E0EAE5AEFCF
:1004D40003F0081E001E011E021E082A002201222B
:1004E40002225AEF03F00750D8A47BEF02F08FEFFB
:1004F40003F0096A02C00AF0028E068E0750035CFC
:10050400076ED8B44DEF03F0070E07641BEF03F03A
:10051400075E0450096E0550046E0650056E066AA7
:10052400074E4DEF03F0070E0764F0EF02F0075E8D
:100534000450096E0550046E056A074E4DEF03F032
:10054400070E0764CEEF02F0075E0450096E046ADA
:10055400074E4DEF03F0070E0764B5EF02F00AC033
:1005640002F08FEF03F0030E0764C0EF02F0075EA2
:1005740009380F0B096E074E4DEF03F0D89009327E
:10058400074E4DEF03F0D8900932074E4DEF03F0BC
:10059400D89009324DEF03F0030E0764DFEF02F049
:1005A400075E09380F0B096E0438F00B092604386E
:1005B4000F0B046E074E4DEF03F0D890043209324E
:1005C400074E4DEF03F0D89004320932074E4DEF39
:1005D40003F0D890043209324DEF03F0030E0764A0
:1005E40007EF03F0075E09380F0B096E0438F00BB0
:1005F400092604380F0B046E0538F00B0426053861
:100604000F0B056E074E4DEF03F0D8900532043200
:100614000932074E4DEF03F0D89005320432093207
:10062400074E4DEF03F0D8900532043209324DEFF6
:1006340003F0030E076438EF03F0075E09380F0B6D
:10064400096E0438F00B092604380F0B046E0538C4
:10065400F00B042605380F0B056E0638F00B052643
:1006640006380F0B066E074E4DEF03F0D890063296
:10067400053204320932074E4DEF03F0D8900632AA
:10068400053204320932074E4DEF03F0D89006329A
:10069400053204320932086A000E0EAE5AEF03F036
:1006A400091E041E051E061E092A0422052206220E
:1006B4000950082604500022055001220650022247
:1006C4000EBE71EF03F0D8A080EF03F002320132C6
:1006D40000320832033E80EF03F08AEF03F0D8B013
:1006E40085EF03F0000E081E001E011E021E082ADC
:1006F4000022012202220A7E85EF03F0010E0C6E15
:10070400D5DC91EF03F0020E0C6ED0DC91EF03F018
:10071400040E0C6E81DC91EF03F0000E0C6E1200DF
:080724000B6A0B86FF0E1200A8
:04072C00C58412006E
:10073000086A096A100E0C6E013408360936045036
:10074000085E0550D8A0053C095ED8B007D004501B
:1007500008260550D8B0053C0926D8900036013649
:060760000C2EEAD7120086
:10076600960E0001B56F000EB66F000EB76F000E45
:10077600B86FA00EB96F080EBA6F000EBB6F000EF1
:10078600BC6FE80E9D6F0E0E9E6F000E9F6F000EE3
:10079600A06F400EA16F0F0EA26FCF0EA36F000EBB
:1007A600A46FDE0E956F070E966FD60E976F000E2E
:1007B600986F2C0E996F070E9A6F000E9B6F000EA6
:1007C6009C6F949894968B988B9694889486C79EE3
:0807D600C79C380EC66E12002C
:1007DE009E96D6C0C9FF70C0D7F071C0D8F072C057
:1007EE00D9F073C0DAF0C7A421D000017051711195
:1007FE00721173111AE0D751D811D911DA110EE115
:10080E00BFC0E1FFC0C0E2FF040EE66EBDC000F047
:10081E00BEC001F02DDC010E006E3AD0010E0001BB
:10082E00D75F000ED85BD95BDA5BDDD770C0D7F02F
:10083E0071C0D8F072C0D9F073C0DAF09EB621D074
:10084E00000170517111721173111AE0D751D81144
:10085E00D911DA110EE1BFC0E1FFC0C0E2FF040EF4
:10086E00E66EBDC000F0BEC001F002DC010E006EEF
:10087E000FD0010E0001D75F000ED85BD95BDA5B9B
:10088E00DDD7C5BC02D0006A03D0C584020E006E4F
:02089E00120046
:1008A00070C0D8F071C0D9F072C0DAF073C0DBF05C
:1008B0000001D66BD76BD751120802E1D6518E08D2
:1008C00009E34BEC00F0005201E004D00001D64BEC
:1008D000D72BF1D70001120ED75D02E18F0ED65D46
:1008E00003E37B0E006E25D0C580C5A021D07051DA
:1008F0007111721173111BE0D851D911DA11DB118A
:100900000FE1BFC0E1FFC0C0E2FF050EE66EBDC053
:1009100000F0BEC001F03FEC00F0010E006E09D007
:10092000010E0001D85F000ED95BDA5BDB5BDDD71F
:04093000006A120047
:100934000A6A0350D8A40A800750D8A40A820A502D
:10094400D8B4FDEF04F0030AD8B4B6EF04F00AB04B
:10095400B1EF04F006AEFBEF04F0F9EF04F002AEE1
:10096400F9EF04F0FBEF04F00250800B0A6E029ED4
:100974000650800B069E0A18D8B4C7EF04F00A503C
:10098400D8B4F9EF04F0FBEF04F00750035CD8B4DB
:10099400D1EF04F0D8A0EDEF04F0F3EF04F006502B
:1009A400025CD8B4DBEF04F0D8A0EDEF04F0F3EF71
:1009B40004F00550015CD8B4E5EF04F0D8A0EDEFE5
:1009C40004F0F3EF04F00450005CD8B4FDEF04F03D
:1009D400D8B0F3EF04F00A52D8B4FBEF04F0F9EF07
:1009E40004F00A52D8B4F9EF04F0FBEF04F0D88015
:0E09F4001200D8901200D880D8841200120091
:100A02000134083609360450085E0550D8A0053C6A
:100A1200095E003601360F0E0C6E013408360936B7
:100A2200045000A006D0085E0550D8A0053C095E1F
:100A320005D008260550D8B0053C092600360136F7
:100A42000C2EEBD700B006D0045008260550D8B0C3
:080A5200053C0926000012001A
:100A5A000001D36B050ED35D0AE2D351D125E16EB5
:100A6A00000ED221E26E200EE66ED32BF3D7D351BD
:100A7A00D125E16E000ED221E26EE66AD307D35188
:100A8A00D125D46F000ED221D56F0A0E046E000E46
:100A9A00056ECFC000F0D0C001F045DE08C000F0FE
:100AAA0009C001F0300E0026D4C0E1FFD5C0E2FF34
:100ABA0000C0E6FF0A0E046E000E056ECFC000F0FD
:100ACA00D0C001F030DE00C0CFF001C0D0F0000E7F
:100ADA00011802E1000E001801E102D0D307CFD7B6
:020AEA001200F8
:100AEC000D6A086A0050D8B4000C04180A6E0ABECD
:100AFC000D1E0B6A04AE02D0041E042A00AE02D0F6
:100B0C00001E002A005004100A6E0ABE1FD00450AA
:100B1C00085E003600340836045008260036060EEF
:100B2C000C6E00340836045000B0085E00A0082695
:100B3C0000360C2EF6D700A008260BB015D00DAE43
:100B4C00000C001E002A081E082A000C04AE09D056
:100B5C0000BE04D00050086E006AF1D7006A002A6B
:100B6C00000C001E0B2AD3D7082A0450085CD8A40A
:0E0B7C00E6D7086A002A00AEE2D7FF0C12008E
:100B8A008ADED20E0001D66F25DE190E0001D66F5D
:100B9A0021DE070E0001D66F1DDEC3DD030E0B6ECC
:100BAA008A0E0C6E550E0D6E0D2EFED70C2EFCD72E
:100BBA000B2EFAD7000000006EDED20E0001D66FAF
:100BCA0009DE6B0E0001D66F05DE0001D66B02DE70
:100BDA00A8DD030E0B6E8A0E0C6E550E0D6E0D2ED1
:100BEA00FED70C2EFCD70B2EFAD70000000053DEDE
:100BFA00D20E0001D66FEEDD6C0E0001D66FEADD73
:100C0A000001D66BE7DD8DDD030E0B6E8A0E0C6ECE
:100C1A00550E0D6E0D2EFED70C2EFCD70B2EFAD7C5
:100C2A000000000038DED20E0001D66FD3DD1B0EA5
:100C3A000001D66FCFDD0001D66BCCDD72DD030E6D
:100C4A000B6E8A0E0C6E550E0D6E0D2EFED70C2EE7
:100C5A00FCD70B2EFAD7000000001DDED20E0001D1
:100C6A00D66FB8DD1C0E0001D66FB4DD0001D66B5D
:100C7A00B1DD57DD030E0B6E8A0E0C6E550E0D6E2E
:100C8A000D2EFED70C2EFCD70B2EFAD70000000033
:100C9A0002DE030E0B6E8A0E0C6E550E0D6E0D2EB5
:100CAA00FED70C2EFCD70B2EFAD700000000D20E6E
:100CBA000001D66F8FDD380E0001D66F8BDD400E36
:100CCA000001D66F87DD2DDD030E0B6E8A0E0C6ECA
:100CDA00550E0D6E0D2EFED70C2EFCD70B2EFAD705
:100CEA0000000000D8DDD20E0001D66F73DD200EA1
:100CFA000001D66F6FDD010E0001D66F6BDD11DDCD
:100D0A00030E0B6E8A0E0C6E550E0D6E0D2EFED74F
:100D1A000C2EFCD70B2EFAD700000000BCDDD20E39
:100D2A000001D66F57DD3A0E0001D66F53DD010E72
:100D3A000001D66F4FDDF5DC030E0B6E8A0E0C6ECA
:100D4A00550E0D6E0D2EFED70C2EFCD70B2EFAD794
:100D5A0000000000A0DDD20E0001D66F3BDD1F0EA1
:100D6A000001D66F37DD010E0001D66F33DDD9DC05
:100D7A00060E0B6E130E0C6EAD0E0D6E0D2EFED7FB
:100D8A000C2EFCD70B2EFAD70000000084DDD20E01
:100D9A000001D66F1FDD1A0E0001D66F1BDDFF0E94
:100DAA000001D66F17DDBDDC030E0B6E8A0E0C6ECA
:100DBA00550E0D6E0D2EFED70C2EFCD70B2EFAD724
:100DCA000000000068DDD20E0001D66F03DD6C0E54
:100DDA000001D66FFFDC600E0001D66FFBDCA1DCE0
:100DEA00030E0B6E8A0E0C6E550E0D6E0D2EFED76F
:100DFA000C2EFCD70B2EFAD7000000004CDDD20EC9
:100E0A000001D66FE7DC6B0E0001D66FE3DC100E33
:100E1A000001D66FDFDC85DC030E0B6E8A0E0C6ECA
:100E2A00550E0D6E0D2EFED70C2EFCD70B2EFAD7B3
:100E3A0000000000060E0B6E130E0C6EAD0E0D6E4A
:100E4A000D2EFED70C2EFCD70B2EFAD70000000071
:020E5A00120084
:100E5C000001D26BCFC0E9FFD0C0EAFFEECFD1F0DA
:100E6C00D151000A0FE0D1C0DCF01EEC00F0000103
:100E7C00D22BD251CF25E96E000ED021EA6EEECFE7
:060E8C00D1F0EED71200C8
:100E92000050086E0150006E016A026A036A0B6A12
:100EA2000C6A960E036E0A6A00C001F008C000F0D8
:0A0EB200086A026A49EC01F0120020
:100EBC00320EC86E52DC030E0B6E8A0E0C6E550E83
:100ECC000D6E0D2EFED70C2EFCD70B2EFAD7000074
:0C0EDC0000000F0EC16EF19E816A120032
:100EE80070C0CFF071C0D0F072C0D1F073C0D2F032
:100EF800C582C5A220D00001705171117211731101
:100F080019E0CF51D011D111D2110DE1BFC0E1FFCD
:100F1800C0C0E2FF060EE66EBDC000F0BEC001F024
:100F28003FEC00F008D0010E0001CF5F000ED05B4F
:080F3800D15BD25BDED7120091
:100F400070C0D1F071C0D2F072C0D3F073C0D4F0D1
:100F50009E96C5869EB620D0000170517111721107
:100F6000731119E0D151D211D311D4110DE1BFC0C9
:100F7000E1FFC0C0E2FF030EE66EBDC000F0BEC0E0
:100F800001F03FEC00F008D0010E0001D15F000E2F
:100F9000D25BD35BD45BDED70001C9CFD0F0CF5199
:100FA000000A02E1C58A01D0C59A9E96C58870C024
:100FB000D1F071C0D2F072C0D3F073C0D4F09EB63D
:100FC0001FD0705171117211731119E0D151D211EA
:100FD000D311D4110DE1BFC0E1FFC0C0E2FF030E89
:100FE000E66EBDC000F0BEC001F03FEC00F008D0DE
:100FF000010E0001D15F000ED25BD35BD45BDFD763
:06100000D0C000F0120058
:101006000450000A12E10550000A0FE10650000ADA
:101016000CE10750000A09E1FF0E006EFF0E016E9B
:101026007F0E026EFF0E036EA8D0086A096A07508B
:10103600D8B4AEEF08F00350D8B4B3EF08F00250BE
:1010460006180A6E028E068E0E6A02C008F001C0ED
:101056000CF000C00DF004500D5E0550D8A0053C04
:101066000C5E0650D8A0063C085E086A0C6A0D6A3B
:10107600D8A045EF08F0D89002320132003208328B
:10108600010E0E6E0750035ED8A052EF08F07E0EDA
:101096000E240326D8B0B8EF08F058EF08F07E0EFD
:1010A6000E240326D8A0BDEF08F0180E0B6E0D36E1
:1010B6000C3608360036013602360E360450005E0F
:1010C6000550D8A0053C015E0650D8A0063C025E3D
:1010D60006340E120EA073EF08F00D807EEF08F0B6
:1010E600045000260550D8B0053C01260650D8B05D
:1010F600062802260D900B2E5AEF08F0A4EF08F0F2
:10110600D8900036013602360E360450005E055081
:10111600D8A0053C015E0650D8A0063C025E063407
:101126000E10010B0D26D8B00C2AD8B4082AD8A464
:10113600A4EF08F008320C320D32032AD8B4B8EF07
:1011460008F00AAE089E0850026E0C50016E0D5053
:10115600006EC0EF08F0010E92EC03F0C0EF08F04D
:10116600020E25EC00F0C0EF08F0040E0EEC00F0C5
:0C117600C0EF08F0080E32EC00F0120090
:10118200CFC004F0D0C005F004C002F005C003F0E7
:10119200044A052AD1C000F0D2C001F00001D14BAF
:1011A200D22B00C0E9FF01C0EAFF02C0E1FF03C089
:1011B200E2FFEECFE6FF02C0E9FF03C0EAFFEE5214
:0E11C20001E0E2D7CFC000F0D0C001F0120073
:0811D000067E82EC01F0120022
:1011D8003C0E0001AD6F000EAE6FDC0EAF6F000E5F
:1011E800B06FFF0EB16FFF0EB26F000EB36F000E3F
:1011F800B46FFF0EA56FFF0EA66F000EA76F000E4F
:10120800A86FFF0EA96FFF0EAA6F000EAB6F000E3E
:10121800AC6FAC8A900EAB6E948E949C9EAA03D051
:08122800AECF00F0FBD712006D
:10123000086A096A000E076203649DEF09F0025014
:1012400006180A6E075003267E0ED8A02EEF09F06E
:10125000035ED8B0A2EF09F032EF09F0035ED8A028
:10126000A7EF09F0028E068E02C00EF001C00BF04F
:1012700000C00DF000500402F4CF0CF00150050244
:10128000F4CF00F0F3CF08F00402F3500C26F45032
:101290000822000E00220D500502F3500C26F450D7
:1012A0000822000E002202500402F3500826F450D7
:1012B000002202500502016A000E0122F3500026AE
:1012C000F45001220D500602F3500826F45000227B
:1012D000026A000E012202220B500602F350002681
:1012E000F4500122000E02220E500602F350012695
:1012F000F450022202BE85EF09F0083600360136AE
:1013000002360306D8B4A7EF09F098EF09F0D880A9
:10131000800E08640030000E002201220222D8A0B4
:1013200098EF09F0023201320032034AA2EF09F0CD
:101330000AAE029E000EAAEF09F0010E25EC00F0A5
:10134000AAEF09F0020E0EEC00F0AAEF09F0040E6D
:0613500032EC00F0120077
:10135600C1C000F00032009E0032009E0032009EA6
:101366000032009E0A0E0002F3CF01F00F0E0001BC
:0A137600C115006E015000261200A0
:101380000450000A08E10550000A05E1FF0E006E56
:101390007F0E016E58D00D6A096A086A015000106C
:1013A000D8B4000C015005180A6E0ABE0D1E0B6A57
:1013B00005AE05D0041E051E042AD8B4052A01AEC8
:1013C00005D0001E011E002AD8B4012A01500510C4
:1013D0000A6E0ABE10D001EC05F00BB020D00DAEA5
:1013E000000C001E011E002AD8B4012A081E091E86
:1013F000082AD8B4092A000C05AE0DD001BE07D0CA
:101400000150096E0050086E016A006AE8D7016A4F
:10141000006A002A000C011E001E0B2ADDD7082AD4
:10142000D8B4092A0450085CD8A4D9D70550095C5F
:10143000D8A4D5D7096A086A002AD8B4012A01AE0F
:08144000CED70000FF0C1200E2
:101448000900F5CFE6FF0006FBE10106F9E112000D
:10145800939E939C939AA80ED56ED66AD76A928863
:101468000F013A6B386B946A926AB886020EB06EB6
:10147800080EAF6EAC84ACDE030E0B6E8A0E0C6EDB
:10148800550E0D6E0D2EFED70C2EFCD70B2EFAD74F
:10149800000000002E0ECF6F000ED06FDBDC430E75
:1014A800CF6F000ED06FD6DC05DDC5EC05F012005D
:1014B8000001CD6BCE6BC1C0C9F0C2C0CAF0C3C0B9
:1014C800CBF0C4C0CCF0CC51FF0A08E1CB51FF0AE5
:1014D80005E1CA51FF0A02E1C951FF0A0CE1C5C082
:1014E800CFF0C6C0D0F06C0ED16F000ED26F45DEC3
:1014F800030E006EEDD1010EC76FCBAF0ED0800E7C
:10150800CB19006E00C0CBF0C72BC5C0E1FFC6C029
:10151800E2FF2D0EE66EC54BC62B000E006ECC19F1
:1015280008E10050CB1905E10050CA1902E1C95180
:10153800000A0BE1C5C0CFF0C6C0D0F0630ED16F72
:10154800000ED26F1ADE006AC3D1CC51FF0A08E13F
:10155800CB51000A05E1CA51000A02E1C951000A4B
:101568000CE1C5C0CFF0C6C0D0F0650ED16F000E3B
:10157800D26F03DEC7C000F0ABD1000E046E000EC0
:10158800056E000E066E7F0E076EC9C000F0CAC059
:1015980001F0CBC002F0CCC003F09AEC04F0010ECD
:1015A800D8B0000E006E00521BE0C9C000F0CAC0DF
:1015B80001F0CBC002F0CCC003F0000E046E000EA8
:1015C800056E200E066E820E076E2EDE00C0C9F074
:1015D80001C0CAF002C0CBF003C0CCF0CE07CDD713
:1015E800000E046E000E056E200E066E820E076E4B
:1015F800C9C000F0CAC001F0CBC002F0CCC003F0F3
:101608009AEC04F0000ED8B0010E006E00521BE0F8
:10161800C9C000F0CAC001F0CBC002F0CCC003F0D2
:10162800CD0E046ECC0E056E4C0E066E7B0E076E4C
:10163800FBDD00C0C9F001C0CAF002C0CBF003C096
:10164800CCF0CE2BCDD7FF0EC915086EFF0ECA15EC
:10165800096E7F0ECB150A6E000ECC150B6E08C0F6
:1016680004F009C005F00AC006F00BC007F0043604
:101678000490053606360736000EC915006E000EB2
:10168800CA15016E000ECB15026EFF0ECC15036E47
:1016980000C0C9F001C0CAF002C0CBF003C0CCF052
:1016A8000450C911006E0550CA11016E0650CB11C5
:1016B800026E0750CC11036E00C0C9F001C0CAF019
:1016C80002C0CBF003C0CCF07F0ECC5D006E00C032
:1016D800C8F0010ECC6F00C004F0C9C000F0CAC049
:1016E80001F0CBC002F0CCC003F0045007E0003694
:1016F8000090013602360336FF0FF8D700C0C9F054
:1017080001C0CAF002C0CBF003C0CCF0C5C0E1FFF5
:10171800C6C0E2FFCC51300FE66EC54BC62B800E1B
:10172800CE19006E800E010A005C08E3800E060ADE
:10173800006E800ECE19005C01E30AD0C5C0E1FF3F
:10174800C6C0E2FF2E0EE66EC54BC62B010ECD6F4E
:10175800060EC86FC851000A54E0CC6BC9C000F02F
:10176800CAC001F0CBC002F0CCC003F00036009034
:10177800013602360336003600900136023603364B
:10178800C9510026CA510122CB510222CC51032251
:1017980000C0C9F001C0CAF002C0CBF003C0CCF051
:1017A800C9C000F0CAC001F0CBC002F0CCC003F041
:1017B8000036009001360236033600C0C9F001C079
:1017C800CAF002C0CBF003C0CCF0C5C0E1FFC6C070
:1017D800E2FFCC51300FE66EC54BC62BCD51000A47
:1017E8000EE1CE07CE51000A0AE1C5C0E1FFC6C02E
:1017F800E2FF2E0EE66EC54BC62B010ECD6FC80755
:10180800A9D7FF0EC525E96EFF0EC621EA6EEE5078
:10181800300A05E1010EC55F000EC65BF2D7FF0E68
:10182800C525E96EFF0EC621EA6EEE502E0A04E1C8
:10183800010EC55F000EC65BCE51000A43E0C5C06D
:10184800E1FFC6C0E2FF650EE66EC54BC62B800EF3
:10185800CE19006E800E000A005C0BE2C5C0E1FFE5
:10186800C6C0E2FF2D0EE66EC54BC62BCE51000852
:10187800CE6FCEC0C8F0800E090A006E800ECE1959
:10188800005C0FE20A0E046EC8C000F076EC05F0AA
:10189800C5C0E1FFC6C0E2FF0050300FE66EC54B81
:1018A800C62B0A0E046EC8C000F076EC05F008C01E
:1018B80000F0C5C0E1FFC6C0E2FF0050300FE66E81
:1018C800C54BC62BC5C0E1FFC6C0E2FFE66A006A89
:0218D8001200FC
:1018DA0050EC04F0800E0001D66FEFEC03F0030E1B
:1018EA000001D66FEFEC03F0110E0001D66FEFEC9A
:1018FA0003F096EC03F0030E0B6E080E0C6E770ED7
:10190A000D6E0D2EFED70C2EFCD70B2EFAD750ECEF
:10191A0004F0800E0001D66FEFEC03F0010E000117
:10192A00D66FEFEC03F074EC07F0810E0001D66F6E
:10193A00EFEC03F0010E0001CF6FA0EC07F000C03E
:10194A00C2F00001C16BCF6BA0EC07F000500001A0
:10195A00C113000EC21396EC03F0C1C000F0C2C05E
:10196A0001F001320032019E01320032019E00C0B4
:10197A00C1F001C0C2F049EC07F0000E046E000E7F
:10198A00056E000E066E840E076E03EC08F0000E5C
:10199A00046E000E056E480E066E840E076E13DC8A
:0219AA00120029
:1019AC0050EC04F0800E0001D66FEFEC03F0030E48
:1019BC000001D66FEFEC03F0010E0001D66FEFECD7
:1019CC0003F096EC03F0030E0B6E080E0C6E770E04
:1019DC000D6E0D2EFED70C2EFCD70B2EFAD750EC1D
:1019EC0004F0800E0001D66FEFEC03F0010E000145
:1019FC00D66FEFEC03F074EC07F0810E0001D66F9C
:101A0C00EFEC03F0010E0001CF6FA0EC07F000C06B
:101A1C00C6F00001C56BCF6BA0EC07F000500001C5
:101A2C00C513000EC61396EC03F0C5C001F0C6C07A
:101A3C0002F002320132029E02320132029E023266
:101A4C000132029E02320132029E01C0C5F002C078
:101A5C00C6F00250070802E10150C00809E2000E6E
:101A6C00C16F000EC26F780EC36F890EC46F1DD08C
:101A7C00010EC65D02E1800EC55D09E2000EC16F6C
:101A8C00000EC26F400EC36F870EC46F0ED0C5C060
:101A9C0000F0C6C001F049EC07F000C0C1F001C075
:101AAC00C2F002C0C3F003C0C4F0000E046E000EFE
:101ABC00056E000E066E830E076EC1C000F0C2C02C
:101ACC0001F0C3C002F0C4C003F003EC08F0000E38
:101ADC00046E000E056E400E066E830E076EE8EC6B
:101AEC0008F000C0C1F001C0C2F002C0C3F003C0D6
:041AFC00C4F0120020
:101B000050EC04F0C1C0D6F0EFEC03F0C2C0D6F048
:101B1000EFEC03F074EC07F00001C151010FD66F38
:101B2000EFEC03F0060E0B6E130E0C6EAD0E0D6E89
:101B30000D2EFED70C2EFCD70B2EFAD7000000007E
:101B40008A8A0001CF6BA0EC07F000C0C3F0000E42
:101B50000001C46F8A9A96EC03F0060E0B6E130E0A
:101B60000C6EAD0E0D6E0D2EFED70C2EFCD70B2E6F
:101B7000FAD700000000C3C000F0C4C001F012009A
:101B80000001C76BC86BC1C0C9F0C2C0CAF0800EEB
:101B9000C219006E800E005C02E1000EC15D0BE216
:101BA000010EC76F000EC86FC1510008C96FC2C0D7
:101BB000CAF0000ECA57C9C0CFF0CAC0D0F0C3C027
:101BC000D1F0C4C0D2F02DEC05F0060EC56F000EAA
:101BD000C66F000E006EC651005C02E1C5510008E0
:101BE00019E2C551C325E16EC651C421E26E010E52
:101BF000C55D006E000EC659016E0050C325E96E2A
:101C00000150C421EA6EEECFE6FF010EC55F000E63
:101C1000C65BDFD7C3C0E1FFC4C0E2FF200EE66EA3
:101C2000C751C8111AE0C56BC66BC551C325E96E13
:101C3000C651C421EA6EEE50200A03E1C54BC62B03
:101C4000F4D7010EC55F000EC65BC551C325E16E1A
:0C1C5000C651C421E26E2D0EE66E12009B
:101C5C005CEC0FF02CEC0AF03ADE00C079F001C01D
:101C6C007AF002C07BF003C07CF000C0C1F001C070
:101C7C00C2F002C0C3F003C0C4F07D0E0001C56FFA
:101C8C00000EC66F13DC500ECF6F000ED06F2EEC13
:101C9C0007F07D0ECF6F000ED06F2EEC07F05E0EAE
:101CAC00CF6F000ED06F2EEC07F00D0E0B6EAF0E3B
:101CBC000C6EB60E0D6E0D2EFED70C2EFCD70B2E09
:101CCC00FAD700006DDE00C091F001C092F002C0A6
:101CDC0093F003C094F000C0C1F001C0C2F002C088
:101CEC00C3F003C0C4F07D0E0001C56F000EC66FBB
:101CFC005CEC0AF0460ECF6F000ED06F2EEC07F0A6
:101D0C007D0ECF6F000ED06F2EEC07F0180ECF6F3C
:101D1C00000ED06F2EEC07F00D0E0B6EAF0E0C6E8E
:101D2C00B60E0D6E0D2EFED70C2EFCD70B2EFAD741
:101D3C0000001C0ECF6F000ED06F2EEC07F0D6CF2C
:101D4C0074F0000E756FD7CF01F0006A7451001259
:101D5C007551011200C074F001C075F000C0C1F0E3
:101D6C0001C0C2F07D0EC36F000EC46F03DF7D0E89
:101D7C00CF6F000ED06F2EEC07F0150ECF6F000E4C
:101D8C00D06F2EEC07F00D0E0B6EAF0E0C6EB60E68
:101D9C000D6E0D2EFED70C2EFCD70B2EFAD7000095
:101DAC00270ECF6F000ED06F2EEC07F0010E786F60
:101DBC00785106083DE3D00EC16F78C0C2F09ADEB0
:101DCC0000C076F001C077F000C0C1F0ABEC09F0B8
:101DDC0000C076F0000E776F0A0E046E000E056ED2
:101DEC0076C000F077C001F0C0EC09F0300E002492
:101DFC000001DC6F1EEC00F00A0E046E000E056E86
:101E0C0076C000F077C001F0C0EC09F008C000F01B
:101E1C0009C001F0300E00240001DC6F1EEC00F054
:101E2C003A0E0001DC6F1EEC00F00001782BC0D7DD
:101E3C00240ECF6F000ED06F2EEC07F0690ECF6F13
:0C1E4C00000ED06F2EEC07F007D7FFD778
:101EB80010EE15F05F0E006E010E016E580EF66EF4
:0E1EC8001E0EF76E000EF86E24EC0AF01200EB
:031E58000D0A0070
:041E5B00250D0A0047
:081E5F0044726F70733A200019
:031E67000D0A0061
:071E6A0054696D653A200088
:101E7100436F6E66696775726174696F6E20696E12
:051E810069743A200025
:031E86000D0A0042
:0A1E890048554D454441443A2000FD
:0E1E930054454D50455241545552453A200099
:051EA100B0430D0A0032
:021EA60030000A
:041EA800494E460059
:031EAC000D0A001C
:041EAF004E614E0032
:041EB300000000002B
:020000040030CA
:0D000100231F3CFFBF81FF0FC00FE00F4029
:00000001FF
