:0400000048EF0FF0C6
:1000080000C01AF001C019F002C018F003C017F0C0
:100018000CC016F00DC015F0F2A205D100016A530C
:1000280004E03FEC0BF000016A6B744B752B000E7B
:10003800755D02E13C0E745DD8A0F3D0746B756BEE
:10004800764B772B050E046E000E056E76C000F019
:1000580077C001F096EC05F008C000F009C001F087
:10006800000E011802E1000E0018D8A4DAD0D9EC6D
:100078000AF000C070F001C071F002C072F003C055
:1000880073F000C0CEF001C0CFF002C0D0F003C0C2
:10009800D1F08E0E0001D26F000ED36F27EC0CF05A
:1000A800290EDC6F000EDD6FA4EC07F08E0EDC6FFE
:1000B800000EDD6FA4EC07F0370EDC6F000EDD6F6D
:1000C800A4EC07F061EC0BF000C01BF001C01CF0C1
:1000D80002C01DF003C01EF000C0CEF001C0CFF07A
:1000E80002C0D0F003C0D1F08E0E0001D26F000E16
:1000F800D36F27EC0CF01F0EDC6F000EDD6FA4EC45
:1001080007F08E0EDC6F000EDD6FA4EC07F03C0EDE
:10011800DC6F000EDD6FA4EC07F0480EDC6F000EFC
:10012800DD6FA4EC07F0D6CF6BF0000E6C6FD7CF65
:1001380001F0006A6B5100126C51011200C06BF0A3
:1001480001C06CF000C0CEF001C0CFF08E0ED06FB1
:10015800000ED16F52EC0EF08E0EDC6F000EDD6FCC
:10016800A4EC07F0500EDC6F000EDD6FA4EC07F076
:10017800D66AD76A400EDC6F000EDD6FA4EC07F07C
:10018800060E476E475000083BE20001D00ECE6FC6
:1001980047C0CFF024EC0FF000C07FF001C080F022
:1001A80000C0CEF03DEC0EF000C07FF0000E806F76
:1001B8000A0E046E000E056E7FC000F080C001F0CC
:1001C800C0EC0EF0300E00240001E96F63D80A0E6F
:1001D800046E000E056E7FC000F080C001F0C0EC18
:1001E8000EF008C000F009C001F0300E0024000134
:1001F800E96F50D83A0E0001E96F4CD84706C2D7CC
:100208007FC076F080C077F0810E0001DC6F000EB1
:10021800DD6FA4EC07F0780EDC6F000EDD6FA4EC48
:1002280007F08A7EF2921AC000F019C001F018C0D7
:1002380002F017C003F016C00CF015C00DF0110045
:0C02480072B201D0FDD7E9C073FF1200B4
:100254000B840BAE35EF01F0010E036E026A016AE6
:0A026400006A0A360232FF0E120093
:0E026E00026A016A006A086A036A000E120042
:10027C000B820BAE48EF01F003680268016800685E
:08028C000A360232FF0E1200D7
:080294000AAE029E000E1200EA
:0E029C00ACB202D00000FCD7E9C0ADFF1200EA
:1002AA000CB097EF01F00CA23DEF02F00E6A000EBF
:1002BA000264AEEF01F0F00E0214D8A479EF01F057
:1002CA00023A01380F0B02260138F00B016E003892
:1002DA000F0B01260038F00B006E08380F0B0026B2
:1002EA000838F00B086E0E84D89002BE92EF01F027
:1002FA0008360036013602360E2A02BE92EF01F0A7
:10030A0008360036013602360E2A02BE92EF01F096
:10031A0008360036013602360E2A0E50036433EFD1
:10032A0002F0035E0BBC08AE38EF02F0D880800EF4
:10033A0008640030000E002201220222D8A038EF01
:10034A0002F0023201320032034A3DEF02F038EF86
:10035A0002F001C002F000C001F008C000F0086A13
:10036A00000E0E860264E5EF01F0F00E0214D8A426
:10037A00CDEF01F0023A01380F0B02260138F00BDB
:10038A00016E00380F0B01260038F00B006E0E8448
:10039A00D89002BE92EF01F00036013602360E2ADC
:1003AA0002BE92EF01F00036013602360E2A02BE74
:1003BA0092EF01F00036013602360E2A92EF01F072
:1003CA0001C002F000C001F0006A000E0E960E880D
:1003DA00026412EF02F0F00E0214D8A4FDEF01F04D
:1003EA00023A01380F0B02260138F00B016E0E8417
:1003FA00D89002BE92EF01F0013602360E2A02BEF2
:10040A0092EF01F0013602360E2A02BE92EF01F097
:10041A00013602360E2A92EF01F001C002F0016A9B
:10042A00000E0E86026442EF02F0F00E0214D8A407
:10043A0021EF02F0023A0E84D89002BE92EF01F048
:10044A0002360E2A02BE92EF01F002360E2A02BED0
:10045A0092EF01F002360E2A92EF01F0010E0C6EB5
:10046A00F4DE45EF02F0020E0C6E0FDF45EF02F0EC
:10047A00040E0C6EFEDE45EF02F0080E0C6EF2DE84
:02048A0012005E
:10048C00C7B409D01F0EC514016E0150000A03E158
:0A049C00010E006E01D0006A12008C
:1004A600F250026EF29E0500FF6A0150FE6E005089
:0804B600FD6E02BEF28E120081
:1004BE00025006180E6E086A096A0B6A035007642A
:1004CE0052EF03F006500A6E068E028E03500B6E2C
:1004DE000750036E000E0B64A2EF02F00B50075E86
:1004EE00D8B443EF03F0070E076411EF03F0075E75
:1004FE0000C008F001C000F002C001F0026A074E11
:10050E0043EF03F00764E6EF02F0075E00C008F069
:10051E0001C000F0016A074E43EF03F00764C4EF19
:10052E0002F0075E00C008F0006A074E43EF03F0CA
:10053E000764ABEF02F00AC002F005C001F004C080
:10054E0000F0086A6CEF04F0030E0764B6EF02F0D9
:10055E00075E08380F0B086E074E43EF03F0D89076
:10056E000832074E43EF03F0D8900832074E43EFA0
:10057E0003F0D890083243EF03F0030E0764D5EF73
:10058E0002F0075E08380F0B086E0038F00B0826D5
:10059E0000380F0B006E074E43EF03F0D890003279
:1005AE000832074E43EF03F0D89000320832074E60
:1005BE0043EF03F0D8900032083243EF03F0030EFE
:1005CE000764FDEF02F0075E08380F0B086E003867
:1005DE00F00B082600380F0B006E0138F00B0026CA
:1005EE0001380F0B016E074E43EF03F0D890013226
:1005FE0000320832074E43EF03F0D890013200323A
:10060E000832074E43EF03F0D89001320032083221
:10061E0043EF03F0030E07642EEF03F0075E083876
:10062E000F0B086E0038F00B082600380F0B006E0B
:10063E000138F00B002601380F0B016E0238F00B5B
:10064E00012602380F0B026E074E43EF03F0D890CF
:10065E000232013200320832074E43EF03F0D890D7
:10066E000232013200320832074E43EF03F0D890C7
:10067E000232013200320832096A000E0EAE37EF36
:10068E0004F0081E001E011E021E082A002201226E
:10069E00022237EF04F00750D8A458EF03F06CEFA6
:1006AE0004F0096A02C00AF0028E068E0750035C3F
:1006BE00076ED8B42AEF04F0070E0764F8EF03F0C4
:1006CE00075E0450096E0550046E0650056E066AEC
:1006DE00074E2AEF04F0070E0764CDEF03F0075E16
:1006EE000450096E0550046E056A074E2AEF04F099
:1006FE00070E0764ABEF03F0075E0450096E046A41
:10070E00074E2AEF04F0070E076492EF03F00AC0BB
:10071E0002F06CEF04F0030E07649DEF03F0075E2A
:10072E0009380F0B096E074E2AEF04F0D8900932E4
:10073E00074E2AEF04F0D8900932074E2AEF04F044
:10074E00D89009322AEF04F0030E0764BCEF03F0D1
:10075E00075E09380F0B096E0438F00B09260438B2
:10076E000F0B046E074E2AEF04F0D89004320932B4
:10077E00074E2AEF04F0D89004320932074E2AEFC2
:10078E0004F0D890043209322AEF04F0030E076405
:10079E00E4EF03F0075E09380F0B096E0438F00B17
:1007AE00092604380F0B046E0538F00B04260538A5
:1007BE000F0B056E074E2AEF04F0D8900532043267
:1007CE000932074E2AEF04F0D8900532043209326E
:1007DE00074E2AEF04F0D8900532043209322AEF80
:1007EE0004F0030E076415EF04F0075E09380F0BD3
:1007FE00096E0438F00B092604380F0B046E053809
:10080E00F00B042605380F0B056E0638F00B052687
:10081E0006380F0B066E074E2AEF04F0D8900632FC
:10082E00053204320932074E2AEF04F0D890063210
:10083E00053204320932074E2AEF04F0D890063200
:10084E00053204320932086A000E0EAE37EF04F09C
:10085E00091E041E051E061E092A04220522062252
:10086E00095008260450002205500122065002228B
:10087E000EBE4EEF04F0D8A05DEF04F0023201324E
:10088E0000320832033E5DEF04F067EF04F0D8B09B
:10089E0062EF04F0000E081E001E011E021E082A42
:1008AE000022012202220A7E62EF04F0010E0C6E7B
:1008BE00F5DC6EEF04F0020E0C6EF0DC6EEF04F061
:1008CE00040E0C6ED4DC6EEF04F0000E0C6E1200F3
:1008DE009E96E3C0C9FF8AC0E4F08BC0E5F08CC0E1
:1008EE00E6F08DC0E7F0C7A421D000018A518B112C
:1008FE008C118D111AE0E451E511E611E7110EE1AC
:10090E00C8C0E1FFC9C0E2FF040EE66EC6C000F02B
:10091E00C7C001F0C1DD010E006E3AD0010E00011C
:10092E00E45F000EE55BE65BE75BDDD78AC0E4F0D3
:10093E008BC0E5F08CC0E6F08DC0E7F09EB621D0FE
:10094E0000018A518B118C118D111AE0E451E511C1
:10095E00E611E7110EE1C8C0E1FFC9C0E2FF040EC7
:10096E00E66EC6C000F0C7C001F096DD010E006E47
:10097E000FD0010E0001E45F000EE55BE65BE75B66
:10098E00DDD7C5BC02D0006A03D0C584020E006E4E
:02099E00120045
:1009A0008AC0E5F08BC0E6F08CC0E7F08DC0E8F0BF
:1009B0000001E36BE46BE451120802E1E3518E089D
:1009C00008E364DD005201E004D00001E34BE42BB6
:1009D000F2D70001120EE45D02E18F0EE35D03E346
:1009E0007B0E006E24D0C580C5A020D08A518B110B
:1009F0008C118D111AE0E551E611E711E8110EE1B5
:100A0000C8C0E1FFC9C0E2FF050EE66EC6C000F037
:100A1000C7C001F048DD010E006E09D0010E0001D3
:100A2000E55F000EE65BE75BE85BDED7006A12007D
:100A30008C0E0001CA6F040ECB6F000ECC6F000E3F
:100A4000CD6FA00EAA6F090EAB6F000EAC6F000E3B
:100A5000AD6F020EAE6F150EAF6F000EB06F000ED1
:100A6000B16F3C0EA26F140EA36FDC0EA46F000ECC
:100A7000A56FDE0EA66F080EA76FE30EA86F000E1F
:100A8000A96F280EB26F0B0EB36F000EB46F000E7D
:100A9000B56F949894968B988B9694889486C79EFD
:080AA000C79C380EC66E12005F
:080AA8000B6A0B86FF0E120021
:100AB0000C6A0E6A0250D8A471EF05F001C002F072
:100AC00000C001F0006A0E860250D8A471EF05F054
:100AD00001C002F0016A0E960E880250D8B483EF6E
:100AE00005F00E50035ED8A4D8A089EF05F0D89089
:100AF00002BE8FEF05F0003601360236032E78EF86
:100B000005F089EF05F0010E0C6E37EC01F093EF64
:100B100005F0020E0C6E2AEC01F093EF05F0040EC6
:080B20000C6E4AEC01F012001A
:040B2800C58412006E
:100B2C00086A096A100E0C6E013408360936045036
:100B3C00085E0550D8A0053C095ED8B007D004501B
:100B4C0008260550D8B0053C0926D8900036013649
:060B5C000C2EEAD7120086
:060B6200067EACDC12006F
:100B6800086A096A000E0762036439EF06F002504A
:100B780006180A6E075003267E0ED8A0CAEF05F0A5
:100B8800035ED8B03EEF06F0CEEF05F0035ED8A0C6
:100B980043EF06F0028E068E02C00EF001C00BF085
:100BA80000C00DF000500402F4CF0CF00150050213
:100BB800F4CF00F0F3CF08F00402F3500C26F45001
:100BC8000822000E00220D500502F3500C26F450A6
:100BD8000822000E002202500402F3500826F450A6
:100BE800002202500502016A000E0122F35000267D
:100BF800F45001220D500602F3500826F45000224A
:100C0800026A000E012202220B500602F35000264F
:100C1800F4500122000E02220E500602F350012663
:100C2800F450022202BE21EF06F0083600360136E3
:100C380002360306D8B443EF06F034EF06F0D88046
:100C4800800E08640030000E002201220222D8A083
:100C580034EF06F0023201320032034A3EEF06F06A
:100C68000AAE029E000E46EF06F0010E37EC01F0C8
:100C780046EF06F0020E3EEC01F046EF06F0040ED9
:060C88002AEC01F012004D
:100C8E00DCC004F0DDC005F004C002F005C003F0C6
:100C9E00044A052ADEC000F0DFC001F00001DE4B81
:100CAE00DF2B00C0E9FF01C0EAFF02C0E1FF03C075
:100CBE00E2FFEECFE6FF02C0E9FF03C0EAFFEE520D
:0E0CCE0001E0E2D7DCC000F0DDC001F0120052
:100CDC000A6A0350D8A40A800750D8A40A820A5082
:100CEC00D8B4D1EF06F0030AD8B48AEF06F00AB0F4
:100CFC0085EF06F006AECFEF06F0CDEF06F002AEB4
:100D0C00CDEF06F0CFEF06F00250800B0A6E029E7C
:100D1C000650800B069E0A18D8B49BEF06F00A50BA
:100D2C00D8B4CDEF06F0CFEF06F00750035CD8B483
:100D3C00A5EF06F0D8A0C1EF06F0C7EF06F00650FD
:100D4C00025CD8B4AFEF06F0D8A0C1EF06F0C7EF45
:100D5C0006F00550015CD8B4B9EF06F0D8A0C1EF8D
:100D6C0006F0C7EF06F00450005CD8B4D1EF06F0E3
:100D7C00D8B0C7EF06F00A52D8B4CFEF06F0CDEFDB
:100D8C0006F00A52D8B4CDEF06F0CFEF06F0D880BB
:0E0D9C001200D8901200D880D88412001200E5
:100DAA000450000A12E10550000A0FE10650000A39
:100DBA000CE10750000A09E1FF0E006EFF0E016EFA
:100DCA007F0E026EFF0E036EA7D0086A096A0750EB
:100DDA00D8B480EF07F00350D8B484EF07F002507C
:100DEA0006180A6E028E068E0E6A02C008F001C04C
:100DFA000CF000C00DF004500D5E0550D8A0053C63
:100E0A000C5E0650D8A0063C085E086A0C6A0D6A99
:100E1A00D8A017EF07F0D890023201320032083218
:100E2A00010E0E6E0750035ED8A024EF07F07E0E67
:100E3A000E240326D8B089EF07F02AEF07F07E0EBA
:100E4A000E240326D8A08EEF07F0180E0B6E0D366F
:100E5A000C3608360036013602360E360450005E6D
:100E6A000550D8A0053C015E0650D8A0063C025E9B
:100E7A0006340E120EA045EF07F00D8050EF07F072
:100E8A00045000260550D8B0053C01260650D8B0BB
:100E9A00062802260D900B2E2CEF07F076EF07F0AE
:100EAA00D8900036013602360E360450005E0550E0
:100EBA00D8A0053C015E0650D8A0063C025E063466
:100ECA000E10010B0D26D8B00C2AD8B4082AD8A4C3
:100EDA0076EF07F008320C320D32032AD8B489EFC4
:100EEA0007F00AAE089E0850026E0C50016E0D50B3
:100EFA00006E91EF07F0010ED2DD91EF07F0020EBE
:100F0A0037EC01F091EF07F0040E3EEC01F091EF9F
:0A0F1A0007F0080E2AEC01F01200A7
:100F2400320EC86E83DD030E0B6E8A0E0C6E550EE8
:100F34000D6E0D2EFED70C2EFCD70B2EFAD700000B
:040F44000000120097
:100F48000001DF6BDCC0E9FFDDC0EAFFEECFDEF0B9
:100F5800DE51000A0FE0DEC0E9F04EEC01F00001BE
:100F6800DF2BDF51DC25E96E000EDD21EA6EEECFC6
:060F7800DEF0EED71200CE
:100F7E000001E06B050EE05D0AE2E051DE25E16E58
:100F8E00000EDF21E26E200EE66EE02BF3D7E0516D
:100F9E00DE25E16E000EDF21E26EE66AE007E0512B
:100FAE00DE25E16F000EDF21E26F0A0E046E000EE9
:100FBE00056EDCC000F0DDC001F0B1DD08C000F050
:100FCE0009C001F0300E0026E1C0E1FFE2C0E2FFF1
:100FDE0000C0E6FF0A0E046E000E056EDCC000F0C7
:100FEE00DDC001F09CDD00C0DCF001C0DDF0000EC4
:100FFE00011802E1000E001801E102D0E007CFD780
:02100E001200CE
:10101000C7DCD20E0001E36F62DC190E0001E36F42
:101020005EDC070E0001E36F5ADC7EDD030E0B6E03
:101030008A0E0C6E550E0D6E0D2EFED70C2EFCD7A3
:101040000B2EFAD700000000ABDCD20E0001E36FDC
:1010500046DC6B0E0001E36F42DC0001E36B3FDC1A
:1010600063DD030E0B6E8A0E0C6E550E0D6E0D2E8B
:10107000FED70C2EFCD70B2EFAD70000000090DC18
:10108000D20E0001E36F2BDC6C0E0001E36F27DC56
:101090000001E36B24DC48DD030E0B6E8A0E0C6E40
:1010A000550E0D6E0D2EFED70C2EFCD70B2EFAD73B
:1010B0000000000075DCD20E0001E36F10DC1B0E97
:1010C0000001E36F0CDC0001E36B09DC2DDD030E96
:1010D0000B6E8A0E0C6E550E0D6E0D2EFED70C2E5D
:1010E000FCD70B2EFAD7000000005ADCD20E00010C
:1010F000E36F6FEC04F01C0E0001E36F6FEC04F083
:101100000001E36B6FEC04F00FDD030E0B6E8A0E33
:101110000C6E550E0D6E0D2EFED70C2EFCD70B2E21
:10112000FAD7000000003CDC030E0B6E8A0E0C6E3A
:10113000550E0D6E0D2EFED70C2EFCD70B2EFAD7AA
:1011400000000000D20E0001E36F6FEC04F0380ED7
:101150000001E36F6FEC04F0400E0001E36F6FECF1
:1011600004F0E2DC030E0B6E8A0E0C6E550E0D6E53
:101170000D2EFED70C2EFCD70B2EFAD70000000048
:101180000FDCD20E0001E36F6FEC04F0200E0001C3
:10119000E36F6FEC04F0010E0001E36F6FEC04F0FD
:1011A000C3DC030E0B6E8A0E0C6E550E0D6E0D2EEB
:1011B000FED70C2EFCD70B2EFAD700000000D0EC87
:1011C00004F0D20E0001E36F6FEC04F03A0E000160
:1011D000E36F6FEC04F0010E0001E36F6FEC04F0BD
:1011E000A3DC030E0B6E8A0E0C6E550E0D6E0D2ECB
:1011F000FED70C2EFCD70B2EFAD700000000D0EC47
:1012000004F0D20E0001E36F6FEC04F01F0E00013A
:10121000E36F6FEC04F0010E0001E36F6FEC04F07C
:1012200083DC060E0B6E130E0C6EAD0E0D6E0D2EC6
:10123000FED70C2EFCD70B2EFAD700000000D0EC06
:1012400004F0D20E0001E36F6FEC04F01A0E0001FF
:10125000E36F6FEC04F0FF0E0001E36F6FEC04F03E
:1012600063DC030E0B6E8A0E0C6E550E0D6E0D2E8A
:10127000FED70C2EFCD70B2EFAD700000000D0ECC6
:1012800004F0D20E0001E36F6FEC04F06C0E00016D
:10129000E36F6FEC04F0600E0001E36F6FEC04F09D
:1012A00043DC030E0B6E8A0E0C6E550E0D6E0D2E6A
:1012B000FED70C2EFCD70B2EFAD700000000D0EC86
:1012C00004F0D20E0001E36F6FEC04F06B0E00012E
:1012D000E36F6FEC04F0100E0001E36F6FEC04F0AD
:1012E00023DC030E0B6E8A0E0C6E550E0D6E0D2E4A
:1012F000FED70C2EFCD70B2EFAD700000000060EEE
:101300000B6E130E0C6EAD0E0D6E0D2EFED70C2E49
:0C131000FCD70B2EFAD7000000001200E2
:10131C000134083609360450085E0550D8A0053C47
:10132C00095E003601360F0E0C6E01340836093694
:10133C00045000A006D0085E0550D8A0053C095EFC
:10134C0005D008260550D8B0053C092600360136D4
:10135C000C2EEBD700B006D0045008260550D8B0A0
:08136C00053C092600001200F7
:101374000050086E0150006E016A026A036A0B6A2B
:101384000C6A960E036E0A6A00C001F008C000F0F1
:0A139400086A026A58EC05F0120026
:10139E000D6A086A0050D8B4000C04180A6E0ABE12
:1013AE000D1E0B6A04AE02D0041E042A00AE02D03B
:1013BE00001E002A005004100A6E0ABE1FD00450F0
:1013CE00085E003600340836045008260036060E35
:1013DE000C6E00340836045000B0085E00A00826DB
:1013EE0000360C2EF6D700A008260BB015D00DAE89
:1013FE00000C001E002A081E082A000C04AE09D09C
:10140E0000BE04D00050086E006AF1D7006A002AB0
:10141E00000C001E0B2AD3D7082A0450085CD8A44F
:0E142E00E6D7086A002A00AEE2D7FF0C1200D3
:10143C008AC0DEF08BC0DFF08CC0E0F08DC0E1F034
:10144C009E96C5869EB620D000018A518B118C11B8
:10145C008D1119E0DE51DF11E011E1110DE1C8C071
:10146C00E1FFC9C0E2FF030EE66EC6C000F0C7C0C4
:10147C0001F053EC02F008D0010E0001DE5F000E0B
:10148C00DF5BE05BE15BDED70001C9CFDDF0DC5157
:10149C00000A02E1C58A01D0C59A9E96C5888AC009
:1014AC00DEF08BC0DFF08CC0E0F08DC0E1F09EB6BA
:1014BC001FD08A518B118C118D1119E0DE51DF1167
:1014CC00E011E1110DE1C8C0E1FFC9C0E2FF030E5C
:1014DC00E66EC6C000F0C7C001F053EC02F008D0B5
:1014EC00010E0001DE5F000EDF5BE05BE15BDFD72E
:0614FC00DDC000F012004B
:101502008AC0DCF08BC0DDF08CC0DEF08DC0DFF075
:10151200C582C5A220D000018A518B118C118D1178
:1015220019E0DC51DD11DE11DF110DE1C8C0E1FF70
:10153200C9C0E2FF060EE66EC6C000F0C7C001F0E9
:1015420053EC02F008D0010E0001DC5F000EDD5BFF
:08155200DE5BDF5BDED7120057
:10155A009C0E0001BE6F020EBF6FE90EC06F000E37
:10156A00C16FFF0EC26FFF0EC36F000EC46F000E75
:10157A00C56FFF0EB66FFF0EB76F000EB86F000E85
:10158A00B96FFF0EBA6FFF0EBB6F000EBC6F000E75
:10159A00BD6FAC8A900EAB6E948E949C9EAA03D0BB
:0815AA00AECF00F0FBD71200E8
:1015B200D0EC04F0800E0001E36F6FEC04F0030E38
:1015C2000001E36F6FEC04F0110E0001E36F6FECAA
:1015D20004F094EC05F0030E0B6E080E0C6E770E01
:1015E2000D6E0D2EFED70C2EFCD70B2EFAD7D0EC9B
:1015F20004F0800E0001E36F6FEC04F0010E0001B5
:10160200E36F6FEC04F07CDF810E0001E36F6FEC9F
:1016120004F0010E0001DC6F10DF00C0CFF000010A
:10162200CE6BDC6B0ADF00500001CE13000ECF132D
:1016320094EC05F0CEC000F0CFC001F001320032D0
:10164200019E01320032019E00C0CEF001C0CFF0F7
:1016520090DE000E046E000E056E000E066E840E05
:10166200076ED5EC06F0000E046E000E056E480EF5
:0C167200066E840E076EB1EC05F012004D
:10167E00B886020EB06E080EAF6EAC8467DF030E36
:10168E000B6E8A0E0C6E550E0D6E0D2EFED70C2E99
:10169E00FCD70B2EFAD700000000550EDC6F000EA3
:1016AE00DD6F4BDC6D0EDC6F000EDD6F46DC33DC68
:0416BE00A8DC120092
:1016C200D0EC04F0800E0001E36F6FEC04F0030E27
:1016D2000001E36F6FEC04F0010E0001E36F6FECA9
:1016E20004F094EC05F0030E0B6E080E0C6E770EF0
:1016F2000D6E0D2EFED70C2EFCD70B2EFAD7D0EC8A
:1017020004F0800E0001E36F6FEC04F0010E0001A3
:10171200E36F6FEC04F0F4DE810E0001E36F6FEC17
:1017220004F0010E0001DC6F88DE00C0D3F000017E
:10173200D26BDC6B82DE00500001D213000ED31399
:1017420094EC05F0D2C001F0D3C002F002320132B3
:10175200029E02320132029E02320132029E0232A5
:101762000132029E01C0D2F002C0D3F0025007083B
:1017720002E10150C00809E2000ECE6F000ECF6FE9
:10178200780ED06F890ED16F1CD0010ED35D02E1AD
:10179200800ED25D09E2000ECE6F000ECF6F400EBA
:1017A200D06F870ED16F0DD0D2C000F0D3C001F040
:1017B200E0DD00C0CEF001C0CFF002C0D0F003C027
:1017C200D1F0000E046E000E056E000E066E830E42
:1017D200076ECEC000F0CFC001F0D0C002F0D1C081
:1017E20003F0D5EC06F0000E046E000E056E400EFE
:1017F200066E830E076EB1EC05F000C0CEF001C09C
:0C180200CFF002C0D0F003C0D1F0120003
:10180E000900F5CFE6FF0006FBE10106F9E1120043
:10181E000F01386B396B3A6B939E939C939AD00E53
:10182E00F26EF292F19C9380A80ED56ED66AD76AAC
:10183E009288806A816A826A010E00016A6F1200C4
:10184E000001DA6BDB6BCEC0D6F0CFC0D7F0D0C0C4
:10185E00D8F0D1C0D9F0D951FF0A08E1D851FF0A0A
:10186E0005E1D751FF0A02E1D651FF0A0DE1D2C0C0
:10187E00DCF0D3C0DDF07B0EDE6F000EDF6F47ECC9
:10188E0006F0030E006EF1D1010ED46FD8AF0ED05C
:10189E00800ED819006E00C0D8F0D42BD2C0E1FF54
:1018AE00D3C0E2FF2D0EE66ED24BD32B000E006E90
:1018BE00D91908E10050D81905E10050D71902E1F5
:1018CE00D651000A0CE1D2C0DCF0D3C0DDF0840E9C
:1018DE00DE6F000EDF6F47EC06F0006AC6D1D951FD
:1018EE00FF0A08E1D851000A05E1D751000A02E1CA
:1018FE00D651000A0DE1D2C0DCF0D3C0DDF0860E69
:10190E00DE6F000EDF6F47EC06F0D4C000F0ADD1F5
:10191E00000E046E000E056E000E066E7F0E076E34
:10192E00D6C000F0D7C001F0D8C002F0D9C003F085
:10193E006EEC06F0010ED8B0000E006E00521CE0E8
:10194E00D6C000F0D7C001F0D8C002F0D9C003F065
:10195E00000E046E000E056E200E066E820E076ED1
:10196E00B4EC05F000C0D6F001C0D7F002C0D8F03C
:10197E0003C0D9F0DB07CCD7000E046E000E056E47
:10198E00200E066E820E076ED6C000F0D7C001F094
:10199E00D8C002F0D9C003F06EEC06F0000ED8B03D
:1019AE00010E006E00521CE0D6C000F0D7C001F050
:1019BE00D8C002F0D9C003F0CD0E046ECC0E056E69
:1019CE004C0E066E7B0E076EB4EC05F000C0D6F022
:1019DE0001C0D7F002C0D8F003C0D9F0DB2BCCD7B2
:1019EE00FF0ED615086EFF0ED715096E7F0ED81591
:1019FE000A6E000ED9150B6E08C004F009C005F072
:101A0E000AC006F00BC007F0043604900536063601
:101A1E000736000ED615006E000ED715016E000E9D
:101A2E00D815026EFF0ED915036E00C0D6F001C098
:101A3E00D7F002C0D8F003C0D9F00450D611006E12
:101A4E000550D711016E0650D811026E0750D911EC
:101A5E00036E00C0D6F001C0D7F002C0D8F003C0AC
:101A6E00D9F07F0ED95D006E00C0D5F0010ED96F92
:101A7E0000C004F0D6C000F0D7C001F0D8C002F00C
:101A8E00D9C003F0045007E000360090013602364C
:101A9E000336FF0FF8D700C0D6F001C0D7F002C052
:101AAE00D8F003C0D9F0D2C0E1FFD3C0E2FFD951C4
:101ABE00300FE66ED24BD32B800EDB19006E800EEC
:101ACE00010A005C08E3800E060A006E800EDB1928
:101ADE00005C01E30AD0D2C0E1FFD3C0E2FF2E0EBC
:101AEE00E66ED24BD32B010EDA6F060ED56FD551A3
:101AFE00000A54E0D96BD6C000F0D7C001F0D8C0B0
:101B0E0002F0D9C003F000360090013602360336DB
:101B1E0000360090013602360336D6510026D751D4
:101B2E000122D8510222D951032200C0D6F001C0A1
:101B3E00D7F002C0D8F003C0D9F0D6C000F0D7C09D
:101B4E0001F0D8C002F0D9C003F000360090013683
:101B5E000236033600C0D6F001C0D7F002C0D8F06E
:101B6E0003C0D9F0D2C0E1FFD3C0E2FFD951300F8C
:101B7E00E66ED24BD32BDA51000A0EE1DB07DB51B6
:101B8E00000A0AE1D2C0E1FFD3C0E2FF2E0EE66EDC
:101B9E00D24BD32B010EDA6FD507A9D7FF0ED22564
:101BAE00E96EFF0ED321EA6EEE50300A05E1010E0A
:101BBE00D25F000ED35BF2D7FF0ED225E96EFF0E79
:101BCE00D321EA6EEE502E0A04E1010ED25F000E12
:101BDE00D35BDB51000A43E0D2C0E1FFD3C0E2FF8A
:101BEE00650EE66ED24BD32B800EDB19006E800E87
:101BFE00000A005C0BE2D2C0E1FFD3C0E2FF2D0E63
:101C0E00E66ED24BD32BDB510008DB6FDBC0D5F079
:101C1E00800E090A006E800EDB19005C0FE20A0EC0
:101C2E00046ED5C000F0CFEC09F0D2C0E1FFD3C0F6
:101C3E00E2FF0050300FE66ED24BD32B0A0E046E2D
:101C4E00D5C000F0CFEC09F008C000F0D2C0E1FF23
:101C5E00D3C0E2FF0050300FE66ED24BD32BD2C072
:0C1C6E00E1FFD3C0E2FFE66A006A12004A
:101C7A00CEC000F00032009E0032009E0032009E6C
:101C8A000032009E0A0E0002F3CF01F00F0E00018F
:0A1C9A00CE15006E01500026120066
:101CA4000001D46BD56BCEC0D6F0CFC0D7F0800E78
:101CB400CF19006E800E005C02E1000ECE5D0BE2D7
:101CC400010ED46F000ED56FCE510008D66FCFC071
:101CD400D7F0000ED757D6C0DCF0D7C0DDF0D0C0A7
:101CE400DEF0D1C0DFF0BFEC07F0060ED26F000EBD
:101CF400D36F000E006ED351005C02E1D251000894
:101D040019E2D251D025E16ED351D121E26E010EF8
:101D1400D25D006E000ED359016E0050D025E96EDD
:101D24000150D121EA6EEECFE6FF010ED25F000E24
:101D3400D35BDFD7D0C0E1FFD1C0E2FF200EE66E57
:101D4400D451D5111AE0D26BD36BD251D025E96EA0
:101D5400D351D121EA6EEE50200A03E1D24BD32BAA
:101D6400F4D7010ED25F000ED35BD251D025E16EC1
:0C1D7400D351D121E26E2D0EE66E12005C
:101D80000450000A08E10550000A05E1FF0E006E4C
:101D90007F0E016E58D00D6A096A086A0150001062
:101DA000D8B4000C015005180A6E0ABE0D1E0B6A4D
:101DB00005AE05D0041E051E042AD8B4052A01AEBE
:101DC00005D0001E011E002AD8B4012A01500510BA
:101DD0000A6E0ABE10D08EEC09F00BB020D00DAE0A
:101DE000000C001E011E002AD8B4012A081E091E7C
:101DF000082AD8B4092A000C05AE0DD001BE07D0C0
:101E00000150096E0050086E016A006AE8D7016A45
:101E1000006A002A000C011E001E0B2ADDD7082ACA
:101E2000D8B4092A0450085CD8A4D9D70550095C55
:101E3000D8A4D5D7096A086A002AD8B4012A01AE05
:081E4000CED70000FF0C1200D8
:101E4800D0EC04F0CEC0E3F06FEC04F0CFC0E3F0C8
:101E58006FEC04F081EC0AF00001CE51010FE36F42
:101E68006FEC04F08A8A0001DC6B1EEC0AF000C0FB
:101E7800D0F0000E0001D16F8A9A94EC05F0D0C022
:081E880000F0D1C001F01200CE
:101E9000B7EC0FF0C4DCD6CF6BF0000E6C6FD7CF71
:101EA00001F0006A00506B11026E6C510110036E5C
:101EB00002C06BF003C06CF05450031802E10250F2
:101EC00053180FE06BC053F06CC054F08A8C410E75
:101ED0000C6EEE0E0D6E0D2EFED70C2EFCD70000F4
:101EE0008A9C820E0C6EDD0E0D6E0D2EFED70C2E12
:0A1EF000FCD700000000CFD7FFD799
:101F6E0010EE1BF0730E006E010E016EFA0EF66E81
:0E1F7E001E0EF76E000EF86E07EC0CF012004F
:041EFA0000000000E4
:0A1EFE0048554D454441443A200088
:0E1F080054454D50455241545552453A200023
:051F1600B0430D0A00BC
:041F1B00250D0A0086
:071F1F0054696D653A2000D2
:011F260000BA
:081F270044726F70733A200050
:031F2F000D0A0098
:021F32000000AD
:101F3400436F6E66696775726174696F6E20696E4E
:051F440069743A200061
:011F49000097
:021F4A00000095
:031F4C000D0A007B
:041F4F00000000008E
:021F530000008C
:021F550000008A
:031F57000D0A0070
:041F5A004E614E0086
:021F5E00000081
:031F60000D0A0067
:021F630030004C
:041F6500494E46009B
:041F69000000000074
:020000040030CA
:0D000100231F3CFFBF81FF0FC00FE00F4029
:00000001FF
