:100000000CEF08F00000000000EF00F0000000001E
:0A0010000000000000000000F3D71C
:08001C000AAE029E000E120064
:100024000B820BAE1CEF00F00368026801680068E5
:080034000A360232FF0E120031
:0E003C00026A016A006A086A036A000E120076
:10004A000B840BAE30EF00F0010E036E026A016AF8
:0A005A00006A0A360232FF0E12009F
:100064000CB074EF00F00CA21AEF01F00E6A000E4F
:1000740002648BEF00F0F00E0214D8A456EF00F0E7
:10008400023A01380F0B02260138F00B016E0038DA
:100094000F0B01260038F00B006E08380F0B0026FA
:1000A4000838F00B086E0E84D89002BE6FEF00F093
:1000B40008360036013602360E2A02BE6FEF00F013
:1000C40008360036013602360E2A02BE6FEF00F003
:1000D40008360036013602360E2A0E50036410EF3D
:1000E40001F0035E0BBC08AE15EF01F0D880800E62
:1000F40008640030000E002201220222D8A015EF6D
:1001040001F0023201320032034A1AEF01F015EF16
:1001140001F001C002F000C001F008C000F0086A5C
:10012400000E0E860264C2EF00F0F00E0214D8A492
:10013400AAEF00F0023A01380F0B02260138F00B47
:10014400016E00380F0B01260038F00B006E0E8490
:10015400D89002BE6FEF00F00036013602360E2A48
:1001640002BE6FEF00F00036013602360E2A02BEE0
:100174006FEF00F00036013602360E2A6FEF00F002
:1001840001C002F000C001F0006A000E0E960E8855
:100194000264EFEF00F0F00E0214D8A4DAEF00F0DE
:1001A400023A01380F0B02260138F00B016E0E845F
:1001B400D89002BE6FEF00F0013602360E2A02BE5E
:1001C4006FEF00F0013602360E2A02BE6FEF00F028
:1001D400013602360E2A6FEF00F001C002F0016A08
:1001E400000E0E8602641FEF01F0F00E0214D8A474
:1001F400FEEF00F0023A0E84D89002BE6FEF00F0DA
:1002040002360E2A02BE6FEF00F002360E2A02BE3C
:100214006FEF00F002360E2A6FEF00F0010E0C6E45
:1002240012DF22EF01F0020E0C6EF6DE22EF01F077
:10023400040E0C6EF5DE22EF01F0080E0C6EFCDEEF
:020244001200A6
:0E024600ACB202D00000FCD769C0ADFF1200C0
:0C02540072B201D0FDD769C073FF120028
:10026000C7B409D01F0EC514016E0150000A03E186
:0A027000010E006E01D0006A1200BA
:10027A00600E2D6E020E2E6E000E2F6E000E306E68
:10028A003E0E1D6E0A0E1E6E000E1F6E000E206EB2
:10029A00A60E196E0B0E1A6E000E1B6E000E1C6E49
:1002AA00FA0E216E0B0E226E5B0E236E000E246E6A
:1002BA00840E296E090E2A6E5B0E2B6E000E2C6EB2
:1002CA005C0E256E0B0E266E000E276E000E286E33
:1002DA00949894968B988B9694889486C79EC79C7C
:0602EA00380EC66E120082
:1002F000F250026EF29E0500FF6A0150FE6E005041
:08030000FD6E02BEF28E120038
:080308000B6A0B86FF0E1200C8
:100310000C6A0E6A0250D8A4A1EF01F001C002F0ED
:1003200000C001F0006A0E860250D8A4A1EF01F0CF
:1003300001C002F0016A0E960E880250D8B4B3EFE5
:1003400001F00E50035ED8A4D8A0B8EF01F0D89009
:1003500002BEBDEF01F0003601360236032EA8EFD3
:1003600001F0B8EF01F0010E0C6E68DEC0EF01F095
:10037000020E0C6E6ADEC0EF01F0040E0C6E4EDE53
:02038000120069
:10038200025006180E6E086A096A0B6A0350076467
:10039200B4EF02F006500A6E068E028E03500B6E08
:1003A2000750036E000E0B6404EF02F00B50075E61
:1003B200D8B4A5EF02F0070E076473EF02F0075EF0
:1003C20000C008F001C000F002C001F0026A074E4E
:1003D200A5EF02F0076448EF02F0075E00C008F0E4
:1003E20001C000F0016A074EA5EF02F0076426EF94
:1003F20002F0075E00C008F0006A074EA5EF02F0A7
:1004020007640DEF02F00AC002F005C001F004C05B
:1004120000F0086ACEEF03F0030E076418EF02F053
:10042200075E08380F0B086E074EA5EF02F0D89052
:100432000832074EA5EF02F0D8900832074EA5EF1A
:1004420002F0D8900832A5EF02F0030E076437EFEE
:1004520002F0075E08380F0B086E0038F00B082612
:1004620000380F0B006E074EA5EF02F0D890003255
:100472000832074EA5EF02F0D89000320832074E3C
:10048200A5EF02F0D89000320832A5EF02F0030E79
:1004920007645FEF02F0075E08380F0B086E003842
:1004A200F00B082600380F0B006E0138F00B002607
:1004B20001380F0B016E074EA5EF02F0D890013202
:1004C20000320832074EA5EF02F0D8900132003216
:1004D2000832074EA5EF02F0D890013200320832FE
:1004E200A5EF02F0030E076490EF02F0075E0838F2
:1004F2000F0B086E0038F00B082600380F0B006E49
:100502000138F00B002601380F0B016E0238F00B98
:10051200012602380F0B026E074EA5EF02F0D890AB
:100522000232013200320832074EA5EF02F0D890B3
:100532000232013200320832074EA5EF02F0D890A3
:100542000232013200320832096A000E0EAE99EF11
:1005520003F0081E001E011E021E082A00220122AC
:10056200022299EF03F00750D8A4BAEF02F0CEEFBF
:1005720003F0096A02C00AF0028E068E0750035C7D
:10058200076ED8B48CEF03F0070E07645AEF03F03E
:10059200075E0450096E0550046E0650056E066A29
:1005A200074E8CEF03F0070E07642FEF03F0075E90
:1005B2000450096E0550046E056A074E8CEF03F075
:1005C200070E07640DEF03F0075E0450096E046A1C
:1005D200074E8CEF03F0070E0764F4EF02F00AC037
:1005E20002F0CEEF03F0030E0764FFEF02F0075EA6
:1005F20009380F0B096E074E8CEF03F0D8900932C1
:10060200074E8CEF03F0D8900932074E8CEF03F0BF
:10061200D89009328CEF03F0030E07641EEF03F04B
:10062200075E09380F0B096E0438F00B09260438EF
:100632000F0B046E074E8CEF03F0D8900432093290
:10064200074E8CEF03F0D89004320932074E8CEF3C
:1006520003F0D890043209328CEF03F0030E0764E2
:1006620046EF03F0075E09380F0B096E0438F00BF2
:10067200092604380F0B046E0538F00B04260538E2
:100682000F0B056E074E8CEF03F0D8900532043243
:100692000932074E8CEF03F0D8900532043209324A
:1006A200074E8CEF03F0D8900532043209328CEFFA
:1006B20003F0030E076477EF03F0075E09380F0BB0
:1006C200096E0438F00B092604380F0B046E053846
:1006D200F00B042605380F0B056E0638F00B0526C5
:1006E20006380F0B066E074E8CEF03F0D8900632D9
:1006F200053204320932074E8CEF03F0D8900632ED
:10070200053204320932074E8CEF03F0D8900632DC
:10071200053204320932086A000E0EAE99EF03F078
:10072200091E041E051E061E092A0422052206228F
:1007320009500826045000220550012206500222C8
:100742000EBEB0EF03F0D8A0BFEF03F002320132C9
:1007520000320832033EBFEF03F0C9EF03F0D8B016
:10076200C4EF03F0000E081E001E011E021E082A1E
:100772000022012202220A7EC4EF03F0010E0C6E57
:1007820070DCD0EF03F0020E0C6E6BDCD0EF03F0E6
:10079200040E0C6E46DCD0EF03F0000E0C6E12005D
:1007A200086A096A100E0C6E0134083609360450C4
:1007B200085E0550D8A0053C095ED8B007D00450A9
:1007C20008260550D8B0053C0926D89000360136D7
:0607D2000C2EEAD7120014
:1007D8000450000A12E10550000A0FE10650000A11
:1007E8000CE10750000A09E1FF0E006EFF0E016ED2
:1007F8007F0E026EFF0E036EA7D0086A096A0750C3
:10080800D8B497EF04F00350D8B49BEF04F002502B
:1008180006180A6E028E068E0E6A02C008F001C023
:100828000CF000C00DF004500D5E0550D8A0053C3A
:100838000C5E0650D8A0063C085E086A0C6A0D6A71
:10084800D8A02EEF04F0D8900232013200320832DC
:10085800010E0E6E0750035ED8A03BEF04F07E0E2B
:100868000E240326D8B0A0EF04F041EF04F07E0E6A
:100878000E240326D8A0A5EF04F0180E0B6E0D3633
:100888000C3608360036013602360E360450005E45
:100898000550D8A0053C015E0650D8A0063C025E73
:1008A80006340E120EA05CEF04F00D8067EF04F022
:1008B800045000260550D8B0053C01260650D8B093
:1008C800062802260D900B2E43EF04F08DEF04F05E
:1008D800D8900036013602360E360450005E0550B8
:1008E800D8A0053C015E0650D8A0063C025E06343E
:1008F8000E10010B0D26D8B00C2AD8B4082AD8A49B
:100908008DEF04F008320C320D32032AD8B4A0EF70
:1009180004F00AAE089E0850026E0C50016E0D508D
:10092800006EA8EF04F0010EEBDCA8EF04F0020E55
:100938001EEC00F0A8EF04F0040E12EC00F0A8EF93
:0A09480004F0080E25EC00F0120088
:06095200067E16DD120016
:10095800320EC86E8EDC030E0B6E8A0E0C6E550EB0
:100968000D6E0D2EFED70C2EFCD70B2EFAD70000DD
:0C09780000000F0EC16EF19E816A12009B
:100984009E965BC0C9FF15C05CF016C05DF017C031
:100994005EF018C05FF0C7A41FD0155016101710D2
:1009A400181019E05C505D105E105F100EE14FC02E
:1009B400E1FF50C0E2FF040EE66E4DC000F04EC0F1
:1009C40001F094DC010E006E37D0010E5C5E000E67
:1009D4005D5A5E5A5F5ADFD715C05CF016C05DF0F1
:1009E40017C05EF018C05FF09EB61FD015501610E9
:1009F4001710181019E05C505D105E105F100EE1C6
:100A04004FC0E1FF50C0E2FF040EE66E4DC000F09F
:100A14004EC001F06BDC010E006E0ED0010E5C5E68
:100A2400000E5D5A5E5A5F5ADFD7C5BC02D0006A19
:0A0A340003D0C584020E006E12000C
:100A3E0015C061F016C062F017C063F018C064F004
:100A4E005B6A5C6A5C50120802E15B508E0807E339
:100A5E0000DC005201E003D05B4A5C2AF3D7120E91
:100A6E005C5C02E18F0E5B5C03E37B0E006E25D0B7
:100A7E00C580C5A021D015501610171018101BE0F8
:100A8E00000161516211631164110EE14FC0E1FF6B
:100A9E0050C0E2FF050EE66E4DC000F04EC001F0F4
:100AAE0020DC010E006E09D0010E0001615F000E08
:0C0ABE00625B635B645BDDD7006A1200C2
:100ACA005F6A050E5F5C0AE25F505D24E16E000E0C
:100ADA005E20E26E200EE66E5F2AF3D75F505D2439
:100AEA00E16E000E5E20E26EE66A5F065F505D24EC
:100AFA000001606F000E5E20616F0A0E046E000E28
:100B0A00056E5BC000F05CC001F046DE08C000F074
:100B1A0009C001F0300E002660C0E1FF61C0E2FFAB
:100B2A0000C0E6FF0A0E046E000E056E5BC000F000
:100B3A005CC001F031DE00C05BF001C05CF0000E69
:100B4A00011802E1000E001801E102D05F06CED7BB
:020B5A00120087
:040B5C00C58412003A
:100B60000050086E0150006E016A026A036A0B6A47
:100B70000C6A960E036E0A6A00C001F008C000F00D
:0A0B8000086A026A88EC01F0120016
:100B8A000B800BAED1EF05F0026A0AAEFF0E026EC1
:0C0B9A00016E006E0A360232FF0E1200DF
:100BA60015C05BF016C05CF017C05DF018C05EF0B3
:100BB600C582C5A21ED0155016101710181018E0C1
:100BC6005B505C105D105E100DE14FC0E1FF50C040
:100BD600E2FF060EE66E4DC000F04EC001F078EC66
:100BE60001F007D0010E5B5E000E5C5A5D5A5E5A3C
:040BF600E0D7120032
:100BFA0015C061F016C062F017C063F018C064F047
:100C0A009E96C5869EB620D015501610171018103D
:100C1A001AE0000161516211631164110DE14FC0C4
:100C2A00E1FF50C0E2FF030EE66E4DC000F04EC079
:100C3A0001F078EC01F008D0010E0001615F000EAE
:100C4A00625B635B645BDED7C9CF5CF05B50000A12
:100C5A0002E1C58A01D0C59A9E96C58815C061F081
:100C6A0016C062F017C063F018C064F09EB620D0B8
:100C7A0015501610171018101AE000016151621170
:100C8A00631164110DE14FC0E1FF50C0E2FF030E92
:100C9A00E66E4DC000F04EC001F078EC01F008D0CD
:100CAA00010E0001615F000E625B635B645BDED76D
:060CBA005CC000F0120016
:100CC0000900F5CFE6FF0006FBE10106F9E112009D
:0E0CD0000F013A6B386B946A926A3EDE120096
:100CDE00AFDE800E5B6E4FDE030E5B6E4CDE110ED2
:100CEE005B6E49DE34DF030E0B6E080E0C6E770E54
:100CFE000D6E0D2EFED70C2EFCD70B2EFAD798DECE
:100D0E00800E5B6E38DE010E5B6E35DE45DF810ECA
:100D1E005B6E31DE010E5B6E69DF00C052F0516A10
:100D2E005B6A64DF00505112000E521210DF51C088
:100D3E0000F052C001F001320032019E0132003249
:100D4E00019E00C051F001C052F003DF000E046E90
:100D5E00000E056E000E066E840E076E36DD000E5A
:100D6E00046E000E056E480E066E840E076EEADDEA
:020D7E00120061
:100D80000B6A0350D8B406EF07F002500A6E028EC9
:100D90008E0E035E03AE0AEF07F0036C080E035CD1
:100DA000D8A0E5EF06F0036E013602C001F0026A3A
:100DB000080E035CD8A0E5EF06F0036E0136016A69
:100DC0000350D8A4D890EFEF06F00350D8B4EFEF5B
:100DD00006F0D89002320132032EE9EF06F00BBC88
:100DE00001A0FCEF06F0D8A0FCEF06F0012AD8B471
:100DF000022A02BE19EF07F00AAE1EEF07F0021E2C
:100E0000011E012AD8B4022A1EEF07F0026A016A05
:100E10001EEF07F00B800BAE22EF07F0026A0AAE5E
:100E200022EF07F0FF0E026E016E0A36023222EF49
:100E300007F0010E0C6EA9DE24EF07F0000E0C6E19
:100E400024EF07F0FF0E0C6E0150006E0250016E91
:020E500012008E
:100E5200576A586A51C059F052C05AF0800E52185F
:100E6200006E800E005C02E1000E515C0BE2010E8E
:100E7200576E000E586E51500008596E52C05AF00B
:100E8200000E5A5659C05BF05AC05CF053C05DF078
:100E920054C05EF019DE060E556E000E566E000E40
:100EA200006E5650005C02E15550000819E25550A0
:100EB2005324E16E56505420E26E010E555C006ED2
:100EC200000E5658016E00505324E96E0150542012
:100ED200EA6EEECFE6FF010E555E000E565ADFD7E0
:100EE20053C0E1FF54C0E2FF200EE66E5750581087
:100EF2001AE0556A566A55505324E96E56505420EA
:100F0200EA6EEE50200A03E1554A562AF4D7010E42
:100F1200555E000E565A55505324E16E56505420D9
:080F2200E26E2D0EE66E1200D6
:100F2A0089DD800E5B6E29DD030E5B6E26DD010E08
:100F3A005B6E23DD0EDE030E0B6E080E0C6E770E53
:100F4A000D6E0D2EFED70C2EFCD70B2EFAD772DDA6
:100F5A00800E5B6E12DD010E5B6E0FDD1FDE810EF1
:100F6A005B6E0BDD010E5B6E43DE00C056F0556A08
:100F7A005B6A3EDE00505512000E5612EADD55C07D
:100F8A0001F056C002F002320132029E02320132F0
:100F9A00029E02320132029E02320132029E01C0D8
:100FAA0055F002C056F00250070802E10150C0088D
:100FBA0009E2000E516E000E526E780E536E890EC3
:100FCA00546E1CD0010E565C02E1800E555C09E29B
:100FDA00000E516E000E526E400E536E870E546E06
:100FEA000DD055C000F056C001F0B5DD00C051F07B
:100FFA0001C052F002C053F003C054F051C000F0D7
:0E100A0052C001F053C002F054C003F01200B7
:1010180047EC08F059DE5FDE00C049F001C04AF035
:1010280002C04BF003C04CF0A7DE00C051F001C075
:1010380052F0310E536E000E546E07DF72DF00C09F
:1010480045F001C046F002C047F003C048F094DE06
:1010580000C051F001C052F0310E536E000E546EB4
:10106800F4DE030E0B6E8A0E0C6E550E0D6E0D2EF1
:10107800FED70C2EFCD70B2EFAD700000000CBD7DA
:02108800FFD790
:10108E0010EE15F0040E006E010E016E8A0EF66E55
:0E109E00100EF76E000EF86E60EC06F01200F9
:04108A000000000062
:020000040030CA
:0D000100231F3CFFBF81FF0FC00FE00F4029
:00000001FF
