:1000000073EF0DF00000000000EF00F000000000B2
:0A0010000000000000000000F3D71C
:0C001C0072B201D0FDD7B7C073FF120014
:100028000B820BAE1EEF00F00368026801680068DF
:080038000A360232FF0E12002D
:080040000AAE029E000E120040
:0E004800026A016A006A086A036A000E12006A
:100056000B840BAE36EF00F0010E036E026A016AE6
:0A006600006A0A360232FF0E120093
:0E007000ACB202D00000FCD7B7C0ADFF12004A
:10007E000CB081EF00F00CA227EF01F00E6A000E1B
:10008E00026498EF00F0F00E0214D8A463EF00F0B3
:10009E00023A01380F0B02260138F00B016E0038C0
:1000AE000F0B01260038F00B006E08380F0B0026E0
:1000BE000838F00B086E0E84D89002BE7CEF00F06C
:1000CE0008360036013602360E2A02BE7CEF00F0EC
:1000DE0008360036013602360E2A02BE7CEF00F0DC
:1000EE0008360036013602360E2A0E5003641DEF16
:1000FE0001F0035E0BBC08AE22EF01F0D880800E3B
:10010E0008640030000E002201220222D8A022EF45
:10011E0001F0023201320032034A27EF01F022EFE2
:10012E0001F001C002F000C001F008C000F0086A42
:10013E00000E0E860264CFEF00F0F00E0214D8A46B
:10014E00B7EF00F0023A01380F0B02260138F00B20
:10015E00016E00380F0B01260038F00B006E0E8476
:10016E00D89002BE7CEF00F00036013602360E2A21
:10017E0002BE7CEF00F00036013602360E2A02BEB9
:10018E007CEF00F00036013602360E2A7CEF00F0CE
:10019E0001C002F000C001F0006A000E0E960E883B
:1001AE000264FCEF00F0F00E0214D8A4E7EF00F0AA
:1001BE00023A01380F0B02260138F00B016E0E8445
:1001CE00D89002BE7CEF00F0013602360E2A02BE37
:1001DE007CEF00F0013602360E2A02BE7CEF00F0F4
:1001EE00013602360E2A7CEF00F001C002F0016AE1
:1001FE00000E0E8602642CEF01F0F00E0214D8A44D
:10020E000BEF01F0023A0E84D89002BE7CEF00F0A4
:10021E0002360E2A02BE7CEF00F002360E2A02BE15
:10022E007CEF00F002360E2A7CEF00F0010E0C6E11
:10023E000BDF2FEF01F0020E0C6EFBDE2FEF01F045
:10024E00040E0C6EEADE2FEF01F0080E0C6EF5DEDA
:02025E0012008C
:10026000C7B409D01F0EC514016E0150000A03E186
:0A027000010E006E01D0006A1200BA
:10027A00F250026EF29E0500FF6A0150FE6E0050B7
:08028A00FD6E02BEF28E1200AF
:080292000B6A0B86FF0E12003F
:10029A004BC0B3F04CC0B4F04DC0B5F04EC0B6F090
:1002AA000001B16BB26BB251120802E1B1518E0872
:1002BA0008E3D1DF005201E004D00001B14BB22BB8
:1002CA00F2D70001120EB25D02E18F0EB15D03E3B7
:1002DA007B0E006E24D0C580C5A020D04B504C1098
:1002EA004D104E101AE0B351B411B511B6110EE10A
:1002FA0092C0E1FF93C0E2FF050EE66E90C000F0E7
:10030A0091C001F0B5DF010E006E09D0010E0001A7
:10031A00B35F000EB45BB55BB65BDED7006A120052
:10032A00600E00018C6F020E8D6F000E8E6F000E34
:10033A008F6F9A0E786F020E796F000E7A6F000E29
:10034A007B6F920E7C6F120E7D6F000E7E6F000E19
:10035A007F6F7C0E746F110E756FAA0E766F000E8A
:10036A00776FA20E886F030E896FB10E8A6F000E27
:10037A008B6FD60E566E040E576E000E586E000E18
:10038A00596E949894968B988B9694889486C79E67
:08039A00C79C380EC66E12006C
:1003A2009E96B1C0C9FF4BC0B2F04CC0B3F04DC075
:1003B200B4F04EC0B5F0C7A421D04B504C104D1034
:1003C2004E101BE00001B251B311B411B5110EE190
:1003D20092C0E1FF93C0E2FF040EE66E90C000F00F
:1003E20091C001F049DF010E006E3AD0010E00010A
:1003F200B25F000EB35BB45BB55BDDD74BC0B2F04E
:100402004CC0B3F04DC0B4F04EC0B5F09EB621D092
:100412004B504C104D104E101BE00001B251B31165
:10042200B411B5110EE192C0E1FF93C0E2FF040ED8
:10043200E66E90C000F091C001F01EDF010E006E6A
:100442000FD0010E0001B25F000EB35BB45BB55B6F
:10045200DDD7C5BC02D0006A03D0C584020E006E8F
:02046200120086
:100464000C6A0E6A0250D8A44BEF02F001C002F0ED
:1004740000C001F0006A0E860250D8A44BEF02F0CF
:1004840001C002F0016A0E960E880250D8B45DEFE6
:1004940002F00E50035ED8A4D8A062EF02F0D89008
:1004A40002BE67EF02F0003601360236032E52EF29
:1004B40002F062EF02F0010E0C6EC4DD6AEF02F08E
:1004C400020E0C6EC6DD6AEF02F0040E0C6EB6DD91
:0204D400120014
:0404D600C5841200C7
:1004DA00025006180E6E086A096A0B6A035007640E
:1004EA0060EF03F006500A6E068E028E03500B6E02
:1004FA000750036E000E0B64B0EF02F00B50075E5C
:10050A00D8B451EF03F0070E07641FEF03F0075E3C
:10051A0000C008F001C000F002C001F0026A074EF4
:10052A0051EF03F00764F4EF02F0075E00C008F031
:10053A0001C000F0016A074E51EF03F00764D2EFE1
:10054A0002F0075E00C008F0006A074E51EF03F0A0
:10055A000764B9EF02F00AC002F005C001F004C056
:10056A0000F0086A7DEF04F0030E0764C4EF02F09E
:10057A00075E08380F0B086E074E51EF03F0D8904C
:10058A000832074E51EF03F0D8900832074E51EF68
:10059A0003F0D890083251EF03F0030E0764E3EF3B
:1005AA0002F0075E08380F0B086E0038F00B0826B9
:1005BA0000380F0B006E074E51EF03F0D89000324F
:1005CA000832074E51EF03F0D89000320832074E36
:1005DA0051EF03F0D8900032083251EF03F0030EC6
:1005EA0007640BEF03F0075E08380F0B086E00383C
:1005FA00F00B082600380F0B006E0138F00B0026AE
:10060A0001380F0B016E074E51EF03F0D8900132FB
:10061A0000320832074E51EF03F0D890013200320F
:10062A000832074E51EF03F0D890013200320832F7
:10063A0051EF03F0030E07643CEF03F0075E08383E
:10064A000F0B086E0038F00B082600380F0B006EEF
:10065A000138F00B002601380F0B016E0238F00B3F
:10066A00012602380F0B026E074E51EF03F0D890A5
:10067A000232013200320832074E51EF03F0D890AD
:10068A000232013200320832074E51EF03F0D8909D
:10069A000232013200320832096A000E0EAE45EF0C
:1006AA0004F0081E001E011E021E082A0022012252
:1006BA00022245EF04F00750D8A466EF03F07DEF5D
:1006CA0004F0096A02C00AF0028E068E0750035C23
:1006DA00076ED8B438EF04F0070E076406EF04F08B
:1006EA00075E0450096E0550046E0650056E066AD0
:1006FA00074E38EF04F0070E0764DBEF03F0075EDE
:10070A000450096E0550046E056A074E38EF04F06E
:10071A00070E0764B9EF03F0075E0450096E046A16
:10072A00074E38EF04F0070E0764A0EF03F00AC083
:10073A0002F07DEF04F0030E0764ABEF03F0075EEF
:10074A0009380F0B096E074E38EF04F0D8900932BA
:10075A00074E38EF04F0D8900932074E38EF04F00C
:10076A00D890093238EF04F0030E0764CAEF03F099
:10077A00075E09380F0B096E0438F00B0926043896
:10078A000F0B046E074E38EF04F0D890043209328A
:10079A00074E38EF04F0D89004320932074E38EF8A
:1007AA0004F0D8900432093238EF04F0030E0764DB
:1007BA00F2EF03F0075E09380F0B096E0438F00BED
:1007CA00092604380F0B046E0538F00B0426053889
:1007DA000F0B056E074E38EF04F0D890053204323D
:1007EA000932074E38EF04F0D89005320432093244
:1007FA00074E38EF04F0D89005320432093238EF48
:10080A0004F0030E076423EF04F0075E09380F0BA8
:10081A00096E0438F00B092604380F0B046E0538EC
:10082A00F00B042605380F0B056E0638F00B05266B
:10083A0006380F0B066E074E38EF04F0D8900632D2
:10084A00053204320932074E38EF04F0D8900632E6
:10085A00053204320932074E38EF04F0D8900632D6
:10086A00053204320932086A000E0EAE45EF04F072
:10087A00091E041E051E061E092A04220522062236
:10088A00095008260450002205500122065002226F
:10089A000EBE5CEF04F0D8A06BEF04F00232013216
:1008AA0000320832033E6BEF04F077EF04F0D8B061
:1008BA0071EF04F0000E081E001E011E021E082A17
:1008CA000022012202220A7E71EF04F0010E0C6E50
:1008DA003FEC00F07FEF04F0020E0C6E3FEC00F0EC
:1008EA007FEF04F0040E0C6E14EC00F07FEF04F0BE
:0608FA00000E0C6E12005E
:10090000086A096A100E0C6E013408360936045064
:10091000085E0550D8A0053C095ED8B007D0045049
:1009200008260550D8B0053C0926D8900036013677
:060930000C2EEAD71200B4
:100936000450000A12E10550000A0FE10650000AB1
:100946000CE10750000A09E1FF0E006EFF0E016E72
:100956007F0E026EFF0E036EA7D0086A096A075063
:10096600D8B446EF05F00350D8B44AEF05F002506C
:1009760006180A6E028E068E0E6A02C008F001C0C4
:100986000CF000C00DF004500D5E0550D8A0053CDB
:100996000C5E0650D8A0063C085E086A0C6A0D6A12
:1009A600D8A0DDEF04F0D8900232013200320832CE
:1009B600010E0E6E0750035ED8A0EAEF04F07E0E1D
:1009C6000E240326D8B04FEF05F0F0EF04F07E0EAC
:1009D6000E240326D8A054EF05F0180E0B6E0D3624
:1009E6000C3608360036013602360E360450005EE6
:1009F6000550D8A0053C015E0650D8A0063C025E14
:100A060006340E120EA00BEF05F00D8016EF05F062
:100A1600045000260550D8B0053C01260650D8B033
:100A2600062802260D900B2EF2EF04F03CEF05F09F
:100A3600D8900036013602360E360450005E055058
:100A4600D8A0053C015E0650D8A0063C025E0634DE
:100A56000E10010B0D26D8B00C2AD8B4082AD8A43B
:100A66003CEF05F008320C320D32032AD8B44FEFB2
:100A760005F00AAE089E0850026E0C50016E0D502D
:100A8600006E57EF05F0010E01DC57EF05F0020E80
:100A960024EC00F057EF05F0040E14EC00F057EFCD
:0A0AA60005F0080E2BEC00F0120022
:060AB000067E13DD1200BA
:100AB6000D6A086A0050D8B4000C04180A6E0ABE03
:100AC6000D1E0B6A04AE02D0041E042A00AE02D02C
:100AD600001E002A005004100A6E0ABE1FD00450E1
:100AE600085E003600340836045008260036060E26
:100AF6000C6E00340836045000B0085E00A00826CC
:100B060000360C2EF6D700A008260BB015D00DAE79
:100B1600000C001E002A081E082A000C04AE09D08C
:100B260000BE04D00050086E006AF1D7006A002AA1
:100B3600000C001E0B2AD3D7082A0450085CD8A440
:0E0B4600E6D7086A002A00AEE2D7FF0C1200C4
:100B54000A6A0350D8A40A800750D8A40A820A500B
:100B6400D8B40DEF06F0030AD8B4C6EF05F00AB006
:100B7400C1EF05F006AE0BEF06F009EF06F002AE8A
:100B840009EF06F00BEF06F00250800B0A6E029E8E
:100B94000650800B069E0A18D8B4D7EF05F00A5009
:100BA400D8B409EF06F00BEF06F00750035CD8B495
:100BB400E1EF05F0D8A0FDEF05F003EF06F00650D5
:100BC400025CD8B4EBEF05F0D8A0FDEF05F003EF1D
:100BD40006F00550015CD8B4F5EF05F0D8A0FDEFA0
:100BE40005F003EF06F00450005CD8B40DEF06F0F6
:100BF400D8B003EF06F00A52D8B40BEF06F009EFB1
:100C040006F00A52D8B409EF06F00BEF06F0D880CC
:0E0C14001200D8901200D880D884120012006E
:100C22000001AE6B050EAE5D0AE2AE51AC25E16E7F
:100C3200000EAD21E26E200EE66EAE2BF3D7AE5162
:100C4200AC25E16E000EAD21E26EE66AAE07AE5152
:100C5200AC25AF6F000EAD21B06F0A0E046E000E10
:100C6200056EAAC000F0ABC001F049DE08C000F07A
:100C720009C001F0300E0026AFC0E1FFB0C0E2FFB4
:100C820000C0E6FF0A0E046E000E056EAAC000F058
:100C9200ABC001F034DE00C0AAF001C0ABF0000E20
:100CA200011802E1000E001801E102D0AE07CFD711
:020CB20012002E
:100CB400700E0001946F000E956FB70E966F000EC4
:100CC400976FFF0E986FFF0E996F000E9A6F000ECC
:100CD4009B6FFF0E806FFF0E816F000E826F000E00
:100CE400836FFF0E846FFF0E856F000E866F000EFC
:100CF400876FAC8A900EAB6E948E949C9EAA03D0A0
:080D0400AECF00F0FBD7120096
:100D0C004DEC01F0D00E0001B16FD1EC01F0190ED9
:100D1C000001B16FD1EC01F0070E0001B16FD1EC05
:100D2C0001F06BEC02F0030E0B6E8A0E0C6E550E7E
:100D3C000D6E0D2EFED70C2EFCD70B2EFAD7000005
:100D4C0000004DEC01F0D00E0001B16FD1EC01F0C0
:100D5C006B0E0001B16FD1EC01F00001B16BD1EC65
:100D6C0001F06BEC02F0030E0B6E8A0E0C6E550E3E
:100D7C000D6E0D2EFED70C2EFCD70B2EFAD70000C5
:100D8C0000004DEC01F0D00E0001B16FD1EC01F080
:100D9C006C0E0001B16FD1EC01F00001B16BD1EC24
:100DAC0001F06BEC02F0030E0B6E8A0E0C6E550EFE
:100DBC000D6E0D2EFED70C2EFCD70B2EFAD7000085
:100DCC0000004DEC01F0D00E0001B16FD1EC01F040
:100DDC001B0E0001B16FD1EC01F00001B16BD1EC35
:100DEC0001F06BEC02F0030E0B6E8A0E0C6E550EBE
:100DFC000D6E0D2EFED70C2EFCD70B2EFAD7000045
:100E0C0000004DEC01F0D00E0001B16FD1EC01F0FF
:100E1C001C0E0001B16FD1EC01F00001B16BD1ECF3
:100E2C0001F06BEC02F0030E0B6E8A0E0C6E550E7D
:100E3C000D6E0D2EFED70C2EFCD70B2EFAD7000004
:100E4C0000004DEC01F0030E0B6E8A0E0C6E550E6D
:100E5C000D6E0D2EFED70C2EFCD70B2EFAD70000E4
:100E6C000000D00E0001B16FD1EC01F0380E000182
:100E7C00B16FD1EC01F0400E0001B16FD1EC01F07B
:100E8C006BEC02F0030E0B6E8A0E0C6E550E0D6E93
:100E9C000D2EFED70C2EFCD70B2EFAD7000000001F
:100EAC004DEC01F0D00E0001B16FD1EC01F0200E31
:100EBC000001B16FD1EC01F0010E0001B16FD1EC6A
:100ECC0001F06BEC02F0030E0B6E8A0E0C6E550EDD
:100EDC000D6E0D2EFED70C2EFCD70B2EFAD7000064
:100EEC0000004DEC01F0D00E0001B16FD1EC01F01F
:100EFC003A0E0001B16FD1EC01F0010E0001B16F9F
:100F0C00D1EC01F06BEC02F0030E0B6E8A0E0C6E42
:100F1C00550E0D6E0D2EFED70C2EFCD70B2EFAD7C0
:100F2C00000000004DEC01F0D00E0001B16FD1ECCF
:100F3C0001F01F0E0001B16FD1EC01F0010E0001A8
:100F4C00B16FD1EC01F06BEC02F0060E0B6E130ED0
:100F5C000C6EAD0E0D6E0D2EFED70C2EFCD70B2E7F
:100F6C00FAD7000000004DEC01F0D00E0001B16F7B
:100F7C00D1EC01F01A0E0001B16FD1EC01F0FF0EB3
:100F8C000001B16FD1EC01F06BEC02F0030E0B6EB3
:100F9C008A0E0C6E550E0D6E0D2EFED70C2EFCD738
:100FAC000B2EFAD7000000004DEC01F0D00E000122
:100FBC00B16FD1EC01F06C0E0001B16FD1EC01F00E
:100FCC00600E0001B16FD1EC01F06BEC02F0030E7E
:100FDC000B6E8A0E0C6E550E0D6E0D2EFED70C2E52
:100FEC00FCD70B2EFAD7000000004DEC01F0D00E10
:100FFC000001B16FD1EC01F06B0E0001B16FD1ECBF
:10100C0001F0100E0001B16FD1EC01F06BEC02F0AD
:10101C00030E0B6E8A0E0C6E550E0D6E0D2EFED73A
:10102C000C2EFCD70B2EFAD700000000060E0B6E10
:10103C00130E0C6EAD0E0D6E0D2EFED70C2EFCD7B6
:0A104C000B2EFAD70000000012007E
:10105600086A096A000E07620364B0EF08F00250DE
:1010660006180A6E075003267E0ED8A041EF08F038
:10107600035ED8B0B5EF08F045EF08F0035ED8A0E0
:10108600BAEF08F0028E068E02C00EF001C00BF019
:1010960000C00DF000500402F4CF0CF00150050220
:1010A600F4CF00F0F3CF08F00402F3500C26F4500E
:1010B6000822000E00220D500502F3500C26F450B3
:1010C6000822000E002202500402F3500826F450B3
:1010D600002202500502016A000E0122F35000268A
:1010E600F45001220D500602F3500826F450002257
:1010F600026A000E012202220B500602F35000265D
:10110600F4500122000E02220E500602F350012670
:10111600F450022202BE98EF08F008360036013677
:1011260002360306D8B4BAEF08F0ABEF08F0D88061
:10113600800E08640030000E002201220222D8A090
:10114600ABEF08F0023201320032034AB5EF08F085
:101156000AAE029E000EBDEF08F0010E24EC00F070
:10116600BDEF08F0020E14EC00F0BDEF08F0040E1F
:061176002BEC00F012005A
:10117C004BC0ACF04CC0ADF04DC0AEF04EC0AFF0BB
:10118C009E96C5869EB620D04B504C104D104E10DE
:10119C001AE00001AC51AD11AE11AF110DE192C0CE
:1011AC00E1FF93C0E2FF030EE66E90C000F091C029
:1011BC0001F03DEC01F008D0010E0001AC5F000E17
:1011CC00AD5BAE5BAF5BDED70001C9CFABF0AA5114
:1011DC00000A02E1C58A01D0C59A9E96C5884BC00B
:1011EC00ACF04CC0ADF04DC0AEF04EC0AFF09EB602
:1011FC0020D04B504C104D104E101AE00001AC5149
:10120C00AD11AE11AF110DE192C0E1FF93C0E2FF41
:10121C00030EE66E90C000F091C001F03DEC01F0C1
:10122C0008D0010E0001AC5F000EAD5BAE5BAF5B96
:08123C00DED7ABC000F0120088
:10124400AAC004F0ABC005F004C002F005C003F06E
:10125400044A052AACC000F0ADC001F00001AC4B5B
:10126400AD2B00C0E9FF01C0EAFF02C0E1FF03C0EB
:10127400E2FFEECFE6FF02C0E9FF03C0EAFFEE5251
:0E12840001E0E2D7AAC000F0ABC001F01200FA
:101292004BC0AAF04CC0ABF04DC0ACF04EC0ADF0AC
:1012A200C582C5A220D04B504C104D104E101AE0F2
:1012B2000001AA51AB11AC11AD110DE192C0E1FFD9
:1012C20093C0E2FF060EE66E90C000F091C001F0FE
:1012D2003DEC01F008D0010E0001AA5F000EAB5BED
:0812E200AC5BAD5BDED712002E
:1012EA00320EC86E95EC01F0030E0B6E8A0E0C6E70
:1012FA00550E0D6E0D2EFED70C2EFCD70B2EFAD7DF
:0E130A00000000000F0EC16EF19E816A1200FD
:101318000050086E0150006E016A026A036A0B6A87
:101328000C6A960E036E0A6A00C001F008C000F04D
:0A133800086A026A32EC02F01200AB
:10134200A80ED56ED66AD76A92880F013A6B386BAF
:10135200946A926AB886020EB06E080EAF6EAC84C2
:10136200A8DC030E0B6E8A0E0C6E550E0D6E0D2E42
:10137200FED70C2EFCD70B2EFAD700000000B4DFEC
:04138200C4DC1200B5
:101386000900F5CFE6FF0006FBE10106F9E11200D0
:101396004DEC01F0800E0001B16FD1EC01F0030EAF
:1013A6000001B16FD1EC01F0110E0001B16FD1EC6B
:1013B60001F06BEC02F0030E0B6E080E0C6E770E4E
:1013C6000D6E0D2EFED70C2EFCD70B2EFAD74DEC3C
:1013D60001F0800E0001B16FD1EC01F0010E0001A9
:1013E600B16FD1EC01F052DF810E0001B16FD1EC8B
:1013F60001F0010E0001AA6FBEDE00C09DF00001E3
:101406009C6BAA6BB8DE005000019C13000E9D1366
:101416006BEC02F09CC000F09DC001F0013200327E
:10142600019E01320032019E00C09CF001C09DF079
:1014360070DF000E046E000E056E000E066E840E42
:10144600076E9BEC04F0000E046E000E056E480E4F
:0C145600066E840E076E58EC05F01200C4
:101462000001A86BA96B9CC0A4F09DC0A5F09EC012
:10147200A6F09FC0A7F0A751FF0A08E1A651FF0AF4
:1014820005E1A551FF0A02E1A451FF0A0CE1A0C047
:10149200AAF0A1C0ABF03E0EAC6F000EAD6FD1DE74
:1014A200030E006EEDD1010EA26FA6AF0ED0800E1C
:1014B200A619006E00C0A6F0A22BA0C0E1FFA1C039
:1014C200E2FF2D0EE66EA04BA12B000E006EA719B7
:1014D20008E10050A61905E10050A51902E1A45146
:1014E200000A0BE1A0C0AAF0A1C0ABF0450EAC6FA0
:1014F200000EAD6FA6DE006AC3D1A751FF0A08E154
:10150200A651000A05E1A551000A02E1A451000A10
:101512000CE1A0C0AAF0A1C0ABF0470EAC6F000E68
:10152200AD6F8FDEA2C000F0ABD1000E046E000ED4
:10153200056E000E066E7F0E076EA4C000F0A5C0F9
:1015420001F0A6C002F0A7C003F0AAEC05F0010E5C
:10155200D8B0000E006E00521BE0A4C000F0A5C07F
:1015620001F0A6C002F0A7C003F0000E046E000E48
:10157200056E200E066E820E076E6CDD00C0A4F0B2
:1015820001C0A5F002C0A6F003C0A7F0A907CDD7FD
:10159200000E046E000E056E200E066E820E076EA1
:1015A200A4C000F0A5C001F0A6C002F0A7C003F0DD
:1015B200AAEC05F0000ED8B0010E006E00521BE03E
:1015C200A4C000F0A5C001F0A6C002F0A7C003F0BD
:1015D200CD0E046ECC0E056E4C0E066E7B0E076EA3
:1015E20039DD00C0A4F001C0A5F002C0A6F003C01E
:1015F200A7F0A92BCDD7FF0EA415086EFF0EA515D7
:10160200096E7F0EA6150A6E000EA7150B6E08C096
:1016120004F009C005F00AC006F00BC007F004365A
:101622000490053606360736000EA415006E000E2D
:10163200A515016E000EA615026EFF0EA715036E0C
:1016420000C0A4F001C0A5F002C0A6F003C0A7F03C
:101652000450A411006E0550A511016E0650A6118A
:10166200026E0750A711036E00C0A4F001C0A5F0DE
:1016720002C0A6F003C0A7F07F0EA75D006E00C0F7
:10168200A3F0010EA76F00C004F0A4C000F0A5C033
:1016920001F0A6C002F0A7C003F0045007E0003634
:1016A2000090013602360336FF0FF8D700C0A4F0CF
:1016B20001C0A5F002C0A6F003C0A7F0A0C0E1FFE0
:1016C200A1C0E2FFA751300FE66EA04BA12B800E06
:1016D200A919006E800E010A005C08E3800E060A5A
:1016E200006E800EA919005C01E30AD0A0C0E1FFE0
:1016F200A1C0E2FF2E0EE66EA04BA12B010EA86F39
:10170200060EA36FA351000A54E0A76BA4C000F019
:10171200A5C001F0A6C002F0A7C003F000360090F9
:1017220001360236033600360090013602360336A1
:10173200A4510026A5510122A6510222A75103223B
:1017420000C0A4F001C0A5F002C0A6F003C0A7F03B
:10175200A4C000F0A5C001F0A6C002F0A7C003F02B
:101762000036009001360236033600C0A4F001C0F4
:10177200A5F002C0A6F003C0A7F0A0C0E1FFA1C07F
:10178200E2FFA751300FE66EA04BA12BA851000A31
:101792000EE1A907A951000A0AE1A0C0E1FFA1C018
:1017A200E2FF2E0EE66EA04BA12B010EA86FA3073F
:1017B200A9D7FF0EA025E96EFF0EA121EA6EEE5019
:1017C200300A05E1010EA05F000EA15BF2D7FF0E09
:1017D200A025E96EFF0EA121EA6EEE502E0A04E169
:1017E200010EA05F000EA15BA951000A43E0A0C058
:1017F200E1FFA1C0E2FF650EE66EA04BA12B800EB9
:10180200A919006E800E000A005C0BE2A0C0E1FF85
:10181200A1C0E2FF2D0EE66EA04BA12BA95100083C
:10182200A96FA9C0A3F0800E090A006E800EA91943
:10183200005C0FE20A0E046EA3C000F05BEC05F040
:10184200A0C0E1FFA1C0E2FF0050300FE66EA04B46
:10185200A12B0A0E046EA3C000F05BEC05F008C0D9
:1018620000F0A0C0E1FFA1C0E2FF0050300FE66E21
:10187200A04BA12BA0C0E1FFA1C0E2FFE66A006A73
:02188200120052
:1018840000019F6B9CC0E9FF9DC0EAFFEECF9EF074
:101894009E51000A0FE09EC0B7F038EC00F0000142
:1018A4009F2B9F519C25E96E000E9D21EA6EEECF81
:0618B4009EF0EED71200C9
:1018BA000001A26BA36B9CC0A4F09DC0A5F0800E92
:1018CA009D19006E800E005C02E1000E9C5D0BE229
:1018DA00010EA26F000EA36F9C510008A46F9DC059
:1018EA00A5F0000EA557A4C0AAF0A5C0ABF09EC0F3
:1018FA00ACF09FC0ADF011EC06F0060EA06F000E22
:10190A00A16F000E006EA151005C02E1A051000817
:10191A0019E2A0519E25E16EA1519F21E26E010EAE
:10192A00A05D006E000EA159016E00509E25E96E61
:10193A0001509F21EA6EEECFE6FF010EA05F000E76
:10194A00A15BDFD79EC0E1FF9FC0E2FF200EE66EDB
:10195A00A251A3111AE0A06BA16BA0519E25E96EBA
:10196A00A1519F21EA6EEE50200A03E1A04BA12B60
:10197A00F4D7010EA05F000EA15BA0519E25E16E77
:0C198A00A1519F21E26E2D0EE66E1200AE
:101996004DEC01F0800E0001B16FD1EC01F0030EA9
:1019A6000001B16FD1EC01F0010E0001B16FD1EC75
:1019B60001F06BEC02F0030E0B6E080E0C6E770E48
:1019C6000D6E0D2EFED70C2EFCD70B2EFAD74DEC36
:1019D60001F0800E0001B16FD1EC01F0010E0001A3
:1019E600B16FD1EC01F052DC810E0001B16FD1EC88
:1019F60001F0010E0001AA6FBEEC08F000C0A1F0D4
:101A06000001A06BAA6BBEEC08F000500001A01309
:101A1600000EA1136BEC02F0A0C001F0A1C002F011
:101A260002320132029E02320132029E023201323B
:101A3600029E02320132029E01C0A0F002C0A1F055
:101A46000250070802E10150C00809E2000E9C6F2F
:101A5600000E9D6F780E9E6F890E9F6F1CD0010E33
:101A6600A15D02E1800EA05D09E2000E9C6F000EF2
:101A76009D6F400E9E6F870E9F6F0DD0A0C000F029
:101A8600A1C001F046DC00C09CF001C09DF002C080
:101A96009EF003C09FF0000E046E000E056E000E51
:101AA600066E830E076E9CC000F09DC001F09EC0BE
:101AB60002F09FC003F09BEC04F0000E046E000ED3
:101AC600056E400E066E830E076E58EC05F000C0DC
:101AD6009CF001C09DF002C09EF003C09FF0120072
:101AE6002AEC0EF02BDC54DC00C05CF001C05DF08B
:101AF60002C05EF003C05FF000C09CF001C09DF024
:101B060002C09EF003C09FF0600E0001A06F000EA1
:101B1600A16FA4DC300E9C6F000E9D6FB0DE600ED0
:101B26009C6F000E9D6FABDE2B0E9C6F000E9D6FA3
:101B3600A6DE2EDF00C052F001C053F002C054F002
:101B460003C055F000C09CF001C09DF002C09EF09D
:101B560003C09FF0600E0001A06F000EA16F7EDC37
:101B6600190E9C6F000E9D6F8ADE600E9C6F000E34
:101B76009D6F85DE150E9C6F000E9D6F80DE1A0E22
:101B86000B6E5E0E0C6E6E0E0D6E0D2EFED70C2EAF
:101B9600FCD70B2EFAD70000230E9C6F000E9D6F0C
:101BA6006EDED6CF5AF0000E5B6ED7CF01F0006A1C
:101BB6005A5000125B50011200C05AF001C05BF08F
:101BC60000C09CF001C09DF0600E9E6F000E9F6FDE
:101BD60071DE600E9C6F000E9D6F51DE420E9C6F93
:101BE600000E9D6F4CDE4F0E9C6F000E9D6F47DE04
:101BF6000B0E0B6E260E0C6E5D0E0D6E0D2EFED7A9
:101C06000C2EFCD70B2EFAD7000000006CD7FFD79E
:101C540010EE15F03D0E006E010E016E160EF66EBE
:0E1C64001C0EF76E000EF86EC3EC09F01200B5
:041C1600250D0A008E
:0A1C1A0048554D454441443A20006E
:081C240044726F70733A200056
:051C2C00B0430D0A00A9
:0E1C310054454D50455241545552453A2000FD
:041C3F004E614E00A4
:031C43000D0A0087
:021C460030006C
:041C4800494E4600BB
:041C4C000000000094
:031C50000D0A007A
:020000040030CA
:0D000100231F3CFFBF81FF0FC00FE00F4029
:00000001FF
