:1000000016EF05F00000000000EF00F00000000017
:0A0010000000000000000000F3D71C
:08001C000AAE029E000E120064
:100024000B840BAE1DEF00F0010E036E026A016A31
:0A003400006A0A360232FF0E1200C5
:10003E000B820BAE29EF00F00368026801680068BE
:08004E000A360232FF0E120017
:0E005600026A016A006A086A036A000E12005C
:100064000CB074EF00F00CA21AEF01F00E6A000E4F
:1000740002648BEF00F0F00E0214D8A456EF00F0E7
:10008400023A01380F0B02260138F00B016E0038DA
:100094000F0B01260038F00B006E08380F0B0026FA
:1000A4000838F00B086E0E84D89002BE6FEF00F093
:1000B40008360036013602360E2A02BE6FEF00F013
:1000C40008360036013602360E2A02BE6FEF00F003
:1000D40008360036013602360E2A0E50036410EF3D
:1000E40001F0035E0BBC08AE15EF01F0D880800E62
:1000F40008640030000E002201220222D8A015EF6D
:1001040001F0023201320032034A1AEF01F015EF16
:1001140001F001C002F000C001F008C000F0086A5C
:10012400000E0E860264C2EF00F0F00E0214D8A492
:10013400AAEF00F0023A01380F0B02260138F00B47
:10014400016E00380F0B01260038F00B006E0E8490
:10015400D89002BE6FEF00F00036013602360E2A48
:1001640002BE6FEF00F00036013602360E2A02BEE0
:100174006FEF00F00036013602360E2A6FEF00F002
:1001840001C002F000C001F0006A000E0E960E8855
:100194000264EFEF00F0F00E0214D8A4DAEF00F0DE
:1001A400023A01380F0B02260138F00B016E0E845F
:1001B400D89002BE6FEF00F0013602360E2A02BE5E
:1001C4006FEF00F0013602360E2A02BE6FEF00F028
:1001D400013602360E2A6FEF00F001C002F0016A08
:1001E400000E0E8602641FEF01F0F00E0214D8A474
:1001F400FEEF00F0023A0E84D89002BE6FEF00F0DA
:1002040002360E2A02BE6FEF00F002360E2A02BE3C
:100214006FEF00F002360E2A6FEF00F0010E0C6E45
:10022400FFDE22EF01F0020E0C6EF6DE22EF01F08B
:10023400040E0C6E02DF22EF01F0080E0C6E09DFD3
:020244001200A6
:080246000B6A0B86FF0E12008B
:10024E00C7B409D01F0EC514016E0150000A03E198
:0A025E00010E006E01D0006A1200CC
:100268000C6A0E6A0250D8A44DEF01F001C002F0EA
:1002780000C001F0006A0E860250D8A44DEF01F0CC
:1002880001C002F0016A0E960E880250D8B45FEFE2
:1002980001F00E50035ED8A4D8A064EF01F0D89006
:1002A80002BE69EF01F0003601360236032E54EF24
:1002B80001F064EF01F0010E0C6EC9DE6CEF01F085
:1002C800020E0C6EABDE6CEF01F0040E0C6EA2DEBB
:0202D800120012
:1002DA00025006180E6E086A096A0B6A0350076410
:1002EA0060EF02F006500A6E068E028E03500B6E05
:1002FA000750036E000E0B64B0EF01F00B50075E5F
:10030A00D8B451EF02F0070E07641FEF02F0075E40
:10031A0000C008F001C000F002C001F0026A074EF6
:10032A0051EF02F00764F4EF01F0075E00C008F035
:10033A0001C000F0016A074E51EF02F00764D2EFE4
:10034A0001F0075E00C008F0006A074E51EF02F0A4
:10035A000764B9EF01F00AC002F005C001F004C059
:10036A0000F0086A7AEF03F0030E0764C4EF01F0A5
:10037A00075E08380F0B086E074E51EF02F0D8904F
:10038A000832074E51EF02F0D8900832074E51EF6B
:10039A0002F0D890083251EF02F0030E0764E3EF3F
:1003AA0001F0075E08380F0B086E0038F00B0826BC
:1003BA0000380F0B006E074E51EF02F0D890003252
:1003CA000832074E51EF02F0D89000320832074E39
:1003DA0051EF02F0D8900032083251EF02F0030ECA
:1003EA0007640BEF02F0075E08380F0B086E00383F
:1003FA00F00B082600380F0B006E0138F00B0026B0
:10040A0001380F0B016E074E51EF02F0D8900132FE
:10041A0000320832074E51EF02F0D8900132003212
:10042A000832074E51EF02F0D890013200320832FA
:10043A0051EF02F0030E07643CEF02F0075E083842
:10044A000F0B086E0038F00B082600380F0B006EF1
:10045A000138F00B002601380F0B016E0238F00B41
:10046A00012602380F0B026E074E51EF02F0D890A8
:10047A000232013200320832074E51EF02F0D890B0
:10048A000232013200320832074E51EF02F0D890A0
:10049A000232013200320832096A000E0EAE45EF0E
:1004AA0003F0081E001E011E021E082A0022012255
:1004BA00022245EF03F00750D8A466EF02F07AEF64
:1004CA0003F0096A02C00AF0028E068E0750035C26
:1004DA00076ED8B438EF03F0070E076406EF03F08F
:1004EA00075E0450096E0550046E0650056E066AD2
:1004FA00074E38EF03F0070E0764DBEF02F0075EE2
:10050A000450096E0550046E056A074E38EF03F071
:10051A00070E0764B9EF02F0075E0450096E046A19
:10052A00074E38EF03F0070E0764A0EF02F00AC087
:10053A0002F07AEF03F0030E0764ABEF02F0075EF6
:10054A0009380F0B096E074E38EF03F0D8900932BD
:10055A00074E38EF03F0D8900932074E38EF03F010
:10056A00D890093238EF03F0030E0764CAEF02F09D
:10057A00075E09380F0B096E0438F00B0926043898
:10058A000F0B046E074E38EF03F0D890043209328D
:10059A00074E38EF03F0D89004320932074E38EF8D
:1005AA0003F0D8900432093238EF03F0030E0764DF
:1005BA00F2EF02F0075E09380F0B096E0438F00BF0
:1005CA00092604380F0B046E0538F00B042605388B
:1005DA000F0B056E074E38EF03F0D8900532043240
:1005EA000932074E38EF03F0D89005320432093247
:1005FA00074E38EF03F0D89005320432093238EF4B
:10060A0003F0030E076423EF03F0075E09380F0BAC
:10061A00096E0438F00B092604380F0B046E0538EE
:10062A00F00B042605380F0B056E0638F00B05266D
:10063A0006380F0B066E074E38EF03F0D8900632D5
:10064A00053204320932074E38EF03F0D8900632E9
:10065A00053204320932074E38EF03F0D8900632D9
:10066A00053204320932086A000E0EAE45EF03F075
:10067A00091E041E051E061E092A04220522062238
:10068A000950082604500022055001220650022271
:10069A000EBE5CEF03F0D8A06BEF03F0023201321A
:1006AA0000320832033E6BEF03F075EF03F0D8B067
:1006BA0070EF03F0000E081E001E011E021E082A1B
:1006CA000022012202220A7E70EF03F0010E0C6E54
:1006DA00C4DC7CEF03F0020E0C6EBFDC7CEF03F08F
:1006EA00040E0C6EA7DC7CEF03F0000E0C6E1200F9
:1006FA000450000A12E10550000A0FE10650000AF0
:10070A000CE10750000A09E1FF0E006EFF0E016EB0
:10071A007F0E026EFF0E036EA7D0086A096A0750A1
:10072A00D8B428EF04F00350D8B42CEF04F00250E8
:10073A0006180A6E028E068E0E6A02C008F001C002
:10074A000CF000C00DF004500D5E0550D8A0053C19
:10075A000C5E0650D8A0063C085E086A0C6A0D6A50
:10076A00D8A0BFEF03F0D89002320132003208322B
:10077A00010E0E6E0750035ED8A0CCEF03F07E0E7A
:10078A000E240326D8B031EF04F0D2EF03F07E0E28
:10079A000E240326D8A036EF04F0180E0B6E0D3681
:1007AA000C3608360036013602360E360450005E24
:1007BA000550D8A0053C015E0650D8A0063C025E52
:1007CA0006340E120EA0EDEF03F00D80F8EF03F0E1
:1007DA00045000260550D8B0053C01260650D8B072
:1007EA00062802260D900B2ED4EF03F01EEF04F01C
:1007FA00D8900036013602360E360450005E055097
:10080A00D8A0053C015E0650D8A0063C025E06341C
:10081A000E10010B0D26D8B00C2AD8B4082AD8A479
:10082A001EEF04F008320C320D32032AD8B431EF2D
:10083A0004F00AAE089E0850026E0C50016E0D506C
:10084A00006E39EF04F0010EF9DC39EF04F0020E04
:10085A002BEC00F039EF04F0040E1FEC00F039EF36
:0A086A0004F0080E12EC00F012007A
:06087400067E31DD1200DA
:10087A009E9617C0C9FFC7A401D0FDD79EB601D066
:10088A00FDD7C5BC02D0006A03D0C584020E006E33
:02089A0012004A
:10089C00939093928A908A9293809382C79EC79CDE
:0608AC00380EC66E1200BA
:1008B200176A186A1850120802E117508E0807E3E7
:1008C200C5DC005201E003D0174A182AF3D7120EF2
:1008D200185C02E18F0E175C03E37B0E006E05D0FD
:0C08E200C580C5A001D0FDD7006A12003F
:0408EE00C5841200AB
:1008F2000050086E0150006E016A026A036A0B6AB8
:100902000C6A960E036E0A6A00C001F008C000F07D
:08091200086A026AA8DC120069
:10091A009E96C5869EB601D0FDD7C9CF01F0175065
:10092A00000A02E1C58A01D0C59A9E96C5889EB67C
:0A093A0001D0FDD701C000F012004B
:0A094400C582C5A201D0FDD7120044
:10094E00320EC86EA4DF030E0B6E8A0E0C6E550EA1
:10095E000D6E0D2EFED70C2EFCD70B2EFAD70000E7
:0C096E0000000F0EC16EF19E816A1200A5
:10097A000900F5CFE6FF0006FBE10106F9E11200E6
:10098A0093DF800E176E74DF030E176E71DF110E80
:10099A00176E6EDFA7DF030E0B6E080E0C6E770E56
:1009AA000D6E0D2EFED70C2EFCD70B2EFAD77CDF40
:1009BA00800E176E5DDF010E176E5ADFBEDF810EE5
:1009CA00176E56DF010E176EA3DF00C016F0156A08
:1009DA00176A9EDF00501512000E161283DF15C02B
:1009EA0000F016C001F001320032019E01320032DD
:1009FA00019E00C015F001C016F076DF000E046EED
:100A0A00000E056E000E066E840E076E71DE000E75
:100A1A00046E000E056E480E066E840E076E25DF04
:020A2A001200B8
:060A2C0090DFADDFFFD7F3
:020000040030CA
:0E000000000C1F1EFF8381FF0FC00FE00F409A
:00000001FF
