:10000000D4EF02F00000000000EF00F0000000005C
:0A0010000000000000000000F3D71C
:0E001C00ACB202D00000FCD788C0ADFF1200CD
:10002A00086A096A100E0C6E013408360936045043
:10003A00085E0550D8A0053C095ED8B007D0045028
:10004A0008260550D8B0053C0926D8900036013656
:06005A000C2EEAD7120093
:10006000F250026EF29E0500FF6A0150FE6E0050D3
:08007000FD6E02BEF28E1200CB
:10007800C7B409D01F0EC514016E0150000A03E170
:0A008800010E006E01D0006A1200A4
:10009200780E0001696F000E6A6F000E6B6F000E22
:1000A2006C6FC80E656F020E666F000E676F000EF2
:1000B200686F620E6D6F020E6E6F000E6F6F000E34
:1000C200706FE00E756F030E766F5D0E776F000E28
:1000D200786F9C0E716F010E726F5D0E736F000E62
:1000E200746F5E0E516E020E526E000E536E000E53
:1000F200546E939093928A908A9293809382C79E31
:08010200C79C380EC66E120006
:10010A000001856B050E855D0AE285518325E16E46
:10011A00000E8421E26E200EE66E852BF3D7855100
:10012A008325E16E000E8421E26EE66A8507855119
:10013A008325866F000E8421876F0A0E046E000ED7
:10014A00056E81C000F082C001F06ADF08C000F0CD
:10015A0009C001F0300E002686C0E1FF87C0E2FF29
:10016A0000C0E6FF0A0E046E000E056E81C000F0A4
:10017A0082C001F055DF00C081F001C082F0000E9C
:10018A00011802E1000E001801E102D08507CFD75D
:02019A00120051
:10019C009E965DC0C9FF1BC079F01CC07AF01DC0D3
:1001AC007BF01EC07CF0C7A421D01B501C101D106E
:1001BC001E101BE0000179517A117B117C110EE1AC
:1001CC004BC0E1FF4CC0E2FF040EE66E49C000F0EC
:1001DC004AC001F03FDF010E006E3AD0010E000163
:1001EC00795F000E7A5B7B5B7C5BDDD71BC079F0A3
:1001FC001CC07AF01DC07BF01EC07CF09EB621D0D6
:10020C001B501C101D101E101BE0000179517A119F
:10021C007B117C110EE14BC0E1FF4CC0E2FF040EE0
:10022C00E66E49C000F04AC001F014DF010E006E0A
:10023C000FD0010E0001795F000E7A5B7B5B7C5B5B
:10024C00DDD7C5BC02D0006A03D0C584020E006E97
:02025C0012008E
:04025E00C584120041
:100262001BC079F01CC07AF01DC07BF01EC07CF070
:10027200C582C5A21FD01B501C101D101E1019E0F4
:10028200000179517A117B117C110CE14BC0E1FF25
:100292004CC0E2FF060EE66E49C000F04AC001F013
:1002A200DEDE08D0010E0001795F000E7A5B7B5B17
:0602B2007C5BDFD71200A7
:1002B8000900F5CFE6FF0006FBE10106F9E11200AF
:1002C8001BC079F01CC07AF01DC07BF01EC07CF00A
:1002D8005D6A5E6A5E50120802E15D508E0807E3AF
:1002E800C7DE005201E003D05D4A5E2AF3D7120E42
:1002F8005E5C02E18F0E5D5C03E37B0E006E25D031
:10030800C580C5A021D01B501C101D101E101BE05D
:10031800000179517A117B117C110EE14BC0E1FF8C
:100328004CC0E2FF050EE66E49C000F04AC001F07D
:1003380093DE010E006E09D0010E0001795F000EF8
:0C0348007A5B7B5B7C5BDDD7006A1200F7
:100354001C0E4D6E000E4E6E880E4F6E000E506ECB
:10036400FF0E556EFF0E566E000E576E000E586E41
:10037400FF0E0001616FFF0E626F000E636F000ECF
:10038400646FFF0E596EFF0E5A6E000E5B6E000E08
:100394005C6EAC8A900EAB6E948E949C9EAA03D035
:0803A400AECF00F0FBD7120000
:1003AC000001606B5DC0E9FF5EC0EAFFEECF5FF05D
:1003BC005F50000A0EE05FC088F02ADE0001602B5F
:1003CC0060515D24E96E000E5E20EA6EEECF5FF0A8
:0403DC00EFD7120045
:1003E0001BC079F01CC07AF01DC07BF01EC07CF0F1
:1003F0009E96C5869EB61FD01B501C101D101E1049
:1004000019E0000179517A117B117C110CE14BC08C
:10041000E1FF4CC0E2FF030EE66E49C000F04AC0A7
:1004200001F01EDE08D0010E0001795F000E7A5B3C
:100430007B5B7C5BDFD7C9CF5EF05D50000A02E1D9
:10044000C58A01D0C59A9E96C5881BC079F01CC08C
:100450007AF01DC07BF01EC07CF09EB61FD01B50F2
:100460001C101D101E1019E0000179517A117B112A
:100470007C110CE14BC0E1FF4CC0E2FF030EE66EC5
:1004800049C000F04AC001F0EBDD08D0010E0001C8
:10049000795F000E7A5B7B5B7C5BDFD75EC000F030
:0204A000120048
:1004A20000017D6B7E6B79C07FF07AC080F0800E98
:1004B2007A19006E800E005C02E1000E795D0BE29B
:1004C200010E7D6F000E7E6F795100087F6F7AC03A
:1004D20080F0000E80577FC081F080C082F07BC028
:1004E20083F07CC084F010DE060E5D6E000E5E6E40
:1004F200000E006E5E50005C02E15D50000819E2E1
:100502005D507B25E16E5E507C21E26E010E5D5CEA
:10051200006E000E5E58016E00507B25E96E0150A0
:100522007C21EA6EEECFE6FF010E5D5E000E5E5AA2
:10053200DFD77BC0E1FF7CC0E2FF200EE66E7D517B
:100542007E111AE05D6A5E6A5D507B25E96E5E503F
:100552007C21EA6EEE50200A03E15D4A5E2AF4D75E
:10056200010E5D5E000E5E5A5D507B25E16E5E50AF
:0A0572007C21E26E2D0EE66E1200F1
:10057C00320EC86E88DD030E0B6E8A0E0C6E550E95
:10058C000D6E0D2EFED70C2EFCD70B2EFAD70000BD
:0C059C0000000F0EC16EF19E816A12007B
:1005A8000AEC04F0B886020EB06E080EAF6EAC848A
:1005B800CDDE320EC86E69DDDDDF250E5D6E000E04
:1005C8005E6EF0DE220E5D6E000E5E6EEBDE2E0EAF
:1005D8005D6E000E5E6EE6DE73DE030E0B6E8A0E37
:1005E8000C6E550E0D6E0D2EFED70C2EFCD70B2E55
:1005F800FAD700000000D00E5D6ECCDD190E5D6EDE
:10060800C9DD4F0E5D6EC6DD26DE030E0B6E8A0E4B
:100618000C6E550E0D6E0D2EFED70C2EFCD70B2E24
:10062800FAD7000000004CDED00E5D6EB3DD1A0E66
:100638005D6EB0DD070E5D6EADDD0DDE030E0B6E7B
:100648008A0E0C6E550E0D6E0D2EFED70C2EFCD795
:100658000B2EFAD70000000033DED00E5D6E9ADD57
:100668006B0E5D6E97DD5D6A95DDF5DD030E0B6E35
:100678008A0E0C6E550E0D6E0D2EFED70C2EFCD765
:100688000B2EFAD7000000001BDED00E5D6E82DD57
:100698001B0E5D6E7FDD5D6A7DDDDDDD030E0B6E9D
:1006A8008A0E0C6E550E0D6E0D2EFED70C2EFCD735
:1006B8000B2EFAD70000000003DED00E5D6E6ADD57
:1006C8001C0E5D6E67DD5D6A65DDC5DD030E0B6EB4
:1006D8008A0E0C6E550E0D6E0D2EFED70C2EFCD705
:1006E8000B2EFAD700000000EBDDD00E5D6E52DD58
:1006F800410E5D6E4FDDB1DDD10E5D6E4BDD5D6A85
:100708006BDE00C047F0000E486EA5DD030E0B6ED1
:100718008A0E0C6E550E0D6E0D2EFED70C2EFCD7C4
:100728000B2EFAD70000000047C079F048C07AF0D5
:10073800330E00017B6F000E7C6FAFDE330E5D6EF3
:10074800000E5E6E2FDE150E5D6E000E5E6E2ADEEA
:10075800B7DDD00E5D6E1EDD420E5D6E1BDD7DDDEC
:10076800D10E5D6E17DD5D6A37DE00C031F0000E18
:10077800326E71DD030E0B6E8A0E0C6E550E0D6E09
:100788000D2EFED70C2EFCD70B2EFAD7000000003A
:1007980031C079F032C07AF0330E00017B6F000E61
:1007A8007C6F7BDE330E5D6E000E5E6EFBDD180E19
:1007B8005D6E000E5E6EF6DD31C032F0316A475074
:1007C80031124850321247C079F048C07AF0330EDF
:1007D8007B6F000E7C6F61DE330E5D6E000E5E6E09
:1007E800E1DD1F0E5D6E000E5E6EDCDD7DD7FFD78E
:1008140010EE15F01C0E006E010E016EF80EF66E51
:0E082400070EF76E000EF86E5CEC01F012008D
:0307F8000D0A00E7
:0307FB000D0A00E4
:0407FE0000000000F7
:030802000D0A00DC
:030805000D0A00D9
:090808005354415254494E47007B
:030811000D0A00CD
:020000040030CA
:0E000000008C1F1EFF8381FF0FC00FE00F401A
:00000001FF
