:100000007EEF0BF00000000000EF00F000000000A9
:0A0010000000000000000000F3D71C
:08001C000AAE029E000E120064
:100024000B840BAE1DEF00F0010E036E026A016A31
:0A003400006A0A360232FF0E1200C5
:10003E000B820BAE29EF00F00368026801680068BE
:08004E000A360232FF0E120017
:0E005600026A016A006A086A036A000E12005C
:100064000CB074EF00F00CA21AEF01F00E6A000E4F
:1000740002648BEF00F0F00E0214D8A456EF00F0E7
:10008400023A01380F0B02260138F00B016E0038DA
:100094000F0B01260038F00B006E08380F0B0026FA
:1000A4000838F00B086E0E84D89002BE6FEF00F093
:1000B40008360036013602360E2A02BE6FEF00F013
:1000C40008360036013602360E2A02BE6FEF00F003
:1000D40008360036013602360E2A0E50036410EF3D
:1000E40001F0035E0BBC08AE15EF01F0D880800E62
:1000F40008640030000E002201220222D8A015EF6D
:1001040001F0023201320032034A1AEF01F015EF16
:1001140001F001C002F000C001F008C000F0086A5C
:10012400000E0E860264C2EF00F0F00E0214D8A492
:10013400AAEF00F0023A01380F0B02260138F00B47
:10014400016E00380F0B01260038F00B006E0E8490
:10015400D89002BE6FEF00F00036013602360E2A48
:1001640002BE6FEF00F00036013602360E2A02BEE0
:100174006FEF00F00036013602360E2A6FEF00F002
:1001840001C002F000C001F0006A000E0E960E8855
:100194000264EFEF00F0F00E0214D8A4DAEF00F0DE
:1001A400023A01380F0B02260138F00B016E0E845F
:1001B400D89002BE6FEF00F0013602360E2A02BE5E
:1001C4006FEF00F0013602360E2A02BE6FEF00F028
:1001D400013602360E2A6FEF00F001C002F0016A08
:1001E400000E0E8602641FEF01F0F00E0214D8A474
:1001F400FEEF00F0023A0E84D89002BE6FEF00F0DA
:1002040002360E2A02BE6FEF00F002360E2A02BE3C
:100214006FEF00F002360E2A6FEF00F0010E0C6E45
:10022400FFDE22EF01F0020E0C6EF6DE22EF01F08B
:10023400040E0C6E02DF22EF01F0080E0C6E09DFD3
:020244001200A6
:0E024600ACB202D00000FCD7F8C0ADFF120031
:10025400F250026EF29E0500FF6A0150FE6E0050DD
:08026400FD6E02BEF28E1200D5
:10026C00C7B409D01F0EC514016E0150000A03E17A
:0A027C00010E006E01D0006A1200AE
:100286000C6A0E6A0250D8A45CEF01F001C002F0BD
:1002960000C001F0006A0E860250D8A45CEF01F09F
:1002A60001C002F0016A0E960E880250D8B46EEFB5
:1002B60001F00E50035ED8A4D8A073EF01F0D890D9
:1002C60002BE78EF01F0003601360236032E63EFE8
:1002D60001F073EF01F0010E0C6EBADE7BEF01F058
:1002E600020E0C6E9CDE7BEF01F0040E0C6E93DEAC
:0202F6001200F4
:1002F800025006180E6E086A096A0B6A03500764F2
:100308006FEF02F006500A6E068E028E03500B6ED7
:100318000750036E000E0B64BFEF01F00B50075E31
:10032800D8B460EF02F0070E07642EEF02F0075E04
:1003380000C008F001C000F002C001F0026A074ED8
:1003480060EF02F0076403EF02F0075E00C008F0F8
:1003580001C000F0016A074E60EF02F00764E1EFA8
:1003680001F0075E00C008F0006A074E60EF02F077
:100378000764C8EF01F00AC002F005C001F004C02C
:1003880000F0086A89EF03F0030E0764D3EF01F069
:10039800075E08380F0B086E074E60EF02F0D89022
:1003A8000832074E60EF02F0D8900832074E60EF2F
:1003B80002F0D890083260EF02F0030E0764F2EF03
:1003C80001F0075E08380F0B086E0038F00B08269E
:1003D80000380F0B006E074E60EF02F0D890003225
:1003E8000832074E60EF02F0D89000320832074E0C
:1003F80060EF02F0D8900032083260EF02F0030E8E
:1004080007641AEF02F0075E08380F0B086E003811
:10041800F00B082600380F0B006E0138F00B002691
:1004280001380F0B016E074E60EF02F0D8900132D1
:1004380000320832074E60EF02F0D89001320032E5
:100448000832074E60EF02F0D890013200320832CD
:1004580060EF02F0030E07644BEF02F0075E083806
:100468000F0B086E0038F00B082600380F0B006ED3
:100478000138F00B002601380F0B016E0238F00B23
:10048800012602380F0B026E074E60EF02F0D8907B
:100498000232013200320832074E60EF02F0D89083
:1004A8000232013200320832074E60EF02F0D89073
:1004B8000232013200320832096A000E0EAE54EFE1
:1004C80003F0081E001E011E021E082A0022012237
:1004D800022254EF03F00750D8A475EF02F089EF19
:1004E80003F0096A02C00AF0028E068E0750035C08
:1004F800076ED8B447EF03F0070E076415EF03F053
:10050800075E0450096E0550046E0650056E066AB3
:10051800074E47EF03F0070E0764EAEF02F0075EA5
:100528000450096E0550046E056A074E47EF03F044
:10053800070E0764C8EF02F0075E0450096E046AEC
:10054800074E47EF03F0070E0764AFEF02F00AC04B
:1005580002F089EF03F0030E0764BAEF02F0075EBA
:1005680009380F0B096E074E47EF03F0D890093290
:10057800074E47EF03F0D8900932074E47EF03F0D4
:10058800D890093247EF03F0030E0764D9EF02F061
:10059800075E09380F0B096E0438F00B092604387A
:1005A8000F0B046E074E47EF03F0D8900432093260
:1005B800074E47EF03F0D89004320932074E47EF51
:1005C80003F0D8900432093247EF03F0030E0764B2
:1005D80001EF03F0075E09380F0B096E0438F00BC2
:1005E800092604380F0B046E0538F00B042605386D
:1005F8000F0B056E074E47EF03F0D8900532043213
:100608000932074E47EF03F0D89005320432093219
:10061800074E47EF03F0D89005320432093247EF0E
:1006280003F0030E076432EF03F0075E09380F0B7F
:10063800096E0438F00B092604380F0B046E0538D0
:10064800F00B042605380F0B056E0638F00B05264F
:1006580006380F0B066E074E47EF03F0D8900632A8
:10066800053204320932074E47EF03F0D8900632BC
:10067800053204320932074E47EF03F0D8900632AC
:10068800053204320932086A000E0EAE54EF03F048
:10069800091E041E051E061E092A0422052206221A
:1006A8000950082604500022055001220650022253
:1006B8000EBE6BEF03F0D8A07AEF03F002320132DE
:1006C80000320832033E7AEF03F084EF03F0D8B02B
:1006D8007FEF03F0000E081E001E011E021E082AEE
:1006E8000022012202220A7E7FEF03F0010E0C6E27
:1006F800B5DC8BEF03F0020E0C6EB0DC8BEF03F071
:10070800040E0C6E98DC8BEF03F0000E0C6E1200DA
:080718000B6A0B86FF0E1200B4
:100720000A6A0350D8A40A800750D8A40A820A5043
:10073000D8B4F3EF03F0030AD8B4ACEF03F00AB077
:10074000A7EF03F006AEF1EF03F0EFEF03F002AE18
:10075000EFEF03F0F1EF03F00250800B0A6E029E00
:100760000650800B069E0A18D8B4BDEF03F00A505D
:10077000D8B4EFEF03F0F1EF03F00750035CD8B407
:10078000C7EF03F0D8A0E3EF03F0E9EF03F0065062
:10079000025CD8B4D1EF03F0D8A0E3EF03F0E9EFA7
:1007A00003F00550015CD8B4DBEF03F0D8A0E3EF11
:1007B00003F0E9EF03F00450005CD8B4F3EF03F06A
:1007C000D8B0E9EF03F00A52D8B4F1EF03F0EFEF3D
:1007D00003F00A52D8B4EFEF03F0F1EF03F0D88042
:0E07E0001200D8901200D880D88412001200A7
:1007EE000001E36BE0C0E9FFE1C0EAFFEECFE2F00B
:1007FE00E251000A0EE0E2C0F8F01EDD0001E32B2C
:10080E00E351E025E96E000EE121EA6EEECFE2F053
:04081E00EFD71200FE
:06082200067E69DD1200F4
:10082800086A096A000E0762036499EF04F002502F
:1008380006180A6E075003267E0ED8A02AEF04F089
:10084800035ED8B09EEF04F02EEF04F0035ED8A04C
:10085800A3EF04F0028E068E02C00EF001C00BF06A
:1008680000C00DF000500402F4CF0CF00150050256
:10087800F4CF00F0F3CF08F00402F3500C26F45044
:100888000822000E00220D500502F3500C26F450E9
:100898000822000E002202500402F3500826F450E9
:1008A800002202500502016A000E0122F3500026C0
:1008B800F45001220D500602F3500826F45000228D
:1008C800026A000E012202220B500602F350002693
:1008D800F4500122000E02220E500602F3500126A7
:1008E800F450022202BE81EF04F0083600360136C9
:1008F80002360306D8B4A3EF04F094EF04F0D880CE
:10090800800E08640030000E002201220222D8A0C6
:1009180094EF04F0023201320032034A9EEF04F0F1
:100928000AAE029E000EA6EF04F0010E2BEC00F0BA
:10093800A6EF04F0020E1FEC00F0A6EF04F0040E80
:0609480012EC00F01200A9
:10094E000D6A086A0050D8B4000C04180A6E0ABE6C
:10095E000D1E0B6A04AE02D0041E042A00AE02D095
:10096E00001E002A005004100A6E0ABE1FD004504A
:10097E00085E003600340836045008260036060E8F
:10098E000C6E00340836045000B0085E00A0082635
:10099E0000360C2EF6D700A008260BB015D00DAEE3
:1009AE00000C001E002A081E082A000C04AE09D0F6
:1009BE0000BE04D00050086E006AF1D7006A002A0B
:1009CE00000C001E0B2AD3D7082A0450085CD8A4AA
:0E09DE00E6D7086A002A00AEE2D7FF0C12002E
:1009EC00E0C004F0E1C005F004C002F005C003F063
:1009FC00044A052AE2C000F0E3C001F00001E24B1A
:100A0C00E32B00C0E9FF01C0EAFF02C0E1FF03C015
:100A1C00E2FFEECFE6FF02C0E9FF03C0EAFFEE52B1
:0E0A2C0001E0E2D7E0C000F0E1C001F01200EE
:100A3A000B800BAE29EF05F0026A0AAEFF0E026EBA
:0C0A4A00016E006E0A360232FF0E120030
:100A5600030E0B6E8A0E0C6E550E0D6E0D2EFED706
:0E0A66000C2EFCD70B2EFAD700000000120059
:100A740063C0E2F064C0E3F065C0E4F066C0E5F092
:100A84000001E06BE16BE151120802E1E0518E08D4
:100A940009E336EC01F0005201E004D00001E04B20
:100AA400E12BF1D70001120EE15D02E18F0EE05D52
:100AB40003E37B0E006E25D0C580C5A021D0635111
:100AC4006411651166111BE0E251E311E411E511B3
:100AD4000FE1CCC0E1FFCDC0E2FF050EE66ECAC057
:100AE40000F0CBC001F02AEC01F0010E006E09D039
:100AF400010E0001E25F000EE35BE45BE55BDDD722
:040B0400006A120071
:100B080063C0E2F064C0E3F065C0E4F066C0E5F0FD
:100B18009E96C5869EB620D000016351641165116A
:100B2800661119E0E251E311E411E5110DE1CCC0C1
:100B3800E1FFCDC0E2FF030EE66ECAC000F0CBC0F5
:100B480001F02AEC01F008D0010E0001E25F000E6E
:100B5800E35BE45BE55BDED70001C9CFE1F0E05180
:100B6800000A02E1C58A01D0C59A9E96C58863C06D
:100B7800E2F064C0E3F065C0E4F066C0E5F09EB65C
:100B88001FD0635164116511661119E0E251E31138
:100B9800E411E5110DE1CCC0E1FFCDC0E2FF030E89
:100BA800E66ECAC000F0CBC001F02AEC01F008D014
:100BB800010E0001E25F000EE35BE45BE55BDFD75B
:060BC800E1C000F0120084
:100BCE0000C008F00B6A0C6A9E0E036E0A6A026A77
:0E0BDE00016A006A020E0C6E32EC00F012008A
:100BEC00F4C0CEF0F5C0CFF0F6C0D0F0F7C0D1F025
:100BFC00E0C0C6F0E1C0C7F0E2C0C8F0E3C0C9F085
:100C0C00E4C0AEF0E5C0AFF0E6C0B0F0E7C0B1F0C4
:100C1C00E8C0B2F0E9C0B3F0EAC0B4F0EBC0B5F094
:100C2C00ECC0A6F0EDC0A7F0EEC0A8F0EFC0A9F0A4
:100C3C00F0C0AAF0F1C0ABF0F2C0ACF0F3C0ADF074
:020C4C00120094
:100C4E006C0E0001CE6F020ECF6F000ED06F000E35
:100C5E00D16F740EC66F0A0EC76F000EC86F000EEE
:100C6E00C96FC60EAE6F0C0EAF6F000EB06F000EDA
:100C7E00B16F080EB26F0B0EB36FE00EB46F000EB5
:100C8E00B56FC20EA66F0E0EA76FE00EA86F000E08
:100C9E00A96F880EAA6F0F0EAB6F000EAC6F000E11
:100CAE00AD6F939093928A908A9293809382C79E0F
:080CBE00C79C380EC66E12003F
:100CC60063C0E0F064C0E1F065C0E2F066C0E3F046
:100CD600C582C5A220D00001635164116511661159
:100CE60019E0E051E111E211E3110DE1CCC0E1FFA1
:100CF600CDC0E2FF060EE66ECAC000F0CBC001F022
:100D06002AEC01F008D0010E0001E05F000EE15B65
:080D1600E25BE35BDED7120093
:100D1E000450000A12E10550000A0FE10650000AC5
:100D2E000CE10750000A09E1FF0E006EFF0E016E86
:100D3E007F0E026EFF0E036EA7D0086A096A075077
:100D4E00D8B43AEF07F00350D8B43EEF07F0025094
:100D5E0006180A6E028E068E0E6A02C008F001C0D8
:100D6E000CF000C00DF004500D5E0550D8A0053CEF
:100D7E000C5E0650D8A0063C085E086A0C6A0D6A26
:100D8E00D8A0D1EF06F0D8900232013200320832EC
:100D9E00010E0E6E0750035ED8A0DEEF06F07E0E3B
:100DAE000E240326D8B043EF07F0E4EF06F07E0ED4
:100DBE000E240326D8A048EF07F0180E0B6E0D3642
:100DCE000C3608360036013602360E360450005EFA
:100DDE000550D8A0053C015E0650D8A0063C025E28
:100DEE0006340E120EA0FFEF06F00D800AEF07F08C
:100DFE00045000260550D8B0053C01260650D8B048
:100E0E00062802260D900B2EE6EF06F030EF07F0C7
:100E1E00D8900036013602360E360450005E05506C
:100E2E00D8A0053C015E0650D8A0063C025E0634F2
:100E3E000E10010B0D26D8B00C2AD8B4082AD8A44F
:100E4E0030EF07F008320C320D32032AD8B443EFDC
:100E5E0007F00AAE089E0850026E0C50016E0D503F
:100E6E00006E4BEF07F0010E50DC4BEF07F0020E59
:100E7E002BEC00F04BEF07F0040E1FEC00F04BEFE5
:0A0E8E0007F0080E12EC00F012004D
:100E98000050086E0150006E016A026A036A0B6A0C
:100EA8000C6A960E036E0A6A00C001F008C000F0D2
:0A0EB800086A026A43EC01F0120020
:100EC2009E96E0C0C9FF63C0E1F064C0E2F065C075
:100ED200E3F066C0E4F0C7A422D0000163516411BC
:100EE200651166111BE0E151E211E311E4110FE11A
:100EF200CCC0E1FFCDC0E2FF040EE66ECAC000F036
:100F0200CBC001F02AEC01F0010E006E3BD0010EC5
:100F12000001E15F000EE25BE35BE45BDCD763C0F0
:100F2200E1F064C0E2F065C0E3F066C0E4F09EB6B2
:100F320022D0000163516411651166111BE0E15179
:100F4200E211E311E4110FE1CCC0E1FFCDC0E2FFF9
:100F5200040EE66ECAC000F0CBC001F02AEC01F02C
:100F6200010E006E0FD0010E0001E15F000EE25B88
:100F7200E35BE45BDCD7C5BC02D0006A03D0C58466
:060F8200020E006E1200D9
:040F8800C58412000A
:100F8C00740E0001E06F0A0EE16F000EE26F000EAE
:100F9C00E36FC60EE46F0C0EE56F000EE66F000EED
:100FAC00E76FC20EE86F0E0EE96FE00EEA6F000EEF
:100FBC00EB6FC20EEC6F0E0EED6FE00EEE6F000ECF
:100FCC00EF6F880EF06F0F0EF16F000EF26F000EC8
:100FDC00F36F6C0EF46F020EF56F000EF66F000ED1
:100FEC00F76FFEDD320EC86E2CDE030E0B6E8A0E12
:100FFC000C6E550E0D6E0D2EFED70C2EFCD70B2E37
:10100C00FAD7000000000F0EC16EF19E816A12002B
:10101C00460E0001BE6F020EBF6FF80EC06F000EC1
:10102C00C16FFF0EC26FFF0EC36F000EC46F000EB8
:10103C00C56FFF0EB66FFF0EB76F000EB86F000EC8
:10104C00B96FFF0EBA6FFF0EBB6F000EBC6F000EB8
:10105C00BD6FAC8A900EAB6E948E949C9EAA03D0FE
:08106C00AECF00F0FBD712002B
:101074000900F5CFE6FF0006FBE10106F9E11200E5
:101084000001DE6BDF6BD2C0DAF0D3C0DBF0D4C07A
:10109400DCF0D5C0DDF0DD51FF0A08E1DC51FF0AC8
:1010A40005E1DB51FF0A02E1DA51FF0A0CE1D6C087
:1010B400E0F0D7C0E1F0550EE26F000EE36F94DC70
:1010C400030E006EEFD1010ED86FDCAF0ED0800E90
:1010D400DC19006E00C0DCF0D82BD6C0E1FFD7C00D
:1010E400E2FF2D0EE66ED64BD72B000E006EDD19F7
:1010F40008E10050DC1905E10050DB1902E1DA5186
:10110400000A0BE1D6C0E0F0D7C0E1F0590EE26F5F
:10111400000EE36F69DC006AC5D1DD51FF0A08E106
:10112400DC51000A05E1DB51000A02E1DA51000A50
:101134000CE1D6C0E0F0D7C0E1F05F0EE26F000E24
:10114400E36F52DCD8C000F0ADD1000E046E000E87
:10115400056E000E066E7F0E076EDAC000F0DBC06F
:1011640001F0DCC002F0DDC003F090EC03F0010EEE
:10117400D8B0000E006E00521CE0DAC000F0DBC0F4
:1011840001F0DCC002F0DDC003F0000E046E000EBE
:10119400056E200E066E820E076E14EC04F000C07D
:1011A400DAF001C0DBF002C0DCF003C0DDF0DF07E1
:1011B400CCD7000E046E000E056E200E066E820E55
:1011C400076EDAC000F0DBC001F0DCC002F0DDC065
:1011D40003F090EC03F0000ED8B0010E006E005244
:1011E4001CE0DAC000F0DBC001F0DCC002F0DDC0BE
:1011F40003F0CD0E046ECC0E056E4C0E066E7B0E07
:10120400076E14EC04F000C0DAF001C0DBF002C099
:10121400DCF003C0DDF0DF2BCCD7FF0EDA15086E4F
:10122400FF0EDB15096E7F0EDC150A6E000EDD1550
:101234000B6E08C004F009C005F00AC006F00BC02C
:1012440007F004360490053606360736000EDA1524
:10125400006E000EDB15016E000EDC15026EFF0E33
:10126400DD15036E00C0DAF001C0DBF002C0DCF073
:1012740003C0DDF00450DA11006E0550DB11016E7D
:101284000650DC11026E0750DD11036E00C0DAF067
:1012940001C0DBF002C0DCF003C0DDF07F0EDD5DD9
:1012A400006E00C0D9F0010EDD6F00C004F0DAC09A
:1012B40000F0DBC001F0DCC002F0DDC003F004503C
:1012C40007E000360090013602360336FF0FF8D7E8
:1012D40000C0DAF001C0DBF002C0DCF003C0DDF0D6
:1012E400D6C0E1FFD7C0E2FFDD51300FE66ED64B2A
:1012F400D72B800EDF19006E800E010A005C08E314
:10130400800E060A006E800EDF19005C01E30AD02D
:10131400D6C0E1FFD7C0E2FF2E0EE66ED64BD72B28
:10132400010EDE6F060ED96FD951000A54E0DD6B51
:10133400DAC000F0DBC001F0DCC002F0DDC003F075
:10134400003600900136023603360036009001362E
:1013540002360336DA510026DB510122DC51022227
:10136400DD51032200C0DAF001C0DBF002C0DCF082
:1013740003C0DDF0DAC000F0DBC001F0DCC002F035
:10138400DDC003F00036009001360236033600C09B
:10139400DAF001C0DBF002C0DCF003C0DDF0D6C03F
:1013A400E1FFD7C0E2FFDD51300FE66ED64BD72BFD
:1013B400DE51000A0EE1DF07DF51000A0AE1D6C060
:1013C400E1FFD7C0E2FF2E0EE66ED64BD72B010EFF
:1013D400DE6FD907A9D7FF0ED625E96EFF0ED721F8
:1013E400EA6EEE50300A05E1010ED65F000ED75BBF
:1013F400F2D7FF0ED625E96EFF0ED721EA6EEE5026
:101404002E0A04E1010ED65F000ED75BDF51000AFD
:1014140043E0D6C0E1FFD7C0E2FF650EE66ED64BCF
:10142400D72B800EDF19006E800E000A005C0BE2E1
:10143400D6C0E1FFD7C0E2FF2D0EE66ED64BD72B08
:10144400DF510008DF6FDFC0D9F0800E090A006E9B
:10145400800EDF19005C0FE20A0E046ED9C000F0A2
:10146400A7EC04F0D6C0E1FFD7C0E2FF0050300F74
:10147400E66ED64BD72B0A0E046ED9C000F0A7EC4B
:1014840004F008C000F0D6C0E1FFD7C0E2FF00506E
:10149400300FE66ED64BD72BD6C0E1FFD7C0E2FFA4
:0614A400E66A006A120076
:1014AA000B6A0C6A0A6A0350D8B49FEF0AF0028EDC
:1014BA008E0E035E03BE67EF0AF0D8B467EF0AF038
:1014CA00A3EF0AF0036C080E035CD8A07EEF0AF0C3
:1014DA00036E013602C001F0026A080E035CD8A04E
:1014EA007EEF0AF00136016A0350D8A4D89088EF3B
:1014FA000AF00350D8B488EF0AF0D89002320132C9
:10150A00032E82EF0AF00BBC01A095EF0AF0D8A0D7
:10151A0095EF0AF0012AD8B4022A02BEB2EF0AF005
:10152A000AAEB8EF0AF0021E011E012AD8B4022A36
:10153A00B8EF0AF0026A016AB8EF0AF00B800BAE44
:10154A00BCEF0AF0026A0AAEBCEF0AF0FF0E026EA6
:10155A00016E0A360232BCEF0AF0010E0C6E1DEC67
:10156A0005F0BEEF0AF0000E0C6EBEEF0AF0FF0E99
:0C157A000C6E0150006E0250016E120059
:101586003AEC05F0800E0001E06F98DC030E0001D6
:10159600E06F94DC110E0001E06F90DCF2DC030ECC
:1015A6000B6E080E0C6E770E0D6E0D2EFED70C2EE2
:1015B600FCD70B2EFAD73AEC05F0800E0001E06F4F
:1015C6007DDC010E0001E06F79DC63EC06F0810E34
:1015D6000001E06F73DC010E0001E06F84EC05F0A2
:1015E60000C0D3F00001D26BE06B84EC05F0005034
:1015F6000001D213000ED313C4DCD2C000F0D3C056
:1016060001F001320032019E01320032019E00C01B
:10161600D2F001C0D3F03DDC000E046E000E056E64
:10162600000E066E840E076E8FEC06F0000E046E3A
:10163600000E056E480E066E840E076E11EC04F061
:02164600120090
:101648003AEC05F0680E0001E06F37DC6B0E000124
:10165800E06F33DC0001E06B30DC1C0E0001E06F52
:101668002CDC180E0001E06F28DC750E0001E06F1D
:1016780024DC680E0001E06F20DC82DC3AEC05F027
:10168800680E0001E06F19DC320E0001E06F15DC16
:1016980077DC2BEC05F063EC06F0690E0001E06FD7
:1016A8000CDC0001E06B84EC05F000C0D2F06A0E9F
:1016B8000001E06F000EE16FF7EC03F0670EE06FDA
:1016C800000EE16FF7EC03F0D2C000F0E7EC05F094
:1016D80000C0D3F001C0D4F002C0D5F003C0D6F0EA
:1016E8004FDCD3C000F0D4C001F0D5C002F0D6C0A2
:0416F80003F01200E9
:1016FC006CEC0CF0B886020EB06E080EAF6EAC84BB
:10170C0087DC3EDC440EE06F000EE16FF7EC03F07B
:10171C004C0EE06F000EE16FF7EC03F0350EE06F4E
:10172C00000EE16FF7EC03F0380EE06F000EE16F86
:10173C00F7EC03F0520EE06F000EE16FF7EC03F0E4
:10174C001CDF00C0A2F001C0A3F002C0A4F003C0D3
:10175C00A5F000C0D2F001C0D3F002C0D4F003C099
:10176C00D5F08E0E0001D66F000ED76F85DC8E0E75
:10177C00E06F000EE16FF7EC03F04F0EE06F000E20
:10178C00E16FF7EC03F0320EE06F000EE16FF7EC57
:10179C0003F01A0E0B6E5E0E0C6E6E0E0D6E0D2E91
:1017AC00FED70C2EFCD70B2EFAD70000180EE06FCC
:1017BC00000EE16FF7EC03F01E0EE06F000EE16F10
:1017CC00F7EC03F0150EE06F000EE16FF7EC03F091
:1017DC0035DF65DE00C078F001C079F0240EE06FD3
:1017EC00000EE16FF7EC03F02F0EE06F000EE16FCF
:1017FC00F7EC03F078C000F079C001F04CEC07F086
:10180C0000C0D2F001C0D3F002C0D4F003C0D5F0B8
:10181C007A0ED66F000ED76F2FDC7A0EE06F000EAB
:10182C00E16FF7EC03F0210EE06F000EE16FF7ECC7
:10183C0003F01A0E0B6E5E0E0C6E6E0E0D6E0D2EF0
:10184C00FED70C2EFCD70B2EFAD700005B0EE06FE8
:10185C00000EE16FF7EC03F05C0EE06F000EE16F31
:08186C00F7EC03F061D7FFD790
:1018D80010EE15F0630E006E010E016E740EF66EBA
:0E18E800180EF76E000EF86E3AEC08F01200C3
:031874000D0A005A
:061877007768696C650052
:03187D000D0A0051
:031880000D0A004E
:0B188300636F6E76657274696F6E0013
:03188E000D0A0040
:031891000D0A003D
:031894000D0A003A
:0C18970074656D706572747572653A00BE
:0818A300497420676F657300B2
:0318AB000D0A0023
:0318AE000D0A0020
:0318B1000D0A001D
:0418B4004E614E0033
:0218B8003000FE
:0118BA00002D
:0318BB000D0A0013
:0418BE00494E460049
:0418C2000000000022
:0318C6000D0A0008
:0E18C9004974207374696C6C20676F6573003E
:020000040030CA
:0E000000000C1F1EFF8381FF0FC00FE00F409A
:00000001FF
