:100000006DEF01F00000000000EF00F000000000C4
:0A0010000000000000000000F3D71C
:0E001C00ACB202D00000FCD75EC0ADFF1200F7
:10002A00C7B409D01F0EC514016E0150000A03E1BE
:0A003A00010E006E01D0006A1200F2
:100044002A0E3C6E000E3D6E000E3E6E000E3F6E9C
:10005400980E2C6E010E2D6E000E2E6E000E2F6E5D
:10006400FF0E286EFF0E296E000E2A6E000E2B6EF8
:10007400FF0E306EFF0E316EFF0E326EFF0E336ECA
:10008400200E386E020E396E540E3A6E000E3B6E20
:10009400020E346E010E356E000E366E000E376E93
:1000A400939093928A908A9293809382C79EC79CDE
:0600B400380EC66E1200BA
:1000BA00F250026EF29E0500FF6A0150FE6E005079
:0800CA00FD6E02BEF28E120071
:1000D200576A54C0E9FF55C0EAFFEECF56F05650BA
:1000E200000A0DE056C05EF098DF572A575054249C
:1000F200E96E000E5520EA6EEECF56F0F0D71200F0
:04010200C58412009E
:10010600320EC86E9CDF030E0B6E8A0E0C6E550EF9
:100116000D6E0D2EFED70C2EFCD70B2EFAD7000037
:0C01260000000F0EC16EF19E816A1200F5
:100132001C0E486E000E496E5E0E4A6E000E4B6E2D
:10014200FF0E446EFF0E456E000E466E000E476EA9
:10015200FF0E506EFF0E516E000E526E000E536E69
:10016200FF0E4C6EFF0E4D6E000E4E6E000E4F6E69
:10017200AC8A900EAB6E948E949C9EAA03D0AECFA6
:0601820000F0FBD71200A3
:100188000900F5CFE6FF0006FBE10106F9E11200E0
:1001980024C056F025C057F026C058F027C059F0A3
:1001A800546A556A5550120802E154508E0807E304
:1001B80038DF005201E003D0544A552AF3D7120E13
:1001C800555C02E18F0E545C03E37B0E006E23D076
:1001D800C580C5A01FD0245025102610271019E06F
:1001E80056505710581059100EE142C0E1FF43C055
:1001F800E2FF050EE66E40C000F041C001F059DF95
:10020800010E006E08D0010E565E000E575A585A5D
:08021800595ADFD7006A1200F9
:100220009E9654C0C9FF24C055F025C056F026C084
:1002300057F027C058F0C7A41FD02450251026100F
:10024000271019E055505610571058100EE142C0B3
:10025000E1FF43C0E2FF040EE66E40C000F041C083
:1002600001F02BDF010E006E37D0010E555E000E3F
:10027000565A575A585ADFD724C055F025C056F061
:1002800026C057F027C058F09EB61FD02450251026
:100290002610271019E055505610571058100EE12F
:1002A00042C0E1FF43C0E2FF040EE66E40C000F032
:1002B00041C001F002DF010E006E0ED0010E555E4E
:1002C000000E565A575A585ADFD7C5BC02D0006A9A
:0A02D00003D0C584020E006E120078
:1002DA00D9EC02F0B886020EB06E080EAF6EAC848E
:1002EA0023DF320EC86EA9DE09DF180E546E000E27
:1002FA00556EEADE150E546E000E556EE5DE210EC1
:10030A00546E000E556EE0DE42DFD00E546E83DF6F
:10031A00190E546E80DF070E546E7DDFEDDE030E7C
:10032A000B6E8A0E0C6E550E0D6E0D2EFED70C2E10
:10033A00FCD70B2EFAD70000000029DFD00E546E2E
:10034A006ADF6B0E546E67DF546A65DFD5DE030E13
:10035A000B6E8A0E0C6E550E0D6E0D2EFED70C2EE0
:10036A00FCD70B2EFAD70000000011DFD00E546E16
:10037A0052DF6C0E546E4FDF546A4DDFBDDE030E42
:10038A000B6E8A0E0C6E550E0D6E0D2EFED70C2EB0
:10039A00FCD70B2EFAD700000000F9DED00E546EFF
:1003AA003ADF1B0E546E37DF546A35DFA5DE030EC3
:1003BA000B6E8A0E0C6E550E0D6E0D2EFED70C2E80
:1003CA00FCD70B2EFAD700000000E1DED00E546EE7
:1003DA0022DF1C0E546E1FDF546A1DDF8DDE030EF2
:1003EA000B6E8A0E0C6E550E0D6E0D2EFED70C2E50
:1003FA00FCD70B2EFAD700000000C9DE030E0B6EE5
:10040A008A0E0C6E550E0D6E0D2EFED70C2EFCD7D5
:10041A000B2EFAD700000000D00E546EFCDE380E08
:10042A00546EF9DE400E546EF6DE66DE030E0B6E77
:10043A008A0E0C6E550E0D6E0D2EFED70C2EFCD7A5
:10044A000B2EFAD700000000A2DED00E546EE3DEB7
:10045A00200E546EE0DE010E546EDDDE4DDE030E1C
:10046A000B6E8A0E0C6E550E0D6E0D2EFED70C2ECF
:10047A00FCD70B2EFAD70000000089DED00E546E8E
:10048A00CADE3A0E546EC7DE010E546EC4DE34DE86
:10049A00030E0B6E8A0E0C6E550E0D6E0D2EFED7C8
:1004AA000C2EFCD70B2EFAD70000000070DED00EFF
:1004BA00546EB1DE1F0E546EAEDE010E546EABDE0C
:1004CA001BDE060E0B6E130E0C6EAD0E0D6E0D2E90
:1004DA00FED70C2EFCD70B2EFAD70000000057DEF1
:1004EA00D00E546E98DE1A0E546E95DEFF0E546EC0
:1004FA0092DE02DE030E0B6E8A0E0C6E550E0D6E28
:10050A000D2EFED70C2EFCD70B2EFAD700000000BA
:10051A003EDED00E546E7FDE6C0E546E7CDE600EB4
:10052A00546E79DEE9DD030E0B6E8A0E0C6E550EE3
:10053A000D6E0D2EFED70C2EFCD70B2EFAD700000F
:10054A00000025DED00E546E66DE6B0E546E63DE3E
:10055A00100E546E60DED0DD030E0B6E8A0E0C6E2A
:10056A00550E0D6E0D2EFED70C2EFCD70B2EFAD77C
:10057A0000000000060E0B6E130E0C6EAD0E0D6E13
:10058A000D2EFED70C2EFCD70B2EFAD7000000003A
:04059A00FFD7FFD7B1
:1005B20010EE15F0130E006E010E016E9E0EF66E19
:0E05C200050EF76E000EF86EC4EC00F012008D
:03059E000D0A0043
:0905A1005354415254494E4700E5
:0305AA000D0A0037
:0405AD00000000004A
:020000040030CA
:0E000000008C1F1EFF8381FF0FC00FE00F401A
:00000001FF
