:100000008CEF0AF00000000000EF00F0000000009C
:0A0010000000000000000000F3D71C
:10001C000B820BAE18EF00F00368026801680068F1
:08002C000A360232FF0E120039
:0E003400026A016A006A086A036A000E12007E
:080042000AAE029E000E12003E
:10004A000B840BAE30EF00F0010E036E026A016AF8
:0A005A00006A0A360232FF0E12009F
:100064000CB074EF00F00CA21AEF01F00E6A000E4F
:1000740002648BEF00F0F00E0214D8A456EF00F0E7
:10008400023A01380F0B02260138F00B016E0038DA
:100094000F0B01260038F00B006E08380F0B0026FA
:1000A4000838F00B086E0E84D89002BE6FEF00F093
:1000B40008360036013602360E2A02BE6FEF00F013
:1000C40008360036013602360E2A02BE6FEF00F003
:1000D40008360036013602360E2A0E50036410EF3D
:1000E40001F0035E0BBC08AE15EF01F0D880800E62
:1000F40008640030000E002201220222D8A015EF6D
:1001040001F0023201320032034A1AEF01F015EF16
:1001140001F001C002F000C001F008C000F0086A5C
:10012400000E0E860264C2EF00F0F00E0214D8A492
:10013400AAEF00F0023A01380F0B02260138F00B47
:10014400016E00380F0B01260038F00B006E0E8490
:10015400D89002BE6FEF00F00036013602360E2A48
:1001640002BE6FEF00F00036013602360E2A02BEE0
:100174006FEF00F00036013602360E2A6FEF00F002
:1001840001C002F000C001F0006A000E0E960E8855
:100194000264EFEF00F0F00E0214D8A4DAEF00F0DE
:1001A400023A01380F0B02260138F00B016E0E845F
:1001B400D89002BE6FEF00F0013602360E2A02BE5E
:1001C4006FEF00F0013602360E2A02BE6FEF00F028
:1001D400013602360E2A6FEF00F001C002F0016A08
:1001E400000E0E8602641FEF01F0F00E0214D8A474
:1001F400FEEF00F0023A0E84D89002BE6FEF00F0DA
:1002040002360E2A02BE6FEF00F002360E2A02BE3C
:100214006FEF00F002360E2A6FEF00F0010E0C6E45
:1002240012DF22EF01F0020E0C6E09DF22EF01F063
:10023400040E0C6EF1DE22EF01F0080E0C6EF8DEF7
:020244001200A6
:0E024600ACB202D00000FCD785C0ADFF1200A4
:10025400F250026EF29E0500FF6A0150FE6E0050DD
:08026400FD6E02BEF28E1200D5
:10026C00C7B409D01F0EC514016E0150000A03E17A
:0A027C00010E006E01D0006A1200AE
:100286000C6A0E6A0250D8A45CEF01F001C002F0BD
:1002960000C001F0006A0E860250D8A45CEF01F09F
:1002A60001C002F0016A0E960E880250D8B46EEFB5
:1002B60001F00E50035ED8A4D8A073EF01F0D890D9
:1002C60002BE78EF01F0003601360236032E63EFE8
:1002D60001F073EF01F0010E0C6EA9DE7BEF01F069
:1002E600020E0C6EAFDE7BEF01F0040E0C6EA6DE86
:0202F6001200F4
:1002F800025006180E6E086A096A0B6A03500764F2
:100308006FEF02F006500A6E068E028E03500B6ED7
:100318000750036E000E0B64BFEF01F00B50075E31
:10032800D8B460EF02F0070E07642EEF02F0075E04
:1003380000C008F001C000F002C001F0026A074ED8
:1003480060EF02F0076403EF02F0075E00C008F0F8
:1003580001C000F0016A074E60EF02F00764E1EFA8
:1003680001F0075E00C008F0006A074E60EF02F077
:100378000764C8EF01F00AC002F005C001F004C02C
:1003880000F0086A89EF03F0030E0764D3EF01F069
:10039800075E08380F0B086E074E60EF02F0D89022
:1003A8000832074E60EF02F0D8900832074E60EF2F
:1003B80002F0D890083260EF02F0030E0764F2EF03
:1003C80001F0075E08380F0B086E0038F00B08269E
:1003D80000380F0B006E074E60EF02F0D890003225
:1003E8000832074E60EF02F0D89000320832074E0C
:1003F80060EF02F0D8900032083260EF02F0030E8E
:1004080007641AEF02F0075E08380F0B086E003811
:10041800F00B082600380F0B006E0138F00B002691
:1004280001380F0B016E074E60EF02F0D8900132D1
:1004380000320832074E60EF02F0D89001320032E5
:100448000832074E60EF02F0D890013200320832CD
:1004580060EF02F0030E07644BEF02F0075E083806
:100468000F0B086E0038F00B082600380F0B006ED3
:100478000138F00B002601380F0B016E0238F00B23
:10048800012602380F0B026E074E60EF02F0D8907B
:100498000232013200320832074E60EF02F0D89083
:1004A8000232013200320832074E60EF02F0D89073
:1004B8000232013200320832096A000E0EAE54EFE1
:1004C80003F0081E001E011E021E082A0022012237
:1004D800022254EF03F00750D8A475EF02F089EF19
:1004E80003F0096A02C00AF0028E068E0750035C08
:1004F800076ED8B447EF03F0070E076415EF03F053
:10050800075E0450096E0550046E0650056E066AB3
:10051800074E47EF03F0070E0764EAEF02F0075EA5
:100528000450096E0550046E056A074E47EF03F044
:10053800070E0764C8EF02F0075E0450096E046AEC
:10054800074E47EF03F0070E0764AFEF02F00AC04B
:1005580002F089EF03F0030E0764BAEF02F0075EBA
:1005680009380F0B096E074E47EF03F0D890093290
:10057800074E47EF03F0D8900932074E47EF03F0D4
:10058800D890093247EF03F0030E0764D9EF02F061
:10059800075E09380F0B096E0438F00B092604387A
:1005A8000F0B046E074E47EF03F0D8900432093260
:1005B800074E47EF03F0D89004320932074E47EF51
:1005C80003F0D8900432093247EF03F0030E0764B2
:1005D80001EF03F0075E09380F0B096E0438F00BC2
:1005E800092604380F0B046E0538F00B042605386D
:1005F8000F0B056E074E47EF03F0D8900532043213
:100608000932074E47EF03F0D89005320432093219
:10061800074E47EF03F0D89005320432093247EF0E
:1006280003F0030E076432EF03F0075E09380F0B7F
:10063800096E0438F00B092604380F0B046E0538D0
:10064800F00B042605380F0B056E0638F00B05264F
:1006580006380F0B066E074E47EF03F0D8900632A8
:10066800053204320932074E47EF03F0D8900632BC
:10067800053204320932074E47EF03F0D8900632AC
:10068800053204320932086A000E0EAE54EF03F048
:10069800091E041E051E061E092A0422052206221A
:1006A8000950082604500022055001220650022253
:1006B8000EBE6BEF03F0D8A07AEF03F002320132DE
:1006C80000320832033E7AEF03F084EF03F0D8B02B
:1006D8007FEF03F0000E081E001E011E021E082AEE
:1006E8000022012202220A7E7FEF03F0010E0C6E27
:1006F800B5DC8BEF03F0020E0C6EB0DC8BEF03F071
:10070800040E0C6E87DC8BEF03F0000E0C6E1200EB
:080718000B6A0B86FF0E1200B4
:100720000450000A12E10550000A0FE10650000AC9
:100730000CE10750000A09E1FF0E006EFF0E016E8A
:100740007F0E026EFF0E036EA7D0086A096A07507B
:10075000D8B43BEF04F00350D8B43FEF04F002509C
:1007600006180A6E028E068E0E6A02C008F001C0DC
:100770000CF000C00DF004500D5E0550D8A0053CF3
:100780000C5E0650D8A0063C085E086A0C6A0D6A2A
:10079000D8A0D2EF03F0D8900232013200320832F2
:1007A000010E0E6E0750035ED8A0DFEF03F07E0E41
:1007B0000E240326D8B044EF04F0E5EF03F07E0EDC
:1007C0000E240326D8A049EF04F0180E0B6E0D3648
:1007D0000C3608360036013602360E360450005EFE
:1007E0000550D8A0053C015E0650D8A0063C025E2C
:1007F00006340E120EA000EF04F00D800BEF04F093
:10080000045000260550D8B0053C01260650D8B04B
:10081000062802260D900B2EE7EF03F031EF04F0CF
:10082000D8900036013602360E360450005E055070
:10083000D8A0053C015E0650D8A0063C025E0634F6
:100840000E10010B0D26D8B00C2AD8B4082AD8A453
:1008500031EF04F008320C320D32032AD8B444EFE1
:1008600004F00AAE089E0850026E0C50016E0D5046
:10087000006E4CEF04F0010E4FDF4CEF04F0020E5F
:100880001AEC00F04CEF04F0040E0EEC00F04CEF0C
:0A08900004F0080E25EC00F0120041
:10089A00086A096A000E07620364D2EF04F0025084
:1008AA0006180A6E075003267E0ED8A063EF04F0DE
:1008BA00035ED8B0D7EF04F067EF04F0035ED8A068
:1008CA00DCEF04F0028E068E02C00EF001C00BF0BF
:1008DA0000C00DF000500402F4CF0CF001500502E4
:1008EA00F4CF00F0F3CF08F00402F3500C26F450D2
:1008FA000822000E00220D500502F3500C26F45077
:10090A000822000E002202500402F3500826F45076
:10091A00002202500502016A000E0122F35000264D
:10092A00F45001220D500602F3500826F45000221A
:10093A00026A000E012202220B500602F350002620
:10094A00F4500122000E02220E500602F350012634
:10095A00F450022202BEBAEF04F00836003601361D
:10096A0002360306D8B4DCEF04F0CDEF04F0D880E9
:10097A00800E08640030000E002201220222D8A054
:10098A00CDEF04F0023201320032034AD7EF04F00D
:10099A000AAE029E000EDFEF04F0010E1AEC00F020
:1009AA00DFEF04F0020E0EEC00F0DFEF04F0040EAD
:0609BA0025EC00F0120024
:1009C0000A6A0350D8A40A800750D8A40A820A50A1
:1009D000D8B443EF05F0030AD8B4FCEF04F00AB032
:1009E000F7EF04F006AE41EF05F03FEF05F002AE81
:1009F0003FEF05F041EF05F00250800B0A6E029EBA
:100A00000650800B069E0A18D8B40DEF05F00A5068
:100A1000D8B43FEF05F041EF05F00750035CD8B4C0
:100A200017EF05F0D8A033EF05F039EF05F00650C9
:100A3000025CD8B421EF05F0D8A033EF05F039EF10
:100A400005F00550015CD8B42BEF05F0D8A033EFCA
:100A500005F039EF05F00450005CD8B443EF05F021
:100A6000D8B039EF05F00A52D8B441EF05F03FEFA6
:100A700005F00A52D8B43FEF05F041EF05F0D880F9
:0E0A80001200D8901200D880D8841200120004
:100A8E007FC004F080C005F004C002F005C003F082
:100A9E00044A052A81C000F082C001F00001814B9A
:100AAE00822B00C0E9FF01C0EAFF02C0E1FF03C0D4
:100ABE00E2FFEECFE6FF02C0E9FF03C0EAFFEE520F
:0E0ACE0001E0E2D77FC000F080C001F012000E
:060ADC00067E0CDC120096
:100AE2001FC081F020C082F021C083F022C084F0B8
:100AF20000017F6B806B8051120802E17F518E08EA
:100B020009E336EC01F0005201E004D000017F4B12
:100B1200802BF1D70001120E805D02E18F0E7F5D06
:100B220003E37B0E006E25D0C580C5A021D01F50E7
:100B32002010211022101BE0815182118311841197
:100B42000FE12BC0E1FF2CC0E2FF050EE66E29C0CB
:100B520000F02AC001F02AEC01F0010E006E09D06B
:100B6200010E0001815F000E825B835B845BDDD737
:040B7200006A120003
:040B7600C584120020
:100B7A009E967FC0C9FF1FC080F020C081F021C0AF
:100B8A0082F022C083F0C7A422D01F502010211067
:100B9A0022101CE0000180518111821183110FE1A2
:100BAA002BC0E1FF2CC0E2FF040EE66E29C000F064
:100BBA002AC001F02AEC01F0010E006E3BD0010EB2
:100BCA000001805F000E815B825B835BDCD71FC004
:100BDA0080F020C081F021C082F022C083F09EB64E
:100BEA0022D01F502010211022101CE00001805139
:100BFA008111821183110FE12BC0E1FF2CC0E2FFAA
:100C0A00040EE66E29C000F02AC001F02AEC01F0B9
:100C1A00010E006E0FD0010E0001805F000E815B95
:100C2A00825B835BDCD7C5BC02D0006A03D0C58473
:060C3A00020E006E120024
:100C40006C0E0001656F020E666F000E676F000E7E
:100C5000686FE20E616F0A0E626F000E636F000E26
:100C6000646F800E696F0D0E6A6F000E6B6F000E61
:100C70006C6FD80E716F0D0E726F7F0E736F000E5A
:100C8000746F7A0E6D6F0B0E6E6F7F0E6F6F000EAE
:100C9000706F760E4D6E0B0E4E6E000E4F6E000E88
:100CA000506E939093928A908A9293809382C79E7B
:080CB000C79C380EC66E12004D
:100CB8000D6A086A0050D8B4000C04180A6E0ABEFF
:100CC8000D1E0B6A04AE02D0041E042A00AE02D028
:100CD800001E002A005004100A6E0ABE1FD00450DD
:100CE800085E003600340836045008260036060E22
:100CF8000C6E00340836045000B0085E00A00826C8
:100D080000360C2EF6D700A008260BB015D00DAE75
:100D1800000C001E002A081E082A000C04AE09D088
:100D280000BE04D00050086E006AF1D7006A002A9D
:100D3800000C001E0B2AD3D7082A0450085CD8A43C
:0E0D4800E6D7086A002A00AEE2D7FF0C1200C0
:100D56000050086E0150006E016A026A036A0B6A4F
:100D66000C6A960E036E0A6A00C001F008C000F015
:0A0D7600086A026A43EC01F0120063
:100D80001FC07FF020C080F021C081F022C082F01F
:100D9000C582C5A220D01F502010211022101AE0B9
:100DA00000017F518011811182110DE12BC0E1FF03
:100DB0002CC0E2FF060EE66E29C000F02AC001F04A
:100DC0002AEC01F008D0010E00017F5F000E805B6D
:080DD000815B825BDED712009B
:100DD8001FC081F020C082F021C083F022C084F0BF
:100DE8009E96C5869EB620D01F5020102110221036
:100DF8001AE0000181518211831184110DE12BC089
:100E0800E1FF2CC0E2FF030EE66E29C000F02AC005
:100E180001F02AEC01F008D0010E0001815F000EFC
:100E2800825B835B845BDED70001C9CF80F07F5192
:100E3800000A02E1C58A01D0C59A9E96C5881FC0DE
:100E480081F020C082F021C083F022C084F09EB6D9
:100E580020D01F502010211022101AE000018151CB
:100E68008211831184110DE12BC0E1FF2CC0E2FF38
:100E7800030EE66E29C000F02AC001F02AEC01F04A
:100E880008D0010E0001815F000E825B835B845BEA
:080E9800DED780C000F012005B
:100EA000320EC86ECDDE030E0B6E8A0E0C6E550E22
:100EB0000D6E0D2EFED70C2EFCD70B2EFAD7000090
:0C0EC00000000F0EC16EF19E816A12004E
:100ECC000900F5CFE6FF0006FBE10106F9E112008F
:100EDC00460E496E020E4A6E850E4B6E000E4C6E1F
:100EEC00FF0E516EFF0E526E000E536E000E546EBE
:100EFC00FF0E596EFF0E5A6E000E5B6E000E5C6E8E
:100F0C00FF0E556EFF0E566E000E576E000E586E8D
:100F1C00AC8A900EAB6E948E949C9EAA03D0AECFEE
:060F2C0000F0FBD71200EB
:100F32005F6A0001606B75C07BF076C07CF077C0A1
:100F42007DF078C07EF07E51FF0A08E17D51FF0AF4
:100F520005E17C51FF0A02E17B51FF0A0CE179C0F5
:100F62007FF07AC080F0170E816F000E826F8EDDE7
:100F7200030E006EEAD1010E5D6E7DAF0ED0800EC3
:100F82007D19006E00C07DF05D2A79C0E1FF7AC054
:100F9200E2FF2D0EE66E794B7A2B000E006E7E1963
:100FA20008E100507D1905E100507C1902E17B51F6
:100FB200000A0BE179C07FF07AC080F0150E816FD4
:100FC200000E826F63DD006AC0D17E51FF0A08E124
:100FD2007D51000A05E17C51000A02E17B51000AC1
:100FE2000CE179C07FF07AC080F01B0E816F000E99
:100FF200826F4CDD5DC000F0A8D1000E046E000EC1
:10100200056E000E066E7F0E076E7BC000F07CC080
:1010120001F07DC002F07EC003F0D1DC010ED8B039
:10102200000E006E00521BE07BC000F07CC001F09D
:101032007DC002F07EC003F0000E046E000E056E4D
:10104200200E066E820E076E27DC00C07BF001C008
:101052007CF002C07DF003C07EF06007CED7000EA8
:10106200046E000E056E200E066E820E076E7BC0A9
:1010720000F07CC001F07DC002F07EC003F09FDC76
:10108200000ED8B0010E006E00521CE07BC000F0D2
:101092007CC001F07DC002F07EC003F0CD0E046E74
:1010A200CC0E056E4C0E066E7B0E076E4DEC04F0F8
:1010B20000C07BF001C07CF002C07DF003C07EF076
:1010C200602BCDD7FF0E7B15086EFF0E7C15096EC7
:1010D2007F0E7D150A6E000E7E150B6E08C004F0A1
:1010E20009C005F00AC006F00BC007F004360490F0
:1010F200053606360736000E7B15006E000E7C158F
:10110200016E000E7D15026EFF0E7E15036E00C08D
:101112007BF001C07CF002C07DF003C07EF0045081
:101122007B11006E05507C11016E06507D11026E1E
:1011320007507E11036E00C07BF001C07CF002C03C
:101142007DF003C07EF07F0E7E5D006E00C05EF01B
:10115200010E7E6F00C004F07BC000F07CC001F085
:101162007DC002F07EC003F0045007E0003600901C
:10117200013602360336FF0FF8D700C07BF001C0FC
:101182007CF002C07DF003C07EF079C0E1FF7AC03E
:10119200E2FF7E51300FE66E794B7A2B800E60199A
:1011A200006E800E010A005C08E3800E060A006EE3
:1011B200800E6019005C01E30AD079C0E1FF7AC0B9
:1011C200E2FF2E0EE66E794B7A2B010E5F6E060E53
:1011D2005E6E5E50000A54E07E6B7BC000F07CC005
:1011E20001F07DC002F07EC003F0003600900136AF
:1011F20002360336003600900136023603367B5142
:1012020000267C5101227D5102227E51032200C020
:101212007BF001C07CF002C07DF003C07EF07BC099
:1012220000F07CC001F07DC002F07EC003F0003609
:10123200009001360236033600C07BF001C07CF01C
:1012420002C07DF003C07EF079C0E1FF7AC0E2FF08
:101252007E51300FE66E794B7A2B5F50000A0EE119
:1012620060076051000A0AE179C0E1FF7AC0E2FF3B
:101272002E0EE66E794B7A2B010E5F6E5E06A9D7B3
:10128200FF0E7925E96EFF0E7A21EA6EEE50300AE2
:1012920005E1010E795F000E7A5BF2D7FF0E792528
:1012A200E96EFF0E7A21EA6EEE502E0A04E1010E7B
:1012B200795F000E7A5B6051000A41E079C0E1FF7C
:1012C2007AC0E2FF650EE66E794B7A2B800E6019CA
:1012D200006E800E000A005C0BE279C0E1FF7AC06A
:1012E200E2FF2D0EE66E794B7A2B60510008606F9B
:1012F20060C05EF0800E090A006E800E6019005C0C
:101302000EE20A0E046E5EC000F0D5DC79C0E1FF89
:101312007AC0E2FF0050300FE66E794B7A2B0A0E4C
:10132200046E5EC000F0C7DC08C000F079C0E1FFC7
:101332007AC0E2FF0050300FE66E794B7A2B79C00B
:0C134200E1FF7AC0E2FFE66A006A1200D8
:10134E000001606B5DC0E9FF5EC0EAFFEECF5FF0AB
:10135E005F50000A0FE05FC085F023EC01F0000142
:10136E00602B60515D24E96E000E5E20EA6EEECFBA
:06137E005FF0EED7120043
:1013840071EC05F0680E00017F6FBDEC05F0030EF3
:1013940000017F6FBDEC05F0720E00017F6FBDECA4
:1013A40005F0BBEC05F0030E0B6E080E0C6E770E09
:1013B4000D6E0D2EFED70C2EFCD70B2EFAD771EC2A
:1013C40005F0680E00017F6FBDEC05F0730E00019F
:1013D4007F6FBDEC05F0D2DC690E00017F6FBDECC0
:1013E40005F0010E00017F6FF5DC00C05EF05D6A60
:1013F40000017F6BEFDC00505D12000E5E12BBEC4F
:1014040005F05DC000F05EC001F001320032019EC3
:1014140001320032019E00C05DF001C05EF099DC33
:10142400000E046E000E056E000E066E840E076E2E
:1014340090EC03F0000E046E000E056E480E066E6E
:0A144400840E076E6EEC05F0120036
:10144E0071EC05F0800E00017F6FBDEC05F0030E10
:10145E0000017F6FBDEC05F0110E00017F6FBDEC3A
:10146E0005F0BBEC05F0030E0B6E080E0C6E770E3E
:10147E000D6E0D2EFED70C2EFCD70B2EFAD771EC5F
:10148E0005F0800E00017F6FBDEC05F0010E00012E
:10149E007F6FBDEC05F06DDC810E00017F6FBDEC42
:1014AE0005F0010E00017F6F90DC00C05EF05D6AFA
:1014BE0000017F6B8ADC00505D12000E5E12BBECE9
:1014CE0005F05DC000F05EC001F001320032019EF9
:1014DE0001320032019E00C05DF001C05EF034DCCE
:1014EE00000E046E000E056E000E066E840E076E64
:1014FE0090EC03F0000E046E000E056E480E066EA4
:0A150E00840E076E6EEC05F012006B
:10151800F1EC0AF0B886020EB06E080EAF6EAC841D
:10152800D9DCBADC90DF00C041F001C042F002C053
:1015380043F003C044F000C075F001C076F002C06B
:1015480077F003C078F02D0E0001796F000E7A6FE6
:10155800ECDC2D0E5D6E000E5E6EF5DE230E5D6E0C
:10156800000E5E6EF0DE1A0E0B6E5E0E0C6E6E0EC8
:101578000D6E0D2EFED70C2EFCD70B2EFAD70000C1
:10158800FDDE00C045F001C046F002C047F003C0D0
:1015980048F000C075F001C076F002C077F003C0D3
:1015A80078F02D0E0001796F000E7A6FBEDC2D0EDB
:1015B8005D6E000E5E6EC7DE260E5D6E000E5E6E00
:0615C800C2DEB0D7FFD720
:1015E20010EE15F0140E006E010E016ECE0EF66EA8
:0E15F200150EF76E000EF86E66EC07F0120094
:0215CE003000EB
:0415D0004E614E001A
:0415D400494E460036
:0415D800000000000F
:0315DC000D0A00F5
:0315DF000D0A00F2
:020000040030CA
:0E000000000C1F1EFF8381FF0FC00FE00F409A
:00000001FF
