:1000000073EF0BF00000000000EF00F000000000B4
:0A0010000000000000000000F3D71C
:0E001C00026A016A006A086A036A000E120096
:10002A000B820BAE1FEF00F00368026801680068DC
:08003A000A360232FF0E12002B
:080042000AAE029E000E12003E
:10004A000B840BAE30EF00F0010E036E026A016AF8
:0A005A00006A0A360232FF0E12009F
:0E006400ACB202D00000FCD7CBC0ADFF120042
:100072000CB07BEF00F00CA221EF01F00E6A000E33
:10008200026492EF00F0F00E0214D8A45DEF00F0CB
:10009200023A01380F0B02260138F00B016E0038CC
:1000A2000F0B01260038F00B006E08380F0B0026EC
:1000B2000838F00B086E0E84D89002BE76EF00F07E
:1000C20008360036013602360E2A02BE76EF00F0FE
:1000D20008360036013602360E2A02BE76EF00F0EE
:1000E20008360036013602360E2A0E50036417EF28
:1000F20001F0035E0BBC08AE1CEF01F0D880800E4D
:1001020008640030000E002201220222D8A01CEF57
:1001120001F0023201320032034A21EF01F01CEFFA
:1001220001F001C002F000C001F008C000F0086A4E
:10013200000E0E860264C9EF00F0F00E0214D8A47D
:10014200B1EF00F0023A01380F0B02260138F00B32
:10015200016E00380F0B01260038F00B006E0E8482
:10016200D89002BE76EF00F00036013602360E2A33
:1001720002BE76EF00F00036013602360E2A02BECB
:1001820076EF00F00036013602360E2A76EF00F0E6
:1001920001C002F000C001F0006A000E0E960E8847
:1001A2000264F6EF00F0F00E0214D8A4E1EF00F0C2
:1001B200023A01380F0B02260138F00B016E0E8451
:1001C200D89002BE76EF00F0013602360E2A02BE49
:1001D20076EF00F0013602360E2A02BE76EF00F00C
:1001E200013602360E2A76EF00F001C002F0016AF3
:1001F200000E0E86026426EF01F0F00E0214D8A45F
:1002020005EF01F0023A0E84D89002BE76EF00F0BC
:1002120002360E2A02BE76EF00F002360E2A02BE27
:1002220076EF00F002360E2A76EF00F0010E0C6E29
:100232000BDF29EF01F0020E0C6E02DF29EF01F055
:10024200040E0C6EF1DE29EF01F0080E0C6EE5DEF5
:02025200120098
:10025400C7B409D01F0EC514016E0150000A03E192
:0A026400010E006E01D0006A1200C6
:08026E000B6A0B86FF0E120063
:100276000C6A0E6A0250D8A454EF01F001C002F0D5
:1002860000C001F0006A0E860250D8A454EF01F0B7
:1002960001C002F0016A0E960E880250D8B466EFCD
:1002A60001F00E50035ED8A4D8A06BEF01F0D890F1
:1002B60002BE70EF01F0003601360236032E5BEF08
:1002C60001F06BEF01F0010E0C6EA5DE73EF01F08D
:1002D600020E0C6EB7DE73EF01F0040E0C6EAEDE8E
:0202E600120004
:1002E800F250026EF29E0500FF6A0150FE6E005049
:0802F800FD6E02BEF28E120041
:10030000025006180E6E086A096A0B6A03500764E9
:1003100073EF02F006500A6E068E028E03500B6ECB
:100320000750036E000E0B64C3EF01F00B50075E25
:10033000D8B464EF02F0070E076432EF02F0075EF4
:1003400000C008F001C000F002C001F0026A074ED0
:1003500064EF02F0076407EF02F0075E00C008F0E8
:1003600001C000F0016A074E64EF02F00764E5EF98
:1003700001F0075E00C008F0006A074E64EF02F06B
:100380000764CCEF01F00AC002F005C001F004C020
:1003900000F0086A8DEF03F0030E0764D7EF01F059
:1003A000075E08380F0B086E074E64EF02F0D89016
:1003B0000832074E64EF02F0D8900832074E64EF1F
:1003C00002F0D890083264EF02F0030E0764F6EFF3
:1003D00001F0075E08380F0B086E0038F00B082696
:1003E00000380F0B006E074E64EF02F0D890003219
:1003F0000832074E64EF02F0D89000320832074E00
:1004000064EF02F0D8900032083264EF02F0030E7D
:1004100007641EEF02F0075E08380F0B086E003805
:10042000F00B082600380F0B006E0138F00B002689
:1004300001380F0B016E074E64EF02F0D8900132C5
:1004400000320832074E64EF02F0D89001320032D9
:100450000832074E64EF02F0D890013200320832C1
:1004600064EF02F0030E07644FEF02F0075E0838F6
:100470000F0B086E0038F00B082600380F0B006ECB
:100480000138F00B002601380F0B016E0238F00B1B
:10049000012602380F0B026E074E64EF02F0D8906F
:1004A0000232013200320832074E64EF02F0D89077
:1004B0000232013200320832074E64EF02F0D89067
:1004C0000232013200320832096A000E0EAE58EFD5
:1004D00003F0081E001E011E021E082A002201222F
:1004E000022258EF03F00750D8A479EF02F08DEF05
:1004F00003F0096A02C00AF0028E068E0750035C00
:10050000076ED8B44BEF03F0070E076419EF03F042
:10051000075E0450096E0550046E0650056E066AAB
:10052000074E4BEF03F0070E0764EEEF02F0075E95
:100530000450096E0550046E056A074E4BEF03F038
:10054000070E0764CCEF02F0075E0450096E046AE0
:10055000074E4BEF03F0070E0764B3EF02F00AC03B
:1005600002F08DEF03F0030E0764BEEF02F0075EAA
:1005700009380F0B096E074E4BEF03F0D890093284
:10058000074E4BEF03F0D8900932074E4BEF03F0C4
:10059000D89009324BEF03F0030E0764DDEF02F051
:1005A000075E09380F0B096E0438F00B0926043872
:1005B0000F0B046E074E4BEF03F0D8900432093254
:1005C000074E4BEF03F0D89004320932074E4BEF41
:1005D00003F0D890043209324BEF03F0030E0764A6
:1005E00005EF03F0075E09380F0B096E0438F00BB6
:1005F000092604380F0B046E0538F00B0426053865
:100600000F0B056E074E4BEF03F0D8900532043206
:100610000932074E4BEF03F0D8900532043209320D
:10062000074E4BEF03F0D8900532043209324BEFFE
:1006300003F0030E076436EF03F0075E09380F0B73
:10064000096E0438F00B092604380F0B046E0538C8
:10065000F00B042605380F0B056E0638F00B052647
:1006600006380F0B066E074E4BEF03F0D89006329C
:10067000053204320932074E4BEF03F0D8900632B0
:10068000053204320932074E4BEF03F0D8900632A0
:10069000053204320932086A000E0EAE58EF03F03C
:1006A000091E041E051E061E092A04220522062212
:1006B000095008260450002205500122065002224B
:1006C0000EBE6FEF03F0D8A07EEF03F002320132CE
:1006D00000320832033E7EEF03F088EF03F0D8B01B
:1006E00083EF03F0000E081E001E011E021E082AE2
:1006F0000022012202220A7E83EF03F0010E0C6E1B
:10070000B8DC8FEF03F0020E0C6EB3DC8FEF03F05A
:10071000040E0C6E8ADC8FEF03F0000E0C6E1200DC
:10072000086A096A100E0C6E013408360936045046
:10073000085E0550D8A0053C095ED8B007D004502B
:1007400008260550D8B0053C0926D8900036013659
:060750000C2EEAD7120096
:10075600086A096A000E0762036430EF04F002506B
:1007660006180A6E075003267E0ED8A0C1EF03F0C6
:10077600035ED8B035EF04F0C5EF03F0035ED8A0F2
:100786003AEF04F0028E068E02C00EF001C00BF0A6
:1007960000C00DF000500402F4CF0CF00150050229
:1007A600F4CF00F0F3CF08F00402F3500C26F45017
:1007B6000822000E00220D500502F3500C26F450BC
:1007C6000822000E002202500402F3500826F450BC
:1007D600002202500502016A000E0122F350002693
:1007E600F45001220D500602F3500826F450002260
:1007F600026A000E012202220B500602F350002666
:10080600F4500122000E02220E500602F350012679
:10081600F450022202BE18EF04F008360036013604
:1008260002360306D8B43AEF04F02BEF04F0D88072
:10083600800E08640030000E002201220222D8A099
:100846002BEF04F0023201320032034A35EF04F096
:100856000AAE029E000E3DEF04F0010E0EEC00F013
:100866003DEF04F0020E15EC00F03DEF04F0040E2F
:0608760025EC00F0120069
:10087C000A6A0350D8A40A800750D8A40A820A50E6
:10088C00D8B4A1EF04F0030AD8B45AEF04F00AB0BC
:10089C0055EF04F006AE9FEF04F09DEF04F002AEAE
:1008AC009DEF04F09FEF04F00250800B0A6E029E45
:1008BC000650800B069E0A18D8B46BEF04F00A5051
:1008CC00D8B49DEF04F09FEF04F00750035CD8B44C
:1008DC0075EF04F0D8A091EF04F097EF04F00650F8
:1008EC00025CD8B47FEF04F0D8A091EF04F097EF3E
:1008FC0004F00550015CD8B489EF04F0D8A091EF56
:10090C0004F097EF04F00450005CD8B4A1EF04F0AD
:10091C00D8B097EF04F00A52D8B49FEF04F09DEFD3
:10092C0004F00A52D8B49DEF04F09FEF04F0D88085
:0E093C001200D8901200D880D8841200120049
:10094A000D6A086A0050D8B4000C04180A6E0ABE70
:10095A000D1E0B6A04AE02D0041E042A00AE02D099
:10096A00001E002A005004100A6E0ABE1FD004504E
:10097A00085E003600340836045008260036060E93
:10098A000C6E00340836045000B0085E00A0082639
:10099A0000360C2EF6D700A008260BB015D00DAEE7
:1009AA00000C001E002A081E082A000C04AE09D0FA
:1009BA0000BE04D00050086E006AF1D7006A002A0F
:1009CA00000C001E0B2AD3D7082A0450085CD8A4AE
:0E09DA00E6D7086A002A00AEE2D7FF0C120032
:0609E800067E8ADC12000D
:1009EE000450000A12E10550000A0FE10650000AF9
:1009FE000CE10750000A09E1FF0E006EFF0E016EBA
:100A0E007F0E026EFF0E036EA8D0086A096A0750A9
:100A1E00D8B4A2EF05F00350D8B4A7EF05F00250FA
:100A2E0006180A6E028E068E0E6A02C008F001C00B
:100A3E000CF000C00DF004500D5E0550D8A0053C22
:100A4E000C5E0650D8A0063C085E086A0C6A0D6A59
:100A5E00D8A039EF05F0D8900232013200320832B8
:100A6E00010E0E6E0750035ED8A046EF05F07E0E07
:100A7E000E240326D8B0ACEF05F04CEF05F07E0E39
:100A8E000E240326D8A0B1EF05F0180E0B6E0D360E
:100A9E000C3608360036013602360E360450005E2D
:100AAE000550D8A0053C015E0650D8A0063C025E5B
:100ABE0006340E120EA067EF05F00D8072EF05F0F2
:100ACE00045000260550D8B0053C01260650D8B07B
:100ADE00062802260D900B2E4EEF05F098EF05F02E
:100AEE00D8900036013602360E360450005E0550A0
:100AFE00D8A0053C015E0650D8A0063C025E063426
:100B0E000E10010B0D26D8B00C2AD8B4082AD8A482
:100B1E0098EF05F008320C320D32032AD8B4ACEF40
:100B2E0005F00AAE089E0850026E0C50016E0D5074
:100B3E00006EB4EF05F0010E37EC01F0B4EF05F0E6
:100B4E00020E0EEC00F0B4EF05F0040E15EC00F002
:0C0B5E00B4EF05F0080E25EC00F01200CA
:100B6A000001C86B050EC85D0AE2C851C625E16ED0
:100B7A00000EC721E26E200EE66EC82BF3D7C851CD
:100B8A00C625E16E000EC721E26EE66AC807C851A3
:100B9A00C625C96F000EC721CA6F0A0E046E000E61
:100BAA00056EC4C000F0C5C001F0B5DD08C000F094
:100BBA0009C001F0300E0026C9C0E1FFCAC0E2FF39
:100BCA0000C0E6FF0A0E046E000E056EC4C000F0F7
:100BDA00C5C001F0A0DD00C0C4F001C0C5F0000E20
:100BEA00011802E1000E001801E102D0C807CFD7B0
:020BFA001200E7
:040BFC00C58412009A
:100C000068C0C4F069C0C5F06AC0C6F06BC0C7F068
:100C1000C582C5A220D00001685169116A116B110B
:100C200019E0C451C511C611C7110DE1B4C0E1FFEF
:100C3000B5C0E2FF060EE66EB2C000F0B3C001F030
:100C400074EC01F008D0010E0001C45F000EC55B1A
:080C5000C65BC75BDED7120092
:100C5800540E0001AA6F020EAB6F000EAC6F000EAF
:100C6800AD6F960EAE6F0D0EAF6F000EB06F000E2B
:100C7800B16F000E926F0C0E936F000E946F000E02
:100C8800956F780E966F0E0E976FC40E986F000EC4
:100C9800996FD00E8A6F0C0E8B6FC40E8C6F000E7E
:100CA8008D6FFC0E8E6F0B0E8F6F000E906F000E07
:100CB800916F939093928A908A9293809382C79E21
:080CC800C79C380EC66E120035
:100CD0009E96C4C0C9FF68C0C5F069C0C6F06AC0AE
:100CE000C7F06BC0C8F0C7A422D0000168516911D9
:100CF0006A116B111BE0C551C611C711C8110FE174
:100D0000B4C0E1FFB5C0E2FF040EE66EB2C000F071
:100D1000B3C001F074EC01F0010E006E3BD0010E87
:100D20000001C55F000EC65BC75BC85BDCD768C04F
:100D3000C5F069C0C6F06AC0C7F06BC0C8F09EB607
:100D400022D00001685169116A116B111BE0C55175
:100D5000C611C711C8110FE1B4C0E1FFB5C0E2FF71
:100D6000040EE66EB2C000F0B3C001F074EC01F006
:100D7000010E006E0FD0010E0001C55F000EC65BB4
:100D8000C75BC85BDCD7C5BC02D0006A03D0C58492
:060D9000020E006E1200CD
:100D960068C0C6F069C0C7F06AC0C8F06BC0C9F0C9
:100DA6000001C46BC56BC551120802E1C4518E081F
:100DB60009E32AEC01F0005201E004D00001C44B23
:100DC600C52BF1D70001120EC55D02E18F0EC45D81
:100DD60003E37B0E006E25D0C580C5A021D06851E7
:100DE60069116A116B111BE0C651C711C811C911EF
:100DF6000FE1B4C0E1FFB5C0E2FF050EE66EB2C07A
:100E060000F0B3C001F074EC01F0010E006E09D0E1
:100E1600010E0001C65F000EC75BC85BC95BDDD76C
:040E2600006A12004C
:100E2A00C4C004F0C5C005F004C002F005C003F058
:100E3A00044A052AC6C000F0C7C001F00001C64B2B
:100E4A00C72B00C0E9FF01C0EAFF02C0E1FF03C0EF
:100E5A00E2FFEECFE6FF02C0E9FF03C0EAFFEE526F
:0E0E6A0001E0E2D7C4C000F0C5C001F01200E4
:100E780068C0C6F069C0C7F06AC0C8F06BC0C9F0E6
:100E88009E96C5869EB620D00001685169116A11E8
:100E98006B1119E0C651C711C811C9110DE1B4C0D1
:100EA800E1FFB5C0E2FF030EE66EB2C000F0B3C0CA
:100EB80001F074EC01F008D0010E0001C65F000ECD
:100EC800C75BC85BC95BDED70001C9CFC5F0C45199
:100ED800000A02E1C58A01D0C59A9E96C58868C0F5
:100EE800C6F069C0C7F06AC0C8F06BC0C9F09EB64A
:100EF8001FD0685169116A116B1119E0C651C711E9
:100F0800C811C9110DE1B4C0E1FFB5C0E2FF030E7D
:100F1800E66EB2C000F0B3C001F074EC01F008D086
:100F2800010E0001C65F000EC75BC85BC95BDFD757
:060F3800C5C000F012002C
:100F3E000050086E0150006E016A026A036A0B6A65
:100F4E000C6A960E036E0A6A00C001F008C000F02B
:0A0F5E00086A026A3BEC01F0120081
:100F6800320EC86E75DE030E0B6E8A0E0C6E550EB1
:100F78000D6E0D2EFED70C2EFCD70B2EFAD70000C7
:0C0F880000000F0EC16EF19E816A120085
:100F94000900F5CFE6FF0006FBE10106F9E11200C6
:100FA4000001B96BB6C0E9FFB7C0EAFFEECFB8F0F5
:100FB400B851000A0FE0B8C0CBF032EC00F00001E9
:100FC400B92BB951B625E96E000EB721EA6EEECF02
:060FD400B8F0EED7120098
:100FDA00640E0001A26F000EA36FCB0EA46F000E69
:100FEA00A56FFF0EA66FFF0EA76F000EA86F000E6B
:100FFA00A96FFF0E9A6FFF0E9B6F000E9C6F000E7B
:10100A009D6FFF0E9E6FFF0E9F6F000EA06F000E6A
:10101A00A16FAC8A900EAB6E948E949C9EAA03D05C
:08102A00AECF00F0FBD712006D
:10103200B1DE800E0001C46F4ADE030E0001C46FF0
:1010420046DE110E0001C46F42DED7DD030E0B6EC9
:10105200080E0C6E770E0D6E0D2EFED70C2EFCD7E1
:101062000B2EFAD797DE800E0001C46F30DE010E20
:101072000001C46F2CDEC3DD810E0001C46F27DEC8
:10108200010E0001C46FF7DE00C0B7F00001B66BBD
:10109200C46BF1DE00500001B613000EB713ADDDD4
:1010A200B6C000F0B7C001F001320032019E013239
:1010B2000032019E00C0B6F001C0B7F03FDF000E63
:1010C200046E000E056E000E066E840E076E8EDC38
:1010D200000E046E000E056E480E066E840E076E3C
:0410E20082DC12009A
:1010E6000001BC6BBD6BB6C0BEF0B7C0BFF0800ED2
:1010F600B719006E800E005C02E1000EB65D0BE2D1
:10110600010EBC6F000EBD6FB6510008BE6FB7C0B2
:10111600BFF0000EBF57BEC0C4F0BFC0C5F0B8C018
:10112600C6F0B9C0C7F01EDD060EBA6F000EBB6F63
:10113600000E006EBB51005C02E1BA51000819E2D4
:10114600BA51B825E16EBB51B921E26E010EBA5D06
:10115600006E000EBB59016E0050B825E96E0150B5
:10116600B921EA6EEECFE6FF010EBA5F000EBB5B59
:10117600DFD7B8C0E1FFB9C0E2FF200EE66EBC5172
:10118600BD111AE0BA6BBB6BBA51B825E96EBB51FB
:10119600B921EA6EEE50200A03E1BA4BBB2BF4D715
:1011A600010EBA5F000EBB5BBA51B825E16EBB51AA
:0A11B600B921E26E2D0EE66E120064
:1011C000EADD800E0001C46F83DD030E0001C46FF1
:1011D0007FDD010E0001C46F7BDD10DD030E0B6EA1
:1011E000080E0C6E770E0D6E0D2EFED70C2EFCD752
:1011F0000B2EFAD7D0DD800E0001C46F69DD010E21
:101200000001C46F65DDFCDC810E0001C46F60DD90
:10121000010E0001C46F30DE00C0BBF00001BA6BEC
:10122000C46B2ADE00500001BA13000EBB13E6DCCB
:10123000BAC001F0BBC002F002320132029E02329B
:101240000132029E02320132029E02320132029EBD
:1012500001C0BAF002C0BBF00250070802E1015021
:10126000C00809E2000EB66F000EB76F780EB86FB7
:10127000890EB96F1CD0010EBB5D02E1800EBA5D14
:1012800009E2000EB66F000EB76F400EB86F870E02
:10129000B96F0DD0BAC000F0BBC001F050DE00C085
:1012A000B6F001C0B7F002C0B8F003C0B9F0B6C0E4
:1012B00000F0B7C001F0B8C002F0B9C003F01200EE
:1012C0000001C26BC36BB6C0BEF0B7C0BFF0B8C000
:1012D000C0F0B9C0C1F0C151FF0A08E1C051FF0A16
:1012E00005E1BF51FF0A02E1BE51FF0A0CE1BAC09D
:1012F000C4F0BBC0C5F0640EC66F000EC76F95DDAD
:10130000030E006EEFD1010EBC6FC0AF0ED0800E89
:10131000C019006E00C0C0F0BC2BBAC0E1FFBBC05A
:10132000E2FF2D0EE66EBA4BBB2B000E006EC1190C
:1013300008E10050C01905E10050BF1902E1BE519B
:10134000000A0BE1BAC0C4F0BBC0C5F05B0EC66FAB
:10135000000EC76F6ADD006AC5D1C151FF0A08E1FE
:10136000C051000A05E1BF51000A02E1BE51000A66
:101370000CE1BAC0C4F0BBC0C5F05D0EC66F000E74
:10138000C76F53DDBCC000F0ADD1000E046E000E7F
:10139000056E000E066E7F0E076EBEC000F0BFC069
:1013A00001F0C0C002F0C1C003F03EEC04F0010E39
:1013B000D8B0000E006E00521CE0BEC000F0BFC0EE
:1013C00001F0C0C002F0C1C003F0000E046E000EB8
:1013D000056E200E066E820E076EABEC03F000C0A9
:1013E000BEF001C0BFF002C0C0F003C0C1F0C3072F
:1013F000CCD7000E046E000E056E200E066E820E17
:10140000076EBEC000F0BFC001F0C0C002F0C1C096
:1014100003F03EEC04F0000ED8B0010E006E005256
:101420001CE0BEC000F0BFC001F0C0C002F0C1C0EF
:1014300003F0CD0E046ECC0E056E4C0E066E7B0EC8
:10144000076EABEC03F000C0BEF001C0BFF002C0FD
:10145000C0F003C0C1F0C32BCCD7FF0EBE15086E81
:10146000FF0EBF15096E7F0EC0150A6E000EC11566
:101470000B6E08C004F009C005F00AC006F00BC0EE
:1014800007F004360490053606360736000EBE1502
:10149000006E000EBF15016E000EC015026EFF0E2D
:1014A000C115036E00C0BEF001C0BFF002C0C0F0A5
:1014B00003C0C1F00450BE11006E0550BF11016E93
:1014C0000650C011026E0750C111036E00C0BEF07D
:1014D00001C0BFF002C0C0F003C0C1F07F0EC15D0B
:1014E000006E00C0BDF0010EC16F00C004F0BEC0B0
:1014F00000F0BFC001F0C0C002F0C1C003F0045052
:1015000007E000360090013602360336FF0FF8D7A9
:1015100000C0BEF001C0BFF002C0C0F003C0C1F007
:10152000BAC0E1FFBBC0E2FFC151300FE66EBA4B5B
:10153000BB2B800EC319006E800E010A005C08E30D
:10154000800E060A006E800EC319005C01E30AD00B
:10155000BAC0E1FFBBC0E2FF2E0EE66EBA4BBB2B5A
:10156000010EC26F060EBD6FBD51000A54E0C16B83
:10157000BEC000F0BFC001F0C0C002F0C1C003F0A7
:1015800000360090013602360336003600900136F0
:1015900002360336BE510026BF510122C05102223D
:1015A000C151032200C0BEF001C0BFF002C0C0F0B4
:1015B00003C0C1F0BEC000F0BFC001F0C0C002F067
:1015C000C1C003F00036009001360236033600C079
:1015D000BEF001C0BFF002C0C0F003C0C1F0BAC08D
:1015E000E1FFBBC0E2FFC151300FE66EBA4BBB2B2F
:1015F000C251000A0EE1C307C351000A0AE1BAC092
:10160000E1FFBBC0E2FF2E0EE66EBA4BBB2B010E14
:10161000C26FBD07A9D7FF0EBA25E96EFF0EBB2129
:10162000EA6EEE50300A05E1010EBA5F000EBB5BB8
:10163000F2D7FF0EBA25E96EFF0EBB21EA6EEE501F
:101640002E0A04E1010EBA5F000EBB5BC351000A13
:1016500043E0BAC0E1FFBBC0E2FF650EE66EBA4BE5
:10166000BB2B800EC319006E800E000A005C0BE2DB
:10167000BAC0E1FFBBC0E2FF2D0EE66EBA4BBB2B3A
:10168000C3510008C36FC3C0BDF0800E090A006ECD
:10169000800EC319005C0FE20A0E046EBDC000F09C
:1016A000A5EC04F0BAC0E1FFBBC0E2FF0050300F70
:1016B000E66EBA4BBB2B0A0E046EBDC000F0A5EC63
:1016C00004F008C000F0BAC0E1FFBBC0E2FF005068
:1016D000300FE66EBA4BBB2BBAC0E1FFBBC0E2FFD6
:0616E000E66A006A120038
:1016E600D8EC0CF0B886020EB06E080EAF6EAC8465
:1016F60071DC400EB66F000EB76F51DC480EB66F48
:10170600000EB76F4CDC3D0EB66F000EB76F47DCB0
:10171600320EC86E2CEC06F024DC4FDD00C072F0F1
:1017260001C073F002C074F003C075F04E0EB66FC0
:10173600000EB76F34DC580EB66F000EB76F2FDC95
:1017460072C0B6F073C0B7F074C0B8F075C0B9F027
:10175600760EBA6F000EBB6FB0DD760EB66F000E5A
:10176600B76F1DDC4B0EB66F000EB76F18DC180E88
:10177600B66F000EB76F13DC240EB66F000EB76F90
:101786000EDC54DC00C06CF001C06DF002C06EF0DF
:1017960003C06FF000C0B6F001C0B7F002C0B8F0E9
:1017A60003C0B9F0760E0001BA6F000EBB6F85DD7F
:1017B600760EB66F000EB76FD2EC07F0150EB66F49
:1017C600000EB76FD2EC07F02A0EB66F000EB76F99
:1017D600D2EC07F01A0E0B6E5E0E0C6E6E0E0D6ED0
:1017E6000D2EFED70C2EFCD70B2EFAD70000CBEC15
:1017F60006F0D00E0001C46F68EC06F06B0E000117
:10180600C46F68EC06F00001C46B68EC06F0FEECF1
:1018160005F0030E0B6E8A0E0C6E550E0D6E0D2E18
:10182600FED70C2EFCD70B2EFAD700000000CBEC0F
:1018360006F0D00E0001C46F68EC06F01C0E000125
:10184600C46F68EC06F0180E0001C46F68EC06F071
:10185600FEEC05F0030E0B6E8A0E0C6E550E0D6E29
:101866000D2EFED70C2EFCD70B2EFAD7000000004B
:10187600CBEC06F0D00E0001C46F68EC06F0750ED6
:101886000001C46F68EC06F0680E0001C46F68ECD6
:1018960006F0FEEC05F0030E0B6E8A0E0C6E550E6E
:1018A6000D6E0D2EFED70C2EFCD70B2EFAD7000090
:1018B6000000CBEC06F0D00E0001C46F68EC06F019
:1018C600420E0001C46F68EC06F000EC06F0D10E83
:1018D6000001C46F68EC06F02D0E0001B66F000E15
:1018E600B76FD2EC07F0C46B3CEC07F000C070F0A9
:1018F600000E0001716FFEEC05F0030E0B6E8A0EF2
:101906000C6E550E0D6E0D2EFED70C2EFCD70B2E23
:10191600FAD70000000070C0B6F071C0B7F0760EBE
:10192600B86F000EB96F73EC08F0760EB66F000E46
:10193600B76FD2EC07F0270EB66F000EB76FD2EC7A
:1019460007F0610EB66F000EB76FD2EC07F0E5D662
:02195600FFD7B9
:1019B00010EE15F0570E006E010E016E580EF66E09
:0E19C000190EF76E000EF86ECAEC07F012005A
:031958000D0A0075
:0C195B0074656D706572747572653A00F9
:031967000D0A0066
:03196A000D0A0063
:03196D000D0A0060
:1019700053746172742072656164696E67313A00F4
:031980000D0A004D
:08198300497420676F657300D1
:03198B000D0A0042
:03198E000D0A003F
:0A19910068756D69646974793A00A5
:03199B000D0A0032
:02199E00300017
:0419A000494E460066
:0319A4000D0A0029
:0419A7004E614E003F
:0419AB000000000038
:020000040030CA
:0E000000008C1F1EFF8381FF0FC00FE00F401A
:00000001FF
