:10000000C5EF0AF00000000000EF00F00000000063
:0A0010000000000000000000F3D71C
:0E001C00026A016A006A086A036A000E120096
:10002A000B840BAE20EF00F0010E036E026A016A28
:0A003A00006A0A360232FF0E1200BF
:100044000B820BAE2CEF00F00368026801680068B5
:080054000A360232FF0E120011
:08005C000AAE029E000E120024
:100064000CB074EF00F00CA21AEF01F00E6A000E4F
:1000740002648BEF00F0F00E0214D8A456EF00F0E7
:10008400023A01380F0B02260138F00B016E0038DA
:100094000F0B01260038F00B006E08380F0B0026FA
:1000A4000838F00B086E0E84D89002BE6FEF00F093
:1000B40008360036013602360E2A02BE6FEF00F013
:1000C40008360036013602360E2A02BE6FEF00F003
:1000D40008360036013602360E2A0E50036410EF3D
:1000E40001F0035E0BBC08AE15EF01F0D880800E62
:1000F40008640030000E002201220222D8A015EF6D
:1001040001F0023201320032034A1AEF01F015EF16
:1001140001F001C002F000C001F008C000F0086A5C
:10012400000E0E860264C2EF00F0F00E0214D8A492
:10013400AAEF00F0023A01380F0B02260138F00B47
:10014400016E00380F0B01260038F00B006E0E8490
:10015400D89002BE6FEF00F00036013602360E2A48
:1001640002BE6FEF00F00036013602360E2A02BEE0
:100174006FEF00F00036013602360E2A6FEF00F002
:1001840001C002F000C001F0006A000E0E960E8855
:100194000264EFEF00F0F00E0214D8A4DAEF00F0DE
:1001A400023A01380F0B02260138F00B016E0E845F
:1001B400D89002BE6FEF00F0013602360E2A02BE5E
:1001C4006FEF00F0013602360E2A02BE6FEF00F028
:1001D400013602360E2A6FEF00F001C002F0016A08
:1001E400000E0E8602641FEF01F0F00E0214D8A474
:1001F400FEEF00F0023A0E84D89002BE6FEF00F0DA
:1002040002360E2A02BE6FEF00F002360E2A02BE3C
:100214006FEF00F002360E2A6FEF00F0010E0C6E45
:1002240002DF22EF01F0020E0C6E16DF22EF01F066
:10023400040E0C6E05DF22EF01F0080E0C6EECDEEE
:020244001200A6
:0E024600ACB202D00000FCD7CAC0ADFF12005F
:10025400F250026EF29E0500FF6A0150FE6E0050DD
:08026400FD6E02BEF28E1200D5
:10026C00C7B409D01F0EC514016E0150000A03E17A
:0A027C00010E006E01D0006A1200AE
:100286000C6A0E6A0250D8A45CEF01F001C002F0BD
:1002960000C001F0006A0E860250D8A45CEF01F09F
:1002A60001C002F0016A0E960E880250D8B46EEFB5
:1002B60001F00E50035ED8A4D8A073EF01F0D890D9
:1002C60002BE78EF01F0003601360236032E63EFE8
:1002D60001F073EF01F0010E0C6E9DDE7BEF01F075
:1002E600020E0C6E9FDE7BEF01F0040E0C6EB3DE89
:0202F6001200F4
:1002F800025006180E6E086A096A0B6A03500764F2
:100308006FEF02F006500A6E068E028E03500B6ED7
:100318000750036E000E0B64BFEF01F00B50075E31
:10032800D8B460EF02F0070E07642EEF02F0075E04
:1003380000C008F001C000F002C001F0026A074ED8
:1003480060EF02F0076403EF02F0075E00C008F0F8
:1003580001C000F0016A074E60EF02F00764E1EFA8
:1003680001F0075E00C008F0006A074E60EF02F077
:100378000764C8EF01F00AC002F005C001F004C02C
:1003880000F0086A89EF03F0030E0764D3EF01F069
:10039800075E08380F0B086E074E60EF02F0D89022
:1003A8000832074E60EF02F0D8900832074E60EF2F
:1003B80002F0D890083260EF02F0030E0764F2EF03
:1003C80001F0075E08380F0B086E0038F00B08269E
:1003D80000380F0B006E074E60EF02F0D890003225
:1003E8000832074E60EF02F0D89000320832074E0C
:1003F80060EF02F0D8900032083260EF02F0030E8E
:1004080007641AEF02F0075E08380F0B086E003811
:10041800F00B082600380F0B006E0138F00B002691
:1004280001380F0B016E074E60EF02F0D8900132D1
:1004380000320832074E60EF02F0D89001320032E5
:100448000832074E60EF02F0D890013200320832CD
:1004580060EF02F0030E07644BEF02F0075E083806
:100468000F0B086E0038F00B082600380F0B006ED3
:100478000138F00B002601380F0B016E0238F00B23
:10048800012602380F0B026E074E60EF02F0D8907B
:100498000232013200320832074E60EF02F0D89083
:1004A8000232013200320832074E60EF02F0D89073
:1004B8000232013200320832096A000E0EAE54EFE1
:1004C80003F0081E001E011E021E082A0022012237
:1004D800022254EF03F00750D8A475EF02F089EF19
:1004E80003F0096A02C00AF0028E068E0750035C08
:1004F800076ED8B447EF03F0070E076415EF03F053
:10050800075E0450096E0550046E0650056E066AB3
:10051800074E47EF03F0070E0764EAEF02F0075EA5
:100528000450096E0550046E056A074E47EF03F044
:10053800070E0764C8EF02F0075E0450096E046AEC
:10054800074E47EF03F0070E0764AFEF02F00AC04B
:1005580002F089EF03F0030E0764BAEF02F0075EBA
:1005680009380F0B096E074E47EF03F0D890093290
:10057800074E47EF03F0D8900932074E47EF03F0D4
:10058800D890093247EF03F0030E0764D9EF02F061
:10059800075E09380F0B096E0438F00B092604387A
:1005A8000F0B046E074E47EF03F0D8900432093260
:1005B800074E47EF03F0D89004320932074E47EF51
:1005C80003F0D8900432093247EF03F0030E0764B2
:1005D80001EF03F0075E09380F0B096E0438F00BC2
:1005E800092604380F0B046E0538F00B042605386D
:1005F8000F0B056E074E47EF03F0D8900532043213
:100608000932074E47EF03F0D89005320432093219
:10061800074E47EF03F0D89005320432093247EF0E
:1006280003F0030E076432EF03F0075E09380F0B7F
:10063800096E0438F00B092604380F0B046E0538D0
:10064800F00B042605380F0B056E0638F00B05264F
:1006580006380F0B066E074E47EF03F0D8900632A8
:10066800053204320932074E47EF03F0D8900632BC
:10067800053204320932074E47EF03F0D8900632AC
:10068800053204320932086A000E0EAE54EF03F048
:10069800091E041E051E061E092A0422052206221A
:1006A8000950082604500022055001220650022253
:1006B8000EBE6BEF03F0D8A07AEF03F002320132DE
:1006C80000320832033E7AEF03F084EF03F0D8B02B
:1006D8007FEF03F0000E081E001E011E021E082AEE
:1006E8000022012202220A7E7FEF03F0010E0C6E27
:1006F800B5DC8BEF03F0020E0C6EB0DC8BEF03F071
:10070800040E0C6E9BDC8BEF03F0000E0C6E1200D7
:080718000B6A0B86FF0E1200B4
:10072000C4C004F0C5C005F004C002F005C003F069
:10073000044A052AC6C000F0C7C001F00001C64B3C
:10074000C72B00C0E9FF01C0EAFF02C0E1FF03C000
:10075000E2FFEECFE6FF02C0E9FF03C0EAFFEE5280
:0E07600001E0E2D7C4C000F0C5C001F01200F5
:10076E00086A096A000E076203643CEF04F0025047
:10077E0006180A6E075003267E0ED8A0CDEF03F0A2
:10078E00035ED8B041EF04F0D1EF03F0035ED8A0C2
:10079E0046EF04F0028E068E02C00EF001C00BF082
:1007AE0000C00DF000500402F4CF0CF00150050211
:1007BE00F4CF00F0F3CF08F00402F3500C26F450FF
:1007CE000822000E00220D500502F3500C26F450A4
:1007DE000822000E002202500402F3500826F450A4
:1007EE00002202500502016A000E0122F35000267B
:1007FE00F45001220D500602F3500826F450002248
:10080E00026A000E012202220B500602F35000264D
:10081E00F4500122000E02220E500602F350012661
:10082E00F450022202BE24EF04F0083600360136E0
:10083E0002360306D8B446EF04F037EF04F0D88042
:10084E00800E08640030000E002201220222D8A081
:10085E0037EF04F0023201320032034A41EF04F066
:10086E000AAE029E000E49EF04F0010E0EEC00F0EF
:10087E0049EF04F0020E22EC00F049EF04F0040EF2
:06088E0015EC00F0120061
:100894000D6A086A0050D8B4000C04180A6E0ABE27
:1008A4000D1E0B6A04AE02D0041E042A00AE02D050
:1008B400001E002A005004100A6E0ABE1FD0045005
:1008C400085E003600340836045008260036060E4A
:1008D4000C6E00340836045000B0085E00A00826F0
:1008E40000360C2EF6D700A008260BB015D00DAE9E
:1008F400000C001E002A081E082A000C04AE09D0B1
:1009040000BE04D00050086E006AF1D7006A002AC5
:10091400000C001E0B2AD3D7082A0450085CD8A464
:0E092400E6D7086A002A00AEE2D7FF0C1200E8
:100932000A6A0350D8A40A800750D8A40A820A502F
:10094200D8B4FCEF04F0030AD8B4B5EF04F00AB04F
:10095200B0EF04F006AEFAEF04F0F8EF04F002AEE6
:10096200F8EF04F0FAEF04F00250800B0A6E029ED8
:100972000650800B069E0A18D8B4C6EF04F00A503F
:10098200D8B4F8EF04F0FAEF04F00750035CD8B4DF
:10099200D0EF04F0D8A0ECEF04F0F2EF04F0065030
:1009A200025CD8B4DAEF04F0D8A0ECEF04F0F2EF76
:1009B20004F00550015CD8B4E4EF04F0D8A0ECEFE9
:1009C20004F0F2EF04F00450005CD8B4FCEF04F041
:1009D200D8B0F2EF04F00A52D8B4FAEF04F0F8EF0C
:1009E20004F00A52D8B4F8EF04F0FAEF04F0D88019
:0E09F2001200D8901200D880D8841200120093
:060A0000067E7ADC120004
:100A06000050086E0150006E016A026A036A0B6AA2
:100A16000C6A960E036E0A6A00C001F008C000F068
:080A2600086A026A2DDC1200CF
:100A2E000B800BAE23EF05F0026A0AAEFF0E026ECC
:0C0A3E00016E006E0A360232FF0E12003C
:100A4A009E96C4C0C9FF58C0C5F059C0C6F05AC066
:100A5A00C7F05BC0C8F0C7A422D0585059105A102A
:100A6A005B101CE00001C551C611C711C8110FE186
:100A7A00B4C0E1FFB5C0E2FF040EE66EB2C000F0FA
:100A8A00B3C001F02AEC01F0010E006E3BD0010E5A
:100A9A000001C55F000EC65BC75BC85BDCD758C0E8
:100AAA00C5F059C0C6F05AC0C7F05BC0C8F09EB6C0
:100ABA0022D0585059105A105B101CE00001C55141
:100ACA00C611C711C8110FE1B4C0E1FFB5C0E2FFFA
:100ADA00040EE66EB2C000F0B3C001F02AEC01F0D9
:100AEA00010E006E0FD0010E0001C55F000EC65B3D
:100AFA00C75BC85BDCD7C5BC02D0006A03D0C5841B
:060B0A00020E006E120055
:100B10006C0E0001AE6F020EAF6F000EB06F000ED4
:100B2000B16F880EAA6F0B0EAB6F000EAC6F000E8C
:100B3000AD6F620EA66F0E0EA76F000EA86F000EAF
:100B4000A96F1C0E926F0C0E936FC40E946F000E63
:100B5000956F4A0E8E6F0A0E8F6FC40E906F000E47
:100B6000916F5E0E8A6F0E0E8B6F000E8C6F000EF3
:100B70008D6F939093928A908A9293809382C79E6E
:080B8000C79C380EC66E12007E
:100B880058C0C6F059C0C7F05AC0C8F05BC0C9F019
:100B98000001C46BC56BC551120802E1C4518E082F
:100BA80009E336EC01F0005201E004D00001C44B27
:100BB800C52BF1D70001120EC55D02E18F0EC45D91
:100BC80003E37B0E006E25D0C580C5A021D0585008
:100BD80059105A105B101BE0C651C711C811C91132
:100BE8000FE1B4C0E1FFB5C0E2FF050EE66EB2C08A
:100BF80000F0B3C001F02AEC01F0010E006E09D03C
:100C0800010E0001C65F000EC75BC85BC95BDDD77C
:040C1800006A12005C
:100C1C0058C0C6F059C0C7F05AC0C8F05BC0C9F084
:100C2C009E96C5869EB620D0585059105A105B100F
:100C3C001AE00001C651C711C811C9110DE1B4C0A9
:100C4C00E1FFB5C0E2FF030EE66EB2C000F0B3C028
:100C5C0001F02AEC01F008D0010E0001C65F000E75
:100C6C00C75BC85BC95BDED70001C9CFC5F0C451F7
:100C7C00000A02E1C58A01D0C59A9E96C58858C063
:100C8C00C6F059C0C7F05AC0C8F05BC0C9F09EB6D8
:100C9C0020D0585059105A105B101AE00001C65160
:100CAC00C711C811C9110DE1B4C0E1FFB5C0E2FF15
:100CBC00030EE66EB2C000F0B3C001F02AEC01F0F6
:100CCC0008D0010E0001C65F000EC75BC85BC95B94
:080CDC00DED7C5C000F01200D4
:100CE4000450000A12E10550000A0FE10650000A00
:100CF4000CE10750000A09E1FF0E006EFF0E016EC1
:100D04007F0E026EFF0E036EA7D0086A096A0750B1
:100D1400D8B41DEF07F00350D8B421EF07F0025008
:100D240006180A6E028E068E0E6A02C008F001C012
:100D34000CF000C00DF004500D5E0550D8A0053C29
:100D44000C5E0650D8A0063C085E086A0C6A0D6A60
:100D5400D8A0B4EF06F0D890023201320032083243
:100D6400010E0E6E0750035ED8A0C1EF06F07E0E92
:100D74000E240326D8B026EF07F0C7EF06F07E0E48
:100D84000E240326D8A02BEF07F0180E0B6E0D3699
:100D94000C3608360036013602360E360450005E34
:100DA4000550D8A0053C015E0650D8A0063C025E62
:100DB40006340E120EA0E2EF06F00D80EDEF06F001
:100DC400045000260550D8B0053C01260650D8B082
:100DD400062802260D900B2EC9EF06F013EF07F03C
:100DE400D8900036013602360E360450005E0550A7
:100DF400D8A0053C015E0650D8A0063C025E06342D
:100E04000E10010B0D26D8B00C2AD8B4082AD8A489
:100E140013EF07F008320C320D32032AD8B426EF50
:100E240007F00AAE089E0850026E0C50016E0D5079
:100E3400006E2EEF07F0010E6DDC2EEF07F0020EB0
:100E44000EEC00F02EEF07F0040E22EC00F02EEF73
:0A0E540007F0080E15EC00F0120084
:040E5E00C584120035
:100E620058C0C4F059C0C5F05AC0C6F05BC0C7F044
:100E7200C582C5A220D0585059105A105B101AE0F2
:100E82000001C451C511C611C7110DE1B4C0E1FF83
:100E9200B5C0E2FF060EE66EB2C000F0B3C001F0CC
:100EA2002AEC01F008D0010E0001C45F000EC55B00
:080EB200C65BC75BDED712002E
:100EBA00320EC86E28DE030E0B6E8A0E0C6E550EAD
:100ECA000D6E0D2EFED70C2EFCD70B2EFAD7000076
:0C0EDA0000000F0EC16EF19E816A120034
:100EE6000001C26BC36BB6C0BEF0B7C0BFF0B8C0DE
:100EF600C0F0B9C0C1F0C151FF0A08E1C051FF0AF4
:100F060005E1BF51FF0A02E1BE51FF0A0DE1BAC079
:100F1600C4F0BBC0C5F0540EC66F000EC76F90EC90
:100F260003F0030E006EEFD1010EBC6FC0AF0ED002
:100F3600800EC019006E00C0C0F0BC2BBAC0E1FF25
:100F4600BBC0E2FF2D0EE66EBA4BBB2B000E006E49
:100F5600C11908E10050C01905E10050BF1902E1AE
:100F6600BE51000A0CE1BAC0C4F0BBC0C5F0520EB7
:100F7600C66F000EC76F90EC03F0006AC4D1C15172
:100F8600FF0A08E1C051000A05E1BF51000A02E16B
:100F9600BE51000A0DE1BAC0C4F0BBC0C5F04E0E8A
:100FA600C66F000EC76F90EC03F0BCC000F0ABD16B
:100FB600000E046E000E056E000E066E7F0E076EA6
:100FC600BEC000F0BFC001F0C0C002F0C1C003F057
:100FD600ADDC010ED8B0000E006E00521CE0BEC0A3
:100FE60000F0BFC001F0C0C002F0C1C003F0000EA7
:100FF600046E000E056E200E066E820E076EB7ECAE
:1010060003F000C0BEF001C0BFF002C0C0F003C0D4
:10101600C1F0C307CDD7000E046E000E056E200E7C
:10102600066E820E076EBEC000F0BFC001F0C0C0E3
:1010360002F0C1C003F07ADC000ED8B0010E006EDB
:1010460000521CE0BEC000F0BFC001F0C0C002F0FC
:10105600C1C003F0CD0E046ECC0E056E4C0E066EAE
:101066007B0E076EB7EC03F000C0BEF001C0BFF008
:1010760002C0C0F003C0C1F0C32BCDD7FF0EBE1512
:10108600086EFF0EBF15096E7F0EC0150A6E000EA4
:10109600C1150B6E08C004F009C005F00AC006F0C1
:1010A6000BC007F004360490053606360736000EE8
:1010B600BE15006E000EBF15016E000EC015026E45
:1010C600FF0EC115036E00C0BEF001C0BFF002C026
:1010D600C0F003C0C1F00450BE11006E0550BF1130
:1010E600016E0650C011026E0750C111036E00C09A
:1010F600BEF001C0BFF002C0C0F003C0C1F07F0E59
:10110600C15D006E00C0BDF0010EC16F00C004F0ED
:10111600BEC000F0BFC001F0C0C002F0C1C003F005
:10112600045007E000360090013602360336FF0F02
:10113600F8D700C0BEF001C0BFF002C0C0F003C0C7
:10114600C1F0BAC0E1FFBBC0E2FFC151300FE66E8D
:10115600BA4BBB2B800EC319006E800E010A005CD1
:1011660008E3800E060A006E800EC319005C01E3D8
:101176000AD0BAC0E1FFBBC0E2FF2E0EE66EBA4B44
:10118600BB2B010EC26F060EBD6FBD51000A54E0A7
:10119600C16BBEC000F0BFC001F0C0C002F0C1C04C
:1011A60003F0003600900136023603360036009012
:1011B600013602360336BE510026BF510122C05108
:1011C6000222C151032200C0BEF001C0BFF002C01E
:1011D600C0F003C0C1F0BEC000F0BFC001F0C0C087
:1011E60002F0C1C003F00036009001360236033625
:1011F60000C0BEF001C0BFF002C0C0F003C0C1F025
:10120600BAC0E1FFBBC0E2FFC151300FE66EBA4B78
:10121600BB2BC251000A0EE1C307C351000A0AE103
:10122600BAC0E1FFBBC0E2FF2E0EE66EBA4BBB2B87
:10123600010EC26FBD07A9D7FF0EBA25E96EFF0ED4
:10124600BB21EA6EEE50300A05E1010EBA5F000ED0
:10125600BB5BF2D7FF0EBA25E96EFF0EBB21EA6E25
:10126600EE502E0A04E1010EBA5F000EBB5BC351BD
:10127600000A43E0BAC0E1FFBBC0E2FF650EE66EBE
:10128600BA4BBB2B800EC319006E800E000A005CA1
:101296000BE2BAC0E1FFBBC0E2FF2D0EE66EBA4B11
:1012A600BB2BC3510008C36FC3C0BDF0800E090A33
:1012B600006E800EC319005C0FE20A0E046EBDC0FC
:1012C60000F04AEC04F0BAC0E1FFBBC0E2FF0050F8
:1012D600300FE66EBA4BBB2B0A0E046EBDC000F093
:1012E6004AEC04F008C000F0BAC0E1FFBBC0E2FF60
:1012F6000050300FE66EBA4BBB2BBAC0E1FFBBC045
:08130600E2FFE66A006A120032
:10130E000900F5CFE6FF0006FBE10106F9E1120048
:10131E00460E0001966F020E976FCA0E986F000E62
:10132E00996FFF0EA26FFF0EA36F000EA46F000E3B
:10133E00A56FFF0E9E6FFF0E9F6F000EA06F000E2B
:10134E00A16FFF0E9A6FFF0E9B6F000E9C6F000E2B
:10135E009D6FAC8A900EAB6E948E949C9EAA03D019
:08136E00AECF00F0FBD7120026
:101376000B6A0C6A0A6A0350D8B405EF0AF0028EAB
:101386008E0E035E03BECDEF09F0D8B4CDEF09F0A3
:1013960009EF0AF0036C080E035CD8A0E4EF09F02D
:1013A600036E013602C001F0026A080E035CD8A083
:1013B600E4EF09F00136016A0350D8A4D890EEEFA5
:1013C60009F00350D8B4EEEF09F0D890023201329A
:1013D600032EE8EF09F00BBC01A0FBEF09F0D8A043
:1013E600FBEF09F0012AD8B4022A02BE18EF0AF070
:1013F6000AAE1EEF0AF0021E011E012AD8B4022A06
:101406001EEF0AF0026A016A1EEF0AF00B800BAEAD
:1014160022EF0AF0026A0AAE22EF0AF0FF0E026E0F
:10142600016E0A36023222EF0AF0010E0C6E17EC3C
:1014360005F024EF0AF0000E0C6E24EF0AF0FF0E02
:0C1446000C6E0150006E0250016E12008E
:10145200C4EC05F0680E0001C46F25EC05F0330EF4
:101462000001C46F25EC05F00001C46B25EC05F00A
:10147200F5DC000E006E000E016E200E026E7F0E75
:04148200036E1200E3
:101486000001B96BB6C0E9FFB7C0EAFFEECFB8F00E
:10149600B851000A0FE0B8C0CAF023EC01F0000111
:1014A600B92BB951B625E96E000EB721EA6EEECF1B
:0614B600B8F0EED71200B1
:1014BC00C4EC05F0800E0001C46F25EC05F0030EA2
:1014CC000001C46F25EC05F0110E0001C46F25EC72
:1014DC0005F0BFDC030E0B6E080E0C6E770E0D6E56
:1014EC000D2EFED70C2EFCD70B2EFAD7C4EC05F024
:1014FC00800E0001C46F25EC05F0010E0001C46FD5
:10150C0025EC05F0A8DC810E0001C46F25EC05F07C
:10151C00010E0001C46F0EEC06F000C0B7F0000124
:10152C00B66BC46B0EEC06F000500001B613000E47
:10153C00B7138FDCB6C000F0B7C001F00132003237
:10154C00019E01320032019E00C0B6F001C0B7F01E
:10155C0003EC05F0000E046E000E056E000E066E18
:10156C00840E076E72EC06F0000E046E000E056E13
:0E157C00480E066E840E076E00EC05F012009D
:10158A0081EC0BF0B886020EB06E080EAF6EAC841A
:10159A00C1DE8EDC380EB66F000EB76F6FDF350E08
:1015AA00B66F000EB76F6ADF320EB66F000EB76FF6
:1015BA0065DF7FDF00C072F001C073F002C074F013
:1015CA0003C075F000C0B6F001C0B7F002C0B8F0B1
:1015DA0003C0B9F0760E0001BA6F000EBB6F7EDC55
:1015EA00760EB66F000EB76F49DF430EB66F000E68
:1015FA00B76F44DF400EB66F000EB76F3FDF1A0EAB
:10160A000B6E5E0E0C6E6E0E0D6E0D2EFED70C2E30
:10161A00FCD70B2EFAD700002C0EB66F000EB76F50
:10162A002DDF180EB66F000EB76F28DF150EB66FD6
:10163A00000EB76F23DF08DF99DE00C05CF001C03F
:10164A005DF01B0E0001B66F000EB76F17DF290E93
:10165A00B66F000EB76F12DF5CC000F05DC001F01C
:10166A0003EC05F000C0B6F001C0B7F002C0B8F054
:10167A0003C0B9F05E0EBA6F000EBB6F2FDC5E0EB0
:10168A00B66F000EB76FFADE260EB66F000EB76F92
:10169A00F5DE1A0E0B6E5E0E0C6E6E0E0D6E0D2EB4
:1016AA00FED70C2EFCD70B2EFAD7000082D7FFD715
:1017020010EE15F0470E006E010E016EBA0EF66E67
:0E171200160EF76E000EF86E87EC09F012004E
:0316BA000D0A0016
:0316BD000D0A0013
:0B16C000636F6E76657274696F6E00D8
:0316CB000D0A0005
:0316CE000D0A0002
:0616D1007768696C6500FA
:0316D7000D0A00F9
:0316DA000D0A00F6
:0816DD00497420676F6573007A
:0316E5000D0A00EB
:0316E8000D0A00E8
:0816EB007465726D696E610007
:0416F300494E460016
:0216F7003000C1
:0416F9004E614E00F0
:0416FD0000000000E9
:020000040030CA
:0E000000000C1F1EFF8381FF0FC00FE00F409A
:00000001FF
