:10000000D6EF02F00000000000EF00F0000000005A
:0A0010000000000000000000F3D71C
:0E001C00ACB202D00000FCD78AC0ADFF1200CB
:10002A00086A096A100E0C6E013408360936045043
:10003A00085E0550D8A0053C095ED8B007D0045028
:10004A0008260550D8B0053C0926D8900036013656
:06005A000C2EEAD7120093
:10006000F250026EF29E0500FF6A0150FE6E0050D3
:08007000FD6E02BEF28E1200CB
:10007800C7B409D01F0EC514016E0150000A03E170
:0A008800010E006E01D0006A1200A4
:10009200780E0001656F000E666F000E676F000E2E
:1000A200686FC80E6D6F020E6E6F000E6F6F000EDE
:1000B200706F620E756F020E766F000E776F000E14
:1000C200786FE20E716F030E726F600E736F000E27
:1000D200746F9C0E616F010E626F600E636F000E93
:1000E200646F5E0E506E020E516E000E526E000E66
:1000F200536E939093928A908A9293809382C79E32
:08010200C79C380EC66E120006
:10010A000001876B050E875D0AE287518525E16E3E
:10011A00000E8621E26E200EE66E872BF3D78751FA
:10012A008525E16E000E8621E26EE66A8707875111
:10013A008525886F000E8621896F0A0E046E000ECF
:10014A00056E83C000F084C001F06ADF08C000F0C9
:10015A0009C001F0300E002688C0E1FF89C0E2FF25
:10016A0000C0E6FF0A0E046E000E056E83C000F0A2
:10017A0084C001F055DF00C083F001C084F0000E96
:10018A00011802E1000E001801E102D08707CFD75B
:02019A00120051
:10019C009E9660C0C9FF1BC079F01CC07AF01DC0D0
:1001AC007BF01EC07CF0C7A421D01B501C101D106E
:1001BC001E101BE0000179517A117B117C110EE1AC
:1001CC006BC0E1FF6CC0E2FF040EE66E69C000F08C
:1001DC006AC001F03FDF010E006E3AD0010E000143
:1001EC00795F000E7A5B7B5B7C5BDDD71BC079F0A3
:1001FC001CC07AF01DC07BF01EC07CF09EB621D0D6
:10020C001B501C101D101E101BE0000179517A119F
:10021C007B117C110EE16BC0E1FF6CC0E2FF040EA0
:10022C00E66E69C000F06AC001F014DF010E006ECA
:10023C000FD0010E0001795F000E7A5B7B5B7C5B5B
:10024C00DDD7C5BC02D0006A03D0C584020E006E97
:02025C0012008E
:04025E00C584120041
:100262001BC079F01CC07AF01DC07BF01EC07CF070
:10027200C582C5A21FD01B501C101D101E1019E0F4
:10028200000179517A117B117C110CE16BC0E1FF05
:100292006CC0E2FF060EE66E69C000F06AC001F0B3
:1002A200DEDE08D0010E0001795F000E7A5B7B5B17
:0602B2007C5BDFD71200A7
:1002B8000900F5CFE6FF0006FBE10106F9E11200AF
:1002C8001BC07BF01CC07CF01DC07DF01EC07EF002
:1002D8000001796B7A6B7A51120802E179518E0824
:1002E80008E3C6DE005201E004D00001794B7A2B06
:1002F800F2D70001120E7A5D02E18F0E795D03E3F9
:100308007B0E006E24D0C580C5A020D01B501C10C9
:100318001D101E101AE07B517C117D117E110EE11B
:100328006BC0E1FF6CC0E2FF050EE66E69C000F02D
:100338006AC001F091DE010E006E09D0010E0001C5
:100348007B5F000E7C5B7D5B7E5BDED7006A120004
:100358001C0E4C6E000E4D6E8A0E4E6E000E4F6EC9
:10036800FF0E546EFF0E556E000E566E000E576E41
:10037800FF0E5C6EFF0E5D6E000E5E6E000E5F6E11
:10038800FF0E586EFF0E596E000E5A6E000E5B6E11
:10039800AC8A900EAB6E948E949C9EAA03D0AECF7E
:0603A80000F0FBD712007B
:1003AE0000017B6B79C0E9FF7AC0EAFFEECF60F007
:1003BE006051000A0EE060C08AF029DE00017B2B3E
:1003CE007B517925E96E000E7A21EA6EEECF60F050
:0403DE00EFD7120043
:1003E2001BC07AF01CC07BF01DC07CF01EC07DF0EB
:1003F2009E96C5869EB61FD01B501C101D101E1047
:1004020019E000017A517B117C117D110CE16BC066
:10041200E1FF6CC0E2FF030EE66E69C000F06AC045
:1004220001F01DDE08D0010E00017A5F000E7B5B39
:100432007C5B7D5BDFD70001C9CF79F06051000A98
:1004420002E1C58A01D0C59A9E96C5881BC07AF082
:100452001CC07BF01DC07CF01EC07DF09EB61FD07C
:100462001B501C101D101E1019E000017A517B1147
:100472007C117D110CE16BC0E1FF6CC0E2FF030E49
:10048200E66E69C000F06AC001F0E9DD08D0010E35
:1004920000017A5F000E7B5B7C5B7D5BDFD779C0FE
:0404A20000F0120054
:1004A60000017F6B806B79C081F07AC082F0800E8C
:1004B6007A19006E800E005C02E1000E795D0BE297
:1004C600010E7F6F000E806F79510008816F7AC030
:1004D60082F0000E825781C083F082C084F07BC018
:1004E60085F07CC086F00EDE060E7D6F000E7E6FF8
:1004F600000E006E7E51005C02E17D51000819E29B
:100506007D517B25E16E7E517C21E26E010E7D5D83
:10051600006E000E7E59016E00507B25E96E01507B
:100526007C21EA6EEECFE6FF010E7D5F000E7E5B5C
:10053600DFD77BC0E1FF7CC0E2FF200EE66E7F5175
:1005460080111AE07D6B7E6B7D517B25E96E7E51B5
:100556007C21EA6EEE50200A03E17D4B7E2BF4D718
:10056600010E7D5F000E7E5B7D517B25E16E7E5127
:0A0576007C21E26E2D0EE66E1200ED
:10058000320EC86E86DD030E0B6E8A0E0C6E550E93
:100590000D6E0D2EFED70C2EFCD70B2EFAD70000B9
:0C05A00000000F0EC16EF19E816A120077
:1005AC00E6EC04F0B886020EB06E080EAF6EAC84AA
:1005BC00CDDE320EC86E67DDDDDF280E796F000EE2
:1005CC007A6FEFDE250E796F000E7A6FEADE310E50
:1005DC00796F000E7A6FE5DE71DED00E0001606F70
:1005EC00D7DD190E0001606FD3DD070E0001606FBF
:1005FC00CFDD2FDE030E0B6E8A0E0C6E550E0D6EBC
:10060C000D2EFED70C2EFCD70B2EFAD700000000B7
:10061C0055DED00E0001606FBBDD6B0E0001606F0C
:10062C00B7DD0001606BB4DD14DE030E0B6E8A0EB9
:10063C000C6E550E0D6E0D2EFED70C2EFCD70B2E00
:10064C00FAD7000000003ADED00E0001606FA0DD8A
:10065C006C0E0001606F9CDD0001606B99DDF9DDB3
:10066C00030E0B6E8A0E0C6E550E0D6E0D2EFED7F4
:10067C000C2EFCD70B2EFAD7000000001FDED00E7C
:10068C000001606F85DD1B0E0001606F81DD0001D4
:10069C00606B7EDDDEDD030E0B6E8A0E0C6E550E6E
:1006AC000D6E0D2EFED70C2EFCD70B2EFAD700009C
:1006BC00000004DED00E0001606F6ADD1C0E00012C
:1006CC00606F66DD0001606B63DDC3DD030E0B6ED6
:1006DC008A0E0C6E550E0D6E0D2EFED70C2EFCD701
:1006EC000B2EFAD700000000E9DD030E0B6E8A0E0C
:1006FC000C6E550E0D6E0D2EFED70C2EFCD70B2E40
:10070C00FAD700000000D00E0001606F41DD380EFA
:10071C000001606F3DDD400E0001606F39DD99DD39
:10072C00030E0B6E8A0E0C6E550E0D6E0D2EFED733
:10073C000C2EFCD70B2EFAD700000000BFDDD00E1C
:10074C000001606F25DD200E0001606F21DD010EC0
:10075C000001606F1DDD7DDD030E0B6E8A0E0C6ECD
:10076C00550E0D6E0D2EFED70C2EFCD70B2EFAD778
:10077C0000000000A3DDD00E0001606F09DD3A0E11
:10078C000001606F05DD010E0001606F01DD61DDB0
:10079C00030E0B6E8A0E0C6E550E0D6E0D2EFED7C3
:1007AC000C2EFCD70B2EFAD70000000087DDD00EE4
:1007BC000001606FEDDC1F0E0001606FE9DC140EB0
:1007CC000001606FE5DC45DD060E0B6E130E0C6E42
:1007DC00AD0E0D6E0D2EFED70C2EFCD70B2EFAD7B0
:1007EC00000000006BDDD00E0001606FD1DC1A0E32
:1007FC000001606FCDDC070E0001606FC9DC29DDE4
:10080C00030E0B6E8A0E0C6E550E0D6E0D2EFED752
:10081C000C2EFCD70B2EFAD7000000004FDDD00EAB
:10082C000001606FB5DC6C0E0001606FB1DC600E16
:10083C000001606FADDC0DDD030E0B6E8A0E0C6ECD
:10084C00550E0D6E0D2EFED70C2EFCD70B2EFAD797
:10085C000000000033DDD00E0001606F99DC6B0EE0
:10086C000001606F95DC100E0001606F91DCF1DC13
:10087C00030E0B6E8A0E0C6E550E0D6E0D2EFED7E2
:10088C000C2EFCD70B2EFAD700000000060E0B6EB8
:10089C00130E0C6EAD0E0D6E0D2EFED70C2EFCD75E
:1008AC000B2EFAD70000000009DDD00E0001606F9E
:1008BC006FDC3F0E0001606F6BDCCDDCD10E0001F4
:1008CC00606F66DC0001606B86DD00C04AF0000ED4
:1008DC004B6EBFDC030E0B6E8A0E0C6E550E0D6E3E
:1008EC000D2EFED70C2EFCD70B2EFAD700000000D5
:1008FC004AC079F04BC07AF0360E00017B6F000EC7
:10090C007C6FCBDD360E796F000E7A6F4ADD220ECE
:10091C00796F000E7A6F45DDD1DCD00E0001606F6F
:10092C0037DC400E0001606F33DC95DCD10E00012A
:10093C00606F2EDC0001606B4EDD00C034F0000EE9
:10094C00356E87DC030E0B6E8A0E0C6E550E0D6E1B
:10095C000D2EFED70C2EFCD70B2EFAD70000000064
:10096C0034C079F035C07AF0360E00017B6F000E82
:10097C007C6F93DD360E796F000E7A6F12DD150EDB
:10098C00796F000E7A6F0DDD180E796F000E7A6F8D
:10099C0008DD1F0E796F000E7A6F03DD85D7FFD748
:1009CC0010EE15F01F0E006E010E016EAC0EF66EE1
:0E09DC00090EF76E000EF86E5CEC01F01200D2
:0309AC000D0A0031
:0309AF000D0A002E
:0409B2000000000041
:0309B6000D0A0027
:0309B9000D0A0024
:0309BC000D0A0021
:0909BF005354415254494E4700C3
:0309C8000D0A0015
:020000040030CA
:0E000000008C1F1EFF8381FF0FC00FE00F401A
:00000001FF
