:1000000026EF0AF00000000000EF00F00000000002
:0A0010000000000000000000F3D71C
:10001C000B820BAE18EF00F00368026801680068F1
:08002C000A360232FF0E120039
:0E003400026A016A006A086A036A000E12007E
:100042000B840BAE2CEF00F0010E036E026A016A04
:0A005200006A0A360232FF0E1200A7
:08005C000AAE029E000E120024
:0E006400ACB202D00000FCD7ADC0ADFF120060
:100072000CB07BEF00F00CA221EF01F00E6A000E33
:10008200026492EF00F0F00E0214D8A45DEF00F0CB
:10009200023A01380F0B02260138F00B016E0038CC
:1000A2000F0B01260038F00B006E08380F0B0026EC
:1000B2000838F00B086E0E84D89002BE76EF00F07E
:1000C20008360036013602360E2A02BE76EF00F0FE
:1000D20008360036013602360E2A02BE76EF00F0EE
:1000E20008360036013602360E2A0E50036417EF28
:1000F20001F0035E0BBC08AE1CEF01F0D880800E4D
:1001020008640030000E002201220222D8A01CEF57
:1001120001F0023201320032034A21EF01F01CEFFA
:1001220001F001C002F000C001F008C000F0086A4E
:10013200000E0E860264C9EF00F0F00E0214D8A47D
:10014200B1EF00F0023A01380F0B02260138F00B32
:10015200016E00380F0B01260038F00B006E0E8482
:10016200D89002BE76EF00F00036013602360E2A33
:1001720002BE76EF00F00036013602360E2A02BECB
:1001820076EF00F00036013602360E2A76EF00F0E6
:1001920001C002F000C001F0006A000E0E960E8847
:1001A2000264F6EF00F0F00E0214D8A4E1EF00F0C2
:1001B200023A01380F0B02260138F00B016E0E8451
:1001C200D89002BE76EF00F0013602360E2A02BE49
:1001D20076EF00F0013602360E2A02BE76EF00F00C
:1001E200013602360E2A76EF00F001C002F0016AF3
:1001F200000E0E86026426EF01F0F00E0214D8A45F
:1002020005EF01F0023A0E84D89002BE76EF00F0BC
:1002120002360E2A02BE76EF00F002360E2A02BE27
:1002220076EF00F002360E2A76EF00F0010E0C6E29
:1002320007DF29EF01F0020E0C6E0FDF29EF01F04C
:10024200040E0C6EEADE29EF01F0080E0C6EF1DEF0
:02025200120098
:100254000C6A0E6A0250D8A443EF01F001C002F008
:1002640000C001F0006A0E860250D8A443EF01F0EA
:1002740001C002F0016A0E960E880250D8B455EF00
:1002840001F00E50035ED8A4D8A05AEF01F0D89024
:1002940002BE5FEF01F0003601360236032E4AEF4C
:1002A40001F05AEF01F0010E0C6EC2DE62EF01F0B4
:1002B400020E0C6EC4DE62EF01F0040E0C6ECCDE96
:0202C400120026
:1002C600025006180E6E086A096A0B6A0350076424
:1002D60056EF02F006500A6E068E028E03500B6E23
:1002E6000750036E000E0B64A6EF01F00B50075E7D
:1002F600D8B447EF02F0070E076415EF02F0075E69
:1003060000C008F001C000F002C001F0026A074E0A
:1003160047EF02F00764EAEF01F0075E00C008F05D
:1003260001C000F0016A074E47EF02F00764C8EF0C
:1003360001F0075E00C008F0006A074E47EF02F0C2
:100346000764AFEF01F00AC002F005C001F004C077
:1003560000F0086A70EF03F0030E0764BAEF01F0CD
:10036600075E08380F0B086E074E47EF02F0D8906D
:100376000832074E47EF02F0D8900832074E47EF93
:1003860002F0D890083247EF02F0030E0764D9EF67
:1003960001F0075E08380F0B086E0038F00B0826D0
:1003A60000380F0B006E074E47EF02F0D890003270
:1003B6000832074E47EF02F0D89000320832074E57
:1003C60047EF02F0D8900032083247EF02F0030EF2
:1003D600076401EF02F0075E08380F0B086E00385D
:1003E600F00B082600380F0B006E0138F00B0026C4
:1003F60001380F0B016E074E47EF02F0D89001321D
:1004060000320832074E47EF02F0D8900132003230
:100416000832074E47EF02F0D89001320032083218
:1004260047EF02F0030E076432EF02F0075E08386A
:100436000F0B086E0038F00B082600380F0B006E05
:100446000138F00B002601380F0B016E0238F00B55
:10045600012602380F0B026E074E47EF02F0D890C6
:100466000232013200320832074E47EF02F0D890CE
:100476000232013200320832074E47EF02F0D890BE
:100486000232013200320832096A000E0EAE3BEF2C
:1004960003F0081E001E011E021E082A0022012269
:1004A60002223BEF03F00750D8A45CEF02F070EF96
:1004B60003F0096A02C00AF0028E068E0750035C3A
:1004C600076ED8B42EEF03F0070E0764FCEF02F0B8
:1004D600075E0450096E0550046E0650056E066AE6
:1004E600074E2EEF03F0070E0764D1EF02F0075E0A
:1004F6000450096E0550046E056A074E2EEF03F090
:10050600070E0764AFEF02F0075E0450096E046A37
:10051600074E2EEF03F0070E076496EF02F00AC0AF
:1005260002F070EF03F0030E0764A1EF02F0075E1E
:1005360009380F0B096E074E2EEF03F0D8900932DB
:10054600074E2EEF03F0D8900932074E2EEF03F038
:10055600D89009322EEF03F0030E0764C0EF02F0C5
:10056600075E09380F0B096E0438F00B09260438AC
:100576000F0B046E074E2EEF03F0D89004320932AB
:10058600074E2EEF03F0D89004320932074E2EEFB5
:1005960003F0D890043209322EEF03F0030E0764FD
:1005A600E8EF02F0075E09380F0B096E0438F00B0E
:1005B600092604380F0B046E0538F00B042605389F
:1005C6000F0B056E074E2EEF03F0D890053204325E
:1005D6000932074E2EEF03F0D89005320432093265
:1005E600074E2EEF03F0D8900532043209322EEF73
:1005F60003F0030E076419EF03F0075E09380F0BCB
:10060600096E0438F00B092604380F0B046E053802
:10061600F00B042605380F0B056E0638F00B052681
:1006260006380F0B066E074E2EEF03F0D8900632F3
:10063600053204320932074E2EEF03F0D890063207
:10064600053204320932074E2EEF03F0D8900632F7
:10065600053204320932086A000E0EAE3BEF03F093
:10066600091E041E051E061E092A0422052206224C
:100676000950082604500022055001220650022285
:100686000EBE52EF03F0D8A061EF03F00232013242
:1006960000320832033E61EF03F06BEF03F0D8B08F
:1006A60066EF03F0000E081E001E011E021E082A39
:1006B6000022012202220A7E66EF03F0010E0C6E72
:1006C600D5DC72EF03F0020E0C6ED0DC72EF03F095
:1006D600040E0C6EA0DC72EF03F0000E0C6E12001E
:0806E6000B6A0B86FF0E1200E7
:1006EE00C7B409D01F0EC514016E0150000A03E1F4
:0A06FE00010E006E01D0006A120028
:10070800F250026EF29E0500FF6A0150FE6E005024
:08071800FD6E02BEF28E12001C
:10072000A7C004F0A8C005F004C002F005C003F0A3
:10073000044A052AA9C000F0AAC001F00001A94B93
:10074000AA2B00C0E9FF01C0EAFF02C0E1FF03C01D
:10075000E2FFEECFE6FF02C0E9FF03C0EAFFEE5280
:0E07600001E0E2D7A7C000F0A8C001F012002F
:10076E000050086E0150006E016A026A036A0B6A3D
:10077E000C6A960E036E0A6A00C001F008C000F003
:08078E00086A026A60DD120036
:10079600086A096A000E0762036450EF04F002500B
:1007A60006180A6E075003267E0ED8A0E1EF03F066
:1007B600035ED8B055EF04F0E5EF03F0035ED8A072
:1007C6005AEF04F0028E068E02C00EF001C00BF046
:1007D60000C00DF000500402F4CF0CF001500502E9
:1007E600F4CF00F0F3CF08F00402F3500C26F450D7
:1007F6000822000E00220D500502F3500C26F4507C
:100806000822000E002202500402F3500826F4507B
:10081600002202500502016A000E0122F350002652
:10082600F45001220D500602F3500826F45000221F
:10083600026A000E012202220B500602F350002625
:10084600F4500122000E02220E500602F350012639
:10085600F450022202BE38EF04F0083600360136A4
:1008660002360306D8B45AEF04F04BEF04F0D880F2
:10087600800E08640030000E002201220222D8A059
:100886004BEF04F0023201320032034A55EF04F016
:100896000AAE029E000E5DEF04F0010E1AEC00F0A7
:1008A6005DEF04F0020E0EEC00F05DEF04F0040EB6
:0608B60021EC00F012002D
:1008BC000D6A086A0050D8B4000C04180A6E0ABEFF
:1008CC000D1E0B6A04AE02D0041E042A00AE02D028
:1008DC00001E002A005004100A6E0ABE1FD00450DD
:1008EC00085E003600340836045008260036060E22
:1008FC000C6E00340836045000B0085E00A00826C8
:10090C0000360C2EF6D700A008260BB015D00DAE75
:10091C00000C001E002A081E082A000C04AE09D088
:10092C0000BE04D00050086E006AF1D7006A002A9D
:10093C00000C001E0B2AD3D7082A0450085CD8A43C
:0E094C00E6D7086A002A00AEE2D7FF0C1200C0
:06095A00067EB4DC120071
:1009600051C0A9F052C0AAF053C0ABF054C0ACF0D3
:100970009E96C5869EB61FD05150521053105410EB
:1009800019E00001A951AA11AB11AC110CE18BC007
:10099000E1FF8CC0E2FF030EE66E89C000F08AC062
:1009A00001F0B2DE08D0010E0001A95F000EAA5BC3
:1009B000AB5BAC5BDFD70001C9CFA8F0A751000A41
:1009C00002E1C58A01D0C59A9E96C58851C0A9F09A
:1009D00052C0AAF053C0ABF054C0ACF09EB61FD0CA
:1009E000515052105310541019E00001A951AA118E
:1009F000AB11AC110CE18BC0E1FF8CC0E2FF030E28
:100A0000E66E89C000F08AC001F07EDE08D0010EDB
:100A10000001A95F000EAA5BAB5BAC5BDFD7A8C08F
:040A200000F01200D0
:100A2400EE0E0001856F060E866F000E876F000EB6
:100A3400886F5E0E8D6F0B0E8E6F000E8F6F000E23
:100A4400906F360E956F0E0E966F000E976F000E18
:100A5400986F600E916F090E926FA70E936F000E40
:100A6400946F9C0E816F0A0E826FA70E836F000E27
:100A7400846F8C0E716F0E0E726F000E736F000E0A
:100A8400746F939093928A908A9293809382C79E74
:080A9400C79C380EC66E12006B
:100A9C009E96A7C0C9FF51C0A8F052C0A9F053C080
:100AAC00AAF054C0ABF0C7A421D05150521053102F
:100ABC0054101BE00001A851A911AA11AB110EE1B1
:100ACC008BC0E1FF8CC0E2FF040EE66E89C000F023
:100ADC008AC001F013DE010E006E3AD0010E000147
:100AEC00A85F000EA95BAA5BAB5BDDD751C0A8F079
:100AFC0052C0A9F053C0AAF054C0ABF09EB621D09E
:100B0C0051505210531054101BE00001A851A91160
:100B1C00AA11AB110EE18BC0E1FF8CC0E2FF040EF9
:100B2C00E66E89C000F08AC001F0E8DD010E006EAF
:100B3C000FD0010E0001A85F000EA95BAA5BAB5B96
:100B4C00DDD7C5BC02D0006A03D0C584020E006E8E
:020B5C00120085
:100B5E0051C0A9F052C0AAF053C0ABF054C0ACF0D3
:100B6E000001A76BA86BA851120802E1A7518E08CD
:100B7E0008E3B6DD005201E004D00001A74BA82B1C
:100B8E00F2D70001120EA85D02E18F0EA75D03E3FE
:100B9E007B0E006E24D0C580C5A020D051505210BF
:100BAE00531054101AE0A951AA11AB11AC110EE159
:100BBE008BC0E1FF8CC0E2FF050EE66E89C000F02F
:100BCE008AC001F09ADD010E006E09D0010E0001FF
:100BDE00A95F000EAA5BAB5BAC5BDED7006A1200AE
:100BEE000A6A0350D8A40A800750D8A40A820A5071
:100BFE00D8B45AEF06F0030AD8B413EF06F00AB0D1
:100C0E000EEF06F006AE58EF06F056EF06F002AE07
:100C1E0056EF06F058EF06F00250800B0A6E029E59
:100C2E000650800B069E0A18D8B424EF06F00A5020
:100C3E00D8B456EF06F058EF06F00750035CD8B460
:100C4E002EEF06F0D8A04AEF06F050EF06F0065051
:100C5E00025CD8B438EF06F0D8A04AEF06F050EF99
:100C6E0006F00550015CD8B442EF06F0D8A04AEF6A
:100C7E0006F050EF06F00450005CD8B45AEF06F0C0
:100C8E00D8B050EF06F00A52D8B458EF06F056EF2F
:100C9E0006F00A52D8B456EF06F058EF06F0D88098
:0E0CAE001200D8901200D880D88412001200D4
:100CBC000450000A12E10550000A0FE10650000A28
:100CCC000CE10750000A09E1FF0E006EFF0E016EE9
:100CDC007F0E026EFF0E036EA7D0086A096A0750DA
:100CEC00D8B409EF07F00350D8B40DEF07F0025059
:100CFC0006180A6E028E068E0E6A02C008F001C03B
:100D0C000CF000C00DF004500D5E0550D8A0053C51
:100D1C000C5E0650D8A0063C085E086A0C6A0D6A88
:100D2C00D8A0A0EF06F0D89002320132003208327F
:100D3C00010E0E6E0750035ED8A0ADEF06F07E0ECE
:100D4C000E240326D8B012EF07F0B3EF06F07E0E98
:100D5C000E240326D8A017EF07F0180E0B6E0D36D5
:100D6C000C3608360036013602360E360450005E5C
:100D7C000550D8A0053C015E0650D8A0063C025E8A
:100D8C0006340E120EA0CEEF06F00D80D9EF06F051
:100D9C00045000260550D8B0053C01260650D8B0AA
:100DAC00062802260D900B2EB5EF06F0FFEF06F08D
:100DBC00D8900036013602360E360450005E0550CF
:100DCC00D8A0053C015E0650D8A0063C025E063455
:100DDC000E10010B0D26D8B00C2AD8B4082AD8A4B2
:100DEC00FFEF06F008320C320D32032AD8B412EFA2
:100DFC0007F00AAE089E0850026E0C50016E0D50A2
:100E0C00006E1AEF07F0010E68DC1AEF07F0020E05
:100E1C001AEC00F01AEF07F0040E0EEC00F01AEFCB
:0A0E2C0007F0080E21EC00F01200A0
:100E360051C0A7F052C0A8F053C0A9F054C0AAF000
:100E4600C582C5A21FD0515052105310541019E03C
:100E56000001A751A811A911AA110CE18BC0E1FF4D
:100E66008CC0E2FF060EE66E89C000F08AC001F073
:100E760048DC08D0010E0001A75F000EA85BA95B45
:060E8600AA5BDFD7120099
:040E8C00C584120007
:100E9000320EC86EC7DD030E0B6E8A0E0C6E550E39
:100EA0000D6E0D2EFED70C2EFCD70B2EFAD70000A0
:0C0EB00000000F0EC16EF19E816A12005E
:100EBC000900F5CFE6FF0006FBE10106F9E112009F
:100ECC00640E00016D6F000E6E6FAD0E6F6F000E35
:100EDC00706FFF0E756FFF0E766F000E776F000E42
:100EEC00786FFF0E7D6FFF0E7E6F000E7F6F000E12
:100EFC00806FFF0E796FFF0E7A6F000E7B6F000E06
:100F0C007C6FAC8A900EAB6E948E949C9EAA03D090
:080F1C00AECF00F0FBD712007C
:100F24000001A56BA66B99C0A1F09AC0A2F09BC06A
:100F3400A3F09CC0A4F0A451FF0A08E1A351FF0A46
:100F440005E1A251FF0A02E1A151FF0A0DE19DC092
:100F5400A7F09EC0A8F01B0EA96F000EAA6F90EC1C
:100F640003F0030E006EEFD1010E9F6FA3AF0ED0FE
:100F7400800EA319006E00C0A3F09F2B9DC0E1FF5B
:100F84009EC0E2FF2D0EE66E9D4B9E2B000E006E62
:100F9400A41908E10050A31905E10050A21902E1C7
:100FA400A151000A0CE19DC0A7F09EC0A8F0230E39
:100FB400A96F000EAA6F90EC03F0006AC4D1A4518B
:100FC400FF0A08E1A351000A05E1A251000A02E167
:100FD400A151000A0DE19DC0A7F09EC0A8F01F0E0C
:100FE400A96F000EAA6F90EC03F09FC000F0ABD184
:100FF400000E046E000E056E000E066E7F0E076E68
:10100400A1C000F0A2C001F0A3C002F0A4C003F08C
:10101400ECDD010ED8B0000E006E00521CE0A1C041
:1010240000F0A2C001F0A3C002F0A4C003F0000EBF
:10103400046E000E056E200E066E820E076ECBEC5B
:1010440003F000C0A1F001C0A2F002C0A3F003C0ED
:10105400A4F0A607CDD7000E046E000E056E200E78
:10106400066E820E076EA1C000F0A2C001F0A3C0FC
:1010740002F0A4C003F0B9DD000ED8B0010E006E7A
:1010840000521CE0A1C000F0A2C001F0A3C002F015
:10109400A4C003F0CD0E046ECC0E056E4C0E066E8D
:1010A4007B0E076ECBEC03F000C0A1F001C0A2F0F0
:1010B40002C0A3F003C0A4F0A62BCDD7FF0EA11548
:1010C400086EFF0EA215096E7F0EA3150A6E000EA0
:1010D400A4150B6E08C004F009C005F00AC006F0A0
:1010E4000BC007F004360490053606360736000EAA
:1010F400A115006E000EA215016E000EA315026E5E
:10110400FF0EA415036E00C0A1F001C0A2F002C03E
:10111400A3F003C0A4F00450A111006E0550A21165
:10112400016E0650A311026E0750A411036E00C095
:10113400A1F001C0A2F002C0A3F003C0A4F07F0E8E
:10114400A45D006E00C0A0F0010EA46F00C004F006
:10115400A1C000F0A2C001F0A3C002F0A4C003F03B
:10116400045007E000360090013602360336FF0FC4
:10117400F8D700C0A1F001C0A2F002C0A3F003C0E0
:10118400A4F09DC0E1FF9EC0E2FFA451300FE66EC3
:101194009D4B9E2B800EA619006E800E010A005CEA
:1011A40008E3800E060A006E800EA619005C01E3B7
:1011B4000AD09DC0E1FF9EC0E2FF2E0EE66E9D4B5D
:1011C4009E2B010EA56F060EA06FA051000A54E0DD
:1011D400A46BA1C000F0A2C001F0A3C002F0A4C09F
:1011E40003F00036009001360236033600360090D4
:1011F400013602360336A1510026A2510122A35121
:101204000222A451032200C0A1F001C0A2F002C036
:10121400A3F003C0A4F0A1C000F0A2C001F0A3C0D9
:1012240002F0A4C003F00036009001360236033603
:1012340000C0A1F001C0A2F002C0A3F003C0A4F05A
:101244009DC0E1FF9EC0E2FFA451300FE66E9D4BAE
:101254009E2BA551000A0EE1A607A651000A0AE139
:101264009DC0E1FF9EC0E2FF2E0EE66E9D4B9E2BBD
:10127400010EA56FA007A9D7FF0E9D25E96EFF0EED
:101284009E21EA6EEE50300A05E1010E9D5F000ECC
:101294009E5BF2D7FF0E9D25E96EFF0E9E21EA6E3E
:1012A400EE502E0A04E1010E9D5F000E9E5BA651D6
:1012B400000A43E09DC0E1FF9EC0E2FF650EE66EBA
:1012C4009D4B9E2B800EA619006E800E000A005CBA
:1012D4000BE29DC0E1FF9EC0E2FF2D0EE66E9D4B2A
:1012E4009E2BA6510008A66FA6C0A0F0800E090A86
:1012F400006E800EA619005C0FE20A0E046EA0C0F8
:1013040000F05EEC04F09DC0E1FF9EC0E2FF0050DF
:10131400300FE66E9D4B9E2B0A0E046EA0C000F0AB
:101324005EEC04F008C000F09DC0E1FF9EC0E2FF47
:101334000050300FE66E9D4B9E2B9DC0E1FF9EC07A
:08134400E2FFE66A006A1200F4
:10134C0008DC800E0001A76F4EEC05F0030E0001C7
:10135C00A76F4EEC05F0110E0001A76F4EEC05F0D7
:10136C008FDD030E0B6E080E0C6E770E0D6E0D2EB0
:10137C00FED70C2EFCD70B2EFAD7AFEC05F0800E57
:10138C000001A76F4EEC05F0010E0001A76F4EECAB
:10139C0005F04BDD810E0001A76F4EEC05F0010E40
:1013AC000001A76FB0EC04F000C09AF00001996B3B
:1013BC00A76BB0EC04F0005000019913000E9A13C7
:1013CC005FDD99C000F09AC001F001320032019E3D
:1013DC0001320032019E00C099F001C09AF0B7ECC6
:1013EC0003F0000E046E000E056E000E066E840EE9
:1013FC00076E5EDC000E046E000E056E480E066E67
:0A140C00840E076EADEC04F0120030
:1014160000019C6B99C0E9FF9AC0EAFFEECF9BF0F2
:101426009B51000A0FE09BC0ADF032EC00F00001CA
:101436009C2B9C519925E96E000E9A21EA6EEECFFF
:061446009BF0EED712003E
:10144C003CEC0CF0B886020EB06E080EAF6EAC849D
:10145C0037DD320EC86E12EC05F014DD280E996FD4
:10146C00000E9A6FD2DF250E996F000E9A6FCDDFAA
:10147C00310E996F000E9A6FC8DFAFEC05F0D00EED
:10148C000001A76F4EEC05F0190E0001A76F4EEC92
:10149C0005F0070E0001A76F4EEC05F0F1DC030E12
:1014AC000B6E8A0E0C6E550E0D6E0D2EFED70C2E7D
:1014BC00FCD70B2EFAD700000000AFEC05F0D00ED5
:1014CC000001A76F4EEC05F06B0E0001A76F4EEC00
:1014DC0005F00001A76B4EEC05F0D2DC030E0B6E91
:1014EC008A0E0C6E550E0D6E0D2EFED70C2EFCD7E3
:1014FC000B2EFAD700000000AFEC05F0D00E000167
:10150C00A76F4EEC05F06C0E0001A76F4EEC05F0CA
:10151C000001A76B4EEC05F0B3DC030E0B6E8A0ECC
:10152C000C6E550E0D6E0D2EFED70C2EFCD70B2E01
:10153C00FAD700000000AFEC05F0D00E0001A76F49
:10154C004EEC05F01B0E0001A76F4EEC05F00001F0
:10155C00A76B4EEC05F094DC030E0B6E8A0E0C6E32
:10156C00550E0D6E0D2EFED70C2EFCD70B2EFAD76A
:10157C0000000000AFEC05F0D00E0001A76F4EECA0
:10158C0005F01C0E0001A76F4EEC05F00001A76BD7
:10159C004EEC05F075DC030E0B6E8A0E0C6E550EC0
:1015AC000D6E0D2EFED70C2EFCD70B2EFAD700008D
:1015BC000000AFEC05F0030E0B6E8A0E0C6E550E90
:1015CC000D6E0D2EFED70C2EFCD70B2EFAD700006D
:1015DC000000D00E0001A76F4EEC05F0380E000194
:1015EC00A76F4EEC05F0400E0001A76F4EEC05F016
:1015FC0047DC030E0B6E8A0E0C6E550E0D6E0D2E07
:10160C00FED70C2EFCD70B2EFAD700000000AFEC47
:10161C0005F0D00E0001A76F4EEC05F0200E000176
:10162C00A76F4EEC05F0010E0001A76F4EEC05F014
:10163C0027DC030E0B6E8A0E0C6E550E0D6E0D2EE6
:10164C00FED70C2EFCD70B2EFAD700000000AFEC07
:10165C0005F0D00E0001A76F4EEC05F03A0E00011C
:10166C00A76F4EEC05F0010E0001A76F4EEC05F0D4
:10167C0007DC030E0B6E8A0E0C6E550E0D6E0D2EC6
:10168C00FED70C2EFCD70B2EFAD700000000AFECC7
:10169C0005F0D00E0001A76F4EEC05F01F0E0001F7
:1016AC00A76F4EEC05F0010E0001A76F4EEC05F094
:1016BC0046EC07F0060E0B6E130E0C6EAD0E0D6E97
:1016CC000D2EFED70C2EFCD70B2EFAD700000000E7
:1016DC00AFEC05F0D00E0001A76F4EEC05F01A0E22
:1016EC000001A76F4EEC05F0FF0E0001A76F4EEC4A
:1016FC0005F046EC07F0030E0B6E8A0E0C6E550EC1
:10170C000D6E0D2EFED70C2EFCD70B2EFAD700002B
:10171C000000AFEC05F0D00E0001A76F4EEC05F009
:10172C006C0E0001A76F4EEC05F0600E0001A76F68
:10173C004EEC05F046EC07F0030E0B6E8A0E0C6EA9
:10174C00550E0D6E0D2EFED70C2EFCD70B2EFAD788
:10175C0000000000AFEC05F0D00E0001A76F4EECBE
:10176C0005F06B0E0001A76F4EEC05F0100E00019A
:10177C00A76F4EEC05F046EC07F0030E0B6E8A0ECD
:10178C000C6E550E0D6E0D2EFED70C2EFCD70B2E9F
:10179C00FAD700000000060E0B6E130E0C6EAD0E89
:1017AC000D6E0D2EFED70C2EFCD70B2EFAD700008B
:1017BC000000340E0001996F000E9A6F26DEC0DD1A
:1017CC0000C069F001C06AF002C06BF003C06CF09D
:1017DC0000C099F001C09AF002C09BF003C09CF0CD
:1017EC00550E00019D6F000E9E6F92EC07F0550E8A
:1017FC00996F000E9A6F09DE180E996F000E9A6F92
:10180C0004DE150E996F000E9A6FFFDD030E0B6E42
:10181C008A0E0C6E550E0D6E0D2EFED70C2EFCD7AF
:0C182C000B2EFAD700000000C4D7FFD735
:1018780010EE15F0400E006E010E016E380EF66E79
:0E188800180EF76E000EF86E5EEC07F0120000
:031838000D0A0096
:03183B000D0A0093
:04183E004E614E00A9
:04184200494E4600C5
:02184600300070
:031848000D0A0086
:09184B005354415254494E470028
:031854000D0A007A
:101857005245414C2054454D50203A20202020200D
:0D18670020202020202020202020202000F4
:041874000000000070
:020000040030CA
:0E000000008C1F1EFF8381FF0FC00FE00F401A
:00000001FF
