:100000008AEF07F00000000000EF00F000000000A1
:0A0010000000000000000000F3D71C
:10001C000B840BAE19EF00F0010E036E026A016A3D
:0A002C00006A0A360232FF0E1200CD
:080036000AAE029E000E12004A
:0E003E00026A016A006A086A036A000E120074
:0E004C00ACB202D00000FCD7C0C0ADFF120065
:10005A00086A096A100E0C6E013408360936045013
:10006A00085E0550D8A0053C095ED8B007D00450F8
:10007A0008260550D8B0053C0926D8900036013626
:06008A000C2EEAD7120063
:100090000B820BAE52EF00F0036802680168006843
:0800A0000A360232FF0E1200C5
:1000A800C7B409D01F0EC514016E0150000A03E140
:0A00B800010E006E01D0006A120074
:1000C2000C6A0E6A0250D8A47AEF00F001C002F066
:1000D20000C001F0006A0E860250D8A47AEF00F048
:1000E20001C002F0016A0E960E880250D8B48CEF5D
:1000F20000F00E50035ED8A4D8A091EF00F0D89083
:1001020002BE96EF00F0003601360236032E81EF72
:1001120000F091EF00F0010E0C6E90DF99EF00F00D
:10012200020E0C6E7ADF99EF00F0040E0C6E82DF85
:020132001200B9
:100134000001BD6B050EBD5D0AE2BD51BB25E16E3C
:10014400000EBC21E26E200EE66EBD2BF3D7BD512E
:10015400BB25E16E000EBC21E26EE66ABD07BD510F
:10016400BB25BE6F000EBC21BF6F0A0E046E000ECD
:10017400056EB9C000F0BAC001F06DDF08C000F030
:1001840009C001F0300E0026BEC0E1FFBFC0E2FF8F
:1001940000C0E6FF0A0E046E000E056EB9C000F042
:1001A400BAC001F058DF00C0B9F001C0BAF0000EC7
:1001B400011802E1000E001801E102D0BD07CFD7FB
:0201C400120027
:1001C6000D6A086A0050D8B4000C04180A6E0ABEFC
:1001D6000D1E0B6A04AE02D0041E042A00AE02D025
:1001E600001E002A005004100A6E0ABE1FD00450DA
:1001F600085E003600340836045008260036060E1F
:100206000C6E00340836045000B0085E00A00826C4
:1002160000360C2EF6D700A008260BB015D00DAE72
:10022600000C001E002A081E082A000C04AE09D085
:1002360000BE04D00050086E006AF1D7006A002A9A
:10024600000C001E0B2AD3D7082A0450085CD8A439
:0E025600E6D7086A002A00AEE2D7FF0C1200BD
:10026400086A096A000E07620364B7EF01F00250DE
:1002740006180A6E075003267E0ED8A048EF01F038
:10028400035ED8B0BBEF01F04CEF01F0035ED8A0E1
:10029400BFEF01F0028E068E02C00EF001C00BF01B
:1002A40000C00DF000500402F4CF0CF00150050220
:1002B400F4CF00F0F3CF08F00402F3500C26F4500E
:1002C4000822000E00220D500502F3500C26F450B3
:1002D4000822000E002202500402F3500826F450B3
:1002E400002202500502016A000E0122F35000268A
:1002F400F45001220D500602F3500826F450002257
:10030400026A000E012202220B500602F35000265C
:10031400F4500122000E02220E500602F350012670
:10032400F450022202BE9FEF01F008360036013677
:1003340002360306D8B4BFEF01F0B2EF01F0D88063
:10034400800E08640030000E002201220222D8A090
:10035400B2EF01F0023201320032034ABBEF01F086
:100364000AAE029E000EC1EF01F0010E66DEC1EF7F
:1003740001F0020E8BDEC1EF01F0040E4DDE12001F
:10038400F250026EF29E0500FF6A0150FE6E0050AC
:08039400FD6E02BEF28E1200A4
:08039C000B6A0B86FF0E120034
:1003A4000A6A0350D8A40A800750D8A40A820A50C3
:1003B400D8B435EF02F0030AD8B4EEEF01F00AB076
:1003C400E9EF01F006AE33EF02F031EF02F002AED6
:1003D40031EF02F033EF02F00250800B0A6E029EFE
:1003E4000650800B069E0A18D8B4FFEF01F00A509D
:1003F400D8B431EF02F033EF02F00750035CD8B405
:1004040009EF02F0D8A025EF02F02BEF02F006501E
:10041400025CD8B413EF02F0D8A025EF02F02BEF62
:1004240002F00550015CD8B41DEF02F0D8A025EF0E
:1004340002F02BEF02F00450005CD8B435EF02F068
:10044400D8B02BEF02F00A52D8B433EF02F031EFF8
:1004540002F00A52D8B431EF02F033EF02F0D88040
:0E0464001200D8901200D880D8841200120026
:10047200B9C004F0BAC005F004C002F005C003F030
:10048200044A052ABBC000F0BCC001F00001BB4B0E
:10049200BC2B00C0E9FF01C0EAFF02C0E1FF03C0BC
:1004A200E2FFEECFE6FF02C0E9FF03C0EAFFEE5231
:0E04B20001E0E2D7B9C000F0BAC001F01200BC
:1004C000A80E0001A96F000EAA6F000EAB6F000E00
:1004D000AC6F380EA16F050EA26F000EA36F000E59
:1004E000A46FBC0E896F0E0E8A6F000E8B6F000E0C
:1004F0008C6FF60E8D6F0D0E8E6F5F0E8F6F000E70
:10050000906F300E816F0D0E826F5F0E836F000E45
:10051000846F2C0E856F0D0E866F000E876F000E98
:10052000886F939093928A908A9293809382C79EC9
:08053000C79C380EC66E1200D4
:1005380061C0AFF062C0B0F063C0B1F064C0B2F0A7
:100548000001AD6BAE6BAE51120802E1AD518E08E1
:1005580008E3A6DD005201E004D00001AD4BAE2B4C
:10056800F2D70001120EAE5D02E18F0EAD5D03E31E
:100578007B0E006E24D0C580C5A020D061516211C9
:10058800631164111AE0AF51B011B111B2110EE14B
:10059800A7C0E1FFA8C0E2FF050EE66EA5C000F007
:1005A800A6C001F0EBDE010E006E09D0010E0001BD
:1005B800AF5F000EB05BB15BB25BDED7006A1200C2
:1005C800320EC86E79DF030E0B6E8A0E0C6E550E56
:1005D8000D6E0D2EFED70C2EFCD70B2EFAD7000071
:0C05E80000000F0EC16EF19E816A12002F
:1005F4004C0E0001996F000E9A6FC00E9B6F000E97
:100604009C6FFF0E9D6FFF0E9E6F000E9F6F000E7E
:10061400A06FFF0E916FFF0E926F000E936F000E8E
:10062400946FFF0E956FFF0E966F000E976F000E7E
:10063400986FAC8A900EAB6E948E949C9EAA03D055
:08064400AECF00F0FBD712005D
:10064C000001606BADC0E9FFAEC0EAFFEECF5FF01A
:10065C005F50000A0EE05FC0C0F0F2DC0001602BBE
:10066C006051AD25E96E000EAE21EA6EEECF5FF063
:04067C00EFD71200A2
:100680000900F5CFE6FF0006FBE10106F9E11200E3
:100690000050086E0150006E016A026A036A0B6A1C
:1006A0000C6A960E036E0A6A00C001F008C000F0E2
:0806B000086A026A06DD12006F
:1006B8000001B36BB46BADC0B5F0AEC0B6F0800E40
:1006C800AE19006E800E005C02E1000EAD5D0BE21B
:1006D800010EB36F000EB46FAD510008B56FAEC018
:1006E800B6F0000EB657B5C0B9F0B6C0BAF0AFC094
:1006F800BBF0B0C0BCF01ADD060EB16F000EB26FD1
:10070800000E006EB251005C02E1B151000819E21E
:10071800B151AF25E16EB251B021E26E010EB15D6B
:10072800006E000EB259016E0050AF25E96E0150FF
:10073800B021EA6EEECFE6FF010EB15F000EB25BAC
:10074800DFD7AFC0E1FFB0C0E2FF200EE66EB351C5
:10075800B4111AE0B16BB26BB151AF25E96EB25169
:10076800B021EA6EEE50200A03E1B14BB22BF4D768
:10077800010EB15F000EB25BB151AF25E16EB2510F
:0A078800B021E26E2D0EE66E1200A5
:100792000001B76BB86BADC0B3F0AEC0B4F0AFC080
:1007A200B5F0B0C0B6F0B651FF0A08E1B551FF0A84
:1007B20005E1B451FF0A02E1B351FF0A0CE1B1C0F5
:1007C200B9F0B2C0BAF04E0EBB6F000EBC6F50DE75
:1007D200030E006EEBD1010E5F6EB5AF0ED0800E30
:1007E200B519006E00C0B5F05F2AB1C0E1FFB2C01A
:1007F200E2FF2D0EE66EB14BB22B000E006EB61963
:1008020008E10050B51905E10050B41902E1B351F5
:10081200000A0BE1B1C0B9F0B2C0BAF0520EBB6F20
:10082200000EBC6F25DE006AC1D1B651FF0A08E195
:10083200B551000A05E1B451000A02E1B351000AC0
:100842000CE1B1C0B9F0B2C0BAF05B0EBB6F000EE2
:10085200BC6F0EDE5FC000F0A9D1000E046E000E68
:10086200056E000E066E7F0E076EB3C000F0B4C0B8
:1008720001F0B5C002F0B6C003F093DD010ED8B0AE
:10088200000E006E00521BE0B3C000F0B4C001F0D5
:10089200B5C002F0B6C003F0000E046E000E056E85
:1008A200200E066E820E076EDCDC00C0B3F001C0C3
:1008B200B4F002C0B5F003C0B6F0B807CED7000E50
:1008C200046E000E056E200E066E820E076EB3C019
:1008D20000F0B4C001F0B5C002F0B6C003F061DDB3
:1008E200000ED8B0010E006E00521BE0B3C000F043
:1008F200B4C001F0B5C002F0B6C003F0CD0E046E74
:10090200CC0E056E4C0E066E7B0E076EAADC00C086
:10091200B3F001C0B4F002C0B5F003C0B6F0B82B1A
:10092200CED7FF0EB315086EFF0EB415096E7F0EFB
:10093200B5150A6E000EB6150B6E08C004F009C09C
:1009420005F00AC006F00BC007F004360490053625
:1009520006360736000EB315006E000EB415016E92
:10096200000EB515026EFF0EB615036E00C0B3F091
:1009720001C0B4F002C0B5F003C0B6F00450B31128
:10098200006E0550B411016E0650B511026E07508B
:10099200B611036E00C0B3F001C0B4F002C0B5F0EE
:1009A20003C0B6F07F0EB65D006E00C060F0010EAF
:1009B200B66F00C004F0B3C000F0B4C001F0B5C01F
:1009C20002F0B6C003F0045007E000360090013692
:1009D20002360336FF0FF8D700C0B3F001C0B4F0FF
:1009E20002C0B5F003C0B6F0B1C0E1FFB2C0E2FF91
:1009F200B651300FE66EB14BB22B800EB819006EB5
:100A0200800E010A005C08E3800E060A006E800E6A
:100A1200B819005C01E30AD0B1C0E1FFB2C0E2FF45
:100A22002E0EE66EB14BB22B010EB76F060E606F43
:100A32006051000A54E0B66BB3C000F0B4C001F0DC
:100A4200B5C002F0B6C003F000360090013602369F
:100A5200033600360090013602360336B3510026C3
:100A6200B4510122B5510222B651032200C0B3F0A3
:100A720001C0B4F002C0B5F003C0B6F0B3C000F0DC
:100A8200B4C001F0B5C002F0B6C003F00036009069
:100A920001360236033600C0B3F001C0B4F002C022
:100AA200B5F003C0B6F0B1C0E1FFB2C0E2FFB6518B
:100AB200300FE66EB14BB22BB751000A0EE1B80708
:100AC200B851000A0AE1B1C0E1FFB2C0E2FF2E0E46
:100AD200E66EB14BB22B010EB76F6007A9D7FF0EBE
:100AE200B125E96EFF0EB221EA6EEE50300A05E141
:100AF200010EB15F000EB25BF2D7FF0EB125E96EB7
:100B0200FF0EB221EA6EEE502E0A04E1010EB15F31
:100B1200000EB25BB851000A43E0B1C0E1FFB2C0BF
:100B2200E2FF650EE66EB14BB22B800EB819006E75
:100B3200800E000A005C0BE2B1C0E1FFB2C0E2FF2E
:100B42002D0EE66EB14BB22BB8510008B86FB8C08B
:100B520060F0800E090A006E800EB819005C0FE288
:100B62000A0E046E60C000F0E3EC00F0B1C0E1FFD9
:100B7200B2C0E2FF0050300FE66EB14BB22B0A0E4C
:100B8200046E60C000F0E3EC00F008C000F0B1C0F9
:100B9200E1FFB2C0E2FF0050300FE66EB14BB22B64
:0E0BA200B1C0E1FFB2C0E2FFE66A006A1200D5
:100BB0000450000A12E10550000A0FE10650000A35
:100BC0000CE10750000A09E1FF0E006EFF0E016EF6
:100BD0007F0E026EFF0E036EA8D0086A096A0750E6
:100BE000D8B483EF06F00350D8B488EF06F0025073
:100BF00006180A6E028E068E0E6A02C008F001C048
:100C00000CF000C00DF004500D5E0550D8A0053C5E
:100C10000C5E0650D8A0063C085E086A0C6A0D6A95
:100C2000D8A01AEF06F0D890023201320032083212
:100C3000010E0E6E0750035ED8A027EF06F07E0E61
:100C40000E240326D8B08DEF06F02DEF06F07E0EB1
:100C50000E240326D8A092EF06F0180E0B6E0D3668
:100C60000C3608360036013602360E360450005E69
:100C70000550D8A0053C015E0650D8A0063C025E97
:100C800006340E120EA048EF06F00D8053EF06F06A
:100C9000045000260550D8B0053C01260650D8B0B7
:100CA000062802260D900B2E2FEF06F079EF06F0A6
:100CB000D8900036013602360E360450005E0550DC
:100CC000D8A0053C015E0650D8A0063C025E063462
:100CD0000E10010B0D26D8B00C2AD8B4082AD8A4BF
:100CE00079EF06F008320C320D32032AD8B48DEFBA
:100CF00006F00AAE089E0850026E0C50016E0D50B0
:100D0000006E95EF06F0010ECEEC01F095EF06F0C7
:100D1000020E1FEC00F095EF06F0040E48EC00F018
:0C0D200095EF06F0080E0EEC00F012003B
:040D2C00C584120068
:100D30009E965FC0C9FF61C0ADF062C0AEF063C0F7
:100D4000AFF064C0B0F0C7A422D0000161516211BD
:100D5000631164111BE0AD51AE11AF11B0110FE181
:100D6000A7C0E1FFA8C0E2FF040EE66EA5C000F038
:100D7000A6C001F0C2EC01F0010E006E3BD0010EE6
:100D80000001AD5F000EAE5BAF5BB05BDCD761C056
:100D9000ADF062C0AEF063C0AFF064C0B0F09EB61C
:100DA00022D0000161516211631164111BE0AD5149
:100DB000AE11AF11B0110FE1A7C0E1FFA8C0E2FF73
:100DC000040EE66EA5C000F0A6C001F0C2EC01F072
:100DD000010E006E0FD0010E0001AD5F000EAE5B84
:100DE000AF5BB05BDCD7C5BC02D0006A03D0C58462
:060DF000020E006E12006D
:100DF60061C0ADF062C0AEF063C0AFF064C0B0F0E9
:100E06009E96C5869EB620D000016151621163117F
:100E1600641119E0AD51AE11AF11B0110DE1A7C0CB
:100E2600E1FFA8C0E2FF030EE66EA5C000F0A6C073
:100E360001F0C2EC01F008D0010E0001AD5F000E1A
:100E4600AE5BAF5BB05BDED7C9CF60F05F50000A28
:100E560002E1C58A01D0C59A9E96C58861C0ADF0EB
:100E660062C0AEF063C0AFF064C0B0F09EB620D0F2
:100E76000001615162116311641119E0AD51AE11A7
:100E8600AF11B0110DE1A7C0E1FFA8C0E2FF030E4C
:100E9600E66EA5C000F0A6C001F0C2EC01F008D0D5
:100EA600010E0001AD5F000EAE5BAF5BB05BDED73F
:060EB60060C000F0120014
:100EBC0061C0ADF062C0AEF063C0AFF064C0B0F022
:100ECC00C582C5A220D00001615162116311641169
:100EDC0019E0AD51AE11AF11B0110DE1A7C0E1FF9A
:100EEC00A8C0E2FF060EE66EA5C000F0A6C001F099
:100EFC00C2EC01F008D0010E0001AD5F000EAE5B3C
:080F0C00AF5BB05BDED7120001
:100F14003CEC0AF0B886020EB06E080EAF6EAC84DC
:100F2400FAEC02F0320EC86E60EC02F0E4EC02F06F
:100F34003C0EAD6F000EAE6F26EC03F0450EAD6FA8
:100F4400000EAE6F26EC03F0310EAD6F000EAE6FE7
:100F540026EC03F09CEC02F0D00E5F6EE7DE190E77
:100F64005F6EE4DE070E5F6EE1DEDEDE030E0B6E07
:100F74008A0E0C6E550E0D6E0D2EFED70C2EFCD760
:100F84000B2EFAD7000000009CEC02F0D00E5F6E2E
:100F9400CDDE6B0E5F6ECADE5F6AC8DEC5DE030E91
:100FA4000B6E8A0E0C6E550E0D6E0D2EFED70C2E8A
:100FB400FCD70B2EFAD7000000009CEC02F0D00EF8
:100FC4005F6EB4DE6C0E5F6EB1DE5F6AAFDEACDE08
:100FD400030E0B6E8A0E0C6E550E0D6E0D2EFED783
:100FE4000C2EFCD70B2EFAD7000000009CEC02F06C
:100FF400D00E5F6E9BDE1B0E5F6E98DE5F6A96DE20
:1010040093DE030E0B6E8A0E0C6E550E0D6E0D2EB6
:10101400FED70C2EFCD70B2EFAD7000000009CEC58
:1010240002F0D00E5F6E82DE1C0E5F6E7FDE5F6AA2
:101034007DDE7ADE030E0B6E8A0E0C6E550E0D6E7F
:101044000D2EFED70C2EFCD70B2EFAD70000000075
:101054009CEC02F0030E0B6E8A0E0C6E550E0D6E98
:101064000D2EFED70C2EFCD70B2EFAD70000000055
:10107400D00E5F6E5BDE380E5F6E58DE400E5F6E24
:1010840055DE52DE030E0B6E8A0E0C6E550E0D6E7F
:101094000D2EFED70C2EFCD70B2EFAD70000000025
:1010A4009CEC02F0D00E5F6E41DE200E5F6E3EDEE1
:1010B400010E5F6E3BDE38DE030E0B6E8A0E0C6E85
:1010C400550E0D6E0D2EFED70C2EFCD70B2EFAD717
:1010D400000000009CEC02F0D00E5F6E27DE3A0E9A
:1010E4005F6E24DE010E5F6E21DE1EDE030E0B6ECC
:1010F4008A0E0C6E550E0D6E0D2EFED70C2EFCD7DF
:101104000B2EFAD7000000009CEC02F0D00E5F6EAC
:101114000DDE1A0E5F6E0ADE5F6A08DE05DE030E60
:101124000B6E8A0E0C6E550E0D6E0D2EFED70C2E08
:10113400FCD70B2EFAD7000000009CEC02F0D00E76
:101144005F6EF4DD6C0E5F6EF1DD600E5F6EEEDDE2
:10115400EBDD030E0B6E8A0E0C6E550E0D6E0D2E0E
:10116400FED70C2EFCD70B2EFAD7000000009CEC07
:1011740002F0D00E5F6EDADD6B0E5F6ED7DD100EFF
:101184005F6ED4DDD1DD030E0B6E8A0E0C6E550E30
:101194000D6E0D2EFED70C2EFCD70B2EFAD70000A9
:1011A4000000060E0B6E130E0C6EAD0E0D6E0D2EA2
:1011B400FED70C2EFCD70B2EFAD700000000340EFD
:1011C4000001AD6F000EAE6F26EC03F04B0EAD6F59
:1011D400000EAE6F26EC03F09CEC02F0D00E5F6EB6
:1011E400A5DD3D0E5F6EA2DD67DED10E5F6E9EDD76
:1011F4005F6AFFDD00C07FF0000E0001806F94DDA8
:10120400030E0B6E8A0E0C6E550E0D6E0D2EFED750
:101214000C2EFCD70B2EFAD7000000007FC0ADF0D7
:1012240080C0AEF06B0EAF6F000EB06F5CEC03F0DD
:101234006B0EAD6F000EAE6F26EC03F0480EAD6F73
:10124400000EAE6F26EC03F09CEC02F0D00E5F6E45
:101254006DDD3E0E5F6E6ADD2FDED10E5F6E66DDE4
:101264005F6AC7DD00C069F0000E00016A6F5CDDD3
:10127400030E0B6E8A0E0C6E550E0D6E0D2EFED7E0
:101284000C2EFCD70B2EFAD70000000069C0ADF07D
:101294006AC0AEF06B0EAF6F000EB06F5CEC03F083
:1012A4006B0EAD6F000EAE6F26EC03F01B0EAD6F30
:1012B400000EAE6F26EC03F01E0EAD6F000EAE6F87
:1012C40026EC03F0150EAD6F000EAE6F26EC03F0A6
:1012D4007FC001F0006A00C07FF001C080F0695156
:1012E40000126A51011200C07FF001C080F0001E9C
:1012F400011E00C07FF001C080F0010E0010026EDC
:1013040001C003F0000E031202C07FF003C080F09E
:10131400800E035C02E1000E025C04E3FF0E7F1703
:10132400FF0E80177FC0ADF080C0AEF06B0EAF6FC4
:10133400000EB06F5CEC03F06B0EAD6F000EAE6F81
:1013440026EC03F0180EAD6F000EAE6F26EC03F022
:101354002B0EAD6F000EAE6F26EC03F02E0EAD6FAC
:10136400000EAE6F26EC03F07FC000F080C001F0E9
:1013740048EC03F000C065F001C066F002C067F0FD
:1013840003C068F0000E046E000E056E000E066EBB
:10139400800E076E32EC01F0000E046E040E056E32
:1013A400000E066E8D0E076E01DC00C065F001C0F4
:1013B40066F002C067F003C068F000C0ADF001C081
:1013C400AEF002C0AFF003C0B0F06B0E0001B16F1D
:1013D400000EB26FC9EC03F0210EAD6F000EAE6FBC
:1013E40026EC03F06B0EAD6F000EAE6F26EC03F02F
:1013F400540EAD6F000EAE6F26EC03F0580EAD6FB9
:10140400000EAE6F26EC03F01A0E0B6E5E0E0C6E21
:101414006E0E0D6E0D2EFED70C2EFCD70B2EFAD7AA
:061424000000CDD6FFD749
:1014780010EE15F04A0E006E010E016E2A0EF66E81
:10148800140EF76E000EF86E40EC03F010EE61F0EB
:10149800040E006E010E016E740EF66E140EF76ED9
:0A14A800000EF86E40EC03F0120095
:03142A000D0A00A8
:03142D000D0A00A5
:031430000D0A00A2
:031433000D0A009F
:0A143600414343454C20593A200081
:031440000D0A0092
:031443000D0A008F
:031446000D0A008C
:08144900676F206177617900F3
:091451005354415254494E470026
:03145A000D0A0078
:03145D000D0A0075
:031460000D0A0072
:041463004E614E0088
:02146700300053
:04146900B04320006C
:03146D000D0A0065
:04147000494E46009B
:041474000000000074
:020000040030CA
:0E000000008C1F1EFF8381FF0FC00FE00F401A
:00000001FF
