:100000004DEF03F00000000000EF00F000000000E2
:0A0010000000000000000000F3D71C
:0E001C00ACB202D00000FCD7A4C0ADFF1200B1
:10002A00086A096A100E0C6E013408360936045043
:10003A00085E0550D8A0053C095ED8B007D0045028
:10004A0008260550D8B0053C0926D8900036013656
:06005A000C2EEAD7120093
:10006000C7B409D01F0EC514016E0150000A03E188
:0A007000010E006E01D0006A1200BC
:10007A00600E00017F6F000E806F000E816F000E10
:10008A00826F6E0E876F040E886F000E896F000EE6
:10009A008A6F620E8F6F050E906F000E916F000EC1
:1000AA00926F920E8B6F020E8C6F5F0E8D6F000E29
:1000BA008E6F540E7B6F030E7C6F5F0E7D6F000E8A
:1000CA007E6F5E0E6B6F050E6C6F000E6D6F000E0D
:1000DA006E6F939093928A908A9293809382C79E2E
:0800EA00C79C380EC66E12001F
:1000F2000001A16B050EA15D0AE2A1519F25E16EEF
:10010200000EA021E26E200EE66EA12BF3D7A151C4
:100112009F25E16E000EA021E26EE66AA107A151C1
:100122009F25A26F000EA021A36F0A0E046E000E7F
:10013200056E9DC000F09EC001F076DF08C000F0A1
:1001420009C001F0300E0026A2C0E1FFA3C0E2FF09
:1001520000C0E6FF0A0E046E000E056E9DC000F0A0
:100162009EC001F061DF00C09DF001C09EF0000E54
:10017200011802E1000E001801E102D0A107CFD759
:02018200120069
:10018400F250026EF29E0500FF6A0150FE6E0050AE
:08019400FD6E02BEF28E1200A6
:10019C000B800BAEDAEF00F0026A0AAEFF0E026EB5
:0C01AC00016E006E0A360232FF0E1200D7
:1001B8000001996B9A6B93C09BF094C09CF0800EE1
:1001C8009419006E800E005C02E1000E935D0BE254
:1001D800010E996F000E9A6F935100089B6F94C09F
:1001E8009CF0000E9C579BC09DF09CC09EF095C053
:1001F8009FF096C0A0F079DF060E976F000E986FFB
:10020800000E006E9851005C02E19751000819E257
:1002180097519525E16E98519621E26E010E975DF2
:10022800006E000E9859016E00509525E96E015038
:100238009621EA6EEECFE6FF010E975F000E985BFF
:10024800DFD795C0E1FF96C0E2FF200EE66E995118
:100258009A111AE0976B986B97519525E96E98510A
:100268009621EA6EEE50200A03E1974B982BF4D7BB
:10027800010E975F000E985B97519525E16E985196
:0A0288009621E26E2D0EE66E1200C4
:1002920045C093F046C094F047C095F048C096F030
:1002A2009E96C5869EB61FD04550461047104810F0
:1002B20019E0000193519411951196110CE185C03A
:1002C200E1FF86C0E2FF030EE66E83C000F084C049
:1002D20001F057DF08D0010E0001935F000E945B1E
:1002E200955B965BDFD7C9CF60F05F50000A02E1F1
:1002F200C58A01D0C59A9E96C58845C093F046C06E
:1003020094F047C095F048C096F09EB61FD0455075
:1003120046104710481019E00001935194119511AD
:1003220096110CE185C0E1FF86C0E2FF030EE66E86
:1003320083C000F084C001F024DF08D0010E000168
:10034200935F000E945B955B965BDFD760C000F015
:02035200120097
:100354009E965FC0C9FF45C093F046C094F047C065
:1003640095F048C096F0C7A421D0455046104710D8
:1003740048101BE0000193519411951196110EE160
:1003840085C0E1FF86C0E2FF040EE66E83C000F084
:1003940084C001F0F5DE010E006E3AD0010E0001BA
:1003A400935F000E945B955B965BDDD745C093F03D
:1003B40046C094F047C095F048C096F09EB621D050
:1003C40045504610471048101BE00001935194110A
:1003D400951196110EE185C0E1FF86C0E2FF040E7F
:1003E400E66E83C000F084C001F0CADE010E006E28
:1003F4000FD0010E0001935F000E945B955B965B3A
:10040400DDD7C5BC02D0006A03D0C584020E006EDD
:020414001200D4
:100416001C0E0001676F000E686FA40E696F000E58
:100426006A6FFF0E6F6FFF0E706F000E716F000E1A
:10043600726FFF0E776FFF0E786F000E796F000EEA
:100446007A6FFF0E736FFF0E746F000E756F000EDE
:10045600766FAC8A900EAB6E948E949C9EAA03D057
:08046600AECF00F0FBD712003D
:10046E0045C095F046C096F047C097F048C098F04A
:10047E000001936B946B9451120802E193518E0814
:10048E0008E3E7DD005201E004D00001934B942B0A
:10049E00F2D70001120E945D02E18F0E935D03E31D
:1004AE007B0E006E24D0C580C5A020D045504610CE
:1004BE00471048101AE095519611971198110EE1B8
:1004CE0085C0E1FF86C0E2FF050EE66E83C000F038
:1004DE0084C001F050DE010E006E09D0010E000145
:1004EE00955F000E965B975B985BDED7006A1200F5
:1004FE00320EC86EBBDD030E0B6E8A0E0C6E550EE1
:10050E000D6E0D2EFED70C2EFCD70B2EFAD700003B
:0C051E0000000F0EC16EF19E816A1200F9
:10052A000001606B93C0E9FF94C0EAFFEECF5FF071
:10053A005F50000A0EE05FC0A4F06BDD0001602B83
:10054A0060519325E96E000E9421EA6EEECF5FF0BA
:04055A00EFD71200C5
:04055E00C58412003E
:1005620045C093F046C094F047C095F048C096F05D
:10057200C582C5A21FD0455046104710481019E049
:10058200000193519411951196110CE185C0E1FF80
:1005920086C0E2FF060EE66E83C000F084C001F062
:1005A200F0DD08D0010E0001935F000E945B955BB5
:0605B200965BDFD712008A
:1005B8000900F5CFE6FF0006FBE10106F9E11200AC
:1005C8000B6A0350D8B42AEF03F002500A6E028E69
:1005D8008E0E035E03AE2EEF03F0036C080E035C71
:1005E800D8A009EF03F0036E013602C001F0026AD9
:1005F800080E035CD8A009EF03F0036E0136016A08
:100608000350D8A4D89013EF03F00350D8B413EFD5
:1006180003F0D89002320132032E0DEF03F00BBC29
:1006280001A020EF03F0D8A020EF03F0012AD8B4EE
:10063800022A02BE3DEF03F00AAE42EF03F0021EAB
:10064800011E012AD8B4022A42EF03F0026A016AA5
:1006580042EF03F00B800BAE46EF03F0026A0AAEDE
:1006680046EF03F0FF0E026E016E0A36023246EFC5
:1006780003F0010E0C6E8EDD48EF03F0000E0C6ED9
:1006880048EF03F0FF0E0C6E0150006E0250016E31
:0206980012004E
:10069A00B7EC04F0B886020EB06E080EAF6EAC84EA
:1006AA00B5DE320EC86EE4DC25DFDCDE030E0B6E2F
:1006BA008A0E0C6E550E0D6E0D2EFED70C2EFCD723
:1006CA000B2EFAD700000000D00E5F6E3EDE190E28
:1006DA005F6E3BDE070E5F6E38DE3CDF030E0B6E8D
:1006EA008A0E0C6E550E0D6E0D2EFED70C2EFCD7F3
:1006FA000B2EFAD700000000B5DED00E5F6E25DEA5
:10070A001A0E5F6E22DE5F6A20DE24DF030E0B6E96
:10071A008A0E0C6E550E0D6E0D2EFED70C2EFCD7C2
:10072A000B2EFAD7000000009DDED00E5F6E0DDEA4
:10073A006B0E5F6E0ADE010E5F6E07DE0BDF030EC5
:10074A000B6E8A0E0C6E550E0D6E0D2EFED70C2EEC
:10075A00FCD70B2EFAD70000000084DED00E5F6EA5
:10076A00F4DD1B0E5F6EF1DD5F6AEFDDF3DE030E73
:10077A000B6E8A0E0C6E550E0D6E0D2EFED70C2EBC
:10078A00FCD70B2EFAD7000000006CDED00E5F6E8D
:10079A00DCDD1C0E5F6ED9DD5F6AD7DDDBDE030EA2
:1007AA000B6E8A0E0C6E550E0D6E0D2EFED70C2E8C
:1007BA00FCD70B2EFAD70000000054DED00E5F6E75
:1007CA00C4DD410E5F6EC1DDC7DED10E5F6EBDDDD9
:1007DA005F6A5ADD00C065F0000E0001666FBADE7E
:1007EA00030E0B6E8A0E0C6E550E0D6E0D2EFED775
:1007FA000C2EFCD70B2EFAD70000000065C0A4F01F
:10080A0008DC30DED00E5F6EA0DD420E5F6E9DDD2D
:10081A00A3DED10E5F6E99DD5F6A36DD00C05DF042
:10082A00000E5E6E97DE5DC0A4F00EEC00F00D0EB9
:10083A000B6EAF0E0C6EB60E0D6E0D2EFED70C2E75
:10084A00FCD70B2EFAD700003C0E0001936F000E66
:10085A00946F66DE420E936F000E946F61DE3F0E58
:10086A00936F000E946F5CDE65C066F0656B5D5039
:10087A0065135E50661365516611010ED8A4000E09
:10088A00656F000E666F010E6511016E66C002F09B
:10089A00000E021201C065F002C066F0800E025C12
:1008AA0002E1000E015C04E3FF0E6517FF0E6617F6
:1008BA0065C0A4F00EEC00F0390E0001936F000E33
:1008CA00946F2EDE61C000F062C001F063C002F0D6
:1008DA0064C003F074DE00C093F001C094F0490EC6
:1008EA00956F000E966F63DC150E936F000E946F72
:1008FA0017DE490E936F000E946F12DE350E936F5A
:10090A00000E946F0DDE320E936F000E946F08DEA8
:10091A007F0E0B6ED40E0C6E310E0D6E0D2EFED7A1
:10092A000C2EFCD70B2EFAD70000000046D7FFD7B3
:10096E0010EE15F0340E006E010E016E3A0EF66E9C
:0E097E00090EF76E000EF86EDCEC02F01200AF
:10093A0054656D702066696E616C203A2020202013
:0D094A002020202020202020202020200020
:030957000D0A0086
:04095A00B043200086
:03095E000D0A007F
:030961000D0A007C
:030964000D0A0079
:030967000D0A0076
:04096A000000000089
:020000040030CA
:0E000000008C1F1EFF8381FF0FC00FE00F401A
:00000001FF
