:0400000029EF00F0F4
:100008000BC017F00CC016F00DC015F0F2A216D0F8
:10001800F292181E191E89721A0E0B6E5E0E0C6E65
:100028006E0E0D6E0D2EFED70C2EFCD70B2EFAD7AA
:100038000000899018501910D8A4030017C00BF0BD
:0A00480016C00CF015C00DF01100F9
:10005200799E789E0F0EC16E926A9380D39EF18C28
:10006200F282F288D08EF28EF28CF0888990899298
:100072001A0E0B6E5E0E0C6E6E0E0D6E0D2EFED7F0
:100082000C2EFCD70B2EFAD70000186A196A897059
:100092001A0E0B6E5E0E0C6E6E0E0D6E0D2EFED7D0
:1000A2000C2EFCD70B2EFAD7000089701A0E0B6E9D
:1000B2005E0E0C6E6E0E0D6E0D2EFED70C2EFCD744
:0A00C2000B2EFAD70000E3D7FFD79A
:020000040030CA
:0D000100231F3CFFBF81FF0FC00FE00F4029
:00000001FF
