:10000000DCEF03F00000000000EF00F00000000053
:0A0010000000000000000000F3D71C
:0E001C00ACB202D00000FCD7E4C0ADFF120071
:10002A00C7B409D01F0EC514016E0150000A03E1BE
:0A003A00010E006E01D0006A1200F2
:10004400F250026EF29E0500FF6A0150FE6E0050EF
:08005400FD6E02BEF28E1200E7
:10005C009E96DEC0C9FF70C0DFF071C0E0F072C0C8
:10006C00E1F073C0E2F0C7A421D00001705171110E
:10007C00721173111AE0DF51E011E111E2110EE17E
:10008C00BEC0E1FFBFC0E2FF040EE66EBCC000F0D4
:10009C00BDC001F0D1DF010E006E3AD0010E00019F
:1000AC00DF5F000EE05BE15BE25BDDD770C0DFF091
:1000BC0071C0E0F072C0E1F073C0E2F09EB621D0E6
:1000CC00000170517111721173111AE0DF51E011BE
:1000DC00E111E2110EE1BEC0E1FFBFC0E2FF040E70
:1000EC00E66EBCC000F0BDC001F0A6DF010E006ED4
:1000FC000FD0010E0001DF5F000EE05BE15BE25B05
:10010C00DDD7C5BC02D0006A03D0C584020E006ED8
:02011C001200CF
:10011E00086A080E0C6E003408360450085ED8B01B
:0E012E0002D00826D89000360C2EF5D712000D
:10013C0070C0E0F071C0E1F072C0E2F073C0E3F0A7
:10014C000001DE6BDF6BDF51120802E1DE518E081D
:10015C0008E365DF005201E004D00001DE4BDF2B29
:10016C00F2D70001120EDF5D02E18F0EDE5D03E3BC
:10017C007B0E006E24D0C580C5A020D070517111AB
:10018C00721173111AE0E051E111E211E3110EE169
:10019C00BEC0E1FFBFC0E2FF050EE66EBCC000F0C2
:1001AC00BDC001F049DF010E006E09D0010E000147
:1001BC00E05F000EE15BE25BE35BDED7006A1200FE
:0401CC00C5841200D4
:1001D00070C0D8F071C0D9F072C0DAF073C0DBF033
:1001E000C582C5A21FD00001705171117211731127
:1001F00018E0D851D911DA11DB110CE1BEC0E1FFD2
:10020000BFC0E2FF060EE66EBCC000F0BDC001F04C
:1002100019DF08D0010E0001D85F000ED95BDA5B50
:06022000DB5BDFD71200DA
:100226002A0E0001C06F000EC16F000EC26F000ED5
:10023600C36F3C0EB86F010EB96F000EBA6F000E99
:10024600BB6FD00EA06F010EA16F000EA26F000E45
:10025600A36FE80EA46F020EA56FD80EA66F000E50
:10026600A76F5C0E986F000E996FDE0E9A6F000EE8
:100276009B6FCC0E9C6F010E9D6F000E9E6F000E45
:100286009F6F939093928A908A9293809382C79E4F
:08029600C79C380EC66E120071
:10029E000001D96BD85109081BE20A0E046ED8C0B2
:1002AE0000F036DF00C0D9F000C0D9F0D937D991AF
:1002BE00D937D991D937D991D937D9910A0E046E38
:1002CE00D8C000F025DF08C000F00050D91302D0CE
:0A02DE00D8C0D9F0D9C000F012001A
:1002E80070C0DAF071C0DBF072C0DCF073C0DDF012
:1002F8009E96C5869EB61FD000017051711172116D
:10030800731118E0DA51DB11DC11DD110CE1BEC00C
:10031800E1FFBFC0E2FF030EE66EBCC000F0BDC047
:1003280001F08CDE08D0010E0001DA5F000EDB5B05
:10033800DC5BDD5BDFD70001C9CFD9F0D851000AFB
:1003480002E1C58A01D0C59A9E96C58870C0DAF0C8
:1003580071C0DBF072C0DCF073C0DDF09EB61ED059
:10036800705171117211731118E0DA51DB11DC113F
:10037800DD110CE1BEC0E1FFBFC0E2FF030EE66E77
:10038800BCC000F0BDC001F059DE08D0010E00016C
:10039800DA5F000EDB5BDC5BDD5BE0D7D9C000F029
:0203A800120041
:1003AA000134083609360450085E0550D8A0053CC9
:1003BA00095E003601360F0E0C6E01340836093616
:1003CA00045000A006D0085E0550D8A0053C095E7E
:1003DA0005D008260550D8B0053C09260036013656
:1003EA000C2EEBD700B006D0045008260550D8B022
:0803FA00053C09260000120079
:100402009CDED8C0DEF029DED9C0DEF026DEDAC0FE
:08041200DEF023DEDADE120049
:10041A000001DB6BD8C0E9FFD9C0EAFFEECFDAF002
:10042A00DA51000A0EE0DAC0E4F0F3DD0001DB2B5A
:10043A00DB51D825E96E000ED921EA6EEECFDAF04B
:04044A00EFD71200D6
:10044E0076DEC6C0DEF003DEC7C0DEF000DEB9DE4B
:10045E000001C651010FDE6FFADD0001D86B3DDFE2
:10046E0000C0C8F0000E0001C96FA9DEC8C000F0C0
:06047E00C9C001F01200EC
:100484000900F5CFE6FF0006FBE10106F9E11200E1
:10049400320EC86EC6DE030E0B6E8A0E0C6E550E3F
:1004A4000D6E0D2EFED70C2EFCD70B2EFAD70000A6
:0C04B40000000F0EC16EF19E816A120064
:1004C0001C0E0001B06F000EB16FE40EB26F000E93
:1004D000B36FFF0EB46FFF0EB56F000EB66F000E58
:1004E000B76FFF0EA86FFF0EA96F000EAA6F000E68
:1004F000AB6FFF0EAC6FFF0EAD6F000EAE6F000E58
:10050000AF6FAC8A900EAB6E948E949C9EAA03D073
:08051000AECF00F0FBD7120092
:100518000450000A08E10550000A05E1FF0E006ECC
:100528007F0E016E57D00D6A096A086A01500010E3
:10053800D8B4000C015005180A6E0ABE0D1E0B6ACD
:1005480005AE05D0041E051E042AD8B4052A01AE3E
:1005580005D0001E011E002AD8B4012A015005103A
:100568000A6E0ABE10D01DDF0BB020D00DAE000CF5
:10057800001E011E002AD8B4012A081E091E082AD6
:10058800D8B4092A000C05AE0DD001BE07D0015021
:10059800096E0050086E016A006AE8D7016A006AAD
:1005A800002A000C011E001E0B2ADDD7082AD8B429
:1005B800092A0450085CD8A4D9D70550095CD8A4E6
:1005C800D5D7096A086A002AD8B4012A01AECED75D
:0605D8000000FF0C120000
:1005DE00C6C000F00032009E0032009E0032009E27
:1005EE000032009E0A0E0002F3CF01F00F0E000142
:0A05FE00C615006E01500026120021
:10060800C6C0D8F048DE00C0C6F0000EC76FC8C02C
:10061800D8F041DE00C0C8F0000EC96FCAC0D8F0DB
:100628003ADE00C0CAF0000ECB6FCCC0D8F033DE83
:1006380000C0CCF0000ECD6FCEC0D8F02CDE00C0CC
:10064800CEF0000ECF6FD0C0D8F025DE00C0D0F0BD
:10065800000ED16FD2C0D8F01EDE00C0D2F0000E5E
:10066800D36FD4C0D8F017DE00C0D4F0000ED56F19
:100678008B0ED86F000ED96FCCDE830ED86F000EAC
:10068800D96FC7DE070ED66F000ED76F800E006ECB
:10069800800ED719005C02E1D6510E08D8A07DD093
:1006A80047D0D00ED86FD6C0D9F0C6C0DAF0A5DED4
:1006B80070D0D00E0001D86FD6C0D9F0C8C0DAF01B
:1006C8009CDE67D0D00E0001D86FD6C0D9F0CAC062
:1006D800DAF093DE5ED0D00E0001D86FD6C0D9F024
:1006E800CCC0DAF08ADE55D0D00E0001D86FD6C063
:1006F800D9F0CEC0DAF081DE4CD0D00E0001D86F30
:10070800D6C0D9F0D0C0DAF078DE43D0D00E0001E0
:10071800D86FD6C0D9F0D2C0DAF06FDE3AD0D00E9A
:100728000001D86FD6C0D9F0D4C0DAF066DE31D077
:10073800000E0001D71902E1070ED619B2E0000E2B
:10074800D71902E1080ED619B4E0000ED71902E154
:10075800090ED619B7E0000ED71902E10A0ED6190C
:10076800BAE0000ED71902E10B0ED619BDE0000E53
:10077800D71902E10C0ED619C0E0000ED71902E114
:100788000D0ED619C3E0000ED71902E10E0ED619C8
:10079800C6E00001D64BD72B79D7740ED86F000E60
:1007A800D96F37DE7B0ED86F000ED96F32DE12009C
:1007B80086EC06F033C0C4F034C0C5F067DEB886F6
:1007C800020EB06E080EAF6EAC8476DE030E0B6EB2
:1007D8008A0E0C6E550E0D6E0D2EFED70C2EFCD704
:1007E8000B2EFAD700000000350ED86F000ED96F17
:1007F80010DE2FC0C6F030C0C7F031C0C8F032C01C
:10080800C9F045C0CAF046C0CBF047C0CCF048C0DC
:10081800CDF041C0CEF042C0CFF043C0D0F044C0CC
:10082800D1F02DC0D2F02EC0D3F0C4C0D4F0C5C0D2
:10083800D5F0E6DED00EC66FC76B05DE00C019F036
:1008480001C01AF0D00EC66F010EC76FFCDD00C0E4
:100858001BF001C01CF0D00EC66F020EC76FF3DD8F
:1008680000C015F001C016F0D00EC66F030EC76F9A
:10087800EADD00C017F001C018F0D00EC66F040EF4
:10088800C76FE1DD00C033F001C034F0D00EC66F91
:10089800050EC76FD8DD00C029F001C02AF0D00EC0
:1008A800C66F060EC76FCFDD00C02BF001C02CF05D
:1008B800D00EC66F070EC76FC6DD00C02FF001C08F
:1008C80030F0D00EC66F080EC76FBDDD00C031F026
:1008D80001C032F0D00EC66F090EC76FB4DD00C07C
:1008E80045F001C046F019C0C6F075DE00C019F029
:1008F800000E1A6E1BC0C6F06EDE00C01BF0000EA4
:100908001C6E15C0C6F067DE00C015F0000E166E2E
:1009180017C0C6F060DE00C017F0000E186E33C0B6
:10092800C6F059DE00C033F0000E346E29C0C6F0A0
:1009380052DE00C029F0000E2A6E2BC0C6F04BDE36
:1009480000C02BF0000E2C6E2FC0C6F044DE00C095
:100958002FF0000E306E31C0C6F03DDE00C031F021
:10096800000E326E45C0C6F036DE00C045F0000EFF
:10097800466E1D0ED86F000ED96F4BDD0A0E046E41
:10098800000E056E15C000F016C001F0C1DD300E76
:1009980000240001E46F0EEC00F00A0E046E000E55
:1009A800056E15C000F016C001F0B2DD08C000F0F9
:1009B80009C001F0300E00240001E46F0EEC00F0D5
:1009C8003A0E0001E46F0EEC00F00A0E046E000E01
:1009D800056E1BC000F01CC001F09ADD300E00242B
:1009E8000001E46F0EEC00F00A0E046E000E056EB6
:1009F8001BC000F01CC001F08BDD08C000F009C06E
:100A080001F0300E00240001E46F0EEC00F03A0E05
:100A18000001E46F0EEC00F00A0E046E000E056E85
:100A280019C000F01AC001F073DD300E0024000177
:100A3800E46F0EEC00F00A0E046E000E056E19C08D
:100A480000F01AC001F064DD08C000F009C001F030
:100A5800300E00240001E46F0EEC00F0240E0001BB
:100A6800D86F000ED96FD5DC5B0ED86F000ED96F2A
:100A7800D0DC0A0E046E000E056E33C000F034C0E0
:100A880001F046DD300E00240001E46F0EEC00F0AA
:100A98000A0E046E000E056E33C000F034C001F07B
:100AA80037DD08C000F009C001F0300E0024000155
:100AB800E46F0EEC00F02D0E0001E46F0EEC00F078
:100AC8000A0E046E000E056E29C000F02AC001F05F
:100AD8001FDD300E00240001E46F0EEC00F00A0E5A
:100AE800046E000E056E29C000F02AC001F010DD6A
:100AF80008C000F009C001F0300E00240001E46FC6
:100B08000EEC00F02D0E0001E46F0EEC00F00A0E62
:100B1800046E000E056E2BC000F02CC001F0F8DC4E
:100B2800300E00240001E46F0EEC00F00A0E046E93
:100B3800000E056E2BC000F02CC001F0E9DC08C0E7
:100B480000F009C001F0300E00240001E46F0EEC43
:100B580000F0630E0001D86F000ED96F5ADC490E01
:100B6800D86F000ED96F55DC0A0E046E000E056EA4
:100B780045C000F046C001F0CBDC300E0024000177
:100B8800E46F0EEC00F00A0E046E000E056E45C010
:100B980000F046C001F0BCDC08C000F009C001F05C
:100BA800300E00240001E46F0EEC00F03A0E000154
:100BB800E46F0EEC00F00A0E046E000E056E31C0F4
:100BC80000F032C001F0A4DC300E00240001E46F14
:100BD8000EEC00F00A0E046E000E056E31C000F037
:100BE80032C001F095DC08C000F009C001F0300EF9
:100BF80000240001E46F0EEC00F03A0E0001E46FEF
:100C08000EEC00F00A0E046E000E056E2FC000F008
:100C180030C001F07DDC300E00240001E46F0EECE2
:100C280000F00A0E046E000E056E2FC000F030C0F2
:100C380001F06EDC08C000F009C001F0300E00249D
:100C48000001E46F0EEC00F0530E0001D86F000EA7
:100C5800D96F0DEC02F0680ED86F000ED96F0DEC4D
:100C680002F01A0E0B6E5E0E0C6E6E0E0D6E0D2ED1
:100C7800FED70C2EFCD70B2EFAD70000DBD5FFD7FA
:100D0C0010EE15F0830E006E010E016E880EF66E5D
:0E0D1C000C0EF76E000EF86E42EC02F01200A4
:020C88000E005C
:020C8A00040064
:020C8C00000066
:020C8E00300034
:070C9000484F52413A2000D9
:050C97002020202000D8
:020C9C0008004E
:020C9E00130041
:020CA000000052
:020CA200500000
:020CA4000F003F
:020CA600080044
:0C0CA8004269656E76656E69646F20001D
:020CB40000003E
:020CB60000003C
:020CB8008000BA
:020CBA008000B8
:0A0CBC00416C61726D61313A200055
:080CC6000D0A2020200D0A0098
:080CCE0046454348413A20006D
:050CD600202020200099
:080CDB000D0A2020200D0A0083
:040CE300000000000D
:070CE70066696E6973680085
:080CEE000D0A2020200D0A0070
:080CF6000D0A2020200D0A0068
:0D0CFE00436F6E6669677572616E646F000A
:020000040030CA
:0E000000000C1F1EFF8381FF0FC00FE00F409A
:00000001FF
