:1000000016EF00F00000000000EF00F0000000001C
:0A0010000000000000000000F3D71C
:10001C000900F5CFE6FF0006FBE10106F9E112004D
:10002C00956A926A010E936ED36A400EF16EF26A73
:10003C00010EF26E130EF26E156A166A020E806EC7
:10004C001550161010E1891E080E0B6E9D0E0C6ECD
:10005C00050E0D6E0D2EFED70C2EFCD70B2EFAD7DF
:0A006C0000000000EDD7F294FFD76A
:020000040030CA
:0E000000000B1F1EFF8280FF0FC00FE00F409D
:00000001FF
